:020000040800F2
:1000000000800120FD3C00084D3D00084D3D0008EA
:100010004D3D00084D3D00084D3D0008000000002A
:100020000000000000000000000000004D3D00083E
:100030004D3D0008000000004D3D000881190008FA
:100040004D3D00084D3D00084D3D00084D3D000868
:100050004D3D00084D3D00084D3D00084D3D000858
:100060004D3D00084D3D00084D3D00087D1600083F
:100070004D3D00084D3D00084D3D00084D3D000838
:100080004D3D00084D3D00088D1900084D3D00080C
:100090004D3D00084D3D00084D3D00084D3D000818
:1000A0004D3D00084D3D00084D3D00084D3D000808
:1000B0004D3D00084D3D00084D3D00084D3D0008F8
:1000C0004D3D00084D3D00084D3D00084D3D0008E8
:1000D0004D3D00084D3D00084D3D00084D3D0008D8
:1000E0004D3D00084D3D00084D3D00084D3D0008C8
:1000F0004D3D00084D3D00084D3D00084D3D0008B8
:100100004D3D00084D3D00084D3D00084D3D0008A7
:100110004D3D00084D3D00084D3D00084D3D000897
:100120004D3D00084D3D00084D3D00084D3D000887
:100130004D3D00084D3D00084D3D00084D3D000877
:100140004D3D00084D3D00084D3D00084D3D000867
:100150004D3D00084D3D00084D3D00084D3D000857
:100160004D3D00084D3D00084D3D00084D3D000847
:100170004D3D00084D3D00084D3D000800000000C9
:080180004D3D00084D3D000853
:10019000034613F8012B002AFBD1181A01387047C7
:1001A00001F0FF01102A2BDB10F0070F08D010F828
:1001B000013B013A8B422DD010F0070F42B3F6D12C
:1001C000F0B441EA012141EA014122F007047FF045
:1001D00000070023F0E80256083C85EA010586EA9C
:1001E000010685FA47F5A3FA87F586FA47F6A5FAD8
:1001F00087F68EB9EED1F0BC01F0FF0102F00702E4
:1002000032B110F8013B013A83EA010313B1F8D18E
:100210000020704701387047002D06BF354603386F
:10022000073815F0010F07D1013015F4807F02BFA8
:10023000013015F4C03F0130F0BC0138704700BFF9
:1002400081F0004102E000BF83F0004330B54FEA87
:1002500041044FEA430594EA050F08BF90EA020FF4
:100260001FBF54EA000C55EA020C7FEA645C7FEA87
:10027000655C00F0E2804FEA5454D4EB5555B8BFAA
:100280006D420CDD2C4480EA020281EA030382EA1B
:10029000000083EA010180EA020281EA0303362DAD
:1002A00088BF30BD11F0004F4FEA01314FF4801C80
:1002B0004CEA113102D0404261EB410113F0004F92
:1002C0004FEA03334CEA133302D0524263EB430349
:1002D00094EA050F00F0A780A4F10104D5F1200EE7
:1002E0000DDB02FA0EFC22FA05F2801841F1000142
:1002F00003FA0EF2801843FA05F359410EE0A5F116
:1003000020050EF1200E012A03FA0EFC28BF4CF046
:10031000020C43FA05F3C01851EBE37101F00045FC
:1003200007D54FF0000EDCF1000C7EEB00006EEB09
:100330000101B1F5801F1BD3B1F5001F0CD3490893
:100340005FEA30004FEA3C0C04F101044FEA4452EA
:1003500012F5800F80F09A80BCF1004F08BF5FEA71
:10036000500C50F1000041EB045141EA050130BD51
:100370005FEA4C0C404141EB0101013C28BFB1F563
:10038000801FE9D291F0000F04BF01460020B1FAAE
:1003900081F308BF2033A3F10B03B3F120020CDA81
:1003A0000C3208DD02F1140CC2F10C0201FA0CF05F
:1003B00021FA02F10CE002F11402D8BFC2F1200CC4
:1003C00001FA02F120FA0CFCDCBF41EA0C0190407A
:1003D000E41AA2BF01EB0451294330BD6FEA0404C3
:1003E0001F3C1CDA0C340EDC04F11404C4F12002AE
:1003F00020FA04F001FA02F340EA030021FA04F3C0
:1004000045EA030130BDC4F10C04C4F1200220FA16
:1004100002F001FA04F340EA0300294630BD21FA54
:1004200004F0294630BD94F0000F83F4801306BF1A
:1004300081F480110134013D4EE77FEA645C18BF0E
:100440007FEA655C29D094EA050F08BF90EA020FA5
:1004500005D054EA000C04BF1946104630BD91EA9D
:10046000030F1EBF0021002030BD5FEA545C05D1A0
:100470004000494128BF41F0004130BD14F58004DF
:100480003CBF01F5801130BD01F0004545F0FE4153
:1004900041F470014FF0000030BD7FEA645C1ABF88
:1004A000194610467FEA655C1CBF0B46024650EABF
:1004B000013406BF52EA033591EA030F41F40021EB
:1004C00030BD00BF90F0000F04BF0021704730B571
:1004D0004FF4806404F132044FF000054FF0000146
:1004E00050E700BF90F0000F04BF0021704730B507
:1004F0004FF4806404F1320410F0004548BF4042DC
:100500004FF000013EE700BF42004FEAE2014FEA30
:1005100031014FEA02701FBF12F07F4393F07F4F0B
:1005200081F06051704732F07F4208BF704793F00E
:100530007F4F04BF41F40021704730B54FF4607421
:1005400001F0004521F000411CE700BF50EA010224
:1005500008BF704730B54FF000050AE050EA0102CD
:1005600008BF704730B511F0004502D5404261EB3D
:1005700041014FF4806404F132045FEA915C3FF47E
:10058000D8AE4FF003025FEADC0C18BF03325FEA1B
:10059000DC0C18BF033202EBDC02C2F1200300FACC
:1005A00003FC20FA02F001FA03FE40EA0E0021FAF1
:1005B00002F11444BDE600BF70B54FF0FF0C4CF4DF
:1005C000E06C1CEA11541DBF1CEA135594EA0C0F91
:1005D00095EA0C0F00F0DEF82C4481EA030621EACC
:1005E0004C5123EA4C5350EA013518BF52EA033507
:1005F00041F4801143F4801338D0A0FB02CE4FF0B9
:100600000005E1FB02E506F00042E0FB03E54FF0E8
:100610000006E1FB03569CF0000F18BF4EF0010EE0
:10062000A4F1FF04B6F5007F64F5407404D25FEADC
:100630004E0E6D4146EB060642EAC62141EA55518F
:100640004FEAC52040EA5E504FEACE2EB4F1FD0CD1
:1006500088BFBCF5E06F1ED8BEF1004F08BF5FEA4F
:10066000500E50F1000041EB045170BD06F0004601
:1006700046EA010140EA020081EA0301B4EB5C04AE
:10068000C2BFD4EB0C0541EA045170BD41F48011A6
:100690004FF0000E013C00F3AB8014F1360FDEBFCB
:1006A000002001F0004170BDC4F10004203C35DAA7
:1006B0000C341BDC04F11404C4F1200500FA05F32A
:1006C00020FA04F001FA05F240EA020001F00042CB
:1006D00021F0004110EBD37021FA04F642EB060141
:1006E0005EEA430E08BF20EAD37070BDC4F10C046B
:1006F000C4F1200500FA04F320FA05F001FA04F22F
:1007000040EA020001F0004110EBD37041F100011A
:100710005EEA430E08BF20EAD37070BDC4F1200525
:1007200000FA05F24EEA020E20FA04F301FA05F28D
:1007300043EA020321FA04F001F0004121FA04F235
:1007400020EA020000EBD3705EEA430E08BF20EA05
:10075000D37070BD94F0000F0FD101F0004640003F
:1007600041EB010111F4801F08BF013CF7D041EAC1
:10077000060195F0000F18BF704703F000465200C5
:1007800043EB030313F4801F08BF013DF7D043EA96
:100790000603704794EA0C0F0CEA135518BF95EA4C
:1007A0000C0F0CD050EA410618BF52EA4306D1D1D3
:1007B00081EA030101F000414FF0000070BD50EAF2
:1007C000410606BF1046194652EA430619D094EA7C
:1007D0000C0F02D150EA013613D195EA0C0F05D166
:1007E00052EA03361CBF104619460AD181EA0301BA
:1007F00001F0004141F0FE4141F470014FF0000072
:1008000070BD41F0FE4141F4780170BD70B54FF00C
:10081000FF0C4CF4E06C1CEA11541DBF1CEA13558C
:1008200094EA0C0F95EA0C0F00F0A7F8A4EB05046E
:1008300081EA030E52EA03354FEA013100F0888065
:100840004FEA03334FF0805545EA131343EA12632E
:100850004FEA022245EA111545EA10654FEA0026E3
:100860000EF000419D4208BF964244F1FD0404F59C
:10087000407402D25B084FEA3202B61A65EB0305F8
:100880005B084FEA32024FF480104FF4002CB6EBB5
:10089000020E75EB030E22BFB61A754640EA0C0035
:1008A0005B084FEA3202B6EB020E75EB030E22BF75
:1008B000B61A754640EA5C005B084FEA3202B6EBB6
:1008C000020E75EB030E22BFB61A754640EA9C0075
:1008D0005B084FEA3202B6EB020E75EB030E22BF45
:1008E000B61A754640EADC0055EA060E18D04FEA03
:1008F000051545EA16754FEA06164FEAC30343EAA3
:1009000052734FEAC2025FEA1C1CC0D111F4801F6F
:100910000BD141EA00014FF000004FF0004CB6E768
:1009200011F4801F04BF01430020B4F1FD0C88BF07
:10093000BCF5E06F3FF6AFAEB5EB030C04BFB6EB12
:10094000020C5FEA500C50F1000041EB045170BD05
:100950000EF0004E4EEA113114EB5C04C2BFD4EB32
:100960000C0541EA045170BD41F480114FF0000EB6
:10097000013C90E645EA060E8DE60CEA135594EA32
:100980000C0F08BF95EA0C0F3FF43BAF94EA0C0F35
:100990000AD150EA01347FF434AF95EA0C0F7FF4AA
:1009A00025AF104619462CE795EA0C0F06D152EAFE
:1009B00003353FF4FDAE1046194622E750EA4106E2
:1009C00018BF52EA43067FF4C5AE50EA41047FF4F3
:1009D0000DAF52EA43057FF4EBAE12E74FF0FF3C58
:1009E00006E000BF4FF0010C02E000BF4FF0010C29
:1009F0004DF804CD4FEA410C7FEA6C5C4FEA430CA2
:100A000018BF7FEA6C5C1BD001B050EA410C0CBFF0
:100A100052EA430C91EA030F02BF90EA020F002052
:100A2000704710F1000F91EA030F58BF994208BFB9
:100A300090422CBFD8176FEAE37040F00100704776
:100A40004FEA410C7FEA6C5C02D150EA013C07D1CD
:100A50004FEA430C7FEA6C5CD6D152EA033CD3D018
:100A60005DF8040B704700BF8446104662468C4612
:100A70001946634600E000BF01B5FFF7B7FF002845
:100A800048BF10F1000F01BD4DF808EDFFF7F4FF6E
:100A90000CBF012000205DF808FB00BF4DF808EDF9
:100AA000FFF7EAFF34BF012000205DF808FB00BF1C
:100AB0004DF808EDFFF7E0FF94BF012000205DF83E
:100AC00008FB00BF4DF808EDFFF7CEFF94BF0120F3
:100AD00000205DF808FB00BF4DF808EDFFF7C4FFEC
:100AE00034BF012000205DF808FB00BF4FEA410C35
:100AF0007FEA6C5C02D150EA013C0AD14FEA430C18
:100B00007FEA6C5C02D152EA033C02D14FF0000054
:100B100070474FF0010070474FEA410212F5001292
:100B200015D211D56FF47873B3EB625212D94FEA34
:100B3000C12343F0004343EA505311F0004F23FA1E
:100B400002F018BF404270474FF00000704750EA73
:100B5000013005D111F0004008BF6FF00040704730
:100B60004FF00000704700BF4FEA4102B2F1E0438E
:100B700024BFB3F5001CDCF1FE5C0DD901F0004C84
:100B80004FEAC0024CEA5070B2F1004F40EB8300D4
:100B900008BF20F00100704711F0804F21D113F100
:100BA0003872BCBF01F00040704741F480114FEA39
:100BB0005252C2F11802C2F1200C10FA0CF320FAC2
:100BC00002F018BF40F001004FEAC1234FEAD323DF
:100BD00003FA0CFC40EA0C0023FA02F34FEA430349
:100BE000CCE77FEA625307D150EA01331EBF4FF0D2
:100BF000FE4040F44000704701F0004040F0FE40ED
:100C000040F40000704700BF53B94AB9002908BF3B
:100C100000281CBF4FF0FF314FF0FF3000F00CB840
:100C2000ADF1080C6DE904CE05F0E2F9DDF804E061
:100C3000DDE9022304B07047704700BF10B5054CD2
:100C4000227832B9044B13B10448AFF3008001237A
:100C5000237010BDE801002000000000A862000819
:100C600008B5034B1BB103490348AFF3008008BD2F
:100C700000000000EC010020A8620008084BDA6CBC
:100C800022F00102DA64DA6C42F00102DA64DA6C12
:100C900022F00202DA64DA6C42F00202DA6470478F
:100CA00000100240174A936D43F004039365164BFE
:100CB0001A6822F060021A601A6822F010021A60A4
:100CC0005A6822F070025A605A6842F040025A6034
:100CD0009A6922F4803222F070029A619A6942F095
:100CE00060029A6107229A6240F2F312DA62FA22F3
:100CF0005A631A6A42F001021A621A6842F001024B
:100D00001A60704700100240000800400B4A9368C8
:100D100023F001039360094B1B6813F0010FFAD114
:100D2000064B9A6822F080429A609A6842F000422C
:100D30009A60024B9B68002BFBDB7047000004505D
:100D400010B40024944212DA50F82430A3F5FF4383
:100D50007F3B07EE903AF8EEE77A01EB84039FEDD4
:100D6000057A67EE877AC3ED007A0134EAE75DF829
:100D7000044B7047000000388B08DFED147A93B104
:100D8000D0ED005AD0ED016A90ED027A90ED036A41
:100D900077EEA57A76EEA77A77EE277A76EE277A3F
:100DA000013B1030EBE701F0030304E0B0EC017A03
:100DB00077EE877A013B002BF8D107EE101AB8EED8
:100DC000477AC7EE876AC2ED006A704700000000EC
:100DD00010B51446012928D08B08DFED2D7AB0EE2E
:100DE000677A2BB3D0ED006A37EE267A66EEA66AF4
:100DF00076EEA77AD0ED016A37EE267A66EEA66A1D
:100E000076EEA76AD0ED027A37EE277A67EEA77AF8
:100E100077EEA66AD0ED037A37EE277A67EEA77AE7
:100E200077EEA67A013B1030DBE7002313602AE05F
:100E300001F0030308E0F0EC016A37EE267A66EE73
:100E4000A66A77EEA67A013B002BF4D106EE901A43
:100E5000F8EE666AB7EE006A36EEC66A87EE860A74
:100E6000C7EE267A67EEA77A86EE867A67EE877AED
:100E700030EE670AB5EEC00AF1EE10FA04DB05F0B9
:100E80004BF884ED000A10BD00232360FBE700BF90
:100E900000000000F0B4F0EC017A4D1EAE08002412
:100EA000274602E00434013E604656B3D0ED006AA6
:100EB00090ED017AF4EEE67AF1EE10FA02D5671CB5
:100EC000F0EE667AD0ED026AF4EEC77AF1EE10FA2F
:100ED00002D5A71CF0EE477A00F1100C90ED037AD2
:100EE000F4EEE67AF1EE10FA02D5E71CF0EE667A3F
:100EF000F4EEC77AF1EE10FAD4D5271DF0EE477A5A
:100F0000D0E705F0030500E0013D55B1B0EC017AF2
:100F1000F4EEC77AF1EE10FAF6D54F1BF0EE477AF1
:100F2000F2E7C2ED007A1F60F0BC70472DE9F04F88
:100F300093469C46994219D34D00013DCB18ED1ABA
:100F40000135099B03EB850501260CF1FF37A1EB69
:100F50000C0101F1010E0CF1804A0AF1FF3A0BEB92
:100F60008A0A3B4651464FF001094AE0CD1805F187
:100F70008045023D099B03EB8505034610469B46D1
:100F80000B4661469C464FF0FF36DEE794ED007A53
:100F9000D1ED006A27EE267A77EE877A94ED017A12
:100FA000D1ED016A27EE267A77EE877A94ED027A00
:100FB000D1ED026A27EE267A77EE877A94ED037AEE
:100FC000D1ED036A27EE267A77EE877A013A10315F
:100FD0001034002ADAD109F003024AB1B4EC017AE4
:100FE000F1EC016A27EE267A77EE877A013AF4E788
:100FF000C5ED007A05EB8605AAEB890109F1010927
:10100000013B2BB14FEA99020446DFEDAF7AE0E7EE
:10101000BCF1030F40F20A814FEA9E09044631E019
:10102000B4EC017AF1EC014A66EE876A36EE266A84
:1010300065EE876A73EEA63A65EE076A34EE264AD5
:1010400027EE247A77EE877A013AF0EE656AF0EEC1
:10105000455AB0EE645A002AE2D185ED006A05EBEC
:101060008605C5ED003A05EB860585ED004A05EBE2
:101070008605C5ED007A05EB8605043300EB830495
:1010800009F1FF39B9F1000F6AD0D4ED006AD4ED4F
:10109000015A04F10C0194ED025A4FEA9C0A5C4695
:1010A000DFED897AB0EE674AF0EE673AB0EE676A34
:1010B00094ED007AD1ED004A26EE872A32EE062A18
:1010C00065EE872A72EEA33A25EE073A33EE044A1C
:1010D00027EE247A77EE277A94ED017AD1ED016A32
:1010E00025EE876A36EE022A65EE072A72EEA32AFB
:1010F00024EE873A33EE043A27EE267A77EE277A03
:1011000094ED027AD1ED025A25EE076A36EE026AB4
:1011100064EE873A73EEA22A26EE874A34EE033A4B
:1011200027EE257A37EE277AD4ED037A103491ED45
:10113000035A103164EEA74A34EE866A66EEA73A87
:1011400073EEA23A25EEA74A34EE034A67EE857A9B
:1011500077EE877ABAF1010AAAD10CF003027AE796
:101160000EF0030916E00CF0030208E0B4EC017A7B
:10117000F1EC016A27EE267A77EE877A013A002AA7
:10118000F4D1C5ED007A05EB8605013300EB83044D
:1011900009F1FF39B9F1000F4BD04FEA9C025946D3
:1011A000DFED497A002ADED094ED007AD1ED006AB5
:1011B00027EE267A77EE877A94ED017AD1ED016AEF
:1011C00027EE267A77EE877A94ED027AD1ED026ADD
:1011D00027EE267A77EE877A94ED037AD1ED036ACB
:1011E00027EE267A77EE877A013A10311034D9E764
:1011F000F1EC017AF4EC016A67EEA67A37EE277A11
:1012000008F1FF38B8F1000FF2D185ED007A05EB57
:101210008605013300EB830109F1FF39B9F1000FB5
:1012200007D0E0465C469FED287AEBE7F1460146A1
:10123000F4E700EB8E00BC463AE093ED007AD1ED86
:10124000006A27EE267A77EE877A93ED017AD1ED60
:10125000016A27EE267A77EE877A93ED027AD1ED4E
:10126000026A27EE267A77EE877A93ED037AD1ED3C
:10127000036A27EE267A77EE877A013C1031103325
:10128000002CDAD107F0030408E0B3EC017AF1ECAA
:10129000016A27EE267A77EE877A013C002CF4D19A
:1012A000C5ED007A05EB86050430013F0CF1FF3CEB
:1012B000BCF1000F05D0BC0859460346DFED027AA9
:1012C000DEE7BDE8F08F00BF000000002DE9F04F21
:1012D00087B002AF8A4691464FEA410B6B46A3EBBB
:1012E000C1039D4602AD01F1FF380E468B00073366
:1012F00023F00703ADEB030D02AC00950B4602464D
:10130000FFF714FE07F1080259462846FFF734FD9F
:1013100000239B450BD905EB8302D2ED007A97EDB4
:10132000027A77EEC77AC2ED007A0133F1E707F16E
:101330000C033A4659462846FFF7ACFD00239B456F
:101340000BD905EB8302D2ED006A97ED007AC6EE69
:10135000877AC2ED007A0133F1E7002208E0FB68EA
:10136000134405EB8303196804EB8203196001320F
:101370009642F4D807F1080251462046FFF7FCFCDC
:101380003A1D51462046FFF723FD002300E00133BC
:101390009E4213D904EB830292ED007AD7ED017AD5
:1013A00077EEA77AD7ED026A77EEA67AB4EEE77AFF
:1013B000F1EE10FAEBD500211160E8E7012300E01F
:1013C000013343451CD204EB830292ED007A5A1E8E
:1013D00004EB8202D2ED007A77EE677AF5EEC07AFE
:1013E000F1EE10FAECDD5A1C04EB8202D2ED007A29
:1013F00037EEC77AB5EEC07AF1EE10FAE0D500E02C
:10140000012307EE903AF8EE677ADFED056A86EE83
:10141000A77A89ED007A1437BD46BDE8F08F00BF8A
:1014200000401C4600B597B0002111911291139114
:1014300014911591242201A802F0AEFC1023009310
:10144000012206928023089302230A930B920C93A5
:1014500014220D92109307230E9305230F936846D1
:1014600001F062FE00B1FEE70F23119303231293F4
:101470000023139314931593042111A802F014F977
:1014800000B1FEE717B05DF804FB00002E4A936C34
:1014900043F0010393642D4B1A6822F001021A6095
:1014A0001A6822F480421A601A6822F440521A60C4
:1014B0001A6842F400521A601A6822F440721A60E4
:1014C0001A6842F480721A601A6822F440621A6044
:1014D0001A6842F480621A601A6822F040021A60A8
:1014E0001A6822F080021A601A6842F080021A60BC
:1014F0001A6842F020021A601A6822F010021A607C
:101500005860134A9A60134A1268DA601A6842F007
:1015100002021A601A6822F004021A601A6842F085
:1015200004021A600C4A002182F80B134FF4006188
:1015300011600A490A6822F00F020A601A6842F034
:1015400001021A60704700BF00100240080002400C
:10155000400004500000002000E100E0A80002402C
:1015600000B5ADF6DC7D3D4B0DF57B6493E80300E3
:1015700084E80300202200210DF6B87002F00CFC74
:1015800000230DF6AC72136001F0E6FCFFF74AFF92
:10159000FFF774FB4FF47A70FFF778FFFFF782FBD9
:1015A00000F0A8F9FFF7B2FB00F0A2F800F0ECF8A9
:1015B0002B4800F03BFA4FF47A722A4B19682A48FC
:1015C00001F01CF840F6FF730F222146274801F076
:1015D000DEFB36E0234C4FF47A7203A92068FFF754
:1015E000AFFB0DF6AC724FF47A7103A8FFF76EFEF5
:1015F0001F4B00221A60236893ED008AB8EE488AD8
:101600001C4BD3ED007A28EE278A0DF6AC731868D0
:10161000FEF77AFF04460D4618EE100AFEF774FF37
:10162000CDE9000122462B4613490DF57B6003F0FE
:1016300025F840F6FF7328220DF57B610B4801F079
:10164000A6FB40F6FF730F220DF57B61074801F002
:101650009EFB074B1B68002BFBD0BBE7C06200085A
:101660005421002000000020882100203822002082
:101670000402002008000020E8620008144B1B68E8
:1016800013F0020F16D0124A536843F0020353605E
:10169000104B1A68104B9A4212D00E4B0E4A1A6029
:1016A0000E4B0F4A1A600B4B1A680E4BDA600E4B4A
:1016B00001221A60064A536843F00D0353607047D5
:1016C000044B074A1A60054B034A1A60EBE700BF58
:1016D0000000024004000020B4110020000000209F
:1016E000140200200800024004020020FEE700006F
:1016F00010B58AB0214BDA6C42F00402DA64DA6C7D
:1017000002F004020192019ADA6C42F08002DA647B
:10171000DA6C02F080020292029ADA6C42F0010264
:10172000DA64DA6C02F001020392039ADA6C42F096
:101730000202DA64DB6C03F002030493049B0022D0
:1017400020214FF0904002F069F94FF400530593C7
:101750000B4B06930024079405A90A4802F074F87D
:1017600020230593012306930794089405A94FF0BD
:10177000904002F069F80AB010BD00BF00100240AE
:10178000000021100008004800B58BB02548264B0A
:1017900003604FF400334360002383602022C26063
:1017A0000361042242618361C361012202624362D8
:1017B00082624FF4E061C1624FF480610163426371
:1017C0004FF480528263C36300F04CF9D0B9002318
:1017D000079307A9134800F0ABFFC0B9134B01935F
:1017E00006230293052303937F2304930423059385
:1017F0000023069301A90B4800F04CFC60B90BB024
:101800005DF804FB4F210A48FFF770FFDFE757211F
:101810000748FFF76BFFE1E764210548FFF766FF24
:10182000EDE700BF88210020000004500080F03E5A
:101830000463000802682A4B9A4200D0704730B512
:1018400087B0044603F17043A3F5F833DA6C42F431
:101850000052DA64DA6C02F400520092009AD3F873
:10186000882042F04052C3F88820012301930B23C3
:1018700002930025039501A91A4801F0E5FF1A48D3
:101880001A4B036045608560C560802303614FF497
:10189000007343614FF4006383612023C3614FF4FD
:1018A0000053036202F0D8F8A0B90F4B23659C6285
:1018B000002211460B2002F0A1F90B2002F0D2F910
:1018C00000221146122002F099F9122002F0CAF902
:1018D00007B030BD8B210648FFF708FFE5E700BFE2
:1018E0000000045000040048F021002008000240DD
:1018F0000463000808B50C480C4B03604FF4E13357
:10190000436000238360C36003610C2242618361F2
:10191000C3610362436201F0D6FA00B908BD4421F5
:101920000348FFF7E3FEF9E73822002000440040B7
:10193000106300080268114B9A4200D0704700B54E
:1019400087B003F5E6339A6D42F400329A659B6DD9
:1019500003F400330093009B0C23019302230293B2
:1019600000230393032304930723059301A94FF056
:10197000904001F069FF07B05DF804FB00440040AF
:1019800008B501F0FBFA02F090F908BD08B502486D
:1019900000F0C4F908BD00BF8821002000B583B065
:1019A000214B1A6E42F001021A661A6E02F0010211
:1019B0000092009A9A6D42F080529A659B6D03F0F6
:1019C00080530193019B032002F006F90022114687
:1019D0006FF00B0002F012F9002211466FF00A00BE
:1019E00002F00CF9002211466FF0090002F006F92E
:1019F000002211466FF0040002F000F900221146A7
:101A00006FF0030002F0FAF8002211466FF00100B7
:101A100002F0F4F8002211464FF0FF3002F0EEF829
:101A200003B05DF804FB00BF00100240A8B190F8BD
:101A30003230DBB2052B12D090F83230DBB2012B02
:101A400001D00120704701680B6843F001030B606F
:101A5000042380F8323000207047012070470120B5
:101A60007047000030B583B000230193002800F0D8
:101A70003B810446836D13B323689A6812F0005FBC
:101A800005D09A6822F0204222F03F029A60226834
:101A9000936813F0805F1FD1936823F0104323F005
:101AA0003F0343F080539360904B1B68904AA2FB26
:101AB0000323DB0C03EB83035B00019309E0FFF7D7
:101AC000B9FE0023E36584F85430D5E7019B013B60
:101AD0000193019B002BF9D123689A6812F0805F73
:101AE00009D1A26D42F01002A265E26D42F001023E
:101AF000E265012000E00020A26D12F0100F40F01E
:101B0000EC809A6812F0040F40F0E780A26D22F496
:101B1000817242F00202A2659A6802F00302012A71
:101B200016D0744A934218D0734A934235D0714B01
:101B30009B6803F00303012B50D00023002B5DD1E1
:101B40006D4B9B6803F00303012B50D0002356E03C
:101B50001A6812F0010F5CD1E3E7674B9B6803F052
:101B60000303012B09D0654B9B6803F00303012B92
:101B70000AD0002383F0010343E05F4B1B6813F09E
:101B8000010FF0D00123F5E75C4B1B6813F0010F48
:101B900001D10023EEE70123ECE7564B9B6803F0ED
:101BA0000303012B0AD0554B9B6803F00303012B61
:101BB0000BD00023002BC3D0012320E04D4B1B682A
:101BC00013F0010FEFD00123F4E74C4B1B6813F027
:101BD000010F01D10023EDE70123EBE7454B1B6823
:101BE00013F0010F01D10023A8E70123A6E7424B20
:101BF0001B6813F0010F4ED1002300E0012383F096
:101C0000010333B163683E498A6822F47C121343AE
:101C10008B60E269A36B43EA4233E2681343A26834
:101C20001343626A43EA0243012A36D0E26A22B1D0
:101C300002F47072216B0A4313432168CD68314A64
:101C40002A401343CB602268936813F00C0F13D122
:101C5000A169636B5B0043EA8131D36823F480435D
:101C600023F002030B43D360E36B012B1AD02268ED
:101C7000136923F0010313612369012B24D0226827
:101C8000136B23F00F031363A36D23F0030343F0DF
:101C90000103A36526E00123B1E7A26A013A43EA02
:101CA0004243C3E721680B6923F4FF6323F0040375
:101CB000226C656C2A43A56C2A43E56C2A431343C6
:101CC00043F001030B61D7E721680B6B23F00F038F
:101CD000226A013A13430B63D6E7A36D43F0100366
:101CE000A365012003B030BD0120FBE70C000020FC
:101CF00083DE1B4300000450000104500002045026
:101D00000003045007C0F0FF7047704708B5806AB1
:101D1000FFF7FBFF08BD70477047000070B5044631
:101D200003681E685D6816F0020F10D015F0020FF0
:101D30000DD0836D13F0100F03D1836D43F4006356
:101D40008365204600F0F2FC236802221A6016F038
:101D5000040F02D015F0040F05D116F0080F56D06D
:101D600015F0080F53D0A36D13F0100F03D1A36D1E
:101D700043F40073A3652368DA6812F4406F40D11E
:101D8000994A934218D002F50072934214D002F59A
:101D90008072926812F01F0F0ED0944A926802F07F
:101DA0001F02052A08D0914A926802F01F02092AF0
:101DB00002D08D4AD26800E0DA6812F4005F20D1C8
:101DC0001A6812F0080F1CD09A6812F0040F10D194
:101DD0005A6822F00C025A60A36D23F48073A36545
:101DE000A36D13F4805F0CD1A36D43F00103A365D1
:101DF00007E0A36D43F01003A365E36D43F0010317
:101E0000E3652046FFF780FF23680C221A6016F076
:101E1000200F02D015F0200F05D116F0400F60D032
:101E200015F0400F5DD0A36D13F0100F03D1A36D1B
:101E300043F40053A36523686B4A934218D002F51C
:101E40000072934214D002F58072926812F01F0F54
:101E50000ED0664A926802F01F02062A08D0634A32
:101E6000926802F01F02072A02D05F4AD16800E0A0
:101E7000D968DA6C12F0C00F09D011F0007F2AD1B6
:101E8000DA6812F4406F26D111F4005F23D11A688A
:101E900012F0400F1FD011F4001F1CD19A6812F0ED
:101EA000080F10D15A6822F060025A60A36D23F423
:101EB0008053A365A36D13F4807F0CD1A36D43F011
:101EC0000103A36507E0A36D43F01003A365E36D71
:101ED00043F00103E365204600F024FC2368602200
:101EE0001A6016F0800F02D015F0800F34D116F46E
:101EF000807F02D015F4807F39D116F4007F02D0A4
:101F000015F4007F3FD116F0100F1ED015F0100F02
:101F10001BD0A36B5BB12368334A93423FD002F5D9
:101F2000807293423BD0DB6813F0010F0AD0A36D9F
:101F300043F48063A365E36D43F00203E365204649
:101F4000FFF7EAFE236810221A6016F4806F02D0B1
:101F500015F4806F37D170BDA36D43F48033A36552
:101F60002046FFF7D8FE236880221A60BFE7A36DE2
:101F700043F40033A365204600F0D6FB23684FF4FA
:101F800080721A60B9E7A36D43F48023A3652046ED
:101F900000F0CBFB23684FF400721A60B3E7134ADA
:101FA000926812F01F0FBED0104B9B6803F44043A1
:101FB000B3F5004FBBD00D4B9B6803F44043B3F522
:101FC000404FBFD1B3E7A36D43F48043A365E36DF6
:101FD00043F00803E36523684FF480621A602046EB
:101FE00000F0A1FBB7E700BF00000450000304505D
:101FF00008B50346806A826D12F0500F30D1836DB0
:1020000043F40073836503681A6812F0080F14D054
:10201000DA6812F4406F20D1DB6813F4005F1CD142
:10202000836D23F480738365836D13F4805F14D113
:10203000836D43F0010383650FE0DB6813F0020F4B
:102040000BD1836D23F480738365836D13F4805FFC
:1020500003D1836D43F001038365FFF755FE08BD8F
:10206000826D12F0100F04D1026D526B184690472A
:10207000F5E7FFF751FEF2E708B5806A836D43F09C
:1020800040038365C36D43F00403C365FFF744FE5B
:1020900008BD0000F0B583B00022019290F85420F2
:1020A000012A00F03C820346012280F85420026895
:1020B000926812F0040F40F028824A68052A08D876
:1020C000023A032A5CD8DFE802F0025154570C228E
:1020D0004A601D684C680868303504F440764FF457
:1020E000407292FAA2F2B2FA82F2D64055F8262055
:1020F00004F01F041F27A74022EA0702C0F38460F0
:10210000A040024345F826201A68906810F00C0F92
:1021100039D01C68A26802F00302012A00F0C980CD
:102120000A68CD68D4F8B000C2F3120620EA0600AF
:1021300005F02006BE4DB5402A40C2F3120202430C
:10214000C4F8B020C868BB4A904200F0B8800A6862
:10215000B9498A4200F05581B8498A4200F062814B
:10216000B7498A4200F072810020D3E112224A600E
:10217000AFE718224A60ACE74FF480724A60A8E7E4
:1021800006224A60A5E708688C68143200F00077E0
:102190004FF0007595FAA5F5B5FA85F5EF4052F8C0
:1021A000275000F0F87C4FF0F87090FAA0F6B6FADD
:1021B00086F62CFA06F64FF0070E0EFA06F625EA1A
:1021C000060590FAA0F0B0FA80F02CFA00F08440F6
:1021D0002C4342F8274048691C68E268C2F3C102F8
:1021E000520000FA02F20D69042D0ED00E68603420
:1021F00054F825709348384006F0F84632431043AF
:1022000040F0004044F8250083E7206EC0F3846569
:102210000A68C2F3120666BBC2F3846295422DD0EF
:102220001C68606EC0F384650A68C2F312064EBB78
:10223000C2F3846295422AD01C68A06EC0F3846504
:102240000A68C2F3120636BBC2F38462954227D0F5
:102250001C68E06EC0F384650A68C2F312061EBBF8
:10226000C2F3846295427FF454AF20F00040E066F0
:102270004FE792FAA2F2B2FA82F2CFE720F00040E2
:102280002066CDE792FAA2F2B2FA82F2D2E720F00B
:1022900000406066D0E792FAA2F2B2FA82F2D5E785
:1022A00020F00040A066D3E792FAA2F2B2FA82F2DE
:1022B000D8E7226812F0010F7FF449AF30E71C68BD
:1022C0000A68C2F31205002D48D1C2F384600130C0
:1022D00009288CBF00200120002861D0002D47D1A3
:1022E000C2F3846001308006002D48D1C2F38466B9
:1022F000771C0126BE403043002D48D1C2F38462D2
:10230000013202EB4202120502438D68143402F0DE
:10231000007C4FF0007090FAA0F0B0FA80F02CFA38
:1023200000FC54F82C6002F0F8724FF0F87090FA4C
:10233000A0F7B7FA87F722FA07F74FF0070E0EFA61
:1023400007F726EA070690FAA0F0B0FA80F022FA22
:1023500000F08540354344F82C50F8E692FAA2F09C
:10236000B0FA80F0013009288CBF00200120B3E7CB
:1023700092FAA2F0B0FA80F001308006B4E792FA47
:10238000A2F6B6FA86F6771C0126BE40B3E792FAAB
:10239000A2F2B2FA82F2013202EB42021205B3E774
:1023A000ADB9C2F3846001308006BDB9C2F3846662
:1023B000771C0126BE403043C5B9C2F3846202EBEC
:1023C00042021B3A120542F0007202439DE792FA64
:1023D000A2F0B0FA80F001308006E6E792FAA2F6A9
:1023E000B6FA86F6771C0126BE40E4E792FAA2F21E
:1023F000B2FA82F202EB42021B3A120542F000727C
:10240000E3E71149896811F4000F7FF4A5AE0A498A
:102410008A4222D009498A424CD009498A4261D075
:10242000002077E00849896811F0807FEFD097E6B7
:10243000FFFF070000007F40000052C7000084CB70
:102440000100008000F0FF03000304503549896853
:1024500011F4800FDBD000205CE01A6832498A4218
:1024600005D001F500718A4201D0002052E02D49CB
:102470008A6802F0E07242F40002886820F0E0709E
:1024800002438A60294A1268A1F14E61A1F5022136
:10249000A1F27D41A1FB0212D20CC2EB0212D200CA
:1024A000019202E0019A013A0192019A002AF9D1BF
:1024B00000202FE01A68A1F1F7418A4205D001F50A
:1024C00000718A4201D0002024E016498A6802F097
:1024D000E07242F08072886820F0E07002438A6007
:1024E000002017E01968104A914201D0002011E045
:1024F0000C498A6802F0E07242F48002886820F099
:10250000E07002438A60002004E0826D42F0200205
:1025100082650120002283F8542003B0F0BD022020
:10252000FBE700BF00030450000004500C00002033
:1025300030B583B00446002301930268936803F02A
:102540000303012B16D09168294B194218D19368C7
:1025500023F0004323F03F0343F001039360254B36
:102560001B68254AA2FB0323DB0C03EB83035B0000
:10257000019313E0136813F0010FE4D0002008E08A
:10258000A36D43F01003A365E36D43F00103E3651E
:10259000012003B030BD019B013B0193019B002B47
:1025A000F9D100F0F3FC054604E000F0EFFC431B1A
:1025B000022B11D823681A6812F0010F16D19A68FD
:1025C00012F0010FF1D19A6822F0004222F03F028E
:1025D00042F001029A60E8E7A36D43F01003A3659F
:1025E000E36D43F00103E3650120D2E70020D0E76B
:1025F0003F0000800C00002083DE1B43F8B5164628
:1026000003689A6812F0040F7DD104460D4690F8D5
:102610005420012A7AD0012280F854203C4A934267
:1026200054D002F58072934250D02046FFF780FFCD
:102630000746002863D1A36D23F4706323F00103E0
:1026400043F48073A3652368314A934208D002F5AE
:102650000072934204D02F4B9B6813F01F0F03D1DD
:10266000A36D23F48013A365A36D13F4805F43D09F
:10267000E36D23F00603E365236D274ADA62236DD9
:10268000264A1A63236D264A5A6323681C221A605D
:10269000002384F854302268536843F010035360D9
:1026A0002268D36843F00103D360216833462A4689
:1026B0004031206D01F04CFA2268936823F000430A
:1026C00023F03F0343F0040393601DE0114B9B682C
:1026D00013F01F0FA9D00F4B9B6803F01F03052BAE
:1026E000A3D00C4B9B6803F01F03092B9DD0002344
:1026F00084F85430012707E00023E365BCE700239A
:1027000084F8543000E002273846F8BD0227FBE782
:102710000000045000030450F11F00080D1D0008C4
:102720007920000870477047704770477047000075
:1027300090F85420012A00F0858070B49BB00346C5
:10274000012280F8542002683F48824231D00020A4
:1027500000900098002830D0926812F0040F66D1E3
:10276000826812F0040F62D10A68002A3AD0374D0D
:10277000AA6822F460424C685E6B44EA4634224305
:10278000AA601C68A26802F00302012A1ED08268B7
:1027900002F00302012A1FD02C4CA26822F47162BD
:1027A00022F00F020868896801430A43A2600020F2
:1027B00042E000F580700090CBE79A6D42F0200275
:1027C0009A65002283F85420012038E0226812F034
:1027D000010FDCD000202FE0026812F0010FDBD0E7
:1027E000002029E019498A6822F460428A60196849
:1027F0008A6802F00302012A0DD0826802F0030207
:10280000012A0ED011498A6822F4716222F00F0267
:102810008A60002010E00A6812F0010FEDD000205D
:102820000AE0026812F0010FECD0002004E09A6D7B
:1028300042F020029A650120002283F854201BB048
:1028400070BC704702207047000004500003045021
:10285000F8B504460168836802691343426913436B
:10286000C269134308689E4A024013430B60226802
:10287000536823F44053E1680B435360A169226815
:10288000984B9A4201D0236A1943936823F430632A
:102890000B4393602368944A934210D0934A934227
:1028A00021D0934A934237D0924A93425CD0924AC5
:1028B00093426BD08B4A93427DD010253AE002F5CB
:1028C0005842D2F8882002F00302032A09D8DFE830
:1028D00002F00204870601252CE004252AE00825E1
:1028E00028E0102526E002F5E632D2F8882002F032
:1028F0000C020C2A0ED8DFE802F0070D0D0D090DB1
:102900000D0D750D0D0D0B00002513E0042511E0D4
:1029100008250FE010250DE002F5E432D2F88820FA
:1029200002F03002202A5FD01AD8002A5ED0102A86
:102930005ED104256B4A934276D0E369B3F5004F2C
:1029400000F0F080082D00F27481DFE815F0390105
:102950004A01540172015F01720172017201690141
:10296000302A47D10825E5E702F5E232D2F888207F
:1029700002F0C002802A3FD004D8FAB3402A3FD1E7
:102980000425D7E7C02A3DD10825D3E702F5E03278
:10299000D2F8882002F44072B2F5007F34D005D816
:1029A000A2B3B2F5807F33D10425C3E7B2F5407FEF
:1029B00030D10825BEE702F5C832D2F8882002F4EB
:1029C0004062B2F5006F27D005D83AB3B2F5806FF8
:1029D00026D10425AEE7B2F5406F23D10825A9E73B
:1029E0000225A7E70225A5E70225A3E70025A1E721
:1029F00010259FE710259DE702259BE7002599E715
:102A0000102597E7102595E7022593E7002591E724
:102A100010258FE710258DE702258BE7002589E734
:102A2000102587E7102585E7082D00F20581DFE8EE
:102A300015F00C000301270003012400030103012A
:102A4000030109004FF4004004E000F0DDFE00281F
:102A500000F0F480626802EB4203834200F2F080EF
:102A6000B0EB023F00F2EE80082D58D8DFE805F009
:102A70000A571F572A5757574C0000F0D5FAE6E778
:102A80001E48E7E700F0C0FE0023070E060262685A
:102A90005008301847F10001FEF7B6F8A0F5407273
:102AA000174B9A4200F2D0802368D860D1E05608D4
:102AB00000252B4613480021801941F10001FEF743
:102AC000A3F8EBE700F0B0FA0025070E06026268F3
:102AD00050082B46301847F10001FEF795F8DDE766
:102AE000F369FFEF008000400038014000440040DF
:102AF00000480040004C0040005000400024F4001A
:102B0000FFFC0F00000024F4500800252B4610F5B0
:102B100000002CBF01210021FEF776F8BEE7012559
:102B20000020BBE7082D48D8DFE805F0051D284741
:102B3000334747473E0000F067FE6268530803EBE7
:102B40004003B3FBF2F39BB2A3F110014FF6EF7217
:102B500091427BD89AB222F00F02C3F3420313438F
:102B60002268D36075E000F05FFE6268530803EBF3
:102B70004003B3FBF2F39BB20025E5E7626853081C
:102B800003F1F47303F59043B3FBF2F39BB200251A
:102B9000DAE700F049FA6268530803EB4003B3FB3D
:102BA000F2F39BB20025CFE76268530803F5803348
:102BB000B3FBF2F39BB20025C6E701250023C3E770
:102BC00000F022FE626800EB5203B3FBF2F39BB20B
:102BD000A3F110014FF6EF72914239D82268D36009
:102BE00037E000F021FE626800EB5203B3FBF2F322
:102BF0009BB20025ECE76268530803F5740303F504
:102C00001053B3FBF2F39BB20025E1E700F00CFA9E
:102C1000626800EB5203B3FBF2F39BB20025D7E7E7
:102C20006268530803F50043B3FBF2F39BB200253F
:102C3000CEE701250023CBE701250AE0002508E0C7
:102C4000012506E0012504E0012502E0012500E060
:102C500001250023236663662846F8BD436A13F006
:102C6000010F06D00268536823F40033816A0B43D6
:102C70005360436A13F0020F06D00268536823F4CE
:102C80008033C16A0B435360436A13F0040F06D0CC
:102C90000268536823F48023016B0B435360436A3B
:102CA00013F0080F06D00268536823F40043416B09
:102CB0000B435360436A13F0100F06D00268936809
:102CC00023F48053816B0B439360436A13F0200F0E
:102CD00006D00268936823F40053C16B0B439360E2
:102CE000436A13F0400F0AD00268536823F480133C
:102CF000016C0B435360036CB3F5801F0BD0436A28
:102D000013F0800F06D00268536823F40023816C0F
:102D10000B43536070470268536823F4C003416C4F
:102D20000B435360EBE72DE9F84305460F46164683
:102D30009946DDF820802C68E46937EA04030CBF6B
:102D400001240024B4421FD1B8F1FF3FF3D0B8F101
:102D5000000F05D000F01AF9A0EB09004045EAD9B0
:102D60002A68136823F4D07313602A68936823F0E9
:102D700001039360202385F8713085F872300023B9
:102D800085F87030032000E00020BDE8F8832DE9CD
:102D9000F04182B01E4690F87130DBB2202B4CD14E
:102DA00004460D46904600294BD0002A4BD090F89F
:102DB0007030012B49D0012380F870300023436725
:102DC000212380F8713000F0E1F80746A4F8508024
:102DD000A4F8528009E0236815F8012B1A85B4F88D
:102DE0005220013A92B2A4F85220B4F8522092B282
:102DF000AAB100963B46002280212046FFF793FFB0
:102E000028BBA368B3F5805FE5D12369002BE2D12D
:102E1000226835F8023BC3F308031385DFE7009609
:102E20003B4640212046FFF77EFF90B9202384F8DF
:102E30007130002384F8703000E0022002B0BDE859
:102E4000F0810120FAE70120F8E70220F6E70320ED
:102E5000F4E70320F2E730B583B00446002343676C
:102E600000F094F8054623681B6813F0080F0ED194
:102E700023681B6813F0040F17D1202384F87130E6
:102E800084F87230002084F8700003B030BD6FF019
:102E90007E430093034600224FF400112046FFF7C3
:102EA00042FF0028E4D00320EFE76FF07E43009359
:102EB0002B4600224FF480012046FFF734FF002804
:102EC000DBD00320E1E778B310B5044690F8713009
:102ED0000BB3242384F871302268136823F00103B4
:102EE00013602046FFF7B4FC012813D0636ABBB916
:102EF0002268536823F4904353602268936823F058
:102F00002A0393602268136843F00103136020468C
:102F1000FFF7A1FF10BD80F87030FEF70BFDD8E77A
:102F20002046FFF79BFEE3E70120704710B50446FB
:102F3000074B1868074BA3FB0030800900F09EFE8A
:102F4000002221464FF0FF3000F058FE002010BD57
:102F50000C000020D34D621008B5074A136843F4F3
:102F600080731360032000F037FE0020FFF7DEFFC0
:102F7000FEF714FD002008BD00200240024A13683D
:102F800001331360704700BFB0220020014B186866
:102F9000704700BFB022002030B583B00446204BFC
:102FA0009B6D13F0805F0BD000F00EFEB0F5007F3C
:102FB00017D0802C1FD82DD0702C2DD000211BE0D5
:102FC000174DAB6D43F08053AB65AB6D03F0805391
:102FD0000193019B00F0F8FDAB6D23F08053AB65CE
:102FE000E4E7802C03D9A02C03D9022104E00021BE
:102FF00002E0012100E003210A4A136823F00703DD
:103000000B431360136803F007038B4206D10020C3
:1030100003B030BD0221EFE70121EDE70120F7E722
:1030200000100240002002403B4B9B6813F00C0F45
:103030001AD0394B9B6803F00C030C2B0ED0364B87
:103040009B6803F00C03042B2FD0334B9B6803F0D9
:103050000C03082B2CD00020014618E02E4BDB6817
:1030600003F00303012BEAD12B4B1B6813F0080F6D
:1030700014D1294BD3F89430C3F30323274A52F8D1
:103080002310254B9B6813F00C0F0CD00020224A14
:10309000936803F00C030C2B0DD070471E4B1B687C
:1030A000C3F30313EAE70846F1E71D480021EEE702
:1030B0001C480021EBE71346D26802F00302DB68EC
:1030C000C3F302130133022A0AD0032A1AD0B1FB38
:1030D000F3F3114AD068C0F3062000FB03F008E0C8
:1030E0000F48B0FBF3F30C4AD068C0F3062000FB96
:1030F00003F0094BDB68C3F3416301335B00B0FBB2
:10310000F3F0CAE70748B0FBF3F3034AD068C0F313
:10311000062000FB03F0ECE70010024034630008D7
:103120000024F40000127A00002800F0A88270B594
:1031300082B00446036813F0100F3FD0974B9B6892
:1031400013F00C0F40F09280944B1B6813F0020FA9
:1031500003D08369002B00F09982206A8F4B1B6893
:1031600013F0080F62D08D4B1B6803F0F0039842F8
:1031700063D9FFF711FF002840F08A82874B1A6855
:1031800042F008021A601A6822F0F002216A0A432B
:103190001A605A6822F47F42E16942EA01225A60C9
:1031A000FFF742FF7D4B9B68C3F303137C4AD35C5C
:1031B000D8407C4B18600020FFF7B8FE236813F05E
:1031C000010F00F0A180754B9B6803F00C03082BE6
:1031D00000F09180714B9B6803F00C030C2B00F006
:1031E00083806368B3F5803F00F0B580B3F5A02F0E
:1031F00000F0B780694B1A6822F480321A601A68AE
:1032000022F480221A606368002B00F0B780FFF779
:10321000BDFE0546614B1B6813F4003F74D1FFF7F8
:10322000B5FE401B6428F5D9032038E25B4BD3F888
:1032300094301B0903F0F00399E7584B1A6842F0E9
:1032400008021A601A6822F0F002216A0A431A6022
:103250005A6822F47F42E16942EA01225A60206AF8
:10326000FFF79AFE00289BD0012018E2836933B350
:103270004A4A136843F001031360FFF787FE0546CF
:10328000464B1B6813F0020F06D1FFF77FFE401B71
:103290000228F5D9032002E2404B1A6842F00802E6
:1032A0001A601A6822F0F002216A0A431A605A680A
:1032B00022F47F42E16942EA01225A607EE7374AFE
:1032C000136823F001031360FFF760FE0546334BDC
:1032D0001B6813F0020F3FF471AFFFF757FE401B5E
:1032E0000228F4D90320DAE12C4BDB6803F0030356
:1032F000032B7FF476AF294B1B6813F4003F03D0F8
:103300006368002B00F0C681236813F0020F62D0BF
:10331000224B9B6803F00C03042B4BD01F4B9B6884
:1033200003F00C030C2B3FD0E368002B79D01B4A31
:10333000136843F480731360FFF728FE0546174BAC
:103340001B6813F4806F63D1FFF720FE401B022837
:10335000F5D90320A3E1114A136843F480331360C5
:1033600051E703F18043A3F53C331A6842F480220D
:103370001A601A6842F480321A6044E7FFF706FECA
:103380000546064B1B6813F4003FBDD0FFF7FEFD5A
:10339000401B6428F5D9032081E100BF00100240E2
:1033A0001C6300080C000020B64BDB6803F003032D
:1033B000022BB9D1B34B1B6813F4806F03D0E368C1
:1033C000002B00F06981AF4A536823F0F85321695C
:1033D00043EA01635360236813F0080F4CD063691C
:1033E0009BB3A84AD2F8943043F00103C2F894305A
:1033F000FFF7CCFD0546A34BD3F8943013F0020F32
:103400003AD1FFF7C3FD401B0228F4D9032046E15F
:103410009C4A536823F0F853216943EA01635360DF
:10342000D9E7984A136823F480731360FFF7AEFD61
:103430000546944B1B6813F4806FCCD0FFF7A6FDB4
:10344000401B0228F5D9032029E18E4AD2F8943096
:1034500023F00103C2F89430FFF798FD0546894B2D
:10346000D3F8943013F0020F06D0FFF78FFD401B06
:103470000228F4D9032012E1236813F0040F7BD053
:10348000804B9B6D13F0805F36D17E4B9A6D42F07E
:1034900080529A659B6D03F080530193019B012537
:1034A000794B1B6813F4807F28D0A368012B39D097
:1034B000052B3FD0734BD3F8902022F00102C3F8C4
:1034C0009020D3F8902022F00402C3F89020A36843
:1034D000002B3DD0FFF75AFD06466A4BD3F89030DB
:1034E00013F0020F46D1FFF751FD801B41F28833E4
:1034F0009842F2D90320D2E00025D1E7624A13684E
:1035000043F480731360FFF741FD06465E4B1B6872
:1035100013F4807FC9D1FFF739FD801B0228F5D94C
:103520000320BCE0574AD2F8903043F00103C2F8C0
:103530009030CCE7534BD3F8902042F00402C3F80C
:103540009020D3F8902042F00102C3F89020BEE70B
:10355000FFF71CFD06464B4BD3F8903013F0020FDB
:1035600008D0FFF713FD801B41F288339842F2D94F
:10357000032094E0002D35D1A36A002B00F08E804B
:10358000404A926802F00C020C2A00F08A80022B5A
:103590002ED03C4B1A6822F080721A601B6813F020
:1035A000006F09D1374B1B6813F0005F04D1354A17
:1035B000D36823F00303D360324AD36823F08873BF
:1035C00023F48033D360FFF7E1FC04462D4B1B68E6
:1035D00013F0007F51D0FFF7D9FC001B0228F5D96A
:1035E00003205CE0274A936D23F080539365C3E783
:1035F000244A136823F080731360FFF7C7FC054665
:10360000204B1B6813F0007F06D0FFF7BFFC401B68
:103610000228F5D9032042E0236B5A1E636B1B027C
:1036200043EA0213A26B120943EA4243E26A1343DC
:10363000E26B5208013A43EA4253226C5208013AC3
:1036400043EA42630F4AD360136843F08073136008
:10365000D36843F08073D360FFF798FC0446094BAE
:103660001B6813F0007F06D1FFF790FC001B0228B7
:10367000F5D9032013E0002011E000200FE0012025
:10368000704700BF0010024000700040012006E0BB
:10369000012004E0012002E0012000E0002002B04F
:1036A00070BD0120FBE700BF002800F0968070B5D8
:1036B0000C4605464D4B1B6803F007038B420BD2AB
:1036C0004A4A136823F007030B431360136803F09F
:1036D00007038B4240F083802B6813F0010F39D031
:1036E0006B68032B09D0022B26D063BB404A1268BB
:1036F00012F0020F06D101206EE03D4A126812F06E
:10370000007F6ED03A498A6822F0030213438B602F
:10371000FFF73CFC0646364B9B6803F00C036A68D7
:10372000B3EB820F16D0FFF731FC801B41F28833D8
:103730009842F0D903204FE02D4A126812F4003F5E
:10374000E0D1012048E02A4A126812F4806FD9D1F2
:10375000012041E02B6813F0020F06D0244A936841
:1037600023F0F003A9680B439360204B1B6803F020
:103770000703A3420AD91D4A136823F00703234312
:103780001360136803F00703A3422CD12B6813F0D6
:10379000040F06D0164A936823F4E063E9680B43EC
:1037A00093602B6813F0080F07D0114A936823F435
:1037B0006053296943EAC1039360FFF735FC0C4B62
:1037C0009B68C3F303130B4AD35CD8400A4B1860C1
:1037D0000020FFF7ABFB002070BD012070470120E7
:1037E000FAE70120F8E70120F6E700BF00200240D9
:1037F000001002401C6300080C000020014B1868F8
:10380000704700BF0C00002008B5FFF7F7FF044B1E
:103810009B68C3F30223034AD35CD84008BD00BFB2
:10382000001002402C63000808B5FFF7E7FF044BC7
:103830009B68C3F3C223034AD35CD84008BD00BFD2
:10384000001002402C630008F0B482B0002341E075
:10385000D0F82CC02CEA040CC5F3C0049C4044EA08
:103860000C04C46287E0062400E00024B4403C431A
:103870000235664E46F82540654C2568D44325EA56
:1038800002064F6817F4803F01D042EA0506604DFA
:103890002E606D6804EA05064F6817F4003F01D0FA
:1038A00042EA05065A4D6E60AD6804EA05064F68A7
:1038B00017F4801F01D042EA0506554DAE60ED6851
:1038C0002C404E6816F4001F01D042EA0504504A0D
:1038D000D46001330A6832FA03F400F094800124C2
:1038E0009C402240F5D04D68022D01D0122D10D100
:1038F000DE08083650F826C003F00705AF000F2594
:10390000BD402CEA050C0D69BD4045EA0C0540F8A8
:103910002650D0F800C05E000325B540EF432CEAE6
:10392000050C4D6805F00305B54045EA0C0505603A
:103930004D6805F1FF3CBCF1010F03D9112D01D0F9
:10394000122D11D1856807EA050CCD68B54045EA0E
:103950000C058560456825EA040C4D68C5F3001523
:103960009D4045EA0C0545604D6805F0030CBCF12F
:10397000030F3FF46DAFC46827408C68B4403C43EC
:10398000C4604C6814F0805FA3D0224C256E45F0D3
:1039900001052566246E04F001040194019C9D0834
:1039A000AE1C1A4C54F8267003F00304A6000F2432
:1039B000B44027EA0407B0F1904F3FF456AF164CDD
:1039C000A04216D004F58064A04214D004F58064AF
:1039D000A04212D004F58064A04210D004F58064A7
:1039E000A0420ED004F58064A0423FF43CAF07240F
:1039F0003CE701243AE7022438E7032436E70424AD
:103A000034E7052432E702B0F0BC70470000014003
:103A10000004014000100240000400480AB1816126
:103A200070478162704770B4446C04F01C05066CEA
:103A30000124AC407460046863608368102B05D077
:103A4000036899600368DA6070BC704703689A6025
:103A50000368D960F8E70000002868D010B4034676
:103A60000068344A904244D8334A02443349A1FBA7
:103A70000212120992005A64314A1A64022283F82F
:103A80002520016821F4FF4121F070019A68DC686B
:103A900022431C6922435C6922439C692243DC69FE
:103AA00022431C6A22430A4302609A68B2F5804F9F
:103AB00015D0196C224A914226D0224A1168586CBE
:103AC00000F01C040F20A04021EA000111601168E1
:103AD00058685C6C04F01C04A04001431160002095
:103AE000D863012283F8252083F824005DF8044B75
:103AF0007047154A02441149A1FB021212099200B3
:103B00005A64124A1A64B9E7A8321168586C00F076
:103B10001C040F20A04021EA0001116011685868C0
:103B20005C6C04F01C04A04001431160D7E7012045
:103B3000704700BF07040240F8FFFDBFCDCCCCCCDE
:103B400000000240A8040240F8FBFDBF0004024050
:103B500038B5044690F82400012832D0012084F8BA
:103B6000240094F82500C0B2012804D0002384F872
:103B70002430022038BD022084F825000020E063B4
:103B80002568286820F0010028602046FFF74BFFD9
:103B9000236B5BB12268136843F00E031360226845
:103BA000136843F0010313600020E3E72268136801
:103BB00023F0040313602268136843F00A031360C0
:103BC000EDE70220D6E70000024B186800F4C06061
:103BD000704700BF00700040074AD36823F4E063D9
:103BE0001B041B0C000200F4E060034343F0BF63BE
:103BF00043F40033D360704700ED00E030B4174B5E
:103C0000DB68C3F30223C3F10704042C28BF042498
:103C10001D1D062D18D9033B4FF0FF3505FA04F49E
:103C200021EA0401994005FA03F322EA0303194348
:103C300000280BDB0901C9B200F1604000F56140CA
:103C400080F8001330BC70470023E5E700F00F0058
:103C50000901C9B2024B1954F4E700BF00ED00E0BE
:103C600014ED00E000F01F02400901239340024AD6
:103C700042F82030704700BF00E100E00138B0F1A9
:103C8000807F0AD2064B5860064AF02182F8231042
:103C90000020986007221A6070470120704700BF1B
:103CA00010E000E000ED00E0704708B5FFF7FCFF12
:103CB00008BD00000F49D1F8883043F47003C1F803
:103CC00088300D4B1A6842F001021A60002098609B
:103CD0001A6822F0A85222F410221A604FF480527F
:103CE000DA601A6822F480221A6098614FF000634B
:103CF0008B60704700ED00E000100240DFF834D028
:103D0000002103E00C4B5B58435004310B480C4B33
:103D100042189A42F6D30B4A02E0002342F8043BD1
:103D2000094B9A42F9D3FFF7C5FF00F011F8FDF7F0
:103D300017FCFEE700800120E0650008000000207D
:103D4000E8010020E8010020C4220020FEE7000076
:103D500070B50D4D0D4C641BA4100026A64209D170
:103D60000B4D0C4C02F0A0FA641BA4100026A642D6
:103D700005D170BD55F8043B98470136EEE755F87C
:103D8000043B98470136F2E7D0650008D06500088B
:103D9000D0650008D465000802440346934200D170
:103DA000704703F8011BF9E72DE9FF4755EC104B6D
:103DB000002D0E4619462B46BBBF05F100431D469C
:103DC00000232D230B700D9BDDF830A0914623F0CE
:103DD0002008BCBF22461446B8F1460F05D0B8F102
:103DE000450F00D10136022100E0032103AB01930E
:103DF00002AB009345EC104B5346324600F0ECFC0E
:103E0000B8F1470F074602D119F0010F22D0B8F1DF
:103E1000460F07EB060910D13B78302B0AD1002260
:103E2000002320462946FCF72FFE18B9C6F10106EB
:103E3000CAF80060DAF800309944002200232046D6
:103E40002946FCF721FE08B1CDF80C903022039BE7
:103E50004B4507D3039B0E9ADB1B3846136004B017
:103E6000BDE8F087591C03911A70F0E7F7B50346D7
:103E70000029B8BF494203F8022BB4BF2D222B22E0
:103E8000092942702ADD0DF10704A4460A27A64637
:103E90000A4691FBF7F607FB16153035632A04F145
:103EA000FF340EF8015C3146F1DC3031AEF1020531
:103EB00004F8011C441C294661450AD30DF109028E
:103EC000A2EB0E02654588BF00221344181A03B006
:103ED000F0BD11F8012B04F8012FEDE7302330314C
:103EE0008370C170031DF1E72DE9F04F2DED028BBA
:103EF0008DB00C46DDF8608016461F46054601F081
:103F000049FAD0F800A05046FCF742F900230A9382
:103F100023680593D8F8003094F818B0073323F0DD
:103F2000070303F10802C8F80020D3E90023C4E91D
:103F30001223D4E9128929F000430793CDF81880A1
:103F400008EE100A9F4BDDE906014FF0FF32FCF747
:103F5000CDFD88BBDDE906019A4B4FF0FF32FCF73F
:103F6000A7FD48BB0022002340464946FCF796FDCA
:103F700010B12D2384F84330934B9448BBF1470F85
:103F800094BF9846804603232361059B23F00402D7
:103F900022604FF00009009733460BAA21462846BD
:103FA00000F0D8F9013040F090804FF0FF300DB0B4
:103FB000BDEC028BBDE8F08F42464B464046494679
:103FC000FCF794FD40B14B46002BBCBF2D2384F879
:103FD00043307F487F4BD1E763680BF0DF020692E6
:103FE0005A1C3FD106236360059B616843F48062DD
:103FF000002303930AABCDE901B309AB49EC108B65
:10400000009322600DF123032846FFF7CDFE069BA7
:104010000999472B804608D1C81C02DB6368994286
:1040200041DDABF1020B5FFA8BFBBBF1650F20D8D2
:1040300001395A4604F150000991FFF717FF0A9A17
:104040001318012A8146236102DC2268D20701D5B8
:10405000013323619DF82330002B9CD02D2384F85D
:10406000433098E7069A472ABED1002BBCD10123E2
:10407000B9E7BBF1660F18D1002963680BDD216138
:1040800013B92268D00702D501330B442361A1651F
:104090004FF00009DEE713B92268D20701D50233D9
:1040A000F4E70123F2E74FF0670B0A9B994205DB27
:1040B00023682161D807EAD54B1CE7E70029D4BF64
:1040C000C1F1020201221344E0E723685A0507D434
:1040D0002369424631462846B84701302CD164E76F
:1040E000BBF1650F40F2E080D4E912010022002309
:1040F000FCF7CAFC002834D0374A01233146284651
:10410000B84701303FF451AFDDE909239A4202DBA1
:104110002368D80710D518EE103A52463146284683
:10412000B84701303FF441AF4FF0000804F11A09DD
:104130000A9B013B434509DC23689B0700F105818D
:10414000E0680B9B9842B8BF184630E701234A4607
:1041500031462846B84701303FF427AF08F101083F
:10416000E6E7099B002B39DC1B4A01233146284630
:10417000B84701303FF419AFDDE90923134302D1F9
:104180002368D907D8D518EE103A5246314628464A
:10419000B84701303FF409AF4FF0000904F11A0AA3
:1041A000099B5B424B4501DC0A9B92E70123524687
:1041B00031462846B84701303FF4F7AE09F101090E
:1041C000EEE700BFFFFFEF7F64630008686300084D
:1041D000706300086C630008746300080A9AA36D9A
:1041E0009A42A8BF1A46002A914637DC4FF0000BCE
:1041F00029EAE97904F11A02A36D0593A3EB0903F7
:104200005B4533DCDDE909239A423BDB2368DA07AF
:1042100038D40A9A059B0999D31AA2EB010999454A
:10422000A8BF9946B9F1000F35DC4FF0000829EA24
:10423000E97904F11A0ADDE909239B1AA3EB0903C2
:1042400043457FF779AF0123524631462846B847A8
:1042500001303FF4AAAE08F10108ECE713463146FD
:1042600042462846B8470130C0D19EE60123314678
:1042700028460592B84701303FF497AE059A0BF1F6
:10428000010BB9E718EE103A524631462846B847B6
:104290000130BED189E6059A4B4642443146284654
:1042A000B8470130C1D180E60A9A012A01DCDB0758
:1042B00038D50123424631462846B84701303FF4FD
:1042C00074AE18EE103A524631462846B8470130CF
:1042D0003FF46BAED4E9120100220023FCF7D4FBBB
:1042E000D8B90A9B08F10102013B31462846B8477C
:1042F00001300ED159E60123524631462846B847CF
:1043000001303FF452AE08F101080A9B013B4345DE
:10431000F1DC4B4604F15002DCE64FF0000804F1FA
:104320001A0AF2E701234246DFE701234A463146F3
:104330002846B84701303FF438AE08F10108E36879
:104340000B995B1A4345F0DCFAE64FF0000804F1E4
:104350001909F4E72DE9F047164699468A680B6972
:10436000DDF820809342B8BF1346336091F84320B4
:1043700007460C460AB1013333602368990642BFF1
:10438000336802333360256815F0060506D104F161
:10439000190AE36832689B1AAB4226DC94F8432082
:1043A000131E226818BF012392062BD404F1430286
:1043B00049463846C04701301ED02368E568326858
:1043C00003F00603042B08BFAD1AA36822690CBFD3
:1043D00025EAE57500259342C4BF9B1AED18002617
:1043E0001A34B5421AD1002008E00123524649464A
:1043F0003846C047013003D14FF0FF30BDE8F087A9
:104400000135C6E7E1185A1C302081F843002244E8
:1044100094F8451082F843100233C7E7012322467F
:1044200049463846C0470130E6D00136D9E700009A
:104430002DE9FF470C469146277E0C99782F804640
:104440009A4604F1430207D8622F0AD8002F00F0E1
:10445000D880582F00F0A38004F1420684F84270FF
:104460003AE0A7F16303152BF6D801A050F823F02A
:10447000C9440008DD4400085944000859440008B4
:104480005944000859440008DD4400085944000814
:10449000594400085944000859440008E9450008F7
:1044A0000D450008CB450008594400085944000850
:1044B0000B460008594400080D45000859440008FF
:1044C00059440008D34500080B681A1D1B680A6090
:1044D00004F1420684F842300123A3E0256808680D
:1044E0002E0600F104030AD505680B60002D03DADF
:1044F0002D236D4284F843305E480A2319E015F0FD
:10450000400F05680B6018BF2DB2EFE70B682568F8
:10451000181D0860280601D51D6802E06906FBD554
:104520001D8854486F2F0CBF08230A23002184F8EC
:1045300043106668A660002EA2BF216821F0040126
:1045400021600DB9002E4DD01646B5FBF3F103FBEB
:104550001157C75D06F8017D2F46BB420D46F4D9C1
:10456000082B0BD12368DF0708D5236961689942BE
:10457000DEBF302306F8013C06F1FF36921B2261B4
:10458000CDF800A04B4603AA21464046FFF7E2FEC5
:1045900001304CD14FF0FF3004B0BDE8F087354812
:1045A00084F8457023680E681F0656F8045B0E6099
:1045B00014D5D90744BF43F0200323601DB92368F5
:1045C00023F0200323601023B0E7236843F0200387
:1045D00023607823284884F84530E3E75E0648BF27
:1045E000ADB2E6E71646BBE70B68266860691D1D9D
:1045F0000D6035061B6801D5186002E07106FBD519
:104600001880002323611646BAE70B681A1D0A605A
:104610001E68626800213046FBF7C2FD08B1801BAE
:10462000606063682361002384F84330A8E723694E
:10463000324649464046D0470130ABD023689B07FD
:1046400013D4E068039B9842B8BF1846A4E701233F
:10465000324649464046D04701309BD00135E36899
:1046600003995B1AAB42F2DCEBE7002504F1190673
:10467000F5E700BF76630008876300080EB400B555
:104680009CB01DAB029006906FF000410948079165
:104690000491094953F8042B05910068019302A97C
:1046A00001F0C8FA029B00221A701CB05DF804EBFE
:1046B00003B07047100000200802FFFF2DE9F74FFC
:1046C00003690C69A3420746C0F28180013C01F1F5
:1046D000140800F1140505EB8403019358F8243005
:1046E00055F8242001339A424FEA840B08EB8409E1
:1046F000B2FBF3F631D34FF0000E4046AC46F24623
:1047000050F8042B93B206FB03E34FEA134E9BB21F
:10471000AAEB0303120CDCF800A006FB02E213FA7A
:104720008AF34FEA124E1FFA82FADCF80020CAEB35
:10473000124202EB23429BB243EA024381454CF80A
:10474000043B4FEA224ADBD255F80B302BB9019BD0
:10475000043B9D421A462ED33C61384601F073F863
:10476000002824DB013628464FF0000C58F8042BB3
:10477000D0F800E093B2ACEB0303120C13FA8EF303
:10478000C2EB1E4202EB23429BB243EA0243C14505
:1047900040F8043B4FEA224CE8D255F8242005EBC0
:1047A000840322B9043B9D421A460AD33C61304639
:1047B00003B0BDE8F08F1268043B002ACCD1013C65
:1047C000C7E71268043B002AF0D1013CEBE7002068
:1047D000EEE70000000000002DE9F04F2DED028B08
:1047E00057EC106B95B0456ADDF880800591CDE9F6
:1047F0000267044609920F933DB9102000F0D0FDE6
:10480000C0E9015560620560C560636A196851B10D
:104810005A684A60012393408B60204600F01CFEDA
:10482000636A00221A603B1EB9BF23F00043039362
:104830000023C8F80030DDF80C90B74BBCBF012254
:10484000C8F8002033EA09031BD10F9A42F20F7314
:104850001360C9F31303334300F07585219B63B9DB
:10486000AE4B25E0AE4B00930833219A13600098BD
:1048700015B0BDEC028BBDE8F08FA84B009303335D
:10488000F3E79DED027B002251EC170B00238DED29
:104890000A7BFCF7F9F8804660B10F9A0123136098
:1048A000219B002B00F04C859E4B219A1360013B0D
:1048B0000093DCE79DED0A0B12AA13A9204601F034
:1048C00054F8C9F30A558246002D7ED00B9BCDF8D3
:1048D0004080C3F31303DDE90A6743F07F5747F4D1
:1048E0004017A5F2FF35904B002230463946FBF7C2
:1048F000ABFC83A3D3E90023FBF75EFE82A3D3E9DD
:104900000023FBF7A3FC064628460F46FBF7EAFD0B
:104910007FA3D3E90023FBF74FFE02460B46304648
:104920003946FBF793FC06460F46FCF7F5F80022E4
:104930008146002330463946FCF7B0F848B1484676
:10494000FBF7D0FD32463B46FCF79EF808B909F16B
:10495000FF39B9F1160F56D8744B03EBC903D3E9ED
:104960000023DDE90A01FCF799F800284DD009F190
:10497000FF3900230E93129B5D1B6B1E049343BFF4
:104980000023C5F1010804934FF00008B9F1000FAE
:104990003DDB049BCDF834904B44049300230693F5
:1049A000059B092B00F29A80052BC4BF043B05939D
:1049B000059BA3F10203CCBF00250125032B00F2C8
:1049C0009980DFE803F02C7D7B89DDE912531D44DB
:1049D00005F23243202BC1BFC3F1400305F2124060
:1049E00009FA03F326FA00F0DABFC3F1200306FA4E
:1049F00003F01843FBF766FD01230646A1F1F877A3
:104A0000013D10936FE70123B4E70E90B3E7C9F1BE
:104A1000000306930023A8EB09080D93C0E70023C9
:104A20000893099B002B00F385804FF0010BCDF814
:104A300004B05B46CDF824B0666A0022726004229E
:104A400002F11400984271687AD9204600F0D0FC37
:104A5000636A30601B680093019B0E2B00F2F580A7
:104A6000002D00F0F280B9F1000F7DDD2F4A09F032
:104A70000F0302EBC30393ED007B19F4807F4FEA31
:104A80002917B0EE478AF0EE678A5DD0284BDDE942
:104A90000A01D3E90823FBF7B9FECDE9020107F0CB
:104AA0000F070325224E002F50D1DDE9020153EC00
:104AB000182BFBF7ABFECDE902016FE00123AFE756
:104AC00000230893099B09EB030B0BF10103012B56
:104AD0000193B8BF0123AFE70123F2E701250023CB
:104AE000059308954FF0FF3B0022CDF804B0122348
:104AF0000992A1E701230893F4E700BFAFF3008018
:104B000061436F63A787D23FB3C8608B288AC63FD3
:104B1000FB799F501344D33F0000F07FA16300084E
:104B200098630008756300080000F83FD863000828
:104B3000B0630008DDF824B0CDF804B05B467BE735
:104B40000131716052007BE70225ABE7F90708D518
:104B500051EC180BD6E90023FBF72EFD41EC180BA6
:104B600001357F1008369EE700F0AB80C9F10006E2
:104B7000AA4BAB4F06F00F0203EBC203D3E90023AD
:104B8000DDE90A01FBF718FDCDE90201361100232A
:104B90000225002E40F08A80002B8CD10E9B002B2A
:104BA00000F09180DDE902679E4B002230463946D5
:104BB000FBF774FF002800F08680019B002B00F0BB
:104BC0008280BBF1000F3CDD09F1FF330793002227
:104BD000954B30463946FBF7EFFCCDE90201013534
:104BE000CDF830B0DDE902672846FBF77BFC3246A2
:104BF0003B46FBF7E1FC8D4B0022FBF727FBA1F1C5
:104C00005073CDE9020103930C9B002B60D1884BBC
:104C1000002230463946FBF717FBDDE90223064642
:104C20000F46FBF759FF002840F09982DDE9022189
:104C3000304601F100433946FBF730FF002840F0D1
:104C40008B82DDE90A23CDE90223139B002BC0F2FE
:104C50005B81B9F10E0F00F35781704B03EBC90371
:104C600093ED007B099BB0EE478AF0EE678A002B3C
:104C700080F2E280019B002B00F3DE8040F06C822A
:104C80006B4B51EC170B0022FBF796FCDDE902237E
:104C9000FBF718FF019E3746002840F04282009D36
:104CA000312305F8013B09F101093EE2F20705D580
:104CB000D7E90023FBF780FC013501237610083784
:104CC00067E702256AE7019BCDF81C900C9389E702
:104CD00000990C980C9A514B9DED027B0144029176
:104CE0000899B0EE478AF0EE678A03EBC20353E9F6
:104CF0000223002945D04F490020FBF787FD53ECE4
:104D0000182BFBF7A1FA009D41EC180B39463046F1
:104D1000FBF702FF0C90FBF7E5FB02460B46304623
:104D20003946FBF791FA0C9B303305F8013B53EC05
:104D3000182B06460F46FBF7B1FE002865D1324618
:104D40003B4638490020FBF77FFA53EC182BFBF762
:104D5000A5FE002840F0B880029B9D423FF471AF51
:104D6000314B51EC180B0022FBF726FC2E4B41EC8B
:104D7000180B002230463946FBF71EFC06460F464C
:104D8000C4E751EC170BFBF717FC029B009D0C933B
:104D900041EC180B39463046FBF7BEFE1190FBF78D
:104DA000A1FB02460B4630463946FBF74DFA119BF4
:104DB000303305F8013B029B9D4206460F464FF0FB
:104DC000000225D11B4B51EC180BFBF73FFA0246B2
:104DD0000B4630463946FBF77FFE002874D153EC72
:104DE000182B14490020FBF72FFA02460B463046D9
:104DF0003946FBF753FE00283FF423AF0C9D6B1E92
:104E00000C9315F8013C302BF8D0DDF81C9049E0EC
:104E1000054BFBF7D1FB06460F46BBE7D8630008FE
:104E2000B06300080000F03F0000244000001C4078
:104E3000000014400000E03FDDE90267009D53ECF4
:104E4000182B30463946FBF7E1FCFBF765FE804640
:104E5000FBF748FB53EC182BFBF7AEFB02460B4667
:104E60003046394608F13006FBF7EEF905F8016BDC
:104E7000009E019FAE1BB74202460B4637D1FBF79F
:104E8000E5F953EC182B06460F46FBF725FEC8B98B
:104E900053EC182B30463946FBF7F6FD10B118F0ED
:104EA000010F0FD12046514600F0D6FA00232B7097
:104EB0000F9B09F101001860219B002B3FF4D7AC38
:104EC0001D60D4E4CDF81C902B461D4613F8012D2F
:104ED000392A08D1009A9A42F7D1079A00990132EB
:104EE000079230220A701A7801321A708DE79E4BB1
:104EF0000022FBF761FB0022002306460F46FBF76A
:104F0000C3FD00289BD0CDE7089A002A00F0C68098
:104F1000059A012A00F3AA80109A002A00F0A280C4
:104F200003F23343069E4546049A01211A44204663
:104F30009844049200F035FB0746002D0BDD049BDE
:104F4000002B08DDAB42049AA8BF2B46A8EB030850
:104F5000ED1AD31A0493069BFBB1089B002B00F0BB
:104F6000A180002E11DD39463246204600F0BEFBFE
:104F7000524601460746204600F01CFB514607906A
:104F8000204600F069FA079B9A46069B9A1B04D0BC
:104F90005146204600F0AAFB82460121204600F03F
:104FA00000FB0D9B002B06467EDD1A46014620467F
:104FB00000F09CFB059B012B064678DD0023069341
:104FC000336906EB8303186900F09BFAC0F12000F7
:104FD000049B184410F01F0000F08880C0F12003EB
:104FE000042B40F38180C0F11C00049B03448044E7
:104FF00005440493B8F1000F05DD514642462046B2
:1050000000F0C2FB8246049B002B05DD31461A46A8
:10501000204600F0B9FB06460E9B002B68D03146B7
:10502000504600F010FC002862DA002351460A22A4
:10503000204600F028FA089B09F1FF398246002B30
:1050400000F08881394600230A22204600F01BFA2E
:10505000BBF1000F074600F38F80059B022B40F346
:105060008B804DE0129BC3F136035BE7019B5E1E14
:10507000069BB342BFBF069B0696F21A0D9BB6BFB6
:105080009B189E1B0D93019BB8BF0026002BB5BF3C
:10509000A8EB0305019B0023454645E7069E089FB4
:1050A00045464AE7069A73E7059B012B18DC029BED
:1050B000B3B9039BC3F31303A3B9039B23F00043CA
:1050C0001B0D1B052BB1049B0133049308F1010850
:1050D000012306930D9B002B7FF472AF012077E72D
:1050E0000023F6E7029BF4E784D018461C307CE7E7
:1050F000019B002B3ADC059B022B37DDDDF804B069
:10510000BBF1000F0DD131465B460522204600F071
:10511000BAF901460646504600F095FB00283FF7D5
:10512000BEAD099B009D6FEA03094FF000083146B0
:10513000204600F091F9002F3FF4B4AEB8F1000F13
:1051400005D0B84503D04146204600F085F93946E0
:10515000204600F081F9A5E600263746E1E70C9EDF
:10516000DDF81C9037469AE500002440089BDDF8E6
:1051700004B0002B00F0F580002D05DD39462A46ED
:10518000204600F001FB0746069B002B55D07968AE
:10519000204600F02DF93A6902320546920007F1E7
:1051A0000C010C3000F016F901222946204600F0CF
:1051B000EBFA009B01330193009B5B440793029B36
:1051C00003F00103B84606930746019B314650465B
:1051D00003F1FF3BFFF772FA03463033029041467A
:1051E0005046089300F02FFB3A4604903146204683
:1051F00000F045FBC268089B054602BB01465046CD
:1052000000F021FB089B024629462046CDE90832E2
:1052100000F022F9059B099A019D43EA0201069BD1
:105220000B43089B0DD1392B27D0049A002A01DDAE
:10523000029B31338BF8003079E73846B9E7012219
:10524000E2E70499002904DB05980143069801432D
:1052500020D1002AEEDD514601222046019300F0C4
:1052600093FA3146824600F0EEFA0028019B02DCF8
:10527000E0D1DA07DED5392BDAD139238BF80030CB
:105280002B461D46013B15F8012C392A50D001321E
:105290001A704CE7002A03DD392BEED00133C9E741
:1052A000019A079902F8013C8A422AD0514600230C
:1052B0000A22204600F0E7F8B84582464FF0000386
:1052C0004FF00A024146204607D100F0DCF8804644
:1052D0000746019B0133019377E700F0D4F8394684
:1052E000804600230A22204600F0CDF80746F0E76A
:1052F000BBF1000F009ACCBF5D46012515444FF06D
:105300000008514601222046019300F03DFA314643
:10531000824600F098FA0028B2DC02D1019BDB073C
:10532000AED42B461D4613F8012D302AFAD0FEE6E6
:10533000009A9A42A5D1312309F101091370F6E6CA
:10534000124BFFF7B5BA219B002B7FF48BAA104BB1
:10535000FFF7AEBABBF1000F03DC059B022B3FF752
:10536000CFAE009D31465046FFF7A8F900F130035B
:1053700005F8013B009AAA1A9345B9DD514600236E
:105380000A22204600F07FF88246EBE774630008AB
:105390009863000800487047640100207047704718
:1053A000024B0146186800F08FBB00BF10000020C0
:1053B00082B001B901A942B14BB113780B601278E8
:1053C000101E18BF012002B070471046FBE76FF0B7
:1053D0000100F8E70A44914200F1FF3300D1704721
:1053E00010B511F8014B03F8014F9142F9D110BDEE
:1053F00070B5466A04460D463EB91020FFF7D0FF4F
:10540000C0E9016660620660C660666AF36883B1DF
:10541000636ADB6853F82500B8B9012101FA05F683
:10542000721D9200204600F0F0FA60B1C0E901560A
:105430000EE021220421204600F0E7FA636AF060C2
:10544000DB68002BE4D1002070BD026843F8252002
:105450000023C0E90333F7E770B5466A05460C46FA
:105460003EB91020FFF79CFFC0E901666862066044
:10547000C6603CB16B6A6268DB6853F82210216039
:1054800043F8224070BD2DE9F0410E690746984669
:105490000C4601F1140000230568A9B202FB01814A
:1054A0004FEA114C2D0C02FB05C589B2013301EB0B
:1054B00005419E4240F8041B4FEA1548ECDCB8F168
:1054C000000F1BD0A368B34212DC6168384601317B
:1054D000FFF78EFF2269023204F10C0105469200AB
:1054E0000C30FFF777FF21463846FFF7B5FF2C4613
:1054F00004EB86030136C3F8148026612046BDE81C
:10550000F081030C1B04D3B90004102310F07F4F6B
:1055100004BF0002083310F0704F04BF00010433D1
:1055200010F0404F04BF80000233002805DB10F06C
:10553000804F03F1010308BF202318467047002362
:10554000E4E7036813F0070201460BD0DA0724D41E
:10555000980749BF5B089B0801200B605CBF0B608C
:105560000220704798B2B0B91B0C102013F0FF0F47
:1055700004BF1B0A08301A0704BF1B0904309A072E
:1055800004BF9B080230DA0703D45B0800F1010076
:1055900005D00B6070471046E8E7002070472020D8
:1055A000704710B50C460121FFF722FF012244612C
:1055B000026110BD2DE9F04F15460A692B699A4228
:1055C000B8BF0B460C46BCBF2C461D462769D5F814
:1055D0001090A368616807EB0906B342B8BF0131B8
:1055E00085B0FFF705FF00F1140101EB86080B46BB
:1055F000002243451DD304F1140305F1140203EB0B
:10560000870702EB890302933B1B153B23F003033F
:10561000043304F11505AF4238BF04230193029B04
:105620000392934208D8002E5ADC066105B0BDE80B
:10563000F08F43F8042BDCE7B2F800A0BAF1000FBA
:1056400024D004F1140E89464FF0000C5EF8045B80
:10565000D9F800B0ABB21FFA8BFB0AFB03B34FEAD9
:10566000154BD9F8005063444FEA154C0AFB0BC5A3
:1056700005EB13459BB243EA0543774549F8043BE4
:105680004FEA154CE2D8019B41F803C0039BB3F8E5
:1056900002900432B9F1000F20D00B6804F1140C11
:1056A0008E464FF0000ABCF80050BEF802B009FB6D
:1056B00005B5AA449BB243EA0A434EF8043B5CF8A2
:1056C000043BBEF800501B0C09FB035303EB1A43C9
:1056D00067454FEA134AE6D8019D4B5104319EE7D6
:1056E00058F8043D002BA0D1013E9CE72DE9F8437A
:1056F000154612F0030206460F4607D0214C013A28
:10570000002354F82220FFF7BEFE0746AD1035D027
:10571000746A3CB91020FFF743FEC0E9014470628F
:105720000460C460D6F82480D8F808404CB940F230
:1057300071213046FFF735FF0023C8F80800044602
:1057400003604FF00009EB070AD539462246304680
:10575000FFF730FF394680463046FFF77DFE47466B
:105760006D100BD0206838B9224621463046FFF72D
:1057700021FF2060C0F800900446E4E73846BDE809
:10578000F88300BFA06400082DE9F0470C46496883
:10579000236903EB6218A368074691464FEA621A31
:1057A00008F10106B3423FDB3846FFF721FE002334
:1057B000054600F1140100F110021846534536DB8E
:1057C00020692AEAEA7A04F1140319F01F0901EBAF
:1057D0008A0103EB800C2ED0C9F1200E8A460022EC
:1057E000186800FA09F002434AF8042B53F8042B16
:1057F0009C4522FA0EF2F3D8ACEB0403153B23F0E0
:105800000303043304F11500604588BF0423CA5024
:105810000AB108F10206013E38462E612146FFF723
:105820001BFE2846BDE8F08701315B00BAE742F86D
:10583000040F0133C2E7043953F8042B41F8042F55
:105840009C45F9D8E7E730B502690C69121B0ED107
:1058500000F11403143103EB840001EB840150F8D0
:10586000045D51F8044DA54203D005D30122104632
:1058700030BD8342F3D3FAE74FF0FF32F7E72DE96B
:10588000F84F0C460646114620461746FFF7DBFF49
:10589000051E08D129463046FFF7AAFD0123C0E9BD
:1058A0000435BDE8F88FA4BF3B46274630467968EB
:1058B000A6BF1C4600250125FFF79AFD3E69C5607D
:1058C000256907F1140104F1140900F1140E07F120
:1058D000100201EB860C09EB8505F246002759F80A
:1058E000043B52F804BF1FFA83F817FA8BF71B0C1E
:1058F000A7EB0808C3EB1B4303EB28431FFA88F808
:105900001F144D4548EA03434AF8043BE7D82B1BD4
:10591000153B23F0030304331534A54238BF042399
:10592000194473449E460D4665450ED30CF103029F
:10593000521A22F0030203398C4538BF00221A4460
:1059400052F8043D7BB10661ABE755F8048B17FABA
:1059500088F4221402EB1842A4B244EA02444EF83E
:10596000044B1714E0E7013EEAE72DE9F7438946C7
:10597000012157EC106B9046FFF73AFDC7F30A552B
:105980000446C7F3130335BB002E019328D06846A5
:105990000096FFF7D6FD009900B3019AC0F12003ED
:1059A00002FA03F30B43C24063610192019BA361BE
:1059B000002B14BF022201222261D5B1A5F233458A
:1059C0000544C9F80050C0F13500C8F80000204671
:1059D00003B0BDE8F08343F48013D5E76161E5E7E8
:1059E00001A8FFF7AEFD019B636101222261203017
:1059F000E3E704EB8203A0F23240C9F80000186923
:105A0000FFF77FFDC0EB4210DFE713B54A431146B5
:105A1000019200F059F8044618B1019A0021FEF7EE
:105A2000BBF9204602B010BD37B5002948D051F867
:105A3000043C0190002BA1F10404B8BFE41800F06D
:105A400031FA204A01981368154633B9636014602F
:105A500003B0BDE8304000F02BBAA3420BD9216857
:105A60006218934204BF1A685B68636004BF5218EF
:105A700022602C60ECE71A465B680BB1A342FAD9AE
:105A800011685518A5420BD1246821445418A3422B
:105A90001160DDD11C685B68536021441160D7E759
:105AA00002D90C230360D3E7256861198B4204BF38
:105AB00019685B68636004BF491921605460C7E7D7
:105AC00003B030BD08020020F8B5CD1C25F0030559
:105AD00008350C2D38BF0C25002D064601DBA942E8
