:020000040800F2
:10000000008001200D2D00085D2D00085D2D0008E9
:100010005D2D00085D2D00085D2D0008000000002A
:100020000000000000000000000000005D2D00083E
:100030005D2D0008000000005D2D00088111000802
:100040005D2D00085D2D00085D2D00085D2D000868
:100050005D2D00085D2D00085D2D00085D2D000858
:100060005D2D00085D2D00085D2D0008C10D000804
:100070005D2D00085D2D00085D2D00085D2D000838
:100080005D2D00085D2D00085D2D00085D2D000828
:100090005D2D00085D2D00085D2D00085D2D000818
:1000A0005D2D00085D2D00085D2D00085D2D000808
:1000B0005D2D00085D2D00085D2D00085D2D0008F8
:1000C0005D2D00085D2D00085D2D00085D2D0008E8
:1000D0005D2D00085D2D00085D2D00085D2D0008D8
:1000E0005D2D00085D2D00085D2D00085D2D0008C8
:1000F0005D2D00085D2D00085D2D00085D2D0008B8
:100100005D2D00085D2D00085D2D00085D2D0008A7
:100110005D2D00085D2D00085D2D00085D2D000897
:100120005D2D00085D2D00085D2D00085D2D000887
:100130005D2D00085D2D00085D2D00085D2D000877
:100140005D2D00085D2D00085D2D00085D2D000867
:100150005D2D00085D2D00085D2D00085D2D000857
:100160005D2D00085D2D00085D2D00085D2D000847
:100170005D2D00085D2D00085D2D000800000000C9
:080180005D2D00085D2D000853
:1001880010B5054C237833B9044B13B10448AFF3C9
:1001980000800123237010BD7800002000000000BB
:1001A800F4350008084B10B51BB108480849AFF3EF
:1001B80000800848036803B910BD074B002BFBD02B
:1001C800BDE81040184700BF00000000F4350008E3
:1001D8007C000020780000200000000081F0004131
:1001E80002E000BF83F0004330B54FEA41044FEA14
:1001F800430594EA050F08BF90EA020F1FBF54EAAF
:10020800000C55EA020C7FEA645C7FEA655C00F04A
:10021800E2804FEA5454D4EB5555B8BF6D420CDD1B
:100228002C4480EA020281EA030382EA000083EA9E
:10023800010180EA020281EA0303362D88BF30BD3E
:1002480011F0004F4FEA01314FF4801C4CEA113194
:1002580002D0404261EB410113F0004F4FEA0333F3
:100268004CEA133302D0524263EB430394EA050F7E
:1002780000F0A780A4F10104D5F1200E0DDB02FAED
:100288000EFC22FA05F2801841F1000103FA0EF281
:10029800801843FA05F359410EE0A5F120050EF147
:1002A800200E012A03FA0EFC28BF4CF0020C43FA78
:1002B80005F3C01851EBE37101F0004507D54FF085
:1002C800000EDCF1000C7EEB00006EEB0101B1F5D5
:1002D800801F1BD3B1F5001F0CD349085FEA30001B
:1002E8004FEA3C0C04F101044FEA445212F5800F26
:1002F80080F09A80BCF1004F08BF5FEA500C50F1C3
:10030800000041EB045141EA050130BD5FEA4C0CA5
:10031800404141EB010111F4801FA4F10104E9D12E
:1003280091F0000F04BF01460020B1FA81F308BF25
:100338002033A3F10B03B3F120020CDA0C3208DDF1
:1003480002F1140CC2F10C0201FA0CF021FA02F1CC
:100358000CE002F11402D8BFC2F1200C01FA02F13C
:1003680020FA0CFCDCBF41EA0C019040E41AA2BF61
:1003780001EB0451294330BD6FEA04041F3C1CDA29
:100388000C340EDC04F11404C4F1200220FA04F049
:1003980001FA02F340EA030021FA04F345EA0301F3
:1003A80030BDC4F10C04C4F1200220FA02F001FAB5
:1003B80004F340EA0300294630BD21FA04F0294637
:1003C80030BD94F0000F83F4801306BF81F48011D0
:1003D8000134013D4EE77FEA645C18BF7FEA655C43
:1003E80029D094EA050F08BF90EA020F05D054EA15
:1003F800000C04BF1946104630BD91EA030F1EBF1A
:100408000021002030BD5FEA545C05D1400049411D
:1004180028BF41F0004130BD14F580043CBF01F510
:10042800801130BD01F0004545F0FE4141F47001F6
:100438004FF0000030BD7FEA645C1ABF19461046D1
:100448007FEA655C1CBF0B46024650EA013406BFD2
:1004580052EA033591EA030F41F4002130BD00BF91
:1004680090F0000F04BF0021704730B54FF480644E
:1004780004F132044FF000054FF0000150E700BFCF
:1004880090F0000F04BF0021704730B54FF480642E
:1004980004F1320410F0004548BF40424FF000011B
:1004A8003EE700BF42004FEAE2014FEA31014FEA5E
:1004B80002701FBF12F07F4393F07F4F81F06051AD
:1004C800704792F0000F14BF93F07F4F704730B51C
:1004D8004FF4607401F0004521F0004120E700BFAF
:1004E80050EA010208BF704730B54FF000050AE036
:1004F80050EA010208BF704730B511F0004502D537
:10050800404261EB41014FF4806404F132045FEA38
:10051800915C3FF4DCAE4FF003025FEADC0C18BFDD
:1005280003325FEADC0C18BF033202EBDC02C2F1D3
:10053800200300FA03FC20FA02F001FA03FE40EA65
:100548000E0021FA02F11444C1E600BF53B94AB9BA
:10055800002908BF00281CBF4FF0FF314FF0FF30C3
:1005680000F03CB882B0EC462DE9005000F01EF8CF
:10057800DDF804E002B00CBC704700BF2DE9F04183
:10058800069C154606460F46984600F029F805FBD6
:1005980001F300FB0838A5FB0023B21A434467EBBC
:1005A8000303C4E90023BDE8F08100BF2DE9F04151
:1005B800069C904606460F461D4600F05FF900FB74
:1005C80005F5A0FB082308FB0155B21A2B4467EB7D
:1005D8000303C4E90023BDE8F08100BF704700BFF2
:1005E80000292DE9F043C0F2A6800026002BC0F2B6
:1005F8009C80884694469E46154604460F46002B26
:100608003DD18A4259D9B2FA82F33BB1C3F12002F3
:100618009F4020FA02F29D4017439C40290C220C6F
:10062800B7FBF1FEA8B201FB1E7742EA074700FBC1
:100638000EF3BB420AD97F190EF1FF3280F0058113
:10064800BB4240F20281AEF1020E2F44FF1AA4B25F
:10065800B7FBF1F301FB137744EA074700FB03F00C
:10066800B84208D97F1903F1FF3280F0F080B84210
:1006780040F2ED80023B43EA0E43002203E08B4246
:100688000FD900221346341C18BF012460424FF0D2
:10069800000565EB45015840514000196941BDE826
:1006A800F083B3FA83F2002A40F086808B4202D3AB
:1006B800844500F2DB800123E5E712B90123B3FB8F
:1006C800F2F5B5FA85F000283BD1781B4FEA154EB4
:1006D8001FFA85FC0122B0FBFEF8210C0EFB18075F
:1006E80041EA07470CFB08F3BB4207D97F1908F119
:1006F800FF3102D2BB4200F2BD808846FF1AA4B285
:10070800B7FBFEF30EFB137744EA07470CFB03FC29
:10071800BC4507D97F1903F1FF3102D2BC4500F26D
:10072800A7800B4643EA0843ADE752426FEA060644
:1007380063EB43035DE7404261EB41014FF0FF3655
:1007480054E7C0F1200224FA02F107FA00F38540C9
:100758004FEA154ED7401943B7FBFEF20B0C0EFBC0
:1007680012771FFA85FC43EA07430CFB02F79F4206
:1007780004FA00F407D95B1902F1FF3074D29F42E2
:1007880072D9023A2B44DF1B89B2B7FBFEF80EFB85
:10079800187341EA03430CFB08F79F4208D95B1919
:1007A80008F1FF315CD29F425AD9A8F102082B44C4
:1007B800D81B48EA02428EE7C2F120032CFA03F163
:1007C8000EFA02FE20FA03F741EA0E0E08FA02F0CA
:1007D80028FA03F14FEA1E453843B1FBF5F8030C3C
:1007E80005FB18111FFA8EF743EA014107FB08F3CE
:1007F8008B420CFA02FC09D911EB0E0108F1FF3902
:1008080030D28B422ED9A8F102087144C91A80B29D
:10081800B1FBF5F305FB131140EA014107FB03F7B0
:100828008F4208D911EB0E0103F1FF3016D28F4227
:1008380014D9023B714443EA0843C91BA3FB0C8942
:10084800494509D305D000221DE79646FEE6134622
:1008580011E794404445F6D2013BF4E70346EAE742
:100868008846A5E7C846D1E702468CE713460AE75B
:10087800023B57E7A8F102082F443FE72DE9F04172
:10088800002B44D18A42154604464FD9B2FA82F762
:100898000E464FB1C7F12003B94020FA03F602FA19
:1008A80007F50E4300FA07F44FEA154E230CB6FB82
:1008B800FEF0AFB20EFB106143EA014307FB00F103
:1008C800994209D95B1900F1FF3280F0EC80994216
:1008D80040F2E98002382B445A1AA4B2B2FBFEF364
:1008E8000EFB132244EA024207FB03F7974208D99A
:1008F800521903F1FF3180F0D880974240F2D58039
:10090800023B43EA004000263146BDE8F0818B42B5
:1009180047D8B3FA83F6002E48D18B4202D38242DD
:1009280000F2CD8001203146BDE8F08112B90125E1
:10093800B5FBF2F5B5FA85F8B8F1000F77D14A1B87
:100948004FEA154EAFB20126B2FBFEF0230C0EFBA8
:10095800102143EA014107FB00F38B4207D94919EB
:1009680000F1FF3202D28B4200F2BA801046C91A57
:10097800A4B2B1FBFEF30EFB131144EA014407FBDA
:1009880003F7A74208D9641903F1FF3280F08F807A
:10099800A74240F28C80023B43EA00403146BDE862
:1009A800F081002630463146BDE8F081C6F12004CA
:1009B80022FA04F5B3402B4320FA04FC01FA06F7A7
:1009C80021FA04F54FEA134E4CEA0707B5FBFEF887
:1009D800390C0EFB18551FFA83FC41EA05450CFB40
:1009E80008F1A94202FA06F204D9ED1808F1FF3419
:1009F80067D3A0466D1ABFB2B5FBFEF40EFB1455C3
:100A080047EA05410CFB04FC8C4504D9C91804F1DC
:100A1800FF355CD32C4644EA0844CCEB0101A4FB27
:100A28000223994248D344D0204600266CE7C8F1F7
:100A3800200401FA08F305FA08F520FA04F7E14062
:100A48004FEA154E1F43B1FBFEF63A0C0EFB16118A
:100A58001FFA85FC42EA01430CFB06F29A4200FAAF
:100A680008F407D95B1906F1FF3137D29A4235D914
:100A7800023E2B449B1ABFB2B3FBFEF00EFB1033B1
:100A880047EA03430CFB00F1994207D95B1900F1CF
:100A9800FF3221D299421FD902382B445A1A40EA10
:100AA8000646674650E7104616E70B4629E7134601
:100AB80072E7B0409042B7D2601E002624E7304665
:100AC80022E7A94295D9A8F102081D4492E78C456E
:100AD800A0D9023C19449EE71046DFE70E46C9E755
:100AE8000238294443E700BF0A4B9B6813F0005FB4
:100AF80004D0084A936823F000539360054A93682A
:100B080043F0805393604FF47A5300E0013B002B8D
:100B1800FCD170470000045010B53C4AD36C43F434
:100B28000053D3643A4CA36823F00103A360E3683D
:100B380023F47073E360E36843F44073E360354B78
:100B48009A6842F480729A609A6842F480029A60C5
:100B58009A6822F470129A609A6822F440329A6075
:100B68009A6842F480329A609A6822F01F029A606A
:100B7800FFF7BAFFE36823F00803E360E36823F0B4
:100B88001003E360E36823F02003E360236B23F0A2
:100B98000F032363236B43F4C0732363D4F8B0308B
:100BA80023F04003C4F8B030636923F4E0136361B1
:100BB800636943F440236361E36823F40053E3600B
:100BC800E36843F40053E360E36843F00203E3603F
:100BD800E36843F00103E360E36823F44063E36000
:100BE800E36843F48063E360A36843F00403A3600D
:100BF800A36823F00103A360A36843F00103A36083
:100C0800034B1B6813F0010FFAD010BD001002400F
:100C180000000450000304500D4BDA6C22F001026E
:100C2800DA64DA6C42F00102DA644FF090431A6831
:100C380022F00C021A601A6842F00C021A60DA6894
:100C480022F00C02DA60DA6A42F00202DA627047D5
:100C580000100240184A936D43F004039365174B44
:100C68001A6822F060021A601A6822F010021A60EC
:100C78005A6822F070025A605A6842F040025A607C
:100C88009A6922F4803222F070029A619A6942F0DD
:100C980060029A6107229A6240F2E732DA624FF400
:100CA800FA725A631A6A42F001021A621A6842F02A
:100CB80001021A60704700BF00100240000800409F
:100CC8000B4A936823F001039360094B1B6813F0E8
:100CD800010FFAD1064B9A6822F080429A609A680E
:100CE80042F000429A60024B9B68002BFBDB704786
:100CF800000004502A4A936C43F001039364294B83
:100D08001A6822F480421A601A6822F440521A6063
:100D18001A6842F400521A601A6822F440721A6083
:100D28001A6842F480721A601A6822F440621A60E3
:100D38001A6842F480621A601A6822F040021A6047
:100D48001A6822F080021A601A6842F080021A605B
:100D58001A6842F020021A601A6822F010021A601B
:100D68005860114A9A60114A1268DA601A6842F0AB
:100D780002021A601A6822F004021A600C4A002162
:100D880082F80B134FF4006111600A490A6822F0D7
:100D98000F020A601A6842F001021A60704700BF29
:100DA80000100240080002404000045004000020E7
:100DB80000E100E0A8000240144B1B6813F0020F8A
:100DC8001DD0124A536843F002035360104B1A684F
:100DD800104B9A4206D11A460D4B1A600E4A0F4B19
:100DE8001A6005E00C4A0A4B1A600A4A0B4B1A6053
:100DF800074B1A680A4BDA6001220A4B1A60034A49
:100E0800536843F00D035360704700BF0000024071
:100E180000000020A400002044100020040000204E
:100E28000800024094000020FEE700BF00B5B9B0FA
:100E3800022327934FF480732A9310232B930023C4
:100E4800319327A800F05AFE18B11E48B421FFF7C5
:100E5800EBFF0F2322930123239300212491259153
:100E6800269122A801F01CF918B11648C221FFF7F3
:100E7800DBFF0223009300230F93684601F050FB29
:100E880018B11048C921FFF7CFFF4FF4007001F0E7
:100E98005DFE18B10B48D021FFF7C6FF01F0ACF991
:100EA800094BA3FB0030800901F0DCFE042001F0AF
:100EB800EFFE4FF0FF3000210A4601F0A1FE39B0E5
:100EC8005DF804FB38360008D34D621030B58BB09E
:100ED800524B6C4693E803008DE80300002302930D
:100EE800039304930593069307930893099300F0DB
:100EF8001DFDFFF79BFF00F0ADF800F0F7F8484D37
:100F0800284669460F2240F6FF7300F025FCFFF7DC
:100F180083FE444A6B4607CA03C31A7028466946CB
:100F28000F2240F6FF7300F017FC3F4A6B4607CAD2
:100F380003C31A70FFF78EFE284669460F2240F653
:100F4800FF7300F009FC394A6B4607CA03C31A70DD
:100F5800FFF7B6FE284669460F2240F6FF7300F0F9
:100F6800FBFB334A6B4607CA03C31A70FFF7D4FD6D
:100F7800284669460F2240F6FF7300F0EDFB2D4A24
:100F88006B4607CA03C31A700120FFF7B3FE284651
:100F980069460F2240F6FF7300F0DEFB264B93E80C
:100FA800070003C42270254BD3ED107AF8EE677A58
:100FB800234B93ED007A67EE877A17EE900AFFF7D6
:100FC80071FA02460B4668461E4901F0EBFE1448CA
:100FD80069460F2240F6FF7300F0BEFB1A4B1B68F0
:100FE800002BFBD0194B1B68186807EE900AF8EE27
:100FF800677A17EE900AFFF755FA02460B466846DD
:10100800134901F0CFFE064869460F2240F6FF73E8
:1010180000F0A2FB00220C4B1A60C4E7103600084F
:10102800E41F002044360008503600085C360008EB
:10103800683600087436000880360008000004503E
:10104800080000208C3600089400002004000020CE
:101058009C36000810B58AB0214BDA6C42F00402C5
:10106800DA64DA6C02F004020192019ADA6C42F056
:101078008002DA64DA6C02F080020292029ADA6C78
:1010880042F00102DA64DA6C02F001020392039A78
:10109800DA6C42F00202DA64DB6C03F002030493B8
:1010A800049B4FF090402021002201F041FD4FF4B5
:1010B800005305930B4B0693002407940A4805A98F
:1010C80001F04AFC20230593012306930794089412
:1010D8004FF0904005A901F03FFC0AB010BD00BFD9
:1010E80000100240000021100008004808B50C4814
:1010F8000C4B03604FF4E133436000238360C3600B
:1011080003610C2242618361C3610362436200F0A0
:10111800C1FB18B104484421FFF786FE08BD00BF93
:10112800E41F002000440040B03600080268114B5C
:101138009A421ED100B587B003F5E6339A6D42F4A2
:1011480000329A659B6D03F400330093009B0C23D7
:101158000193022302930023039303230493072399
:1011680005934FF0904001A901F0F6FB07B05DF838
:1011780004FB70470044004008B500F0E9FB01F0AB
:1011880099FD08BD00B583B0214B1A6E42F00102EB
:101198001A661A6E02F001020092009A9A6D42F0E5
:1011A80080529A659B6D03F080530193019B032045
:1011B80001F014FD6FF00B0000210A4601F020FD3C
:1011C8006FF00A0000210A4601F01AFD6FF00900CD
:1011D80000210A4601F014FD6FF0040000210A46C0
:1011E80001F00EFD6FF0030000210A4601F008FD32
:1011F8006FF0010000210A4601F002FD4FF0FF30B8
:1012080000210A4601F0FCFC03B05DF804FB00BFB6
:10121800001002402DE9704F0446826803691A43A2
:1012280043691A43C369134301680868A04A024026
:1012380013430B6021684B6823F44052E36813435F
:101248004B60A36922689B498A4201D0216A0B43FB
:10125800916821F430610B4393602368964A934266
:1012680013D102F55842D2F8882002F00302032A6B
:1012780009D8DFE802F0020498060125A0E0042559
:101288009EE008259CE010259AE08C4A934218D1EC
:1012980002F5E632D2F8882002F00C020C2A0ED8A9
:1012A800DFE802F0070D0D0D090D0D0D830D0D0D75
:1012B8000B00002584E0042582E0082580E0102545
:1012C8007EE07F4A934217D102F5E432D2F88820B3
:1012D80002F03002102A09D001D82AB10AE0202AE7
:1012E80065D0302A04D005E0002569E0042567E0D0
:1012F800082565E0102563E0724A934217D102F58C
:10130800E232D2F8882002F0C002402A09D001D87F
:101318002AB10AE0802A4CD0C02A04D005E0002572
:101328004EE004254CE008254AE0102548E0664ACE
:1013380093421AD102F5E032D2F8882002F44072C2
:10134800B2F5807F0BD001D83AB10CE0B2F5007F3E
:1013580031D0B2F5407F04D005E0002530E0042507
:101368002EE008252CE010252AE0524A934224D189
:1013780002F5C832D2F8882002F44062B2F5806FD4
:101388000BD001D83AB10CE0B2F5006F17D0B2F526
:10139800406F04D005E0002512E0042510E0082580
:1013A8000EE010250CE002250AE0022508E00225DF
:1013B80006E0022504E0022502E0102500E00225EF
:1013C8003C4A934240F08880082D11D8DFE805F0A8
:1013D800081005100C10101013003C4800260DE0F2
:1013E80000F010FF002609E000F008FB002605E0E9
:1013F8000020012602E04FF400400026002800F0FB
:101408000C81626802EB4203834200F2FD80B0EB7C
:10141800023F00F2FB80082D3ED8DFE805F0053DCD
:10142800173D213D3D3D330000F0ECFE00234FEA1F
:1014380010694FEA00286268500818EB000A49F161
:10144800000B50465946FFF781F827E0530820481B
:101458000021C01841F100010023FFF777F81DE0D3
:1014680000F0CCFA00234FEA10694FEA00286268BE
:10147800500818EB000A49F1000B50465946FFF78F
:1014880065F80BE05008002110F5000041F100015B
:101498000023FFF75BF801E001260020A0F5407269
:1014A8000C4B9A4200F2B4802368D860B5E000BFC4
:1014B800F369FFEF0080004000380140004400401D
:1014C80000480040004C0040005000400024F40058
:1014D800000024F4FFFC0F00E369B3F5004F4DD181
:1014E800082D3BD8DFE805F005101B3A263A3A3AB2
:1014F800310000F087FE63685A0802EB4000B0FB39
:10150800F3F39BB200262BE000F08CFE63685A08C8
:1015180002EB4000B0FBF3F39BB2002620E06168C9
:101528004A0802F1F47303F59043B3FBF1F39BB25D
:10153800002615E000F062FA63685A0802EB4000E2
:10154800B0FBF3F39BB200260AE06268530803F588
:101558008033B3FBF2F39BB2002601E0012600239F
:10156800A3F110014FF6EF72914253D823F00F0206
:10157800C3F3420313432268D3604EE0082D38D8E2
:10158800DFE805F0050F1937243737372E0000F04C
:1015980039FE636800EB5300B0FBF3F080B200261D
:1015A80029E000F03FFE636800EB5300B0FBF3F066
:1015B80080B200261FE06068420802F5740303F554
:1015C8001053B3FBF0F080B2002614E000F016FAD6
:1015D800636800EB5300B0FBF3F080B200260AE02A
:1015E8006068430803F50043B3FBF0F080B20026BF
:1015F80001E001260020A0F110024FF6EF739A4295
:101608000AD82368D86008E0012606E0012604E02D
:10161800012602E0012600E0012600232366636616
:101628003046BDE8708F00BF436A13F0010F06D043
:1016380001684B6823F40032836A13434B60436AA2
:1016480013F0020F06D001684B6823F48032C36A96
:1016580013434B60436A13F0040F06D001684B68CC
:1016680023F48022036B13434B60436A13F0080F83
:1016780006D001684B6823F40042436B13434B6068
:10168800436A13F0100F06D001688B6823F4805268
:10169800836B13438B60436A13F0200F06D00168F5
:1016A8008B6823F40052C36B13438B60436A13F0B7
:1016B800400F11D001684B6823F48012036C134368
:1016C8004B60036CB3F5801F06D101684B6823F4A7
:1016D800C002436C13434B60436A13F0800F06D07B
:1016E80001684B6823F40022836C13434B607047F6
:1016F8002DE9F04106460C4617469846069D1EE021
:10170800B5F1FF3F1BD02DB100F02AF9C8EB00005E
:10171800A84214D93268136823F4D073136032686E
:10172800936823F001039360202386F8713086F8CC
:101738007230002386F870300320BDE8F0813368EA
:10174800DB692340A34214BF00230123BB42D7D047
:101758000020BDE8F08100BF2DE9F04182B00446C9
:101768001E4690F87130DBB2202B4DD10D469046C5
:1017780000294BD0002A4BD090F87030012B49D06B
:10178800012380F8703000234367212380F87130EB
:1017980000F0E6F80746A4F85080A4F852801EE04E
:1017A80000962046802100223B46FFF7A1FF98BB08
:1017B800A368B3F5805F08D1236933B9226835F887
:1017C800023BC3F30803138503E023682A781A85CC
:1017D8000135B4F85230013B9BB2A4F85230B4F84A
:1017E80052309BB2002BDBD10096204640210022CC
:1017F8003B46FFF77DFF034680B9202284F871201D
:10180800002284F870200AE0022308E0012306E0A1
:10181800012304E0022302E0032300E00323184627
:1018280002B0BDE8F08100BF30B583B004460023A4
:10183800436700F095F8054623681B6813F0080F06
:101848000AD06FF07E43009320464FF40011002227
:101858002B46FFF74DFFC0B923681B6813F0040F30
:101868000AD06FF07E43009320464FF48001002297
:101878002B46FFF73DFF50B9202384F8713084F8D8
:101888007230002084F8700002E0032000E003209A
:1018980003B030BD80B310B5044690F8713013F032
:1018A800FF0F04D1002380F87030FFF73FFC24239A
:1018B80084F871302268136823F00103136020460E
:1018C800FFF7A8FC012819D0636A13B12046FFF777
:1018D800ABFE2268536823F49043536022689368F0
:1018E80023F02A0393602268136843F0010313600E
:1018F8002046FFF799FF10BD0120704710BD00BFBB
:1019080010B50446074B1B680748A0FB0330800945
:1019180001F0A8F94FF0FF302146002201F070F9DC
:10192800002010BD0C000020D34D621008B5074AF6
:10193800136843F480731360032001F04FF900200B
:10194800FFF7DEFFFFF71EFC002008BD0020024065
:10195800024A136801331360704700BF5C200020FF
:10196800014B1868704700BF5C20002030B583B079
:101978000546204B9B6D13F0805F02D001F0DEF826
:101988000FE01C4CA36D43F08053A365A36D03F0D7
:1019980080530193019B01F0D1F8A36D23F080538C
:1019A800A365B0F5007F05D1802D0AD9A02D0AD9ED
:1019B80002210FE0802D08D809D0702D09D0002110
:1019C80008E0002106E0012104E0032102E00221F1
:1019D80000E00121084A136823F007030B43136052
:1019E800136803F007038B4201D0012000E00020B8
:1019F80003B030BD00100240002002403B4B9B6802
:101A080013F00C0F0BD0394B9B6803F00C030C2B15
:101A18001ED1364BDB6803F00303012B18D1334B7F
:101A28001B6813F0080F05D1304BD3F89430C3F37B
:101A3800032303E02D4B1B68C3F303132C4A52F80E
:101A480023102A4B9B6813F00C0F10D0002015E0D0
:101A5800264B9B6803F00C03042B0AD0234B9B688E
:101A680003F00C03082B07D00020014606E00846C7
:101A780004E02048002101E01F4800211B4A926829
:101A880002F00C020C2A30D1184BDA6802F003027B
:101A9800DB68C3F302130133022A02D0032A0AD0F7
:101AA80013E01448B0FBF3F0104BDB68C3F30623D4
:101AB80003FB00F311E01048B0FBF3F30B4AD268C4
:101AC800C2F3062202FB03F307E0B1FBF3F3074A74
:101AD800D268C2F3062202FB03F3044AD068C0F3BB
:101AE800416001304000B3FBF0F070470010024045
:101AF800D43600080024F40000127A00002800F010
:101B08009E8270B582B00446036813F0100F00F08F
:101B18009D80A84B9B6813F00C0F5AD1A54B1B68EE
:101B280013F0020F03D08369002B00F08A82206A29
:101B3800A04B1B6813F0080F04D09E4B1B6803F0E2
:101B4800F00305E09B4BD3F8943003F470631B0952
:101B5800984217D9FFF70AFF002840F07482954B86
:101B68001A6842F008021A601A6822F0F001226A24
:101B78000A431A605A6822F47F42E16942EA012264
:101B88005A6017E08B4B1A6842F008021A601A680C
:101B980022F0F001226A0A431A605A6822F47F424E
:101BA800E16942EA01225A60206AFFF7DFFE002855
:101BB80040F04B82FFF722FF7E4B9B68C3F3031371
:101BC8007D4AD35CD8407D4B18600020FFF798FE13
:101BD8003CE0836933B3774A136843F00103136029
:101BE800FFF7BEFE054605E0FFF7BAFE401B0228D8
:101BF80000F22D826F4B1B6813F0020FF4D06D4B6F
:101C08001A6842F008021A601A6822F0F001226A83
:101C18000A431A605A6822F47F42E16942EA0122C3
:101C28005A6013E0634A136823F001031360FFF757
:101C380097FE054605E0FFF793FE401B022800F2D9
:101C480008825C4B1B6813F0020FF4D1236813F071
:101C5800010F5ED0574B9B6803F00C03082B0BD089
:101C6800544B9B6803F00C030C2B0ED1514BDB68D3
:101C780003F00303032B08D14E4B1B6813F4003FFA
:101C880047D06368002B44D1E5E16368B3F5803F32
:101C980005D1484A136843F48033136018E0B3F55C
:101CA800A02F0CD103F18043A3F53C331A6842F40A
:101CB80080221A601A6842F480321A6008E03D4BAC
:101CC8001A6822F480321A601A6822F480221A6094
:101CD80063687BB1FFF744FE054605E0FFF740FE69
:101CE800401B642800F2B981324B1B6813F4003F93
:101CF800F4D00EE0FFF734FE054605E0FFF730FEAE
:101D0800401B642800F2AB812A4B1B6813F4003F88
:101D1800F4D1236813F0020F5DD0264B9B6803F0C3
:101D28000C03042B0BD0234B9B6803F00C030C2BE8
:101D380017D1204BDB6803F00303022B11D11D4B95
:101D48001B6813F4806F03D0E368002B00F08981CF
:101D5800184A536823F0F853216943EA0163536032
:101D680039E0E368E3B1134A136843F480731360FE
:101D7800FFF7F6FD054605E0FFF7F2FD401B0228D8
:101D880000F271810B4B1B6813F4806FF4D0094A81
:101D9800536823F0F853216943EA016353601AE05A
:101DA800044A136823F480731360FFF7D9FD0546CE
:101DB8000CE000BF00100240BC3600080C000020F8
:101DC800FFF7CEFD401B022800F24F81B24B1B6883
:101DD80013F4806FF4D1236813F0080F30D06369CF
:101DE800BBB1AD4AD2F8943043F00103C2F8943045
:101DF800FFF7B6FD054605E0FFF7B2FD401B0228D8
:101E080000F23581A44BD3F8943013F0020FF3D0CD
:101E180016E0A14AD2F8943023F00103C2F89430B6
:101E2800FFF79EFD054605E0FFF79AFD401B0228D7
:101E380000F21F81984BD3F8943013F0020FF3D1BE
:101E4800236813F0040F7FD0934B9B6D13F0805FD2
:101E58000BD1914B9A6D42F080529A659B6D03F0BD
:101E680080530193019B012500E000258B4B1B68E3
:101E780013F4807F13D1894A136843F48073136085
:101E8800FFF76EFD064605E0FFF76AFD801B022896
:101E980000F2F180814B1B6813F4807FF4D0A368B3
:101EA800012B07D17C4AD2F8903043F00103C2F8E5
:101EB80090301CE0052B0DD1774BD3F8902042F0E1
:101EC8000402C3F89020D3F8902042F00102C3F82E
:101ED80090200CE0704BD3F8902022F00102C3F858
:101EE8009020D3F8902022F00402C3F89020A36831
:101EF80093B1FFF735FD064607E0FFF731FD801B7C
:101F080041F28833984200F2B880634BD3F890309E
:101F180013F0020FF1D011E0FFF722FD064607E0AB
:101F2800FFF71EFD801B41F28833984200F2A7801C
:101F3800594BD3F8903013F0020FF1D125B1564A1E
:101F4800936D23F080539365A36A002B00F099806A
:101F5800514A926802F00C020C2A00F09480022B7D
:101F680043D14D4A136823F080731360FFF7F8FCE0
:101F7800054605E0FFF7F4FC401B022800F28580C7
:101F8800454B1B6813F0007FF4D1236B5A1E636B1B
:101F98001B0243EA0213A26B120943EA4242E36AB4
:101FA8001343E26B5208013A43EA4253226C520847
:101FB800013A43EA4263384AD360136843F08073B6
:101FC8001360D36843F08073D360FFF7C9FC0446FD
:101FD80004E0FFF7C5FC001B022858D82E4B1B68ED
:101FE80013F0007FF5D0002054E02B4B1A6822F044
:101FF80080721A601B6813F0006F09D1264B1B68AA
:1020080013F0005F04D1244AD36823F00303D3609C
:10201800214AD36823F0887323F48033D360FFF711
:102028009FFC044604E0FFF79BFC001B022830D805
:10203800194B1B6813F0007FF5D100202AE001201E
:102048007047012026E0012024E0012022E003203F
:1020580020E003201EE001201CE003201AE00320FA
:1020680018E0012016E0032014E0032012E003200A
:1020780010E003200EE003200CE003200AE0032018
:1020880008E0002006E0012004E0032002E003202D
:1020980000E0032002B070BD001002400070004054
:1020A800002800F0918070B504464F4B1B6803F080
:1020B80007038B420AD24C4A136823F007030B43E9
:1020C8001360136803F007038B427FD10D46236822
:1020D80013F0010F35D06368032B05D1434A12680A
:1020E80012F0007F14D173E0022B05D13F4A126829
:1020F80012F4003F0CD16DE02BB93C4A126812F083
:10210800020F05D168E0394A126812F4806F65D071
:1021180036498A6822F0030213438B60FFF720FCDC
:10212800064606E0FFF71CFC801B41F28833984204
:1021380056D82E4B9B6803F00C036268B3EB820FF2
:10214800F0D1236813F0020F06D028498B6823F0DA
:10215800F002A36813438B60234B1B6803F007034B
:10216800AB420AD9204A136823F007032B431360B4
:10217800136803F00703AB4234D1236813F0040F4C
:1021880006D01A498B6823F4E062E36813438B6036
:10219800236813F0080F07D0144A936823F4605398
:1021A800216943EAC1039360FFF728FC0F4B9B6842
:1021B800C3F303130E4AD35CD8400E4B18600020BB
:1021C800FFF79EFB002070BD01207047012070BD05
:1021D800012070BD012070BD012070BD012070BDBF
:1021E800032070BD012070BD002002400010024095
:1021F800BC3600080C000020014B1868704700BF6F
:102208000C00002008B5FFF7F7FF044B9B68C3F3E9
:102218000223034AD35CD84008BD00BF0010024027
:10222800CC36000808B5FFF7E7FF044B9B68C3F3FB
:10223800C223034AD35CD84008BD00BF0010024047
:10224800CC360008F8B55E4BDB6813F0030F12D0EC
:102258005B4BDB6803F003030268934241D1002A19
:1022680041D0574BDB68C3F30213013342689342F2
:102278003BD100243AE00368022B0AD0032B0FD08D
:10228800012B19D14E4A126812F0020F16D0002401
:102298001BE04B4A126812F4806F11D0002414E03E
:1022A800474A126812F4003F0CD1454A126812F4EA
:1022B800802F09D0002408E0012406E0012404E06E
:1022C800012402E0002400E001247CB93C4EF268BD
:1022D80022F073024568013D43EA05131343F36096
:1022E80004E0012402E0012400E00124002C64D170
:1022F8000F460546324A136823F080631360FFF7E0
:102308002FFB064604E0FFF72BFB801B022805D8AD
:102318002B4B1B6813F0006FF5D100E00324002C51
:102328004BD177B92648036923F41F3121F4407152
:10233800AE68EB681A09520442EA06230B430361AC
:1023480020E0012F0FD11E4E336923F4C00121F480
:10235800FE41A8682B695A08013A520542EA00234F
:102368000B4333610EE0164E336923F0C06121F44C
:10237800FE41A8686B695A08013A520642EA0023EE
:102388000B4333610E4A136843F080631360FFF711
:10239800E7FA064604E0FFF7E3FA801B022805D8AF
:1023A800074B1B6813F0006FF5D000E0032424B935
:1023B800034A1169AB690B4313612046F8BD00BF9E
:1023C80000100240F8B5554BDB6813F0030F12D02C
:1023D800524BDB6803F003030268934241D1002AA1
:1023E80041D04E4BDB68C3F302130133426893427A
:1023F8003BD100243AE00368022B0AD0032B0FD00C
:10240800012B19D1454A126812F0020F16D0002488
:102418001BE0424A126812F4806F11D0002414E0C5
:102428003E4A126812F4003F0CD13C4A126812F47A
:10243800802F09D0002408E0012406E0012404E0EC
:10244800012402E0002400E001247CB9334EF26844
:1024580022F073024568013D43EA05131343F36014
:1024680004E0012402E0012400E00124002C52D100
:102478000F460546294A136823F080531360FFF777
:102488006FFA064604E0FFF76BFA801B022805D8AE
:10249800224B1B6813F0005FF5D100E00324002CE9
:1024A80039D177B91D48436923F41F3121F44071AC
:1024B800AE68EB681A09520442EA06230B434361EB
:1024C8000EE0164E736923F0C06121F4FE41A8683E
:1024D8002B695A08013A520642EA00230B437361FA
:1024E8000E4A136843F080531360FFF739FA064623
:1024F80004E0FFF735FA801B022805D8074B1B6854
:1025080013F0005FF5D000E0032424B9034A5169B1
:102518006B690B4353612046F8BD00BF00100240B1
:102528002DE9F04182B00446036813F4006F2ED001
:10253800436EB3F5800F17D001D87BB11AE0B3F51D
:10254800000F04D0B3F5400F14D1002613E0BA4AA7
:10255800D36843F48033D36000260CE004300021B4
:10256800FFF770FE064606E020300021FFF72AFF3D
:10257800064600E001266EB9AF49D1F8883023F449
:102588004002636E1343C1F88830374603E00027E2
:102598003E4600E03746236813F4805F2DD0A36ED3
:1025A800B3F1807F15D001D86BB119E0B3F1007F8A
:1025B80003D0B3F1407F14D012E09F4AD36843F4AC
:1025C8008033D3600DE0201D0021FFF73BFE064657
:1025D80007E004F120000021FFF7F4FE064600E0C2
:1025E80001264EB99449D1F8883023F04072A36E81
:1025F8001343C1F8883000E03746236813F4003FDE
:1026080074D08D4B9B6D13F0805F0CD18A4B9A6D03
:1026180042F080529A659B6D03F080530193019BB1
:102628004FF0010801E04FF00008844A136843F4B2
:1026380080731360FFF794F9054604E0FFF790F9FB
:10264800401B022805D87D4B1B6813F4807FF5D00A
:1026580000E00326002E3ED1774BD3F8903013F4D8
:10266800407316D0D4F884209A4212D0724AD2F815
:10267800903023F44073D2F8901041F48031C2F8BE
:102688009010D2F8901021F48031C2F89010C2F85E
:10269800903013F0010F12D0FFF762F9054606E0FB
:1026A800FFF75EF9401B41F28833984206D8624B27
:1026B800D3F8903013F0020FF2D000E0032666B989
:1026C8005D49D1F8903023F44072D4F88430134334
:1026D800C1F8903002E0374600E03746B8F1000F05
:1026E80004D0554A936D23F080539365236813F003
:1026F800010F08D05049D1F8883023F00302A36BAA
:102708001343C1F88830236813F0020F08D04A49F0
:10271800D1F8883023F00C02E36B1343C1F88830FA
:10272800236813F0040F08D04349D1F8883023F008
:102738003002236C1343C1F88830236813F0080F64
:1027480008D03D49D1F8883023F0C002636C1343A8
:10275800C1F88830236813F0100F08D03649D1F833
:10276800883023F44072A36C1343C1F8883023687F
:1027780013F0200F08D03049D1F8883023F4406294
:10278800E36C1343C1F88830236813F4007F08D042
:102798002949D1F8883023F44022E36D1343C1F866
:1027A8008830236813F4806F08D02349D1F8883023
:1027B80023F44012236E1343C1F88830236813F0C2
:1027C800400F08D01C49D1F8883023F44052236DBB
:1027D8001343C1F88830236813F0800F08D01649D6
:1027E800D1F8883023F44042636D1343C1F8883030
:1027F800236813F4807F08D00F49D1F8883023F478
:102808004032A36D1343C1F88830236813F4005F86
:102818001FD00949D1F8883023F04062E36E134392
:10282800C1F88830E36EB3F1006F09D1CB6843F487
:102838008013CB600DE000BF001002400070004024
:10284800B3F1806F05D1201D0121FFF7FBFC00B11A
:102858000746236813F4002F1AD03E49D1F8883070
:1028680023F04062236F1343C1F88830236FB3F11C
:10287800006F04D1CB6843F48013CB6008E0B3F158
:10288800806F05D1201D0121FFF7DCFC00B1074650
:10289800236813F4802F1AD02E49D1F8883023F0FA
:1028A8004062636F1343C1F88830636FB3F1006F00
:1028B80004D1CB6843F48013CB6008E0B3F1806F98
:1028C80005D1201D0121FFF7BDFC00B10746236893
:1028D80013F4804F1FD01F49D1F8883023F040529D
:1028E800A36F1343C1F88830A36FB3F1805F05D19C
:1028F800201D0221FFF7A6FC50B90CE0B3F1005FE0
:1029080009D104F120000221FFF75CFD10B902E0B3
:10291800074600E00746236813F4004F08D00D4926
:10292800D1F8883023F08042E36F1343C1F8883030
:10293800236813F4803F09D00649D1F8883023F082
:102948000042D4F880301343C1F88830384602B0CA
:10295800BDE8F081001002402DE9F04182B000236B
:10296800D4E001249C40224000F0CF804D68022D25
:1029780001D0122D14D14FEAD30808F1080850F8F5
:10298800287003F0070E4FEA8E0E0F2505FA0EF594
:1029980027EA05060D6905FA0EF5354340F8285073
:1029A80006684FEA430E032505FA0EF5ED4305EADE
:1029B80006074E6806F0030606FA0EF63E43066062
:1029C8004E68771E012F03D9112E01D0122E11D176
:1029D800866805EA0607CE6806FA0EF63E43866064
:1029E800466826EA04074E68C6F3001606FA0CF68F
:1029F8003E4346604E6806F00307032F08D1C76AB6
:102A080027EA0404C6F3C00606FA0CF62643C66293
:102A1800C4682C408D6805FA0EF52543C5604C68DE
:102A280014F0805F71D03E4C256E45F00105256697
:102A3800246E04F001040194019C9C08A61C394DE5
:102A480055F8266003F00307BF000F25BD4026EAAE
:102A58000506B0F1904F24D0334DA8421FD005F59C
:102A68008065A84219D005F58065A84213D005F500
:102A78008065A8420DD005F58065A84207D005F508
:102A88008065A84201D106250CE007250AE0052546
:102A980008E0042506E0032504E0022502E00125FC
:102AA80000E00025BD40354302341E4E46F8245050
:102AB8001E4C2568D44304EA05064F6817F4803F86
:102AC80001D042EA0506194D2E606D6804EA050634
:102AD8004F6817F4003F01D042EA0506134D6E60B7
:102AE800AD6804EA05064F6817F4801F01D042EA72
:102AF80005060E4DAE60ED682C404E6816F4001FBA
:102B080001D042EA0504094AD46001330A689C46A8
:102B180032FA03F47FF425AF02B0BDE8F08100BFBC
:102B28000010024000000140000400480004014079
:102B38000AB1816170478162704700BF024B186813
:102B480000F4C060704700BF00700040B0F5007F1F
:102B58002AD1204B1B6803F4C063B3F5007F33D040
:102B68001C4A136823F4C06343F4007313601A4BC0
:102B78001B6802F1467202F55B3202F28322A2FB65
:102B880003239A0C322303FB02F300E0013B23B139
:102B9800104A526912F4806FF8D10E4B5B6913F436
:102BA800806F13D0032070470A4B1B6803F4C0637F
:102BB800B3F5806F0CD0074A136823F4C06343F45D
:102BC8008063136000207047002070470020704722
:102BD80000207047007000400C00002000F0070043
:102BE800064AD36823F4E0631B041B0C43EA002065
:102BF80040F0BF6040F40030D060704700ED00E066
:102C080030B4164BDC68C4F30224C4F10705042D64
:102C180028BF0425231D062B01D9033C00E000240E
:102C2800012303FA05F5013D2940A140A340013BDA
:102C38001A400A43002806DA00F00F001201D2B247
:102C4800074B1A5407E01201D2B200F1604000F5B8
:102C5800614080F8002330BC704700BF00ED00E001
:102C680014ED00E00138B0F1807F0AD2064B5860BD
:102C7800F021064A82F823100020986007221A6083
:102C880070470120704700BF10E000E000ED00E051
:102C9800042805D1054A136843F0040313607047FC
:102CA800024A136823F004031360704710E000E041
:102CB800704700BF08B5FFF7FBFF08BD0F49D1F803
:102CC800883043F47003C1F888300D4B1A6842F01D
:102CD80001021A60002098601A6822F0A85222F4B3
:102CE80010221A604FF48052DA601A6822F48022A7
:102CF8001A6098614FF000638B60704700ED00E048
:102D080000100240DFF834D0002103E00C4B5B5880
:102D1800435004310B480C4B42189A42F6D30B4AE5
:102D280002E0002342F8043B094B9A42F9D3FFF72B
:102D3800C5FF00F011F8FEF7C9F8FEE70080012092
:102D48005837000800000020780000207800002094
:102D580064200020FEE7000070B50E4B0E4CE41A0C
:102D6800A41000251E46A54204D056F825309847E1
:102D78000135F8E700F03AFC084C094BE41AA410B6
:102D880000251E46A54204D056F82530984701353F
:102D9800F8E770BD48370008483700084C37000886
:102DA800483700080EB400B59CB04FF40271ADF876
:102DB80014106FF00041049107914FF6FF711DAB9D
:102DC800ADF81610084953F8042B029006900868CD
:102DD800019302A900F064F8029B00221A701CB04B
:102DE8005DF804EB03B07047700000202DE9F04750
:102DF8008E68B34282460C469046994640D38A89EB
:102E080012F4906F3AD0256809696F1A6569022330
:102E180005EB450595FBF3F57B1C4B449D4238BFFC
:102E28001D4653050FD5294600F03CFB064698B1D0
:102E380021693A4600F0CBFAA38923F4906343F062
:102E48008003A38113E02A4600F082FB064670B98E
:102E58005046216900F0E2FA0C23CAF80030A38931
:102E680043F04003A3814FF0FF30BDE8F0872661AF
:102E780065613E44ED1B2660A5604E46B14500D213
:102E88004E4632462068414600F0ACFAA3689B1BC8
:102E9800A36023681E4426600020BDE8F087000078
:102EA8002DE9F0439DB0064603938B891C060D4619
:102EB80090460CD50B6953B9402100F0F3FA28600D
:102EC800286110B90C233360CCE040236B610023E8
:102ED800099320238DF8293030238DF82A30434672
:102EE8001C4613F8012B1AB9B4EB08090FD002E0FD
:102EF800252AF5D1F8E73046294642464B46FFF7E2
:102F080075FF013000F0A980099B4B440993237891
:102F1800002B00F0A28000234FF0FF3204930793A8
:102F2800059206938DF853301A9304F1010844462C
:102F3800DFF8489121784846052200F039FA08F16F
:102F48000108049B30B1C9EB000001228240134301
:102F58000493ECE7D80644BF20228DF853201907C4
:102F680044BF2B228DF8532022782A2A02D00799B1
:102F780023460EE0039A111D12680391002ABBBF75
:102F8800524243F0020307920792B8BF04930134F8
:102F98000AE01C4601332278303A092A03D80A206D
:102FA80000FB0121F5E7079123782E2B1AD16378CE
:102FB8002A2B0AD1039B1A1D1B680392002BB8BF4A
:102FC8004FF0FF33023405930CE0611C00220C46DD
:102FD80001312378303B092B03D80A2000FB023249
:102FE800F5E70592DFF8988021784046032200F043
:102FF800DFF938B1049AC8EB00004023834013433B
:103008000493013421781A488DF82810062204F117
:10301800010800F0CDF988B1164B33B9039B07338B
:1030280023F007030833039313E003AB0093304600
:1030380004A92A46104BAFF3008007E003AB0093C6
:10304800304604A92A460C4B00F092F8421C074669
:1030580003D0099B3B44099341E7AB895B0601D444
:10306800099801E04FF0FF301DB0BDE8F08300BFC4
:103078001037000800000000F52D0008063700088A
:103088000C3700082DE9F84391461F468A680B69FA
:10309800DDF820809342B8BF1346C9F8003091F894
:1030A800432006460C4612B10133C9F800302368A4
:1030B800990642BFD9F800300233C9F800302568B4
:1030C80015F006051CD094F843302268003318BF69
:1030D800012392061FD5E1185A1C302081F84300BD
:1030E800224494F8451082F84310023313E0304626
:1030F800394604F119020123C047013007D00135D0
:10310800E368D9F800209B1A9D42F0DBDBE74FF01B
:10311800FF30BDE8F8833046394604F14302C04722
:103128000130F4D02268D9F80050E36802F00602B2
:10313800042A08BF5D1B2269A3680CBF25EAE57550
:1031480000259342C4BF9B1AED184FF00009A9450A
:103158000ADA3046394604F11A020123C047013021
:10316800D5D009F10109F2E70020BDE8F883000095
:103178002DE9FF410C461746227E6E2A98460646E0
:103188000A9B01F1430100F0AF8012D8632A23D0D3
:103198000AD8002A00F0BC80582A40F0CB8084F876
:1031A8004520DFF804E257E0642A1ED0692A1CD0C3
:1031B800C0E0732A00F0B08009D86F2A2ED0702A98
:1031C80040F0B880226842F0200222603FE0752A71
:1031D80024D0782A3BD0ADE01A68111D1960136815
:1031E80084F8423004F14205A8E020681A6810F01B
:1031F800800F02D0101D186008E010F0400F02F197
:103208000400186002D0B2F9003000E01368002B07
:103218003EDA2D225B4284F8432039E020681A68A0
:1032280010F0800F02D0101D186007E010F0400F5A
:1032380002F10400186001D0138800E01368227EB0
:10324800DFF864E16F2A0CBF08220A221CE078220A
:10325800DFF858E184F845202268186812F0800FDA
:1032680000F104051D6003D1550601D5038800E06F
:103278000368D00744BF42F0200222601BB92268CD
:1032880022F0200222601022002084F8430002E08D
:10329800DFF814E10A226568A560002DA2BF206846
:1032A80020F00400206003B965B10D46B3FBF2F0CD
:1032B80002FB10331EF8033005F8013D03460028D1
:1032C800F4D100E00D46082A0BD12368DA0708D5A7
:1032D800236962689A42DEBF302305F8013C05F194
:1032E800FF35491B21612EE025681A68606915F0D1
:1032F800800F03D0151D1D60136808E015F0400FFE
:1033080002F104051D60136801D0188000E0186000
:10331800002323610D4616E01A68111D196015680F
:1033280062682846002100F043F808B1401B60603D
:10333800636804E004F1420584F842200123236114
:10334800002384F84330CDF800803046214603AA94
:103358003B46FFF797FE013002D14FF0FF301FE0E8
:10336800304639462A462369C0470130F5D02368DC
:103378009B0705D4E068039B9842B8BF18460FE046
:103388000025E368039A9B1A9D42F3DA30463946D2
:1033980004F119020123C0470130DED00135F0E7FE
:1033A80004B0BDE8F08100BF1737000828370008CF
:1033B80010B5C9B202449042034606D01C788C422C
:1033C80000F10100F7D1184610BD002010BD10B55E
:1033D800431E0A44914204D011F8014B03F8014FEF
:1033E800F8E710BD814210B501EB020301D3421E7C
:1033F8000BE09842FBD28118D21AD34204D013F8BA
:10340800014D01F8014DF8E710BD994204D011F8BB
:10341800014B02F8014FF8E710BD000030B5002954
:103428003DD051F8042C0B1F1D49002AB8BF9B182A
:103438000A680C4612B95A600B6030BD93420DD22F
:1034480019685818904201BF5A5852181A604268B1
:103458005A60236030BD994203D80A465168002952
:10346800F9D1146815199D420AD11B682344D01854
:103478008842136013D10868034413604B680DE059
:1034880002D90C23036030BD1C681819884204BF98
:1034980008684968596004BF00191860536030BD56
:1034A8009C00002070B5CC1C24F0030408340C2CBC
:1034B80038BF0C24002C064603DA0C2333600020A6
:1034C80070BD8C42F9D3204A136810461946A1B141
:1034D8000A68121B0ED40B2A03D90A608B188C5069
:1034E8001FE08B420DBF5A684A685A60026018BFD5
:1034F8000B4616E00B464968E9E7144D2B681BB9E3
:10350800304600F04BF828603046214600F046F877
:10351800421C0346D1D0C51C25F0030585420AD1BB
:103528001C6003F10B001A1D20F00700821A0AD054
:103538005142995070BD3046E91A00F02FF8013019
:10354800BBD02B46ECE770BD9C0000209800002003
:10355800F8B5074615460E4621B91146BDE8F840AC
:10356800FFF7A0BF1AB9FFF759FF2846F8BD00F0CA
:1035780025F8A8420ED238462946FFF793FF04469D
:1035880050B131462A46FFF722FF38463146FFF749
:1035980045FF01E03046F8BD2046F8BD38B5064C79
:1035A800002305460846236000F012F8431C02D1A8
:1035B800236803B12B6038BD6020002051F8040C4B
:1035C8000028BEBF091851F8043CC01804387047D9
:1035D800044A05491368002B08BF0B4618441060BD
:1035E80018467047A000002068200020F8B500BFEA
:1035F800F8BC08BC9E467047F8B500BFF8BC08BCCC
:083608009E467047000000001F
:103610005468696E670A0D00000000000000000099
:10362000000000000000000000000000000000009A
:1036300000000000000000005372632F6D61696E8E
:103640002E6300005468696E67310A0D00000000A7
:103650005468696E67320A0D000000005468696E94
:1036600067330A0D000000005468696E67340A0D64
:10367000000000005468696E67350A0D0000000004
:103680005468696E67360A0D0000000054686520B2
:103690004144432069732025640A0D005468652065
:1036A00053656E736F722069732025660A0D0000E2
:1036B0005372632F75736172742E630000000000F3
:1036C00000000000010203040607080900000000D2
:1036D00001020304A0860100400D0300801A0600C9
:1036E00000350C0040420F0080841E0000093D00A0
:1036F00000127A000024F40000366E010048E80150
:10370000006CDC024300232D302B2000686C4C0041
:1037100065666745464700303132333435363738D1
:10372000394142434445460030313233343536372F
:1037300038396162636465660000000000000000C3
:08374000A8CEFF7F010000008C
:08374800AD01000800000000C3
:083750008901000800000000DF
:1037580044100020A40000200D68533B00093D00E0
:103768000000000000000000000000000000000051
:103778000000000000000000000000000000000041
:1037880004370008000000000000000000000000EE
:103798000000000000000000000000000000000021
:1037A8000000000000000000000000000000000011
:1037B8000000000000000000000000000000000001
:0837C8001000002000000000C9
:0400000508002D0DB5
:00000001FF
