:020000040800F2
:1000000000800120A9350008F9350008F9350008FD
:10001000F9350008F9350008F9350008000000003E
:10002000000000000000000000000000F93500089A
:10003000F935000800000000F93500082D1A000805
:10004000F9350008F9350008F9350008F9350008D8
:10005000F9350008F9350008F9350008F9350008C8
:10006000F9350008F9350008F93500086916000867
:10007000F9350008F9350008F9350008F9350008A8
:10008000F9350008F9350008E5160008F9350008CB
:10009000F9350008F9350008F9350008F935000888
:1000A000F9350008F9350008F9350008F935000878
:1000B000F9350008F9350008F9350008F935000868
:1000C000F9350008F9350008F9350008F935000858
:1000D000F9350008F9350008F9350008F935000848
:1000E000F9350008F9350008F9350008F935000838
:1000F000F9350008F9350008F9350008F935000828
:10010000F9350008F9350008F9350008F935000817
:10011000F9350008F9350008F9350008F935000807
:10012000F9350008F9350008F9350008F9350008F7
:10013000F9350008F9350008F9350008F9350008E7
:10014000F9350008F9350008F9350008F9350008D7
:10015000F9350008F9350008F9350008F9350008C7
:10016000F9350008F9350008F9350008F9350008B7
:10017000F9350008F9350008F935000800000000DD
:08018000F9350008F93500080B
:10019000034613F8012B002AFBD1181A01387047C7
:1001A00001F0FF01102A2BDB10F0070F08D010F828
:1001B000013B013A8B422DD010F0070F42B3F6D12C
:1001C000F0B441EA012141EA014122F007047FF045
:1001D00000070023F0E80256083C85EA010586EA9C
:1001E000010685FA47F5A3FA87F586FA47F6A5FAD8
:1001F00087F68EB9EED1F0BC01F0FF0102F00702E4
:1002000032B110F8013B013A83EA010313B1F8D18E
:100210000020704701387047002D06BF354603386F
:10022000073815F0010F07D1013015F4807F02BFA8
:10023000013015F4C03F0130F0BC0138704700BFF9
:1002400081F0004102E000BF83F0004330B54FEA87
:1002500041044FEA430594EA050F08BF90EA020FF4
:100260001FBF54EA000C55EA020C7FEA645C7FEA87
:10027000655C00F0E2804FEA5454D4EB5555B8BFAA
:100280006D420CDD2C4480EA020281EA030382EA1B
:10029000000083EA010180EA020281EA0303362DAD
:1002A00088BF30BD11F0004F4FEA01314FF4801C80
:1002B0004CEA113102D0404261EB410113F0004F92
:1002C0004FEA03334CEA133302D0524263EB430349
:1002D00094EA050F00F0A780A4F10104D5F1200EE7
:1002E0000DDB02FA0EFC22FA05F2801841F1000142
:1002F00003FA0EF2801843FA05F359410EE0A5F116
:1003000020050EF1200E012A03FA0EFC28BF4CF046
:10031000020C43FA05F3C01851EBE37101F00045FC
:1003200007D54FF0000EDCF1000C7EEB00006EEB09
:100330000101B1F5801F1BD3B1F5001F0CD3490893
:100340005FEA30004FEA3C0C04F101044FEA4452EA
:1003500012F5800F80F09A80BCF1004F08BF5FEA71
:10036000500C50F1000041EB045141EA050130BD51
:100370005FEA4C0C404141EB010111F4801FA4F1F4
:100380000104E9D191F0000F04BF01460020B1FA49
:1003900081F308BF2033A3F10B03B3F120020CDA81
:1003A0000C3208DD02F1140CC2F10C0201FA0CF05F
:1003B00021FA02F10CE002F11402D8BFC2F1200CC4
:1003C00001FA02F120FA0CFCDCBF41EA0C0190407A
:1003D000E41AA2BF01EB0451294330BD6FEA0404C3
:1003E0001F3C1CDA0C340EDC04F11404C4F12002AE
:1003F00020FA04F001FA02F340EA030021FA04F3C0
:1004000045EA030130BDC4F10C04C4F1200220FA16
:1004100002F001FA04F340EA0300294630BD21FA54
:1004200004F0294630BD94F0000F83F4801306BF1A
:1004300081F480110134013D4EE77FEA645C18BF0E
:100440007FEA655C29D094EA050F08BF90EA020FA5
:1004500005D054EA000C04BF1946104630BD91EA9D
:10046000030F1EBF0021002030BD5FEA545C05D1A0
:100470004000494128BF41F0004130BD14F58004DF
:100480003CBF01F5801130BD01F0004545F0FE4153
:1004900041F470014FF0000030BD7FEA645C1ABF88
:1004A000194610467FEA655C1CBF0B46024650EABF
:1004B000013406BF52EA033591EA030F41F40021EB
:1004C00030BD00BF90F0000F04BF0021704730B571
:1004D0004FF4806404F132044FF000054FF0000146
:1004E00050E700BF90F0000F04BF0021704730B507
:1004F0004FF4806404F1320410F0004548BF4042DC
:100500004FF000013EE700BF42004FEAE2014FEA30
:1005100031014FEA02701FBF12F07F4393F07F4F0B
:1005200081F06051704732F07F4208BF704793F00E
:100530007F4F04BF41F40021704730B54FF4607421
:1005400001F0004521F000411CE700BF50EA010224
:1005500008BF704730B54FF000050AE050EA0102CD
:1005600008BF704730B511F0004502D5404261EB3D
:1005700041014FF4806404F132045FEA915C3FF47E
:10058000D8AE4FF003025FEADC0C18BF03325FEA1B
:10059000DC0C18BF033202EBDC02C2F1200300FACC
:1005A00003FC20FA02F001FA03FE40EA0E0021FAF1
:1005B00002F11444BDE600BF70B54FF0FF0C4CF4DF
:1005C000E06C1CEA11541DBF1CEA135594EA0C0F91
:1005D00095EA0C0F00F0DEF82C4481EA030621EACC
:1005E0004C5123EA4C5350EA013518BF52EA033507
:1005F00041F4801143F4801338D0A0FB02CE4FF0B9
:100600000005E1FB02E506F00042E0FB03E54FF0E8
:100610000006E1FB03569CF0000F18BF4EF0010EE0
:10062000A4F1FF04B6F5007F64F5407404D25FEADC
:100630004E0E6D4146EB060642EAC62141EA55518F
:100640004FEAC52040EA5E504FEACE2EB4F1FD0CD1
:1006500088BFBCF5E06F1ED8BEF1004F08BF5FEA4F
:10066000500E50F1000041EB045170BD06F0004601
:1006700046EA010140EA020081EA0301B4EB5C04AE
:10068000C2BFD4EB0C0541EA045170BD41F48011A6
:100690004FF0000E013C00F3AB8014F1360FDEBFCB
:1006A000002001F0004170BDC4F10004203C35DAA7
:1006B0000C341BDC04F11404C4F1200500FA05F32A
:1006C00020FA04F001FA05F240EA020001F00042CB
:1006D00021F0004110EBD37021FA04F642EB060141
:1006E0005EEA430E08BF20EAD37070BDC4F10C046B
:1006F000C4F1200500FA04F320FA05F001FA04F22F
:1007000040EA020001F0004110EBD37041F100011A
:100710005EEA430E08BF20EAD37070BDC4F1200525
:1007200000FA05F24EEA020E20FA04F301FA05F28D
:1007300043EA020321FA04F001F0004121FA04F235
:1007400020EA020000EBD3705EEA430E08BF20EA05
:10075000D37070BD94F0000F0FD101F0004640003F
:1007600041EB010111F4801F08BF013CF7D041EAC1
:10077000060195F0000F18BF704703F000465200C5
:1007800043EB030313F4801F08BF013DF7D043EA96
:100790000603704794EA0C0F0CEA135518BF95EA4C
:1007A0000C0F0CD050EA410618BF52EA4306D1D1D3
:1007B00081EA030101F000414FF0000070BD50EAF2
:1007C000410606BF1046194652EA430619D094EA7C
:1007D0000C0F02D150EA013613D195EA0C0F05D166
:1007E00052EA03361CBF104619460AD181EA0301BA
:1007F00001F0004141F0FE4141F470014FF0000072
:1008000070BD41F0FE4141F4780170BD70B54FF00C
:10081000FF0C4CF4E06C1CEA11541DBF1CEA13558C
:1008200094EA0C0F95EA0C0F00F0A7F8A4EB05046E
:1008300081EA030E52EA03354FEA013100F0888065
:100840004FEA03334FF0805545EA131343EA12632E
:100850004FEA022245EA111545EA10654FEA0026E3
:100860000EF000419D4208BF964244F1FD0404F59C
:10087000407402D25B084FEA3202B61A65EB0305F8
:100880005B084FEA32024FF480104FF4002CB6EBB5
:10089000020E75EB030E22BFB61A754640EA0C0035
:1008A0005B084FEA3202B6EB020E75EB030E22BF75
:1008B000B61A754640EA5C005B084FEA3202B6EBB6
:1008C000020E75EB030E22BFB61A754640EA9C0075
:1008D0005B084FEA3202B6EB020E75EB030E22BF45
:1008E000B61A754640EADC0055EA060E18D04FEA03
:1008F000051545EA16754FEA06164FEAC30343EAA3
:1009000052734FEAC2025FEA1C1CC0D111F4801F6F
:100910000BD141EA00014FF000004FF0004CB6E768
:1009200011F4801F04BF01430020B4F1FD0C88BF07
:10093000BCF5E06F3FF6AFAEB5EB030C04BFB6EB12
:10094000020C5FEA500C50F1000041EB045170BD05
:100950000EF0004E4EEA113114EB5C04C2BFD4EB32
:100960000C0541EA045170BD41F480114FF0000EB6
:10097000013C90E645EA060E8DE60CEA135594EA32
:100980000C0F08BF95EA0C0F3FF43BAF94EA0C0F35
:100990000AD150EA01347FF434AF95EA0C0F7FF4AA
:1009A00025AF104619462CE795EA0C0F06D152EAFE
:1009B00003353FF4FDAE1046194622E750EA4106E2
:1009C00018BF52EA43067FF4C5AE50EA41047FF4F3
:1009D0000DAF52EA43057FF4EBAE12E74FF0FF3C58
:1009E00006E000BF4FF0010C02E000BF4FF0010C29
:1009F0004DF804CD4FEA410C7FEA6C5C4FEA430CA2
:100A000018BF7FEA6C5C1BD001B050EA410C0CBFF0
:100A100052EA430C91EA030F02BF90EA020F002052
:100A2000704710F1000F91EA030F58BF994208BFB9
:100A300090422CBFD8176FEAE37040F00100704776
:100A40004FEA410C7FEA6C5C02D150EA013C07D1CD
:100A50004FEA430C7FEA6C5CD6D152EA033CD3D018
:100A60005DF8040B704700BF8446104662468C4612
:100A70001946634600E000BF01B5FFF7B7FF002845
:100A800048BF10F1000F01BD4DF808EDFFF7F4FF6E
:100A90000CBF012000205DF808FB00BF4DF808EDF9
:100AA000FFF7EAFF34BF012000205DF808FB00BF1C
:100AB0004DF808EDFFF7E0FF94BF012000205DF83E
:100AC00008FB00BF4DF808EDFFF7CEFF94BF0120F3
:100AD00000205DF808FB00BF4DF808EDFFF7C4FFEC
:100AE00034BF012000205DF808FB00BF4FEA410C35
:100AF0007FEA6C5C02D150EA013C0AD14FEA430C18
:100B00007FEA6C5C02D152EA033C02D14FF0000054
:100B100070474FF0010070474FEA410212F5001292
:100B200015D211D56FF47873B3EB625212D94FEA34
:100B3000C12343F0004343EA505311F0004F23FA1E
:100B400002F018BF404270474FF00000704750EA73
:100B5000013005D111F0004008BF6FF00040704730
:100B60004FF00000704700BF4FEA4102B2F1E0438E
:100B700024BFB3F5001CDCF1FE5C0DD901F0004C84
:100B80004FEAC0024CEA5070B2F1004F40EB8300D4
:100B900008BF20F00100704711F0804F21D113F100
:100BA0003872BCBF01F00040704741F480114FEA39
:100BB0005252C2F11802C2F1200C10FA0CF320FAC2
:100BC00002F018BF40F001004FEAC1234FEAD323DF
:100BD00003FA0CFC40EA0C0023FA02F34FEA430349
:100BE000CCE77FEA625307D150EA01331EBF4FF0D2
:100BF000FE4040F44000704701F0004040F0FE40ED
:100C000040F40000704700BF53B94AB9002908BF3B
:100C100000281CBF4FF0FF314FF0FF3000F00CB840
:100C2000ADF1080C6DE904CE04F0B2FDDDF804E08E
:100C3000DDE9022304B07047704700BF10B5054CD2
:100C4000227832B9044B13B10448AFF3008001237A
:100C5000237010BDE001002000000000505A000881
:100C600008B5034B1BB103490348AFF3008008BD2F
:100C700000000000E4010020505A00080A4B9B6865
:100C800013F0005F04D0084A936823F00053936088
:100C9000054A936843F0805393604FF47A530BB145
:100CA000013BFCE7704700BF0000045010B5474A05
:100CB000D36C43F40053D364454CA36823F0010381
:100CC000A360A2F58832536843F480735360414BAC
:100CD0009A6842F480029A609A6822F470129A60CC
:100CE0009A6842F480229A609A6822F440329A60AC
:100CF0009A6842F480329A609A6822F01F029A60E1
:100D0000FFF7BCFFE36823F00803E360E36823F028
:100D10001003E360E36823F02003E360E36843F03B
:100D20002003E360236B23F00F032363236B43F45F
:100D3000C0732363D4F8B03023F04003C4F8B0305C
:100D4000636923F4E0136361636943F4A01363618F
:100D5000E36823F40053E360E36843F00203E360D5
:100D6000E36843F00103E360E36843F48053E36026
:100D7000E36823F47073E360E36843F44073E36073
:100D8000E36823F44063E360E36843F48063E36073
:100D9000636843F0040363600F4B002283F812235F
:100DA0004FF480221A60A36843F00403A360A36891
:100DB00023F00103A360A36843F00103A360044B85
:100DC0001B6813F0010FFAD010BD00BF00100240E5
:100DD000000004500003045000E100E00D4BDA6C09
:100DE00022F00102DA64DA6C42F00102DA644FF0B8
:100DF00090431A6822F00C021A601A6842F00C0242
:100E00001A60DA6822F00C02DA60DA6A42F0020252
:100E1000DA62704700100240184A936D43F00403F1
:100E20009365174B1A6822F060021A601A6822F064
:100E300010021A605A6822F070025A605A6842F032
:100E400040025A609A6922F4803222F070029A615C
:100E50009A6942F060029A6107229A6240F2E73290
:100E6000DA624FF4FA725A631A6A42F001021A62A5
:100E70001A6842F001021A60704700BF0010024079
:100E8000000800400B4A936823F001039360094B6C
:100E90001B6813F0010FFAD1064B9A6822F08042CA
:100EA0009A609A6842F000429A60024B9B68002B5D
:100EB000FBDB7047000004508B08DFED147A93B120
:100EC000D0ED005AD0ED016A90ED027A90ED036A00
:100ED00077EEA57A76EEA77A77EE277A76EE277AFE
:100EE000013B1030EBE701F0030304E0B0EC017AC2
:100EF00077EE877A013B002BF8D107EE101AB8EE97
:100F0000477AC7EE876AC2ED006A704700000000AA
:100F100010B51446012928D08B08DFED2C7AB0EEED
:100F2000677A2BB3D0ED006A37EE267A66EEA66AB2
:100F300076EEA77AD0ED016A37EE267A66EEA66ADB
:100F400076EEA76AD0ED027A37EE277A67EEA77AB7
:100F500077EEA66AD0ED037A37EE277A67EEA77AA6
:100F600077EEA67A013B1030DBE70023136029E01F
:100F700001F003034BB1F0EC016A37EE267A66EE1E
:100F8000A66A77EEA67A013BF4E706EE901AF8EE31
:100F9000666AB7EE006A36EEC66A87EE860AC7EE64
:100FA000267A67EEA77A86EE867A67EE877A30EE43
:100FB000670AB5EEC00AF1EE10FA04DB04F07CFB20
:100FC00084ED000A10BD00232360FBE70000000051
:100FD000F0B4F0EC017A4D1EAE080024274602E082
:100FE0000434013E604656B3D0ED006A90ED017ABC
:100FF000F4EEE67AF1EE10FA02D5671CF0EE667AAE
:10100000D0ED026AF4EEC77AF1EE10FA02D5A71C11
:10101000F0EE477A00F1100C90ED037AF4EEE67AE8
:10102000F1EE10FA02D5E71CF0EE667AF4EEC77A1C
:10103000F1EE10FAD4D5271DF0EE477AD0E705F08F
:10104000030500E0013D55B1B0EC017AF4EEC77A3A
:10105000F1EE10FAF6D54F1BF0EE477AF2E7C2ED4B
:10106000007A1F60F0BC70472DE9F04F83B0019209
:101070009C4699421AD34D00013DCB18ED1A01351B
:101080000C9B03EB850501270CF1FF36A1EB0C014E
:1010900001F1010E0CF1804A0AF1FF3A019B03EBCA
:1010A0008A0A334651464FF0010925E0CD1805F173
:1010B0008045023D0C9B03EB850503460198019397
:1010C0000B4661469C464FF0FF37DDE709F003020F
:1010D0004AB1B4EC017AF1EC016A27EE267A77EE98
:1010E000877A013AF4E7C5ED007A05EB8705AAEBAC
:1010F000890109F10109013B53B34FEA9902044602
:10110000DFEDBF7A002AE1D094ED007AD1ED006ADC
:1011100027EE267A77EE877A94ED017AD1ED016A8F
:1011200027EE267A77EE877A94ED027AD1ED026A7D
:1011300027EE267A77EE877A94ED037AD1ED036A6B
:1011400027EE267A77EE877A013A10311034D9E704
:10115000BCF1030F40F20C814FEA9E09014611E0F9
:1011600085ED006AB9000D44C5ED003A0D4485EDEA
:10117000004A0D44C5ED007A0D44043300EB8301B1
:1011800009F1FF39B9F1000F00F08D80D1ED006A4F
:10119000D1ED015A01F10C0A91ED025A4FEA9C0B74
:1011A0000199DFED977AB0EE674AF0EE673AB0EE5C
:1011B000676A91ED007ADAED004A26EE872A32EE70
:1011C000062A65EE872A72EEA33A25EE073A33EE39
:1011D000044A27EE247A77EE277A91ED017ADAED48
:1011E000016A25EE876A36EE022A65EE072A72EE5C
:1011F000A32A24EE873A33EE043A27EE267A77EED6
:10120000277A91ED027ADAED025A25EE076A36EE78
:10121000026A64EE873A73EEA22A26EE874A34EE1B
:10122000033A27EE257A37EE277A01F11008D1ED3F
:10123000037A0AF110049AED035A64EEA74A34EED9
:10124000866A66EEA73A73EEA23A25EEA74A34EE16
:10125000034A67EE857A77EE877AA2464146BBF16C
:10126000010BA6D10CF0030100293FF479AFB8ECD3
:10127000017AF4EC014A66EE876A36EE266A65EE7C
:10128000876A73EEA63A65EE076A34EE264A27EEC1
:10129000247A77EE877A0139F0EE656AF0EE455AE6
:1012A000B0EE645AE0E70EF003093AE091ED007AFF
:1012B000D4ED006A27EE267A77EE877A91ED017AEF
:1012C000D4ED016A27EE267A77EE877A91ED027ADD
:1012D000D4ED026A27EE267A77EE877A91ED037ACB
:1012E000D4ED036A27EE267A77EE877A013A103436
:1012F0001031002ADAD10CF003024AB1B1EC017AC4
:10130000F4EC016A27EE267A77EE877A013AF4E761
:10131000C5ED007A05EB8705013300EB830109F188
:10132000FF39B9F1000F26D04FEA9C02019CDFED96
:10133000347ADEE7F1EC017AF4EC016A67EEA67A22
:1013400037EE277A08F1FF38B8F1000FF2D185EDBA
:10135000007A05EB8705013300EB830109F1FF39C2
:10136000B9F1000F07D0E046019C9FED257AEBE72D
:10137000F1460146F4E700EB8E0012E006F00304AC
:101380004CB1B3EC017AF1EC016A27EE267A77EEE4
:10139000877A013CF4E7C5ED007A05EB8705043058
:1013A000013E56B3B40801990346DFED157A002CCF
:1013B000E4D093ED007AD1ED006A27EE267A77EE3D
:1013C000877A93ED017AD1ED016A27EE267A77EEDE
:1013D000877A93ED027AD1ED026A27EE267A77EECC
:1013E000877A93ED037AD1ED036A27EE267A77EEBA
:1013F000877A013C10311033D9E703B0BDE8F08F94
:10140000000000002DE9F04F87B002AF8A469346F6
:101410004FEA41086B46A3EBC1039D4602AE01F1C2
:10142000FF390D468B00073323F00703ADEB030DA7
:1014300002AC0022954216D900EB8201D1ED007A70
:10144000FDEEE77A17EE903AA3F5FF437F3B07EEF8
:10145000903AF8EEE77A9FED4D7A67EE877AC1ED24
:10146000007A0132E6E70096534602465146FFF7FE
:10147000FBFD07F1080241463046FFF71DFD002342
:101480000AE006EB8302D2ED007A97ED027A77EE5E
:10149000C77AC2ED007A01339845F2D807F10C0300
:1014A0003A4641463046FFF793FD002398450BD955
:1014B00006EB8302D2ED006A97ED007AC6EE877ADA
:1014C000C2ED007A0133F1E70022954209D9FB68A9
:1014D000134406EB8303196804EB8203196001329D
:1014E000F3E707F1080251462046FFF7E5FC3A1DF5
:1014F00051462046FFF70CFD002300E00133AB42CC
:1015000013D204EB830292ED007AD7ED017A77EEE5
:10151000A77AD7ED026A77EEA67AB4EEE77AF1EE13
:1015200010FAEBD500211160E8E7012300E0013358
:101530004B451CD204EB830292ED007A5A1E04EB59
:101540008202D2ED007A77EE677AF5EEC07AF1EE9C
:1015500010FAECDD5A1C04EB8202D2ED007A37EE71
:10156000C77AB5EEC07AF1EE10FAE0D500E00123BB
:1015700007EE903AF8EE677ADFED056A86EEA77A15
:101580008BED007A1437BD46BDE8F08F00000038BF
:1015900000401C462E4A936C43F0010393642D4B8C
:1015A0001A6822F001021A601A6822F480421A6056
:1015B0001A6822F440521A601A6842F400521A6003
:1015C0001A6822F440721A601A6842F480721A6033
:1015D0001A6822F440621A601A6842F480621A6043
:1015E0001A6822F040021A601A6822F080021A601B
:1015F0001A6842F080021A601A6842F020021A60EB
:101600001A6822F010021A605860134A9A60134A4E
:101610001268DA601A6842F002021A601A6822F050
:1016200004021A601A6842F004021A600C4A10217F
:1016300082F80B134FF4006111600A490A6822F026
:101640000F020A601A6842F001021A60704700BF78
:10165000001002400800024040000450000000203A
:1016600000E100E0A8000240174B1B6813F0020FD6
:1016700023D0154A536843F002035360134B1A6892
:10168000134B9A4212D0114B114A1A60114B124A55
:101690001A600E4B1A68114BDA60114B01221A6066
:1016A000094A536843F0050353607047074B0A4AE1
:1016B0001A60084B064A1A60EBE7034B1B6813F0ED
:1016C000080FEDD0FEE700BF00000240040000203C
:1016D000AC110020000000200C0200200800024095
:1016E000FC010020054B1B6813F0040F04D0034AD3
:1016F000136843F00C031360704700BF00000450F0
:10170000FEE7000000B5B9B0022327934FF48073C1
:101710002A9310232B930023319327A800F054FE23
:1017200060BB0F2322930123239300212491259151
:10173000269122A801F008F920BB02230093002380
:101740000F93684601F02EFB00BB4FF4007001F0D0
:101750004DFEF8B901F0A2F9104BA3FB003080094F
:1017600001F0D2FE042001F0E5FE002211464FF008
:10177000FF3001F095FE39B05DF804FBD321084835
:10178000FFF7BEFFE1210648FFF7BAFFE821044852
:10179000FFF7B6FFEF210248FFF7B2FFD34D62100B
:1017A000905A000830B5ADF6DC7D4D4B0DF57B64ED
:1017B00093E8030084E80300202200210DF6B870AE
:1017C00001F040FF00F018FDFFF79CFF00F09CF8CF
:1017D00000F0E6F8434D40F6FF730F2221462846FD
:1017E00000F022FCFFF7FAFA3F4A234607CA03C378
:1017F0001A7040F6FF730F222146284600F014FCB1
:101800003A4A234607CA03C31A70FFF705FB40F69E
:10181000FF730F222146284600F006FC344A234677
:1018200007CA03C31A70FFF72DFB40F6FF730F22A0
:101830002146284600F0F8FB2E4A234607CA03C378
:101840001A70FFF733FA0120FFF7A4FE40F6FF738A
:101850000F222146284600F0E7FB274A234607CA05
:1018600003C31A7040F6FF730F222146284600F08A
:10187000DBFB32E0214B1B68D3ED007A04AB03EBBA
:101880008203F8EE677AC3ED007A1D4B00211960E0
:101890000132B2F57A7F04DA194B1B68002BFBD0BA
:1018A000E8E703AA4FF47A7104A8FFF7ABFD134BE6
:1018B0001B681C680398FEF727FE009402460B463F
:1018C00010490DF57B6002F00DFB40F6FF732822F6
:1018D0000DF57B61034800F0A7FB0022D9E700BFAC
:1018E000685A00084C2100209C5A0008A85A000899
:1018F000B45A0008C05A0008CC5A00080000002062
:10190000FC010020D85A000810B58AB0214BDA6CCF
:1019100042F00402DA64DA6C02F004020192019AE5
:10192000DA6C42F08002DA64DA6C02F08002029231
:10193000029ADA6C42F00102DA64DA6C02F0010217
:101940000392039ADA6C42F00202DA64DB6C03F071
:1019500002030493049B002220214FF0904001F0E9
:1019600037FD4FF4005305930B4B06930024079467
:1019700005A90A4801F042FC2023059301230693A0
:101980000794089405A94FF0904001F037FC0AB085
:1019900010BD00BF001002400000211000080048E8
:1019A00008B50C480C4B03604FF4E133436000234F
:1019B0008360C36003610C2242618361C36103627F
:1019C000436200F0D0FB00B908BD44210348FFF793
:1019D00097FEF9E74C21002000440040F85A000827
:1019E0000268114B9A4200D0704700B587B003F5EA
:1019F000E6339A6D42F400329A659B6D03F400332E
:101A00000093009B0C230193022302930023039372
:101A1000032304930723059301A94FF0904001F09D
:101A2000EDFB07B05DF804FB0044004008B500F092
:101A3000F5FB01F090FD08BD00B583B0214B1A6E97
:101A400042F001021A661A6E02F001020092009A38
:101A50009A6D42F080529A659B6D03F0805301931A
:101A6000019B032001F00AFD002211466FF00B00DC
:101A700001F016FD002211466FF00A0001F010FD82
:101A8000002211466FF0090001F00AFD0022114604
:101A90006FF0040001F004FD002211466FF0030016
:101AA00001F0FEFC002211466FF0010001F0F8FC8D
:101AB000002211464FF0FF3001F0F2FC03B05DF858
:101AC00004FB00BF001002402DE9F0480446016805
:101AD00083680269134342691343C2691343086868
:101AE0009C4A024013430B602268536823F440531E
:101AF000E1680B435360A1692268974B9A4201D079
:101B0000236A1943936823F430630B43936023687B
:101B1000924A934211D0924A934222D0914A9342E0
:101B200038D0914A934260D0904A934273D08A4A07
:101B3000934200F0898010253FE002F55842D2F828
:101B4000882002F00302032A09D8DFE802F0020429
:101B50009606012531E004252FE008252DE010250B
:101B60002BE002F5E632D2F8882002F00C020C2AB3
:101B70000ED8DFE802F0070D0D0D090D0D0D840DD7
:101B80000D0D0B00002518E0042516E0082514E0D3
:101B9000102512E002F5E432D2F8882002F030027B
:101BA000102A6ED005D9202A6DD0302A1BD10825E5
:101BB00003E00AB9002500E01025674A934270D07F
:101BC000E369B3F5004F00F0FC80082D00F282813C
:101BD000DFE815F046015801620180016D018001C6
:101BE0008001800177011025E7E702F5E232D2F8A3
:101BF000882002F0C002402A47D005D9802A46D06A
:101C0000C02A06D10825D8E70AB90025D5E710254E
:101C1000D3E71025D1E702F5E032D2F8882002F4AC
:101C20004072B2F5807F34D007D9B2F5007F32D050
:101C3000B2F5407F06D10825BFE70AB90025BCE709
:101C40001025BAE71025B8E702F5C832D2F8882087
:101C500002F44062B2F5806F1FD007D9B2F5006F71
:101C60001DD0B2F5406F06D10825A6E70AB90025B8
:101C7000A3E71025A1E710259FE702259DE7022590
:101C80009BE7042599E7022597E7042595E70225B8
:101C900093E7042591E702258FE704258DE70225C8
:101CA0008BE7082D00F21981DFE815F00C00170111
:101CB00014001701110017011701170109004FF453
:101CC000004008E000F0F0FE28B9002010E100F02C
:101CD000FBFAF9E72648626802EB4203834200F20E
:101CE000FE80B0EB023F00F2FC80082D66D8DFE8F2
:101CF00005F00565206545656565580000F0D4FE72
:101D00000025070E0602626850082B4616EB000BF2
:101D100047F1000C58466146FEF776FF0346284619
:101D2000A3F54071134A914200F2DD802268D3602E
:101D3000DEE0560800252B46DFF83CB04FF0000CE3
:101D40001BEB06004CF10001FEF75EFF0346284640
:101D5000E6E700BFF369FFEF008000400038014074
:101D60000044004000480040004C0040005000404B
:101D70000024F400FFFC0F00000024F400F0A4FA9B
:101D80000025070E0602626850082B4616EB000B72
:101D900047F1000C58466146FEF736FF03462846D9
:101DA000BEE7500800252B4610F500002CBF01218E
:101DB0000021FEF729FF03462846B1E70120002352
:101DC000AEE7082D49D8DFE805F0051E294834485C
:101DD00048483F0000F068FE6268530803EB400388
:101DE000B3FBF2F39BB20020A3F110014FF6EF72A8
:101DF00091427AD89AB222F00F02C3F342031343FE
:101E00002268D36074E000F05FFE6268530803EB61
:101E10004003B3FBF2F39BB20020E5E7626853088E
:101E200003F1F47303F59043B3FBF2F39BB200208C
:101E3000DAE700F049FA6268530803EB4003B3FBAA
:101E4000F2F39BB20020CFE76268530803F58033BA
:101E5000B3FBF2F39BB20020C6E701200023C3E7E7
:101E600000F022FE636800EB5302B2FBF3F292B281
:101E70000020A2F110014FF6EF73994237D8236882
:101E8000DA6035E000F020FE636800EB5302B2FB3D
:101E9000F3F292B20020ECE763685A0802F574028C
:101EA00002F51052B2FBF3F292B20020E1E700F02B
:101EB0000BFA636800EB5302B2FBF3F292B200201C
:101EC000D7E763685A0802F50042B2FBF3F292B218
:101ED0000020CEE701200022CBE7012008E001200E
:101EE00006E0012004E0012002E0012000E00120E2
:101EF000002222666266BDE8F08800BF436A13F0E4
:101F0000010F06D00268536823F40033816A0B4343
:101F10005360436A13F0020F06D00268536823F43B
:101F20008033C16A0B435360436A13F0040F06D039
:101F30000268536823F48023016B0B435360436AA8
:101F400013F0080F06D00268536823F40043416B76
:101F50000B435360436A13F0100F06D00268936876
:101F600023F48053816B0B439360436A13F0200F7B
:101F700006D00268936823F40053C16B0B4393604F
:101F8000436A13F0400F0AD00268536823F48013A9
:101F9000016C0B435360036CB3F5801F0BD0436A95
:101FA00013F0800F06D00268536823F40023816C7D
:101FB0000B43536070470268536823F4C003416CBD
:101FC0000B435360EBE72DE9F04105460F461646FB
:101FD0009846069C2B68DB6937EA03030CBF012394
:101FE0000023B3421DD1B4F1FF3FF3D02CB100F078
:101FF0001DF9A0EB0800A042ECD92A68136823F46D
:10200000D07313602A68936823F001039360202340
:1020100085F8713085F87230002385F87030032020
:1020200000E00020BDE8F0812DE9F04182B01E46BD
:1020300090F87130DBB2202B4ED104460D4690460D
:1020400000294ED0002A4ED090F87030012B4CD091
:10205000012380F8703000234367212380F871301A
:1020600000F0E4F80746A4F85080A4F8528009E094
:10207000236815F8012B1A85B4F85230013B9BB246
:10208000A4F85230B4F852309BB2ABB100963B4644
:10209000002280212046FFF796FF40BBA368B3F5DE
:1020A000805FE5D12369002BE2D1226835F8023B3D
:1020B000C3F308031385DFE700963B460022402167
:1020C0002046FFF780FF034698B9202284F871204C
:1020D000002284F8702000E00223184602B0BDE818
:1020E000F0810123F9E70123F7E70223F5E7032352
:1020F000F3E70323F1E730B583B0044600234367D9
:1021000000F094F8054623681B6813F0080F0ED101
:1021100023681B6813F0040F17D1202384F8713053
:1021200084F87230002084F8700003B030BD6FF086
:102130007E430093034600224FF400112046FFF730
:1021400042FF0028E4D00320EFE76FF07E430093C6
:102150002B4600224FF480012046FFF734FF002871
:10216000DBD00320E1E778B310B5044690F8713076
:102170000BB3242384F871302268136823F0010321
:1021800013602046FFF7A0FC012813D0636ABBB997
:102190002268536823F4904353602268936823F0C5
:1021A0002A0393602268136843F0010313602046FA
:1021B000FFF7A1FF10BD80F87030FFF711FCD8E7E2
:1021C0002046FFF79BFEE3E70120704710B5044669
:1021D000074B1868074BA3FB0030800901F094F906
:1021E000002221464FF0FF3001F05AF9002010BDC7
:1021F00008000020D34D621008B5074A136843F465
:1022000080731360032001F039F90020FFF7DEFF2F
:10221000FFF712FC002008BD00200240024A1368AC
:1022200001331360704700BFC4210020014B1868C0
:10223000704700BFC421002030B583B00546204B55
:102240009B6D13F0805F0BD001F0C8F8B0F5007FF4
:1022500017D0802D1FD82DD0702D2DD000211BE040
:10226000174CA36D43F08053A365A36D03F0805317
:102270000193019B01F0B2F8A36D23F08053A36595
:10228000E4E7802D03D9A02D03D9022104E0002129
:1022900002E0012100E003210A4A136823F007034A
:1022A0000B431360136803F007038B4206D1002031
:1022B00003B030BD0221EFE70121EDE70120F7E790
:1022C00000100240002002403B4B9B6813F00C0FB3
:1022D0001AD0394B9B6803F00C030C2B0ED0364BF5
:1022E0009B6803F00C03042B2FD0334B9B6803F047
:1022F0000C03082B2CD00020014618E02E4BDB6885
:1023000003F00303012BEAD12B4B1B6813F0080FDA
:1023100014D1294BD3F89430C3F30323274A52F83E
:102320002310254B9B6813F00C0F0CD00020224A81
:10233000936803F00C030C2B0DD070471E4B1B68E9
:10234000C3F30313EAE70846F1E71D480021EEE76F
:102350001C480021EBE71346D26802F00302DB6859
:10236000C3F302130133022A0AD0032A1AD0B1FBA5
:10237000F3F3114AD068C0F3062000FB03F008E035
:102380000F48B0FBF3F30C4AD068C0F3062000FB03
:1023900003F0094BDB68C3F3416301335B00B0FB1F
:1023A000F3F0CAE70748B0FBF3F3034AD068C0F381
:1023B000062000FB03F0ECE7001002401C5B000865
:1023C0000024F40000127A00002800F0A88270B502
:1023D00082B00446036813F0100F3FD0974B9B6800
:1023E00013F00C0F40F09280944B1B6813F0020F17
:1023F00003D08369002B00F09982206A8F4B1B6801
:1024000013F0080F62D08D4B1B6803F0F003984265
:1024100063D9FFF711FF002840F08A82874B1A68C2
:1024200042F008021A601A6822F0F002216A0A4398
:102430001A605A6822F47F42E16942EA01225A6036
:10244000FFF742FF7D4B9B68C3F303137C4AD35CC9
:10245000D8407C4B18600020FFF7B8FE236813F0CB
:10246000010F00F0A180754B9B6803F00C03082B53
:1024700000F09180714B9B6803F00C030C2B00F073
:1024800083806368B3F5803F00F0B580B3F5A02F7B
:1024900000F0B780694B1A6822F480321A601A681B
:1024A00022F480221A606368002B00F0B780FFF7E7
:1024B000BDFE0546614B1B6813F4003F74D1FFF766
:1024C000B5FE401B6428F5D9032038E25B4BD3F8F6
:1024D00094301B0903F0F00399E7584B1A6842F057
:1024E00008021A601A6822F0F002216A0A431A6090
:1024F0005A6822F47F42E16942EA01225A60206A66
:10250000FFF79AFE00289BD0012018E2836933B3BD
:102510004A4A136843F001031360FFF787FE05463C
:10252000464B1B6813F0020F06D1FFF77FFE401BDE
:102530000228F5D9032002E2404B1A6842F0080253
:102540001A601A6822F0F002216A0A431A605A6877
:1025500022F47F42E16942EA01225A607EE7374A6B
:10256000136823F001031360FFF760FE0546334B49
:102570001B6813F0020F3FF471AFFFF757FE401BCB
:102580000228F4D90320DAE12C4BDB6803F00303C3
:10259000032B7FF476AF294B1B6813F4003F03D065
:1025A0006368002B00F0C681236813F0020F62D02D
:1025B000224B9B6803F00C03042B4BD01F4B9B68F2
:1025C00003F00C030C2B3FD0E368002B79D01B4A9F
:1025D000136843F480731360FFF728FE0546174B1A
:1025E0001B6813F4806F63D1FFF720FE401B0228A5
:1025F000F5D90320A3E1114A136843F48033136033
:1026000051E703F18043A3F53C331A6842F480227A
:102610001A601A6842F480321A6044E7FFF706FE37
:102620000546064B1B6813F4003FBDD0FFF7FEFDC7
:10263000401B6428F5D9032081E100BF001002404F
:10264000045B000808000020B64BDB6803F00303BE
:10265000022BB9D1B34B1B6813F4806F03D0E3682E
:10266000002B00F06981AF4A536823F0F8532169C9
:1026700043EA01635360236813F0080F4CD0636989
:102680009BB3A84AD2F8943043F00103C2F89430C7
:10269000FFF7CCFD0546A34BD3F8943013F0020F9F
:1026A0003AD1FFF7C3FD401B0228F4D9032046E1CD
:1026B0009C4A536823F0F853216943EA016353604D
:1026C000D9E7984A136823F480731360FFF7AEFDCF
:1026D0000546944B1B6813F4806FCCD0FFF7A6FD22
:1026E000401B0228F5D9032029E18E4AD2F8943004
:1026F00023F00103C2F89430FFF798FD0546894B9B
:10270000D3F8943013F0020F06D0FFF78FFD401B73
:102710000228F4D9032012E1236813F0040F7BD0C0
:10272000804B9B6D13F0805F36D17E4B9A6D42F0EB
:1027300080529A659B6D03F080530193019B0125A4
:10274000794B1B6813F4807F28D0A368012B39D004
:10275000052B3FD0734BD3F8902022F00102C3F831
:102760009020D3F8902022F00402C3F89020A368B0
:10277000002B3DD0FFF75AFD06466A4BD3F8903048
:1027800013F0020F46D1FFF751FD801B41F2883351
:102790009842F2D90320D2E00025D1E7624A1368BB
:1027A00043F480731360FFF741FD06465E4B1B68E0
:1027B00013F4807FC9D1FFF739FD801B0228F5D9BA
:1027C0000320BCE0574AD2F8903043F00103C2F82E
:1027D0009030CCE7534BD3F8902042F00402C3F87A
:1027E0009020D3F8902042F00102C3F89020BEE779
:1027F000FFF71CFD06464B4BD3F8903013F0020F49
:1028000008D0FFF713FD801B41F288339842F2D9BC
:10281000032094E0002D35D1A36A002B00F08E80B8
:10282000404A926802F00C020C2A00F08A80022BC7
:102830002ED03C4B1A6822F080721A601B6813F08D
:10284000006F09D1374B1B6813F0005F04D1354A84
:10285000D36823F00303D360324AD36823F088732C
:1028600023F48033D360FFF7E1FC04462D4B1B6853
:1028700013F0007F51D0FFF7D9FC001B0228F5D9D7
:1028800003205CE0274A936D23F080539365C3E7F0
:10289000244A136823F080731360FFF7C7FC0546D2
:1028A000204B1B6813F0007F06D0FFF7BFFC401BD6
:1028B0000228F5D9032042E0236B5A1E636B1B02EA
:1028C00043EA0213A26B120943EA4243E26A13434A
:1028D000E26B5208013A43EA4253226C5208013A31
:1028E00043EA42630F4AD360136843F08073136076
:1028F000D36843F08073D360FFF798FC0446094B1C
:102900001B6813F0007F06D1FFF790FC001B022824
:10291000F5D9032013E0002011E000200FE0012092
:10292000704700BF0010024000700040012006E028
:10293000012004E0012002E0012000E0002002B0BC
:1029400070BD0120FBE700BF002800F0968070B545
:1029500004464E4B1B6803F007038B420BD24B4AD5
:10296000136823F007030B431360136803F0070396
:102970008B4240F084800D46236813F0010F39D05C
:102980006368032B09D0022B26D063BB404A126830
:1029900012F0020F06D101206EE03D4A126812F0DB
:1029A000007F6ED03A498A6822F0030213438B609D
:1029B000FFF73CFC0646364B9B6803F00C0362684D
:1029C000B3EB820F16D0FFF731FC801B41F2883346
:1029D0009842F0D903204FE02D4A126812F4003FCC
:1029E000E0D1012048E02A4A126812F4806FD9D160
:1029F000012041E0236813F0020F06D0244A9368B7
:102A000023F0F003A1680B439360204B1B6803F095
:102A10000703AB420AD91D4A136823F007032B436F
:102A20001360136803F00703AB422CD1236813F043
:102A3000040F06D0164A936823F4E063E1680B4361
:102A40009360236813F0080F07D0114A936823F4AA
:102A50006053216943EAC1039360FFF735FC0C4BD7
:102A60009B68C3F303130B4AD35CD8400A4B18602E
:102A70000020FFF7ABFB002070BD01207047012054
:102A8000FAE70120F8E70120F6E700BF0020024046
:102A900000100240045B000808000020014B186889
:102AA000704700BF0800002008B5FFF7F7FF044B90
:102AB0009B68C3F30223034AD35CD84008BD00BF20
:102AC00000100240145B000808B5FFF7E7FF044B55
:102AD0009B68C3F3C223034AD35CD84008BD00BF40
:102AE00000100240145B0008F8B55A4BDB6813F085
:102AF000030F18D0574BDB6803F0030302689342BF
:102B000002D001242046F8BD002A00F0A080514BDD
:102B1000DB68C3F3021301334268934201D00124FE
:102B2000F0E7002409E00368022B59D0032B5ED0A4
:102B3000012B44D00124002CE4D10F460646454A1F
:102B4000136823F080631360FFF770FB0546414B69
:102B50001B6813F0006F05D0FFF768FB401B0228CD
:102B6000F5D90324002CCDD1002F4ED139490B6962
:102B700023F41F3323F44073B068F268120952043F
:102B800042EA002213430B61324A136843F0806328
:102B90001360FFF74BFB05462E4B1B6813F0006FCD
:102BA00005D1FFF743FB401B0228F5D90324002C75
:102BB000A8D1284A1369B1690B431361A2E7254ADA
:102BC000126812F0020F1ED0224DEA6822F0730242
:102BD0004468013C43EA04131343EB600024AAE772
:102BE0001C4A126812F4806FEED10124A3E7194A3F
:102BF000126812F4003FE7D1164A126812F4802FCF
:102C0000E2D1012497E7012495E7012F0FD0114865
:102C1000026922F0C06222F4FE42B16873695B0867
:102C2000013B5B0643EA012313430361ACE7094818
:102C3000026922F4C00222F4FE42B16833695B08E3
:102C4000013B5B0543EA0123134303619CE7012435
:102C500058E700BF00100240F8B5514BDB6813F095
:102C6000030F18D04E4BDB6803F003030268934256
:102C700002D001242046F8BD002A00F08E80484B87
:102C8000DB68C3F3021301334268934201D001248D
:102C9000F0E7002409E00368022B59D0032B5ED033
:102CA000012B44D00124002CE4D10F4606463C4AB7
:102CB000136823F080531360FFF7B8FA0546384BCA
:102CC0001B6813F0005F05D0FFF7B0FA401B022825
:102CD000F5D90324002CCDD1002F4ED130494B69BA
:102CE00023F41F3323F44073B068F26812095204CE
:102CF00042EA002213434B61294A136843F0805390
:102D00001360FFF793FA0546254B1B6813F0005F2D
:102D100005D1FFF78BFA401B0228F5D90324002CBC
:102D2000A8D11F4A536971690B435361A2E71C4A3A
:102D3000126812F0020F1ED0194DEA6822F07302D9
:102D40004468013C43EA04131343EB600024AAE700
:102D5000134A126812F4806FEED10124A3E7104ADF
:102D6000126812F4003FE7D10D4A126812F4802F66
:102D7000E2D1012497E7012495E70948426922F04E
:102D8000C06222F4FE42B16833695B08013B5B0616
:102D900043EA012313434361AEE701246AE700BF1E
:102DA000001002402DE9F04182B00446036813F49C
:102DB000006F33D0436EB3F5800F29D011D9B3F52E
:102DC000000F1ED0B3F5400F18D10027664AD2F885
:102DD000883023F44003616E0B43C2F8883000262C
:102DE0001EE043B900210430FFF77EFE0746002FA6
:102DF000ECD03E4614E00126374611E00126374666
:102E00000EE0594AD36843F48033D3600027DDE7EE
:102E100000212030FFF720FF0746E8E7002637466D
:102E2000236813F4805F15D0A36EB3F1807F7DD04B
:102E300069D9B3F1007F73D0B3F1407F6DD1002F1A
:102E40007BD1494AD2F8883023F04073A16E0B43FE
:102E5000C2F88830236813F4003F00F08E80424BA4
:102E60009B6D13F0805F6AD13F4B9A6D42F08052A8
:102E70009A659B6D03F080530193019B4FF001080D
:102E80003A4A136843F480731360FFF7CFF905469D
:102E9000364B1B6813F4807F05D1FFF7C7F9401B41
:102EA0000228F5D90327002F62D12F4BD3F8903099
:102EB00013F4407316D0D4F884209A4212D02A4AD0
:102EC000D2F8903023F44073D2F8901041F480315E
:102ED000C2F89010D2F8901021F48031C2F890100E
:102EE000C2F8903013F0010F2CD1002F40F0438135
:102EF0001D4AD2F8903023F44073D4F884100B4369
:102F0000C2F8903035E02BB90021201DFFF7ECFD11
:102F1000074694E7012637469CE70126374699E79E
:102F2000114AD36843F48033D36088E7002104F169
:102F30002000FFF791FE074681E73E468AE74FF003
:102F400000089DE7FFF772F90546074BD3F890306C
:102F500013F0020FC9D1FFF769F9401B41F2883322
:102F60009842F2D90327C0E70010024000700040E9
:102F70003E46B8F1000F40F00081236813F0010FC6
:102F800008D09D4AD2F8883023F00303A16B0B438D
:102F9000C2F88830236813F0020F08D0964AD2F89E
:102FA000883023F00C03E16B0B43C2F888302368B0
:102FB00013F0040F08D0904AD2F8883023F0300381
:102FC000216C0B43C2F88830236813F0080F08D037
:102FD000894AD2F8883023F0C003616C0B43C2F8F1
:102FE0008830236813F0100F08D0834AD2F8883055
:102FF00023F44073A16C0B43C2F88830236813F0AC
:10300000200F08D07C4AD2F8883023F44063E16C6A
:103010000B43C2F88830236813F4007F08D0764A47
:10302000D2F8883023F44023E16D0B43C2F8883096
:10303000236813F4806F08D06F4AD2F8883023F4E5
:103040004013216E0B43C2F88830236813F0400F01
:1030500008D0694AD2F8883023F44053216D0B43DD
:10306000C2F88830236813F0800F08D0624AD2F883
:10307000883023F44043616D0B43C2F888302368E5
:1030800013F4807F08D05C4AD2F8883023F44033B0
:10309000A16D0B43C2F88830236813F4005F0FD092
:1030A000554AD2F8883023F04063E16E0B43C2F8F2
:1030B0008830E36EB3F1006F65D0B3F1806F67D0F5
:1030C000236813F4002F0FD04B4AD2F8883023F036
:1030D0004063216F0B43C2F88830236FB3F1006F58
:1030E0005ED0B3F1806F60D0236813F4802F0FD0CF
:1030F000414AD2F8883023F04063616F0B43C2F835
:103100008830636FB3F1006F57D0B3F1806F59D03F
:10311000236813F4804F0FD0374AD2F8883023F059
:103120004053A16F0B43C2F88830A36FB3F1805FA7
:1031300050D0B3F1005F55D0236813F4004F08D08E
:103140002D4AD2F8883023F08043E16F0B43C2F858
:103150008830236813F4803F09D0274AD2F888309A
:1031600023F00043D4F880100B43C2F88830304677
:1031700002B0BDE8F0813E46FBE61F4A936D23F0A6
:1031800080539365F9E6D36843F48013D36097E7DF
:103190000121201DFFF7A8FC002891D006468FE7EB
:1031A000D36843F48013D3609EE70121201DFFF70D
:1031B0009BFC002898D0064696E7D36843F480131A
:1031C000D360A5E70121201DFFF78EFC00289FD0CA
:1031D00006469DE70221201DFFF786FC0028ABD0A4
:1031E0000646A9E7022104F12000FFF735FD00287B
:1031F000A2D00646A0E700BF00100240F0B482B0A3
:10320000002341E0D0F82CC02CEA040CC6F3C00423
:103210009C4044EA0C04C46286E0062400E00024DA
:10322000B4403C430235664E46F82540654C25685F
:10323000D44304EA05064F6817F4803F01D042EA00
:103240000506604D2E606D6804EA05064F6817F4A8
:10325000003F01D042EA05065A4D6E60AD6804EAAF
:1032600005064F6817F4801F01D042EA0506554D48
:10327000AE60ED682C404E6816F4001F01D042EAA3
:103280000504504AD46001330A6832FA03F400F0AE
:10329000938001249C402240F5D04D68022D01D03E
:1032A000122D10D1DE08083650F826C003F00705AD
:1032B000AF000F25BD402CEA050C0D69BD4045EA65
:1032C0000C0540F8265006685F000325BD40ED431D
:1032D00005EA060C4E6806F00306BE4046EA0C06F8
:1032E00006604E6806F1FF3CBCF1010F03D9112EB8
:1032F00001D0122E11D1866805EA060CCE68BE40B8
:1033000046EA0C068660466826EA040C4E68C6F358
:1033100000169E4046EA0C0646604E6806F0030C16
:10332000BCF1030F3FF46EAFC46825408C68BC400D
:103330002C43C4604C6814F0805FA4D0224C256EEE
:1033400045F001052566246E04F001040194019CFA
:103350009D08AE1C1A4C54F8267003F00304A60016
:103360000F24B44027EA0407B0F1904F3FF457AF61
:10337000164CA04216D004F58064A04214D004F587
:103380008064A04212D004F58064A04210D004F5FD
:103390008064A0420ED004F58064A0423FF43DAFAB
:1033A00007243DE701243BE7022439E7032437E7FC
:1033B000042435E7052433E702B0F0BC704700BFB2
:1033C00000000140000401400010024000040048D9
:1033D0000AB181617047816270470000024B186832
:1033E00000F4C060704700BF00700040B0F5007F7F
:1033F0000FD0204B1B6803F4C063B3F5806F37D048
:103400001C4A136823F4C06343F4806313600020F4
:103410007047184B1B6803F4C063B3F5007F23D0DB
:10342000144A136823F4C06343F400731360124B0F
:103430001B6802F1467202F55B3202F28322A2FBA4
:1034400003239A0C322303FB02F333B1094A526976
:1034500012F4806F01D0013BF7E7064B5B6913F470
:10346000806F03D100207047002070470320704711
:10347000002070470070004008000020074AD36811
:1034800023F4E0631B041B0C000200F4E06018430B
:1034900040F0BF6040F40030D060704700ED00E0C5
:1034A00030B4174BDB68C3F30223C3F10704042CC9
:1034B00028BF04241D1D062D01D9033B00E0002375
:1034C0004FF0FF3505FA04F421EA0401994005FAAA
:1034D00003F322EA03031943002809DB0901C9B2F7
:1034E00000F1604000F5614080F8001330BC704787
:1034F00000F00F000901C9B2024B1954F6E700BFF2
:1035000000ED00E014ED00E00138B0F1807F0AD258
:10351000064B5860064AF02182F82310002098607C
:1035200007221A6070470120704700BF10E000E0DA
:1035300000ED00E0042805D0054A136823F00403D9
:1035400013607047024A136843F004031360704726
:1035500010E000E0704708B5FFF7FCFF08BD000071
:103560000F49D1F8883043F47003C1F888300D4B0F
:103570001A6842F001021A60002098601A6822F06E
:10358000A85222F410221A604FF48052DA601A68AE
:1035900022F480221A6098614FF000638B607047BC
:1035A00000ED00E000100240DFF834D0002103E01D
:1035B0000C4B5B58435004310B480C4B42189A4259
:1035C000F6D30B4A02E0002342F8043B094B9A422F
:1035D000F9D3FFF7C5FF00F011F8FEF7E3F8FEE7B7
:1035E00000800120C85D000800000020E0010020EC
:1035F000E0010020CC210020FEE7000070B50D4D59
:103600000D4C641BA4100026A64209D10B4D0C4C96
:1036100002F01EFA641BA4100026A64205D170BD5C
:1036200055F8043B98470136EEE755F8043B9847B8
:103630000136F2E7B85D0008B85D0008B85D000823
:10364000BC5D000802440346934200D1704703F872
:10365000011BF9E72DE9FF4755EC104B002D0E46F5
:1036600091461946DDF830A04FF0000203DA05F16B
:1036700000431D462D220D9F0A7027F02007462F7C
:1036800004D0452F00D10136022100E0032103AB15
:10369000019302AB00933246534645EC104B00F0C9
:1036A000CBFC472F804602D119F0010F22D0462FC4
:1036B00008EB060911D198F80030302B0AD100220E
:1036C000002320462946FDF7DFF918B9C6F10106A7
:1036D000CAF80060DAF8003099440022002320463E
:1036E0002946FDF7D1F908B1CDF80C903022039BA3
:1036F0004B4508D3039B0E9AA3EB08034046136087
:1037000004B0BDE8F087591C03911A70EFE7F7B5D4
:103710000029BABF49422D232B2309290270437087
:1037200021DD0DF107031F460A2691FBF6F206FB89
:1037300012143034632903F1FF3503F8014C0ADC1D
:10374000303205F8012C023B821CBB42144605D3E3
:10375000201A03B0F0BD2B461146E6E713F8011B13
:1037600002F8011BF1E7302319448370041DC17076
:10377000EEE700002DE9F04F8DB00C46DDF85880E3
:1037800016461F46054601F019FA036806931846C7
:10379000FCF7FEFC00230A93D8F8003007900733AB
:1037A00023F0070303F1080294F818A0D4F800B03E
:1037B000C8F80020D3E90023C4E9122394ED127B5A
:1037C0008DED047BDDE9048323F000494FF0FF32E7
:1037D000A84B40464946FDF789F970BB4FF0FF32D0
:1037E000A44B40464946FDF763F930BB0022002355
:1037F000DDE90401FDF752F910B12D2384F84330BF
:103800009D4A9E4BBAF1470F94BF904698460323BA
:103810002BF00402236122604FF000090097334629
:103820000BAA2146284600F0D3F9013040F09080E1
:103830004FF0FF300DB0BDE8F08FDDE904231046F6
:103840001946FDF753F960B100220023DDE90401B8
:10385000FDF724F910B12D2384F84330884A894BB1
:10386000D0E763685A1C0AF0DF093ED10623636083
:10387000002303930AAB4BF48062CDE901A309ABAB
:103880000093616822600DF123039DED040B28462F
:10389000FFF7E0FEB9F1470F8046099908D1C81C2F
:1038A00002DB6368994241DDAAF1020A5FFA8AFAF3
:1038B000BAF1650F20D80139524604F15000099140
:1038C000FFF725FF0A9A1318012A8146236102DCBB
:1038D0002268D20701D5013323619DF82330002BE4
:1038E0009CD02D2384F8433098E7B9F1470FBFD11E
:1038F000002BBDD10123BAE7BAF1660F18D1002918
:1039000063680BDD216113B92268D00702D501334A
:103910000B442361A1654FF00009DEE713B922686B
:10392000D20701D50233F4E70123F2E74FF0670A2B
:103930000A9B994205DB23682161D807EAD54B1C15
:10394000E7E70029D4BFC1F1020201221344E0E7F6
:1039500023685A0507D42369424631462846B847AA
:1039600001302BD164E7BAF1650F40F2DC80002210
:103970000023D4E91201FDF787F8002833D0012392
:10398000414A31462846B84701303FF451AFDDE99E
:1039900009239A4202DB2368D8070FD5DDE9062305
:1039A00031462846B84701303FF442AF4FF0000897
:1039B00004F11A090A9B013B434509DC23689B0774
:1039C00000F10181E0680B9B9842B8BF184631E7CF
:1039D00001234A4631462846B84701303FF428AF14
:1039E00008F10108E6E7099B002B2BDC0123264A9E
:1039F00031462846B84701303FF41AAFDDE90923C4
:103A0000134302D12368D907D8D5DDE9062331460F
:103A10002846B84701303FF40BAF4FF0000904F1DE
:103A20001A0A099B5B424B4501DC0A9B94E7012380
:103A3000524631462846B84701303FF4F9AE09F105
:103A40000109EEE70A9AA36D9A42A8BF1A46002A16
:103A5000914607DD1346314642462846B8470130B5
:103A60003FF4E6AE04F11A034FF0000B29EAE979BE
:103A7000049315E0FFFFEF7F4C5B0008505B0008EC
:103A8000545B0008585B00085C5B00080123049A43
:103A900031462846B84701303FF4CAAE0BF1010B5E
:103AA000D4F858A0AAEB09035B45EFDCDDE9092354
:103AB0009A421BDB2368DA0718D4DDE90923924513
:103AC0001CDBA3EB0A09B9F1000F08DD4B4608EB3C
:103AD0000A0231462846B84701303FF4A9AE4FF0FC
:103AE000000829EAE97904F11A0A14E0DDE906235D
:103AF00031462846B8470130DFD199E6A3EB0209E9
:103B0000E1E70123524631462846B84701303FF4E9
:103B10008FAE08F10108DDE909239B1AA3EB090325
:103B20004345EEDC4AE70A9A012A01DCDB0737D578
:103B30000123424631462846B84701303FF478AE6B
:103B4000DDE9062331462846B84701303FF470AE20
:103B500000220023D4E91201FCF796FFD8B90A9B92
:103B600008F10102013B31462846B84701300ED129
:103B70005EE60123524631462846B84701303FF4FD
:103B800057AE08F101080A9B013B4345F1DC4B4667
:103B900004F15002E1E64FF0000804F11A0AF2E7DE
:103BA00001234246DFE701234A4631462846B8470B
:103BB00001303FF43DAE08F10108E3680B9A9B1A0F
:103BC0004345F0DCFEE64FF0000804F11909F4E784
:103BD0002DE9F04791461F468A680B69DDF8208081
:103BE0009342B8BF1346C9F8003091F84320064607
:103BF0000C4612B10133C9F800302368990642BF60
:103C0000D9F800300233C9F80030256815F00605F0
:103C100007D104F1190AE368D9F800209B1AAB42D6
:103C200028DC94F843302268003318BF0123920641
:103C30002DD404F1430239463046C047013020D02C
:103C40002368E568D9F8002003F00603042B08BFB9
:103C5000AD1AA36822690CBF25EAE57500259342D9
:103C6000C4BF9B1AED184FF000091A344D451AD104
:103C7000002008E00123524639463046C047013053
:103C800003D14FF0FF30BDE8F0870135C3E7E118FD
:103C90005A1C302081F84300224494F8451082F8E1
:103CA00043100233C5E70123224639463046C04758
:103CB0000130E6D009F10109D8E700002DE9F04311
:103CC00006460C4601F14300097E85B06E299846F0
:103CD00017460C9B00F0BA8024D8632939D00AD843
:103CE000002900F0C380582900F0918004F14205BA
:103CF00084F8421035E0642901D06929F6D125689D
:103D00001A6815F0800F02F104012CD012681960B6
:103D1000002A03DA2D23524284F84330DFF8BCC175
:103D20000A233FE0732900F0A58008D86F2921D02D
:103D30007029DBD1226842F02002226003E075295D
:103D400018D07829D2D1782284F84520DFF890C1A4
:103D500061E01A68111D1960136884F8423004F19B
:103D60004205012393E01268196015F0400F18BF57
:103D700012B2CDE7D4F800C01A681CF0800F02F12F
:103D800004051D6001D0126803E01CF0400FFAD05A
:103D90001288DFF848C16F290CBF08230A230021CD
:103DA00084F843106568A560002DA2BF216821F04A
:103DB000040121600AB9002D46D00546B2FBF3F19B
:103DC00003FB112E93421CF80EE005F801ED39D9E2
:103DD000082B0BD12368DA0708D5236962689A4259
:103DE000DEBF302305F8013C05F1FF35401B2061A3
:103DF000CDF800803B4603AA21463046FFF7E8FE97
:103E0000013049D14FF0FF3005B0BDE8F083DFF855
:103E1000CCC084F845101D68216855F8042B1D603E
:103E20000D060BD5CD0744BF41F0200121601AB922
:103E3000236823F0200323601023B0E74B0648BF1C
:103E400092B2EFE70A46B9E70546C1E71A68D4F827
:103E500000C06169151D1D601CF0800F136801D042
:103E6000196003E01CF0400FFAD019800023236191
:103E70000546BDE71A68111D1960156862680021C2
:103E80002846FCF78DF908B1401B60606368236128
:103E9000002384F84330ABE723692A46394630468D
:103EA000C0470130AED023689B0713D4E068039B62
:103EB0009842B8BF1846A7E701234A46394630461C
:103EC000C04701309ED00135E368039A9B1AAB428C
:103ED000F2DCEBE7002504F11909F5E75E5B000869
:103EE0006F5B00080EB400B59CB01DAB029006904D
:103EF0006FF00041094807910491094953F8042BD8
:103F000005910068019302A901F076FA029B002254
:103F10001A701CB05DF804EB03B070470C00002071
:103F20000802FFFF2DE9F74F03690C69A3428046A1
:103F30007FDB013C01F11407A00008F114052B18E8
:103F4000019357F8243055F8242001339A4207EBA7
:103F50000009B2FBF3F631D34FF0000ABC46AE467F
:103F6000D3465CF8042B93B206FB03A34FEA134A33
:103F70009BB2ABEB0303120CDEF800B006FB02A20F
:103F800013FA8BF34FEA124A1FFA82FBDEF8002085
:103F9000CBEB124202EB23429BB243EA0243E145E0
:103FA0004FEA224B4EF8043BDBD22B5833B9019B2E
:103FB000043B9D421A4630D3C8F81040404601F0F9
:103FC00044F8002825DB013628464FF0000C57F84E
:103FD000042BD0F800E093B2ACEB0303120C13FAFD
:103FE0008EF3C2EB1E4202EB23429BB243EA024332
:103FF000B9454FEA224C40F8043BE8D255F824205A
:1040000005EB84032AB9043B9D421A460BD3C8F83A
:104010001040304603B0BDE8F08F1268043B002A20
:10402000CAD1013CC5E71268043B002AEFD1013C2C
:10403000EAE70020EEE700002DE9F04F55EC104BC9
:1040400099B0476A089182460D921493229E10EE11
:10405000108AA94647B9102000F0BEFDC0E90177DB
:10406000CAF824000760C760DAF82430196859B12B
:104070005A684A60012393408B60504600F008FE66
:10408000DAF8243000221A602B1EAABF002323F086
:1040900000493360AE4BBCBF0122326033EA0903F2
:1040A0004C461AD1149A42F20F731360C9F31303EA
:1040B00053EA080300F06F85239B53B9A54B21E019
:1040C000A54B03930833239A1360039819B0BDE8F6
:1040D000F08FA04B03930333F5E700220023404603
:1040E0004946CDE90E89FCF7CFFC074660B1149A2A
:1040F00001231360239B002B00F04A85974B239AE2
:104100001360013B0393E0E716AA17A99DED0E0B80
:10411000504601F011F8C9F30A560190002E7FD0E5
:104120000F9B1597C3F31303DDE90E4543F07F554D
:1041300045F44015A6F2FF360022894B2046294659
:10414000FCF782F87CA3D3E90023FCF735FA7CA3C3
:10415000D3E90023FCF77AF8044630460D46FCF715
:10416000C1F979A3D3E90023FCF726FA02460B46EE
:1041700020462946FCF76AF804460D46FCF7CCFCBD
:1041800000228346002320462946FCF787FC48B1DD
:104190005846FCF7A7F922462B46FCF775FC08B9F0
:1041A0000BF1FF3BBBF1160F57D86E4B03EBCB0364
:1041B000D3E90023DDE90E01FCF770FC00284ED0A6
:1041C0000BF1FF3B00231193169B9E1B731E07935D
:1041D00045BFC6F101030693002300234CBF07939C
:1041E0000693BBF1000F3CDB079BCDF840B05B446E
:1041F000079300230993089B092B00F28C80052B61
:10420000C4BF043B0893089BA3F10203CCBF002466
:104210000124032B00F28A80DFE803F02D3A387B7B
:10422000DDE916631E4406F232402028C1BFC0F10A
:104230004000844006F2124028FA00F0D6BFC0F1D8
:104240002000204308FA00F0FCF73CF90123044663
:10425000A1F1F875013E15936EE70123B3E71190C4
:10426000B2E7069BA3EB0B030693CBF10003099384
:1042700000231093BFE700230C930D9B002B75DCEC
:104280000123049302931A460D920BE00123F3E7F6
:1042900000230C930D9B5B4404930133012B029389
:1042A000B8BF0123DAF8245000226A60042202F128
:1042B0001400984269685DD9504600F0B5FCDAF800
:1042C000243028601B680393029B0E2B00F2D480DD
:1042D000002C00F0D180BBF1000F69DD214A0BF00A
:1042E0000F0302EBC30393ED007B4FEA2B14E006B0
:1042F0008DED0A7B5AD51C4BDDE90E01D3E908236D
:10430000FCF784FA04F00F04804689460326164D14
:1043100041E00123BDE70124002308930C944FF0F2
:10432000FF330493029300221223ADE701230C9381
:10433000F5E700BFAFF3008061436F63A787D23F0B
:10434000B3C8608B288AC63FFB799F501344D33F84
:104350000000F07F895B0008805B00085D5B00085F
:104360000000F83FC05B0008985B00080D9B0493B9
:10437000029397E701316960520098E7E10708D599
:10438000DDE90A01D5E90023FCF716F9CDE90A01B8
:10439000013664100835002CF0D1DDE90A234046CF
:1043A0004946FCF733FA804689461AE00226AEE712
:1043B00000F09C80CBF10004C44BC54D04F00F020B
:1043C00003EBC203D3E90023DDE90E01FCF7F4F8A7
:1043D00024118046894600230226002C7BD1002B25
:1043E000E1D1119B002B00F083800022B94B4046A5
:1043F00049464D46FCF752FB002879D0029B002B22
:1044000076D0049B002B35DD0BF1FF330A93404639
:1044100049460022B04BFCF7CFF8049C8046894601
:1044200001363046FCF75EF842464B46FCF7C4F8CE
:104430000022AA4BFBF70AFF0646A1F15077002C99
:104440005AD10022A64B40464946FBF7FDFE3246B4
:104450003B4680468946FCF73FFB002840F09382AC
:10446000324607F1004340464946FCF717FB002857
:1044700040F08782DDE90E89179B002BC0F258813E
:10448000BBF10E0F00F35481904B03EBCB0393ED84
:10449000007B0D9B002B8DED047B80F2CD80029B79
:1044A000002B00F3C98040F06B8200228C4B51EC52
:1044B000170BFCF781F842464B46FCF703FB029CC6
:1044C0002646002840F04482039D312305F8013B35
:1044D0000BF1010B40E2E20705D5D5E90023FCF71B
:1044E0006BF8013601236410083576E7022678E779
:1044F000CDF828B0029C94E7744B03EBC40353E956
:104500000201039B1C440C9B002B4AD002460B4625
:1045100000207449FCF77AF932463B46FBF794FEDB
:10452000039D06460F4649464046FCF7F5FA1290B1
:10453000FBF7D8FF02460B4640464946FBF784FE90
:10454000129B30338046894605F8013B02460B46F4
:1045500030463946FCF7C0FA002862D142464B4645
:1045600000205C49FBF770FE02460B463046394698
:10457000FCF7B2FA002840F0B980A5423FF47AAFC8
:104580000022554B30463946FCF716F80022064605
:104590000F4640464946504BFCF70EF88046894688
:1045A000C1E732463B46FCF707F8CDE91201039E0E
:1045B000254649464046FCF7AFFA0746FBF792FF0F
:1045C000303702460B4640464946FBF73DFE06F8AB
:1045D000017BA642804689464FF0000226D1414B1E
:1045E000DDE91201FBF732FE02460B464046494622
:1045F000FCF772FA002879D1DDE91223002039494D
:10460000FBF722FE02460B4640464946FCF746FAB7
:1046100000283FF42FAF15F8013C302B05F1FF3295
:1046200002D0DDF828B040E01546F4E72A4BFBF74E
:10463000C3FF80468946BCE7039D46464F464FF080
:1046400000084FF00009DDE9042330463946FCF745
:10465000DDF8FCF761FA0446FBF744FFDDE90423CB
:10466000FBF7AAFF02460B463046394604F13006F6
:10467000FBF7EAFD05F8016B039E029FAE1BB742F4
:1046800002460B4647D1FBF7E1FDDDE90423064670
:104690000F46FCF721FA38BBDDE9042330463946E2
:1046A000FCF7F2F908B1E3071ED40199504600F077
:1046B000EFFA0023149A2B700BF101031360239B74
:1046C000002B3FF402AD1D60FFE400BFC05B00089B
:1046D000985B00080000F03F0000244000001C40F0
:1046E000000014400000E03FCDF828B015F8012C80
:1046F000392A05F1FF3308D1039A9A4209D10A9A5F
:10470000039901320A9230220A701A7801321A7023
:1047100087E71D46EAE700229D4BFBF74DFF424627
:104720004B4606460F46FCF7AFF900288BD0BCE796
:104730000C9A002A00F0CC80089A012A00F3AE807F
:10474000159A002A00F0A68003F23343099C069DC7
:10475000069A1A440692079A01211A445046079273
:1047600000F038FB0646002D0CDD079B002B09DD11
:10477000AB42069AA8BF2B46D21A0692079AED1AA8
:10478000D31A0793099BF3B10C9B002B00F0A48074
:10479000002C10DD31462246504600F0B5FB019A50
:1047A00001460646504600F01EFB0199074650465A
:1047B00000F06EFA0197099B1A1B04D0019950462C
:1047C00000F0A2FB01900121504600F003FB109B7A
:1047D000002B044640F382801A460146504600F002
:1047E00093FB089B012B04467BDD0027236904EB28
:1047F0008303186900F09EFAC0F12000079B18445B
:1048000010F01F0000F08B80C0F12003042B40F358
:104810008480C0F11C00069B03440693079B03445D
:1048200005440793069B002B05DD1A460199504667
:1048300000F0B8FB0190079B002B05DD21461A46CE
:10484000504600F0AFFB0446119B002B69D0214677
:10485000019800F0FAFB002863DA00230A2201998C
:10486000504600F02CFA0C9B01900BF1FF3B002B03
:1048700000F09881002331460A22504600F01FFACA
:10488000049B002B064600F38B80089B022B40F311
:1048900087804EE0169BC3F1360357E7029B5C1EF0
:1048A000099BA342BFBF099B0994E21A109BB6BFA4
:1048B0009B181C1B1093029BB8BF0024002BB9BF90
:1048C000069B029A069D029BBCBF9D1A00233FE7F0
:1048D000099C069D0C9E46E7099A6FE7089B012BF1
:1048E00017DCB8F1000F14D1C9F313039BB929F0F9
:1048F00000473F0D3F0537B1069B01330693079BE9
:10490000013307930127109B002B7FF46FAF012029
:1049100074E70027F7E74746F5E783D018461C30D1
:1049200079E7029B002B35DC089B022B32DD029BD2
:104930000493049B63B921460522504600F0BFF959
:1049400001460446019800F080FB00283FF7BCAD0B
:104950000D9B039D6FEA030B00272146504600F094
:1049600097F9002E3FF4A1AE2FB1B74203D03946DC
:10497000504600F08DF93146504600F089F994E632
:1049800000242646E4E7DDF828B026469CE500BF73
:10499000000024400C9B002B00F0BF80029B04937E
:1049A000002D05DD31462A46504600F0FBFA06464A
:1049B000002F53D07168504600F036F93269023248
:1049C0000546920006F10C010C3000F01FF901229F
:1049D0002946504600F0E6FA039B01330293DDE9D5
:1049E00003231344099308F001033746079306464F
:1049F000029B0198013B21460493FFF793FA394645
:104A0000069000F13008019800F01FFB3246814605
:104A10002146504600F033FBC268054602BB014602
:104A2000019800F012FB0246294650460A9200F017
:104A30002FF9089B0A9A029D43EA0201079B0B4348
:104A400010D1B8F1390F2BD0B9F1000F02DD069B60
:104A500003F13108049B83F800807EE73046BBE712
:104A60000122E1E7B9F1000F06DB089B43EA0909DF
:104A7000079B59EA03031ED1002AEBDD01220199AD
:104A8000504600F08FFA2146019000F0DEFA00282F
:104A900003DCDFD118F0010FDCD0B8F1390FD6D12B
:104AA000049A3923137015F8013C392B05F1FF32B4
:104AB00064D0013307E0002A07DDB8F1390FEFD0E9
:104AC000049A08F10103137047E7029B099A03F85F
:104AD000018C93423AD000230A220199504600F0FB
:104AE000EEF8B74201904FF000034FF00A0239464A
:104AF000504607D100F0E3F807460646029B013313
:104B0000029375E700F0DBF83146074600230A22DE
:104B1000504600F0D4F80646F0E7029B0493039D4C
:104B200001982146FFF7FEF900F13008039B05F8D4
:104B3000018BEA1A049B934207DD00230A220199A4
:104B4000504600F0BCF80190EAE7002701220199E5
:104B5000504600F027FA2146019000F076FA00282E
:104B6000A1DC02D118F0010F9DD115F8013C302BCA
:104B700005F1FF327FF4F1AE1546F6E7039B934251
:104B800004D10BF1010B3123039A9CE715468AE708
:104B9000084BFFF7B7BA239B002B7FF491AA064B73
:104BA000FFF7B0BA049B002BB9DC089B022B3FF740
:104BB000C0AEB4E75C5B0008805B0008044B1B6878
:104BC000186A044B002808BF1846F030704700BF31
:104BD0000C00002070000020024B0146186800F015
:104BE00055BB00BF0C00002082B001B901A942B141
:104BF0004BB113780B601278101C18BF012002B063
:104C000070471046FBE76FF00100F8E70A44914255
:104C100000F1FF3300D1704710B511F8014B03F8D4
:104C2000014F9142F9D110BD70B5456A04460E4658
:104C30003DB91020FFF7D0FFC0E901556062056063
:104C4000C560656AEB6883B1636ADB6853F8260068
:104C5000B8B9012101FA06F56A1D9200204600F05C
:104C6000B9FA60B1C0E901650EE0212204212046B5
:104C700000F0B0FA636AE860DB68002BE4D1002042
:104C800070BD026843F826200023C0E90333F7E72C
:104C900070B5446A06460D463CB91020FFF79CFFEC
:104CA000C0E9014470620460C4603DB1736A6A681F
:104CB000DB6853F82210296043F8225070BD2DE9BB
:104CC000F0410D691F4606460C4601F1140C002305
:104CD000DCF8000081B202FB01710F0C000C02FB3A
:104CE000007089B2013301EB00419D424FEA104749
:104CF0004CF8041BECDCD7B1A368AB4212DC616852
:104D000030460131FFF790FF2269023204F10C01B5
:104D1000804692000C30FFF779FF21463046FFF7BE
:104D2000B7FF444604EB850301355F6125612046EA
:104D3000BDE8F081020C12040346CAB90304102036
:104D400013F07F4F04BF1B02083013F0704F04BFF5
:104D50001B01043013F0404F04BF9B000230002BB6
:104D600005DB13F0804F00F1010008BF20207047E1
:104D70000020E5E7036813F0070201460BD0DA07CD
:104D800024D4980749BF5B089B0801200B605CBFD7
:104D90000B600220704798B2B0B91B0C102013F0C2
:104DA000FF0F04BF1B0A08301A0704BF1B09043099
:104DB0009A0704BF9B080230DA0703D45B0800F1AE
:104DC000010005D00B6070471046E8E700207047EF
:104DD0002020704710B50C460121FFF725FF012266
:104DE0004461026110BD2DE9F74F90460A69D8F879
:104DF00010309A42B8BF0B460C46BCBF444698469A
:104E00002769D8F81090A368616807EB0906B342D8
:104E1000B8BF0131FFF708FF00F1140505EB860E5E
:104E20002B460022734516D304F1140308F1140233
:104E300003EB870702EB89030093009B01929342E7
:104E40000CD8002E03DD5EF8043D002B59D006611E
:104E500003B0BDE8F08F43F8042BE3E7B2F800A0FD
:104E6000BAF1000F23D004F11409AC464FF000084A
:104E700059F8041BDCF800B08BB21FFA8BFB0AFB5D
:104E800003B34FEA114BDCF8001043444FEA1148DA
:104E90000AFB0B8101EB13419BB243EA01434F45EF
:104EA0004FEA11484CF8043BE2D8CCF80080019B53
:104EB000B3F802900432B9F1000F20D02B6804F14E
:104EC0001408AC464FF0000AB8F80010BCF802B065
:104ED00009FB01B18A449BB243EA0A434CF8043B04
:104EE00058F8043BBCF800101B0C09FB031303EB40
:104EF0001A4347454FEA134AE6D8CCF80030043548
:104F00009BE7013E9DE700002DE9F843154612F0AE
:104F1000030206460F4607D0013A214C002354F8FD
:104F20002220FFF7CCFE0746AD1035D0746A3CB99D
:104F30001020FFF751FEC0E9014470620460C460B4
:104F4000D6F82480D8F808404CB940F27121304698
:104F5000FFF740FF0023C8F80800044603604FF045
:104F60000008EB070AD5394622463046FFF73BFFDB
:104F7000394681463046FFF78BFE4F466D100BD009
:104F8000206838B9224621463046FFF72CFF2060C2
:104F9000C0F800800446E4E73846BDE8F88300BF67
:104FA000885C00082DE9F0470C464FEA621A236935
:104FB00049680AEB0309A3680746164609F101058B
:104FC000AB4233DB3846FFF72FFE0023804600F16B
:104FD000140100F11002184653452ADB20692AEA21
:104FE000EA7A04F1140316F01F0201EB8A0103EBC5
:104FF000800C22D0C2F1200E00201E689640304363
:1050000041F8040B53F8040B9C4520FA0EF0F4D839
:10501000086008B109F10205013D3846C8F8105092
:105020002146FFF735FE4046BDE8F08701315B00C1
:10503000C6E742F8040F0133CEE7043953F8042BD6
:1050400041F8042F9C45F9D8E6E703690A699B1AE1
:1050500030B50CD19200143014318418114454F836
:10506000045D51F8042D954203D005D30123184661
:1050700030BDA042F3D3FAE74FF0FF33F7E72DE955
:10508000F0470D460746114628461446FFF7DDFF58
:10509000061E08D131463846FFF7C6FD0123C0E998
:1050A0000436BDE8F087A4BF23462C463846616825
:1050B000A6BF1D4600260126FFF7B6FD2B69C66078
:1050C000266905F1140904F1140202EB860709EBC5
:1050D000830800F114054FF0000E52F804AB59F8A4
:1050E000044B1EFA8AF1A3B2C91A230CC3EB1A436C
:1050F00003EB214389B24FEA234EC84541EA0343FB
:10510000944645F8043BE8D8BC4504D355F8043D23
:1051100083B10661C5E75CF8041B1EFA81F31A141B
:1051200002EB11429BB243EA02434FEA224E45F89A
:10513000043BE9E7013EE9E72DE9F7430E4601218B
:1051400059EC108B1546FFF76FFDC9F30A5407465B
:10515000C9F313032CBB0193B8F1000326D06846B2
:105160000093FFF707FE0099F0B1019AC0F1200308
:1051700002FA03F30B43C2407B610192019BBB61C6
:10518000002B14BF022101213961C4B1A4F23344C0
:1051900004443460C0F135002860384603B0BDE8EF
:1051A000F08343F48013D6E77961E7E701A8FFF7BE
:1051B000E1FD019B7B61012139612030E5E707EBCF
:1051C0008103A0F2324030601869FFF7B3FDC0EBF5
:1051D0004110E1E738B502FB01F4214600F056F832
:1051E000054618B122460021FEF72CFA284638BDA4
:1051F00038B50546002945D051F8043C0C1F002B5A
:10520000B8BFE41800F027FA1F4A1368104633B9F4
:10521000636014602846BDE8384000F01DBAA34220
:105220000CD921686218934204BF1A685B686360F6
:1052300004BF521822600460ECE713465A680AB1B2
:10524000A242FAD919685818A0420BD1206801442B
:10525000581882421960DDD1106852685A600144C2
:105260001960D7E702D90C232B60D3E720682118F7
:105270008A4204BF11685268626004BF0918216045
:105280005C60C7E738BD00BF00020020F8B5CD1C48
:1052900025F0030508350C2D38BF0C25002D0646DA
:1052A00001DBA94203D90C2333600020F8BD00F0D4
:1052B000D2F921490A6814469CB9204F3B6823B9AA
:1052C0002146304600F090F938602946304600F01B
:1052D0008BF9431C23D10C233360304600F0BCF91A
:1052E000E3E723685B1B17D40B2B03D923601C4413
:1052F000256004E06368A2420CBF0B605360304637
:1053000000F0AAF904F10B00231D20F00700C21AD7
:10531000CCD01B1AA350C9E722466468CCE7C41C52
:1053200024F00304A042E3D0211A304600F05CF9D7
:105330000130DDD1CFE700BF0002002004020020D1
:105340002DE9F0478E689E4282460C46914698466B
:1053500038D8B1F80CC01CF4906F31D06269256860
:10536000096902EB42026F1A02EBD2720133551047
:105370003B449D4238BF1D461CF4806F30D0294607
:10538000FFF784FF064650B90C23CAF80030A38902
:1053900043F04003A3814FF0FF30BDE8F0873A4669
:1053A0002169FFF733FCA38923F4906343F0800362
:1053B000A381266165613E44ED1B2660A5604646DB
:1053C000464500D9464632464946206800F029F94C
:1053D000A3689B1BA36023681E4426600020DCE7B3
:1053E0002A4600F03AF906460028E2D121695046E3
:1053F000FFF7FEFEC8E700002DE9F04F1E468B893F
:105400001B069DB007460D4614460ED50B6963B9C1
:105410004021FFF73BFF2860286120B90C233B6047
:105420004FF0FF30C9E040236B6100230993202334
:105430008DF82930DFF89C91039630238DF82A30BF
:105440004FF0010A23461E4613F8012B0AB1252A04
:10545000F9D1B6EB040B0BD05B4622462946384601
:10546000FFF76EFF013000F0A380099B5B440993B6
:105470003378002B00F09C8000234FF0FF32CDE901
:1054800005230136049307938DF853301A9334465D
:10549000052214F8011B4F48FAF782FE049BC0B99D
:1054A000D90644BF20228DF853201A0744BF2B226F
:1054B0008DF8532032782A2A13D0079A34460020D8
:1054C0000A26214611F8013B303B092B4BD970B914
:1054D00014E0A0EB09000AFA00F0184304902646F5
:1054E000D5E7039A111D12680391002A01DB079288
:1054F00004E0524243F002030792049323782E2BD8
:105500000CD163782A2B33D1039B1A1D1B6803929D
:10551000002BB8BF4FF0FF33023405932E4E217895
:1055200003223046FAF73CFE38B14023801B03FAD1
:1055300000F0049B03430134049314F8011B274833
:105540008DF828100622FAF72BFE002838D0244BBD
:1055500013BB039B073323F0070308330393099B13
:10556000434409936EE706FB023201200C46A8E78C
:1055700000230134059319460A26204610F8012B12
:10558000303A092A03D9002BC8D00591C6E706FB9B
:10559000012101230446F0E703AB00932A46114B97
:1055A00004A93846FEF7E6F8B0F1FF3F8046D6D1B1
:1055B000AB895B063FF534AF09981DB0BDE8F08FAD
:1055C00003AB00932A46074B04A93846FEF776FB47
:1055D000EAE700BF945C00089A5C00089E5C000843
:1055E000753700084153000838B5064C00230546BE
:1055F0000846236000F0BEF8431C02D1236803B1C3
:105600002B6038BDC821002049B1FF2A85BF8A23FD
:1056100003600A704FF0FF3098BF012070470846C2
:105620007047884210B501EB020302D983421C4641
:1056300007D8421E994208D011F8014B02F8014FD9
:10564000F8E783189A1A9A4200D110BD14F8011D88
:1056500003F8011DF7E770477047F8B50746144691
:105660000E4621B91146BDE8F840FFF70FBE22B93A
:10567000FFF7BEFD25462846F8BD00F014F8A0420D
:105680000FD221463846FFF701FE05460028F2D02A
:1056900031462246FFF7BAFA31463846FFF7A8FDF1
:1056A000E9E73546E7E751F8043C181F002BBCBF7B
:1056B0000B58C0187047000010B52DED028B8AB052
:1056C000B0EE408A00F050F8254B93F90040631C7F
:1056D00009D0B4EE488AF1EE10FA04D6B5EEC08ACD
:1056E000F1EE10FA03D40AB0BDEC028B10BD012319
:1056F0001C4A009318EE100A002301920893FAF74F
:1057000003FF0022CDE90401CDE902010023BCB171
:1057100010461946FBF77AF8022CCDE9060111D1A3
:1057200000F090F921230360089B9BB9DDE9060195
:10573000FBF71AFA00EE100A0AB0BDEC028B10BD9E
:10574000CDE90623684600F013F80028E8D0089B4E
:10575000002BEBD000F076F9089B0360E6E700BF72
:10576000DC010020A85D0008B1EEC00A704700BF50
:1057700000207047044A05491368002B08BF0B46F8
:10578000184410601846704708020020D0210020FD
:105790002DE9F04F099F154604468E461E46002B04
:1057A00040F0CC808A42B2FA82FC4CD9BCF1000FA6
:1057B0000BD0CCF1200801FA0CFE20FA08F802FA0E
:1057C0000CF548EA0E0E00FA0CF44FEA15491FFAE0
:1057D00085F8BEFBF9FA210C09FB1AE30AFB08FB6A
:1057E00041EA03439B452AD9EB180AF1FF3004D262
:1057F0009B4502D9AAF102002B44A3EB0B03A4B2F0
:10580000B3FBF9F209FB123302FB08F844EA034444
:10581000A04516D92C1902F1FF3303D2A04501D9B6
:10582000931E2C44A4EB080443EA004027B124FA59
:105830000CF400233C607B603146BDE8F08F50469D
:10584000DBE71346EEE702B9FFDEBCF1000F2ED115
:105850008B1A01264FEA154EAAB2B3FBFEF8210CB3
:105860000EFB183308FB02F941EA0343994561D95D
:10587000EB1808F1FF3004D2994502D9A8F10200D3
:105880002B44A3EB0903A4B2B3FBFEF10EFB1133CF
:105890004A4344EA0344A2424ED92C1901F1FF3392
:1058A00003D2A24201D98B1E2C44A41ABCE7CCF12E
:1058B000200E02FA0CF521FA0EF901FA0CF320FA87
:1058C0000EFE4EEA03034FEA154800FA0CF4B9FB4A
:1058D000F8F11FFA85FE08FB1192180C01FB0EF679
:1058E00040EA0242964221D9AA1801F1FF3003D2C0
:1058F000964201D9881E2A44921B9BB2B2FBF8F94A
:1059000008FB192209FB0EFE43EA02439E450FD90C
:10591000EB1809F1FF3604D29E4502D9A9F102061F
:105920002B44A3EB0E0346EA004693E70846E3E761
:105930004E46F6E74046A4E70B46B6E78B4205D94C
:105940000FB1C7E900010026304675E7B3FA83FCC2
:10595000BCF1000F0FD18B4201D3824209D8841AC7
:1059600061EB030E0120002F6AD0C7E9004E00262C
:1059700062E76046F7E7CCF1200E03FA0CF322FA57
:105980000EF521FA0EF41D4301FA0CF320FA0EF184
:105990000B434FEA154A00FA0CF6B4FBFAF91FFA6A
:1059A00085F80AFB19401C0C09FB08F144EA004485
:1059B000A14202FA0CF23FD92C1909F1FF3004D2AE
:1059C000A14202D9A9F102002C44641A9BB2B4FB93
:1059D000FAF90AFB194409FB08F843EA044188452F
:1059E0002CD9691809F1FF3304D2884502D9A9F1ED
:1059F0000203294443EA0040A1EB0801A0FB02890D
:105A00004945C2464C4602D306D1464504D2B8EBBE
:105A1000020A69EB0504013897B1B6EB0A0361EBA2
:105A2000040606FA0EFE23FA0CF34EEA030326FAE6
:105A30000CF6C7E900369AE74846C6E74B46D9E771
:105A40003E46F9E6014B1868704700BF0C00002085
:105A5000F8B500BFF8BC08BC9E467047F8B500BF5B
:085A6000F8BC08BC9E4670472B
:105A68005468696E670A0D0000000000000000001D
:105A7800000000000000000000000000000000001E
:105A880000000000000000005372632F6D61696E12
:105A98002E6300005468696E67310A0D000000002B
:105AA8005468696E67320A0D000000005468696E18
:105AB80067330A0D000000005468696E67340A0DE8
:105AC800000000005468696E67350A0D0000000088
