:020000040800F2
:1000000000800120313A0008813A0008813A000856
:10001000813A0008813A0008813A00080000000097
:10002000000000000000000000000000813A00080D
:10003000813A000800000000813A0008A51E00086F
:10004000813A0008813A0008813A0008813A0008A4
:10005000813A0008813A0008813A0008813A000894
:10006000813A0008813A0008813A0008C91A00085C
:10007000813A0008813A0008813A0008813A000874
:10008000813A0008813A0008451B0008813A0008BF
:10009000813A0008813A0008813A0008813A000854
:1000A000813A0008813A0008813A0008813A000844
:1000B000813A0008813A0008813A0008813A000834
:1000C000813A0008813A0008813A0008813A000824
:1000D000813A0008813A0008813A0008813A000814
:1000E000813A0008813A0008813A0008813A000804
:1000F000813A0008813A0008813A0008813A0008F4
:10010000813A0008813A0008813A0008813A0008E3
:10011000813A0008813A0008813A0008813A0008D3
:10012000813A0008813A0008813A0008813A0008C3
:10013000813A0008813A0008813A0008813A0008B3
:10014000813A0008813A0008813A0008813A0008A3
:10015000813A0008813A0008813A0008813A000893
:10016000813A0008813A0008813A0008813A000883
:10017000813A0008813A0008813A00080000000036
:08018000813A0008813A0008F1
:1001880010B5054C237833B9044B13B10448AFF3C9
:1001980000800123237010BDB00000200000000083
:1001A800645D0008084B10B51BB108480849AFF357
:1001B80000800848036803B910BD074B002BFBD02B
:1001C800BDE81040184700BF00000000645D00084B
:1001D800B4000020B00000200000000081F00041C1
:1001E80002E000BF83F0004330B54FEA41044FEA14
:1001F800430594EA050F08BF90EA020F1FBF54EAAF
:10020800000C55EA020C7FEA645C7FEA655C00F04A
:10021800E2804FEA5454D4EB5555B8BF6D420CDD1B
:100228002C4480EA020281EA030382EA000083EA9E
:10023800010180EA020281EA0303362D88BF30BD3E
:1002480011F0004F4FEA01314FF4801C4CEA113194
:1002580002D0404261EB410113F0004F4FEA0333F3
:100268004CEA133302D0524263EB430394EA050F7E
:1002780000F0A780A4F10104D5F1200E0DDB02FAED
:100288000EFC22FA05F2801841F1000103FA0EF281
:10029800801843FA05F359410EE0A5F120050EF147
:1002A800200E012A03FA0EFC28BF4CF0020C43FA78
:1002B80005F3C01851EBE37101F0004507D54FF085
:1002C800000EDCF1000C7EEB00006EEB0101B1F5D5
:1002D800801F1BD3B1F5001F0CD349085FEA30001B
:1002E8004FEA3C0C04F101044FEA445212F5800F26
:1002F80080F09A80BCF1004F08BF5FEA500C50F1C3
:10030800000041EB045141EA050130BD5FEA4C0CA5
:10031800404141EB010111F4801FA4F10104E9D12E
:1003280091F0000F04BF01460020B1FA81F308BF25
:100338002033A3F10B03B3F120020CDA0C3208DDF1
:1003480002F1140CC2F10C0201FA0CF021FA02F1CC
:100358000CE002F11402D8BFC2F1200C01FA02F13C
:1003680020FA0CFCDCBF41EA0C019040E41AA2BF61
:1003780001EB0451294330BD6FEA04041F3C1CDA29
:100388000C340EDC04F11404C4F1200220FA04F049
:1003980001FA02F340EA030021FA04F345EA0301F3
:1003A80030BDC4F10C04C4F1200220FA02F001FAB5
:1003B80004F340EA0300294630BD21FA04F0294637
:1003C80030BD94F0000F83F4801306BF81F48011D0
:1003D8000134013D4EE77FEA645C18BF7FEA655C43
:1003E80029D094EA050F08BF90EA020F05D054EA15
:1003F800000C04BF1946104630BD91EA030F1EBF1A
:100408000021002030BD5FEA545C05D1400049411D
:1004180028BF41F0004130BD14F580043CBF01F510
:10042800801130BD01F0004545F0FE4141F47001F6
:100438004FF0000030BD7FEA645C1ABF19461046D1
:100448007FEA655C1CBF0B46024650EA013406BFD2
:1004580052EA033591EA030F41F4002130BD00BF91
:1004680090F0000F04BF0021704730B54FF480644E
:1004780004F132044FF000054FF0000150E700BFCF
:1004880090F0000F04BF0021704730B54FF480642E
:1004980004F1320410F0004548BF40424FF000011B
:1004A8003EE700BF42004FEAE2014FEA31014FEA5E
:1004B80002701FBF12F07F4393F07F4F81F06051AD
:1004C800704792F0000F14BF93F07F4F704730B51C
:1004D8004FF4607401F0004521F0004120E700BFAF
:1004E80050EA010208BF704730B54FF000050AE036
:1004F80050EA010208BF704730B511F0004502D537
:10050800404261EB41014FF4806404F132045FEA38
:10051800915C3FF4DCAE4FF003025FEADC0C18BFDD
:1005280003325FEADC0C18BF033202EBDC02C2F1D3
:10053800200300FA03FC20FA02F001FA03FE40EA65
:100548000E0021FA02F11444C1E600BF70B54FF065
:10055800FF0C4CF4E06C1CEA11541DBF1CEA135547
:1005680094EA0C0F95EA0C0F00F0DEF82C4481EAAF
:10057800030621EA4C5123EA4C5350EA013518BFCF
:1005880052EA033541F4801143F4801338D0A0FBBC
:1005980002CE4FF00005E1FB02E506F00042E0FB69
:1005A80003E54FF00006E1FB03569CF0000F18BF6F
:1005B8004EF0010EA4F1FF04B6F5007F64F5407417
:1005C80004D25FEA4E0E6D4146EB060642EAC621AA
:1005D80041EA55514FEAC52040EA5E504FEACE2E17
:1005E800B4F1FD0C88BFBCF5E06F1ED8BEF1004F1A
:1005F80008BF5FEA500E50F1000041EB045170BD96
:1006080006F0004646EA010140EA020081EA0301D9
:10061800B4EB5C04C2BFD4EB0C0541EA045170BDD5
:1006280041F480114FF0000E013C00F3AB8014F14F
:10063800360FDEBF002001F0004170BDC4F1000498
:10064800203C35DA0C341BDC04F11404C4F1200519
:1006580000FA05F320FA04F001FA05F240EA020074
:1006680001F0004221F0004110EBD37021FA04F6AA
:1006780042EB06015EEA430E08BF20EAD37070BD64
:10068800C4F10C04C4F1200500FA04F320FA05F0C3
:1006980001FA04F240EA020001F0004110EBD370C5
:1006A80041F100015EEA430E08BF20EAD37070BD35
:1006B800C4F1200500FA05F24EEA020E20FA04F30E
:1006C80001FA05F243EA020321FA04F001F00041BD
:1006D80021FA04F220EA020000EBD3705EEA430E2E
:1006E80008BF20EAD37070BD94F0000F0FD101F05D
:1006F8000046400041EB010111F4801F08BF013C96
:10070800F7D041EA060195F0000F18BF704703F0D3
:100718000046520043EB030313F4801F08BF013D5A
:10072800F7D043EA0603704794EA0C0F0CEA135516
:1007380018BF95EA0C0F0CD050EA410618BF52EAD0
:100748004306D1D181EA030101F000414FF00000D6
:1007580070BD50EA410606BF1046194652EA4306E4
:1007680019D094EA0C0F02D150EA013613D195EA58
:100778000C0F05D152EA03361CBF104619460AD1A0
:1007880081EA030101F0004141F0FE4141F47001AA
:100798004FF0000070BD41F0FE4141F4780170BD9A
:1007A80070B54FF0FF0C4CF4E06C1CEA11541DBFFF
:1007B8001CEA135594EA0C0F95EA0C0F00F0A7F801
:1007C800A4EB050481EA030E52EA03354FEA01312E
:1007D80000F088804FEA03334FF0805545EA131341
:1007E80043EA12634FEA022245EA111545EA106509
:1007F8004FEA00260EF000419D4208BF964244F1A0
:10080800FD0404F5407402D25B084FEA3202B61ABE
:1008180065EB03055B084FEA32024FF480104FF492
:10082800002CB6EB020E75EB030E22BFB61A754606
:1008380040EA0C005B084FEA3202B6EB020E75EB99
:10084800030E22BFB61A754640EA5C005B084FEA01
:100858003202B6EB020E75EB030E22BFB61A7546CE
:1008680040EA9C005B084FEA3202B6EB020E75EBD9
:10087800030E22BFB61A754640EADC0055EA060E9A
:1008880018D04FEA051545EA16754FEA06164FEADD
:10089800C30343EA52734FEAC2025FEA1C1CC0D189
:1008A80011F4801F0BD141EA00014FF000004FF016
:1008B800004CB6E711F4801F04BF01430020B4F1D7
:1008C800FD0C88BFBCF5E06F3FF6AFAEB5EB030C8F
:1008D80004BFB6EB020C5FEA500C50F1000041EB8C
:1008E800045170BD0EF0004E4EEA113114EB5C0459
:1008F800C2BFD4EB0C0541EA045170BD41F480112C
:100908004FF0000E013C90E645EA060E8DE60CEA33
:10091800135594EA0C0F08BF95EA0C0F3FF43BAF50
:1009280094EA0C0F0AD150EA01347FF434AF95EA07
:100938000C0F7FF425AF104619462CE795EA0C0FEB
:1009480006D152EA03353FF4FDAE1046194622E7B8
:1009580050EA410618BF52EA43067FF4C5AE50EA92
:1009680041047FF40DAF52EA43057FF4EBAE12E782
:100978004FF0FF3C06E000BF4FF0010C02E000BF63
:100988004FF0010C4DF804CD4FEA410C7FEA6C5C46
:100998004FEA430C18BF7FEA6C5C1BD001B050EAE9
:1009A800410C0CBF52EA430C91EA030F02BF90EAD4
:1009B800020F0020704710F1000F91EA030F58BF93
:1009C800994208BF90422CBFD8176FEAE37040F0F5
:1009D800010070474FEA410C7FEA6C5C02D150EA93
:1009E800013C07D14FEA430C7FEA6C5CD6D152EA4E
:1009F800033CD3D05DF8040B704700BF8446104613
:100A080062468C461946634600E000BF01B5FFF711
:100A1800B7FF002848BF10F1000F01BD4DF808EDE1
:100A2800FFF7F4FF0CBF012000205DF808FB00BFB2
:100A38004DF808EDFFF7EAFF34BF012000205DF80C
:100A480008FB00BF4DF808EDFFF7E0FF94BF012059
:100A580000205DF808FB00BF4DF808EDFFF7CEFF5A
:100A680094BF012000205DF808FB00BF4DF808ED99
:100A7800FFF7C4FF34BF012000205DF808FB00BF6A
:100A88004FEA410212F5001215D211D56FF47873AE
:100A9800B3EB625212D94FEAC12343F0004343EA51
:100AA800505311F0004F23FA02F018BF404270472C
:100AB8004FF00000704750EA013005D111F00040B6
:100AC80008BF6FF0004070474FF00000704700BF4C
:100AD8004FEA4102B2F1E04324BFB3F5001CDCF158
:100AE800FE5C0DD901F0004C4FEAC0024CEA507090
:100AF800B2F1004F40EB830008BF20F001007047BF
:100B080011F0804F21D113F13872BCBF01F00040C1
:100B1800704741F480114FEA5252C2F11802C2F1F3
:100B2800200C10FA0CF320FA02F018BF40F0010074
:100B38004FEAC1234FEAD32303FA0CFC40EA0C0026
:100B480023FA02F34FEA4303CCE77FEA625307D163
:100B580050EA01331EBF4FF0FE4040F4400070479A
:100B680001F0004040F0FE4040F40000704700BF34
:100B780053B94AB9002908BF00281CBF4FF0FF31FC
:100B88004FF0FF3000F03CB882B0EC462DE9005041
:100B980000F01EF8DDF804E002B00CBC704700BF9E
:100BA8002DE9F041069C154606460F46984600F08A
:100BB80029F805FB01F300FB0838A5FB0023B21A4E
:100BC800434467EB0303C4E90023BDE8F08100BF99
:100BD8002DE9F041069C904606460F461D4600F05A
:100BE8005FF900FB05F5A0FB082308FB0155B21AC5
:100BF8002B4467EB0303C4E90023BDE8F08100BF81
:100C0800704700BF00292DE9F043C0F2A6800026F6
:100C1800002BC0F29C80884694469E4615460446A2
:100C28000F46002B3DD18A4259D9B2FA82F33BB123
:100C3800C3F120029F4020FA02F29D4017439C40D6
:100C4800290C220CB7FBF1FEA8B201FB1E7742EA81
:100C5800074700FB0EF3BB420AD97F190EF1FF329A
:100C680080F00581BB4240F20281AEF1020E2F44B2
:100C7800FF1AA4B2B7FBF1F301FB137744EA074765
:100C880000FB03F0B84208D97F1903F1FF3280F066
:100C9800F080B84240F2ED80023B43EA0E43002266
:100CA80003E08B420FD900221346341C18BF0124DD
:100CB80060424FF0000565EB45015840514000196E
:100CC8006941BDE8F083B3FA83F2002A40F08680D8
:100CD8008B4202D3844500F2DB800123E5E712B999
:100CE8000123B3FBF2F5B5FA85F000283BD1781B58
:100CF8004FEA154E1FFA85FC0122B0FBFEF8210CC5
:100D08000EFB180741EA07470CFB08F3BB4207D95B
:100D18007F1908F1FF3102D2BB4200F2BD8088463C
:100D2800FF1AA4B2B7FBFEF30EFB137744EA07479A
:100D38000CFB03FCBC4507D97F1903F1FF3102D234
:100D4800BC4500F2A7800B4643EA0843ADE7524290
:100D58006FEA060663EB43035DE7404261EB41013E
:100D68004FF0FF3654E7C0F1200224FA02F107FAE7
:100D780000F385404FEA154ED7401943B7FBFEF202
:100D88000B0C0EFB12771FFA85FC43EA07430CFB9A
:100D980002F79F4204FA00F407D95B1902F1FF3009
:100DA80074D29F4272D9023A2B44DF1B89B2B7FB37
:100DB800FEF80EFB187341EA03430CFB08F79F4249
:100DC80008D95B1908F1FF315CD29F425AD9A8F1C2
:100DD80002082B44D81B48EA02428EE7C2F12003DE
:100DE8002CFA03F10EFA02FE20FA03F741EA0E0E7E
:100DF80008FA02F028FA03F14FEA1E453843B1FB1E
:100E0800F5F8030C05FB18111FFA8EF743EA0141A8
:100E180007FB08F38B420CFA02FC09D911EB0E010F
:100E280008F1FF3930D28B422ED9A8F1020871445B
:100E3800C91A80B2B1FBF5F305FB131140EA014171
:100E480007FB03F78F4208D911EB0E0103F1FF30BE
:100E580016D28F4214D9023B714443EA0843C91B96
:100E6800A3FB0C89494509D305D000221DE7964606
:100E7800FEE6134611E794404445F6D2013BF4E7F9
:100E88000346EAE78846A5E7C846D1E702468CE765
:100E980013460AE7023B57E7A8F102082F443FE749
:100EA8002DE9F041002B44D18A42154604464FD91A
:100EB800B2FA82F70E464FB1C7F12003B94020FAC3
:100EC80003F602FA07F50E4300FA07F44FEA154E47
:100ED800230CB6FBFEF0AFB20EFB106143EA0143F0
:100EE80007FB00F1994209D95B1900F1FF3280F044
:100EF800EC80994240F2E98002382B445A1AA4B295
:100F0800B2FBFEF30EFB132244EA024207FB03F78F
:100F1800974208D9521903F1FF3180F0D8809742DF
:100F280040F2D580023B43EA004000263146BDE846
:100F3800F0818B4247D8B3FA83F6002E48D18B4212
:100F480002D3824200F2CD8001203146BDE8F08113
:100F580012B90125B5FBF2F5B5FA85F8B8F1000F1D
:100F680077D14A1B4FEA154EAFB20126B2FBFEF00D
:100F7800230C0EFB102143EA014107FB00F38B42CF
:100F880007D9491900F1FF3202D28B4200F2BA8028
:100F98001046C91AA4B2B1FBFEF30EFB131144EAC2
:100FA800014407FB03F7A74208D9641903F1FF328C
:100FB80080F08F80A74240F28C80023B43EA0040D9
:100FC8003146BDE8F081002630463146BDE8F08163
:100FD800C6F1200422FA04F5B3402B4320FA04FC9E
:100FE80001FA06F721FA04F54FEA134E4CEA07070F
:100FF800B5FBFEF8390C0EFB18551FFA83FC41EAC5
:1010080005450CFB08F1A94202FA06F204D9ED18CD
:1010180008F1FF3467D3A0466D1ABFB2B5FBFEF4E2
:101028000EFB145547EA05410CFB04FC8C4504D91A
:10103800C91804F1FF355CD32C4644EA0844CCEBCC
:101048000101A4FB0223994248D344D0204600263C
:101058006CE7C8F1200401FA08F305FA08F520FA4C
:1010680004F7E1404FEA154E1F43B1FBFEF63A0C78
:101078000EFB16111FFA85FC42EA01430CFB06F22F
:101088009A4200FA08F407D95B1906F1FF3137D202
:101098009A4235D9023E2B449B1ABFB2B3FBFEF0ED
:1010A8000EFB103347EA03430CFB00F1994207D9C2
:1010B8005B1900F1FF3221D299421FD902382B4423
:1010C8005A1A40EA0646674650E7104616E70B46A6
:1010D80029E7134672E7B0409042B7D2601E002657
:1010E80024E7304622E7A94295D9A8F102081D4411
:1010F80092E78C45A0D9023C19449EE71046DFE7E9
:101108000E46C9E70238294443E700BF0A4B9B68EB
:1011180013F0005F04D0084A936823F000539360EB
:10112800054A936843F0805393604FF47A5300E084
:10113800013B002BFCD170470000045010B53C4A1D
:10114800D36C43F40053D3643A4CA36823F00103EF
:10115800A360394B9A6842F480729A609A6842F4A4
:1011680080029A609A6822F470129A609A6822F44F
:1011780040329A609A6842F480329A609A6822F003
:101188001F029A60FFF7C2FFE36823F00803E360D9
:10119800E36823F01003E360E36823F02003E360CF
:1011A800236B23F00F032363236B43F4C073236380
:1011B800D4F8B03023F04003C4F8B030636923F4A6
:1011C800E0136361636943F4E0136361E36823F444
:1011D8000053E360E36843F00203E360E36843F02D
:1011E8000103E360E36843F48053E360E36823F4B6
:1011F8007073E360E36843F44073E360E36823F4E7
:101208004063E360E36843F48063E360A36843F00A
:101218000403A360A36823F00103A360A36843F059
:101228000103A360034B1B6813F0010FFAD010BD34
:101238000010024000000450000304500D4BDA6C0B
:1012480022F00102DA64DA6C42F00102DA644FF04B
:1012580090431A6822F00C021A601A6842F00C02D5
:101268001A60DA6822F00C02DA60DA6A42F00202E6
:10127800DA62704700100240184A936D43F0040385
:101288009365174B1A6822F060021A601A6822F0F8
:1012980010021A605A6822F070025A605A6842F0C6
:1012A80040025A609A6922F4803222F070029A61F0
:1012B8009A6942F060029A6107229A6240F2E73224
:1012C800DA624FF4FA725A631A6A42F001021A6239
:1012D8001A6842F001021A60704700BF001002400D
:1012E800000800400B4A936823F001039360094B00
:1012F8001B6813F0010FFAD1064B9A6822F080425E
:101308009A609A6842F000429A60024B9B68002BF0
:10131800FBDB7047000004508B08DFED157A11E005
:1013280090ED007AD0ED015A90ED026AD0ED036A93
:1013380037EE877A77EE257A77EE867A77EEA67A91
:10134800013B1030002BEBD101F0030305E090EDD9
:10135800007A77EE877A013B0430002BF7D107EE4D
:10136800101AB8EE477AC7EE877AC2ED007A70474E
:101378000000000010B51446012902D100231360B3
:1013880010BD8B089FED300AF0EE407A21E0D0EDD9
:10139800006A77EEA67A66EEA66A36EE800AD0ED87
:1013A800016A77EEA67A66EEA66A36EE800A90EDB6
:1013B800027A77EE877A27EE077A37EE000A90ED01
:1013C800037A77EE877A27EE077A37EE000A013B31
:1013D8001030002BDBD101F0030309E090ED007A17
:1013E80077EE877A27EE077A30EE070A013B04305A
:1013F800002BF3D107EE101AB8EE477AF7EE006A21
:1014080077EE666A80EE260AC7EE877A67EEA77AD5
:1014180087EE267A67EE877A70EE677AF5EEC07AFD
:10142800F1EE10FA0DDBB1EEE70AB4EE400AF1EE88
:1014380010FA03D0B0EE670A04F0B0FB84ED000A9E
:1014480010BD0023236010BD00000000F0B5041D8E
:10145800D0ED007A4D1EAE08002007462CE0D4EDF2
:10146800006A94ED017AF4EEE67AF1EE10FA02D50C
:10147800471CF0EE667AD4ED026AF4EEC77AF1EE14
:1014880010FA02D5871CF0EE477A04F1100E94ED9D
:10149800037AF4EEE67AF1EE10FA02D5C71CF0EE04
:1014A800667AF4EEC77AF1EE10FA02D5071DF0EE6F
:1014B800477A0430013E7446002ED0D105F003006F
:1014C8000CE0251D94ED007AF4EEC77AF1EE10FADF
:1014D80002D50F1AF0EE477A01382C460028F0D1D1
:1014E800C2ED007A1F60F0BD2DE9F04F9E46099DC0
:1014F800994204D3CB1A05EB830501270DE0CB18DD
:1015080003F18043023B05EB8305034610461A4668
:101518000B4671469E464FF0FF370EF1FF36CEEB75
:10152800010101F1010C0EF1804A0AF1FF3A02EBC8
:101538008A0AB14651464FF0010844E04FEA980341
:101548000446DFEDD67A22E094ED007AD1ED006A08
:1015580067EE266A76EEA77A94ED017AD1ED016AF4
:1015680067EE266A76EEA77A94ED027AD1ED026AE2
:1015780027EE267A77EE276A94ED037AD1ED037A7F
:1015880027EE277A77EE267A013B10311034002BAC
:10159800DAD108F003030AE094ED007AD1ED006A8D
:1015A80027EE267A77EE877A013B04310434002B44
:1015B800F2D1C5ED007A05EB8705AAEB880108F1A1
:1015C800010809F1FF39B9F1000FB7D1BEF1030FD6
:1015D80002D8E046014613E14FEA9C0A01464FF063
:1015E8000009A1E091ED006AD1ED014A01F10C0476
:1015F80091ED025A4FEA9E0B1146DFEDA87AF0EE04
:10160800673AB0EE673AF0EE676A91ED007A94EDCA
:10161800004A66EE075A75EEA65A64EE872A32EE3D
:10162800833A65EE072A72EEA33A24EE077A77EE3C
:10163800277AD1ED016A94ED016A64EEA64A74EE48
:10164800A55A25EE267A37EE033A24EE267A77EE67
:10165800233A66EE266A76EEA77A91ED027AD4ED01
:10166800024A25EE075A75EE255A64EE076A36EEE9
:10167800833A66EE076A76EEA33A24EE877A37EE67
:10168800277A01F11008D1ED037A04F1100394EDE3
:10169800035A64EE276A76EEA56A66EE275A35EE97
:1016A800833A64EEA75A75EEA33A65EE277A77EE89
:1016B800877A1C464146BBF1010BA6D10EF0030107
:1016C8001DE098ED007AD3ED005A26EE076A76EE13
:1016D800866A24EE876A33EE063A25EE076A73EEC9
:1016E800863A25EE877A77EE877A0139B0EE646A12
:1016F800F0EE454AB0EE655A08F1040804330029B3
:10170800DFD1C5ED006ABB001D4485ED003A1D44DC
:10171800C5ED003A1D44C5ED007A1D4409F10409E0
:1017280000EB89010AF1FF3ABAF1000F7FF45AAFD2
:101738000CF0030844E04FEA9E031446DFED577AA5
:1017480022E091ED007AD4ED006A67EE266A76EE23
:10175800A77A91ED017AD4ED016A27EE267A77EE21
:10176800277A91ED027AD4ED026A27EE267A77EE8F
:10177800276A91ED037AD4ED037A67EE277A77EE3C
:10178800A67A013B10341031002BDAD10EF0030396
:101798000AE091ED007AD4ED006A27EE267A77EE1A
:1017A800877A013B04340431002BF2D1C5ED007A6D
:1017B80005EB870509F1010900EB890108F1FF38FC
:1017C800B8F1000FB7D11EE0D1ED007AD4ED006A70
:1017D80067EEA67A37EE277A013B0434043103E03A
:1017E800734614469FED2D7A002BEDD185ED007AD6
:1017F80005EB870509F1010900EB890108F1FF38BC
:10180800B8F1000FECD100EB8C0C344642E0B00884
:1018180011466346DFED217A22E093ED007AD1ED9F
:10182800006A67EE266A76EEA77A93ED017AD1ED23
:10183800016A67EE266A76EEA77A93ED027AD1ED11
:10184800026A27EE267A77EE276A93ED037AD1EDBE
:10185800037A27EE277A77EE267A0138103110338B
:101868000028DAD106F003000AE093ED007AD1ED02
:10187800006A27EE267A77EE877A01380431043336
:101888000028F2D1C5ED007A05EB87050CF1040CB0
:10189800013E013C002CBAD1BDE8F08F00000000E9
:1018A8002DE9F04786B002AF0E46904689468B0078
:1018B8000A3323F00703ADEB030D02AA4FEA410AEE
:1018C800C8000830ADEB000D02ADADEB030D02AC66
:1018D800009510460B46FFF707FE2846514607F1CC
:1018E8000802FFF719FD00230AE005EB8302D2ED99
:1018F800007A97ED027A77EEC77AC2ED007A013363
:101908005345F2D3284651463A4607F10C03FFF7F0
:101918009DFD00230AE005EB8302D2ED007A97EDE6
:10192800007AC7EE877AC2ED007A01335345F2D3C5
:10193800002208E0FB68134405EB8303196804EBF5
:101948008203196001324A45F4D32046314607F133
:101958000802FFF7E1FC204631463A1DFFF70AFD71
:10196800002313E004EB830292ED007AD7ED017AAD
:1019780077EEA77AD7ED026A77EEA67AB4EEE77A21
:10198800F1EE10FA01D50021116001334B45E9D37E
:10199800012316E004EB830292ED007A52ED017AFE
:1019A80077EE677AF5EEC07AF1EE10FA08DDD2ED3F
:1019B800017A77EEC77AF5EEC07AF1EE10FA04D420
:1019C8000133721E9A42E5D8012307EE903AF8EEE9
:1019D800677A9FED057AC7EE277AC8ED007A103747
:1019E800BD46BDE8F08700BF00401C462E4A936CF8
:1019F80043F0010393642D4B1A6822F001021A6028
:101A08001A6822F480421A601A6822F440521A6056
:101A18001A6842F400521A601A6822F440721A6076
:101A28001A6842F480721A601A6822F440621A60D6
:101A38001A6842F480621A601A6822F040021A603A
:101A48001A6822F080021A601A6842F080021A604E
:101A58001A6842F020021A601A6822F010021A600E
:101A68005860134A9A60134A1268DA601A6842F09A
:101A780002021A601A6822F004021A601A6842F018
:101A880004021A600C4A102182F80B134FF400610B
:101A980011600A490A6822F00F020A601A6842F0C7
:101AA80001021A60704700BF00100240080002409F
:101AB800400004500400002000E100E0A8000240BB
:101AC800174B1B6813F0020F1ED0154A536843F0DA
:101AD80002035360134B1A68134B9A4206D1134AF8
:101AE800104B1A60104A124B1A6005E00E4A0D4B53
:101AF8001A600E4A0E4B1A600A4B1A680D4BDA60D0
:101B080001220D4B1A6005E0054B1B6813F0080F06
:101B180000D0FEE7024A536843F00503536070475C
:101B280000000240000000207C100020DC000020A3
:101B38000400002008000240CC000020054B1B6870
:101B480013F0040F04D0034A136843F0080313602A
:101B5800704700BF00000450FEE700BF00B5B9B0F1
:101B6800022327934FF480732A9310232B93002387
:101B7800319327A800F054FE18B11E48CF21FFF773
:101B8800EBFF0F2322930123239300212491259116
:101B9800269122A801F016F918B11648DD21FFF7A1
:101BA800DBFF0223009300230F93684601F04AFBF2
:101BB80018B11048E421FFF7CFFF4FF4007001F08F
:101BC80057FE18B10B48EB21FFF7C6FF01F0A6F945
:101BD800094BA3FB0030800901F0D6FE042001F078
:101BE800E9FE4FF0FF3000210A4601F09BFE39B0B4
:101BF8005DF804FBA85D0008D34D621030B5ADF662
:101C0800D47D524B0DF6A87493E8030084E80300D2
:101C18000023CDF8B03FCDF8B43FCDF8B83FCDF8AC
:101C2800BC3FCDF8C03FCDF8C43FCDF8C83FCDF894
:101C3800CC3F00F00DFDFFF791FF00F09DF800F09C
:101C4800E7F8434D284621460F2240F6FF7300F07F
:101C580015FCFFF7F3FA3F4A234607CA03C31A7075
:101C6800284621460F2240F6FF7300F007FC3A4A47
:101C7800234607CA03C31A70FFF7FEFA284621460F
:101C88000F2240F6FF7300F0F9FB344A234607CAD7
:101C980003C31A70FFF726FB284621460F2240F699
:101CA800FF7300F0EBFB2E4A234607CA03C31A70E2
:101CB800FFF744FA0120FFF799FE284621460F2234
:101CC80040F6FF7300F0DAFB264A234607CA03C32F
:101CD8001A70284621460F2240F6FF7300F0CEFB0B
:101CE800002217E0204B1B68002BFBD01F4B1B6802
:101CF800D3ED007AF8EE677A1D4B93ED007A67EE24
:101D0800877A02AB03EB8203C3ED007A0021164BFE
:101D180019600132B2F57A7FE4DB02A84FF47A71D8
:101D280001AAFFF7BDFD0198FEF7BCFB02460B4672
:101D38000DF6A8700F4902F061FB05480DF6A87171
:101D4800282240F6FF7300F099FBC9E7805D000880
:101D58001C200020B45D0008C05D0008CC5D0008B0
:101D6800D85D0008E45D0008CC00002004000020D5
:101D780008000020F05D000810B58AB0214BDA6C2D
:101D880042F00402DA64DA6C02F004020192019A69
:101D9800DA6C42F08002DA64DA6C02F080020292B5
:101DA800029ADA6C42F00102DA64DA6C02F001029B
:101DB8000392039ADA6C42F00202DA64DB6C03F0F5
:101DC80002030493049B4FF090402021002201F06D
:101DD80041FD4FF4005305930B4B069300240794E1
:101DE8000A4805A901F04AFC20230593012306931C
:101DF800079408944FF0904005A901F03FFC0AB001
:101E080010BD00BF0010024000002110000800486B
:101E180008B50C480C4B03604FF4E13343600023D2
:101E28008360C36003610C2242618361C361036202
:101E3800436200F0C1FB18B104484421FFF78CFE4F
:101E480008BD00BF1C20002000440040045E0008BC
:101E58000268114B9A421ED100B587B003F5E633EC
:101E68009A6D42F400329A659B6D03F40033009337
:101E7800009B0C2301930223029300230393032363
:101E88000493072305934FF0904001A901F0F6FB56
:101E980007B05DF804FB70470044004008B500F047
:101EA800E9FB01F099FD08BD00B583B0214B1A6E1E
:101EB80042F001021A661A6E02F001020092009ABC
:101EC8009A6D42F080529A659B6D03F0805301939E
:101ED800019B032001F014FD6FF00B0000210A465E
:101EE80001F020FD6FF00A0000210A4601F01AFDFA
:101EF8006FF0090000210A4601F014FD6FF004009C
:101F080000210A4601F00EFD6FF0030000210A4689
:101F180001F008FD6FF0010000210A4601F002FD02
:101F28004FF0FF3000210A4601F0FCFC03B05DF8D9
:101F380004FB00BF001002402DE9704F0446826880
:101F480003691A4343691A43C3691343016808685C
:101F5800A04A024013430B6021684B6823F44052A7
:101F6800E36813434B60A36922689B498A4201D006
:101F7800216A0B43916821F430610B439360236815
:101F8800964A934213D102F55842D2F8882002F0BB
:101F98000302032A09D8DFE802F0020498060125A3
:101FA800A0E004259EE008259CE010259AE08C4AD4
:101FB800934218D102F5E632D2F8882002F00C02DA
:101FC8000C2A0ED8DFE802F0070D0D0D090D0D0DD6
:101FD800830D0D0D0B00002584E0042582E0082503
:101FE80080E010257EE07F4A934217D102F5E43263
:101FF800D2F8882002F03002102A09D001D82AB17C
:102008000AE0202A65D0302A04D005E0002569E0DE
:10201800042567E0082565E0102563E0724A9342CD
:1020280017D102F5E232D2F8882002F0C002402A25
:1020380009D001D82AB10AE0802A4CD0C02A04D09D
:1020480005E000254EE004254CE008254AE010256F
:1020580048E0664A93421AD102F5E032D2F8882065
:1020680002F44072B2F5807F0BD001D83AB10CE08F
:10207800B2F5007F31D0B2F5407F04D005E00025ED
:1020880030E004252EE008252CE010252AE0524AED
:10209800934224D102F5C832D2F8882002F4406273
:1020A800B2F5806F0BD001D83AB10CE0B2F5006FF1
:1020B80017D0B2F5406F04D005E0002512E00425E2
:1020C80010E008250EE010250CE002250AE00225A4
:1020D80008E0022506E0022504E0022502E01025BA
:1020E80000E002253C4A934240F08880082D11D830
:1020F800DFE805F0081005100C10101013003C481C
:1021080000260DE000F010FF002609E000F008FBB3
:10211800002605E00020012602E04FF400400026DA
:10212800002800F00C81626802EB4203834200F24F
:10213800FD80B0EB023F00F2FB80082D3ED8DFE8BF
:1021480005F0053D173D213D3D3D330000F0ECFE17
:1021580000234FEA10694FEA00286268500818EB1C
:10216800000A49F1000B50465946FEF701FD27E0E9
:10217800530820480021C01841F100010023FEF750
:10218800F7FC1DE000F0CCFA00234FEA10694FEA93
:1021980000286268500818EB000A49F1000B504605
:1021A8005946FEF7E5FC0BE05008002110F5000049
:1021B80041F100010023FEF7DBFC01E001260020CD
:1021C800A0F540720C4B9A4200F2B4802368D860A4
:1021D800B5E000BFF369FFEF008000400038014020
:1021E8000044004000480040004C004000500040BF
:1021F8000024F400000024F4FFFC0F00E369B3F5A9
:10220800004F4DD1082D3BD8DFE805F005101B3AEB
:10221800263A3A3A310000F087FE63685A0802EB22
:102228004000B0FBF3F39BB200262BE000F08CFEDD
:1022380063685A0802EB4000B0FBF3F39BB2002638
:1022480020E061684A0802F1F47303F59043B3FB98
:10225800F1F39BB2002615E000F062FA63685A08B1
:1022680002EB4000B0FBF3F39BB200260AE0626881
:10227800530803F58033B3FBF2F39BB2002601E069
:1022880001260023A3F110014FF6EF72914253D8B3
:1022980023F00F02C3F3420313432268D3604EE0D6
:1022A800082D38D8DFE805F0050F193724373737F8
:1022B8002E0000F039FE636800EB5300B0FBF3F02A
:1022C80080B2002629E000F03FFE636800EB53006F
:1022D800B0FBF3F080B200261FE06068420802F508
:1022E800740303F51053B3FBF0F080B2002614E03A
:1022F80000F016FA636800EB5300B0FBF3F080B20D
:1023080000260AE06068430803F50043B3FBF0F0D9
:1023180080B2002601E001260020A0F110024FF64D
:10232800EF739A420AD82368D86008E0012606E0CD
:10233800012604E0012602E0012600E00126002330
:10234800236663663046BDE8708F00BF436A13F0AA
:10235800010F06D001684B6823F40032836A1343E7
:102368004B60436A13F0020F06D001684B6823F4F0
:102378008032C36A13434B60436A13F0040F06D0DC
:1023880001684B6823F48022036B13434B60436A54
:1023980013F0080F06D001684B6823F40042436B22
:1023A80013434B60436A13F0100F06D001688B6823
:1023B80023F48052836B13438B60436A13F0200F1E
:1023C80006D001688B6823F40052C36B13438B60FB
:1023D800436A13F0400F11D001684B6823F4801250
:1023E800036C13434B60036CB3F5801F06D101687F
:1023F8004B6823F4C002436C13434B60436A13F0E9
:10240800800F06D001684B6823F40022836C1343C5
:102418004B6070472DE9F04106460C461746984632
:10242800069D1EE0B5F1FF3F1BD02DB100F02AF943
:10243800C8EB0000A84214D93268136823F4D0739B
:1024480013603268936823F001039360202386F8B1
:10245800713086F87230002386F870300320BDE8AA
:10246800F0813368DB692340A34214BF00230123B2
:10247800BB42D7D00020BDE8F08100BF2DE9F04174
:1024880082B004461E4690F87130DBB2202B4DD145
:102498000D46904600294BD0002A4BD090F870305A
:1024A800012B49D0012380F8703000234367212392
:1024B80080F8713000F0E6F80746A4F85080A4F8D8
:1024C80052801EE000962046802100223B46FFF7FE
:1024D800A1FF98BBA368B3F5805F08D1236933B91E
:1024E800226835F8023BC3F30803138503E0236829
:1024F8002A781A850135B4F85230013B9BB2A4F80A
:102508005230B4F852309BB2002BDBD100962046F3
:10251800402100223B46FFF77DFF034680B9202279
:1025280084F87120002284F870200AE0022308E071
:10253800012306E0012304E0022302E0032300E074
:102548000323184602B0BDE8F08100BF30B583B060
:1025580004460023436700F095F8054623681B6886
:1025680013F0080F0AD06FF07E43009320464FF413
:10257800001100222B46FFF74DFFC0B923681B68E6
:1025880013F0040F0AD06FF07E43009320464FF4F7
:10259800800100222B46FFF73DFF50B9202384F825
:1025A800713084F87230002084F8700002E0032053
:1025B80000E0032003B030BD80B310B5044690F8A6
:1025C800713013F0FF0F04D1002380F87030FFF74B
:1025D8003FFC242384F871302268136823F0010338
:1025E80013602046FFF7A8FC012819D0636A13B1CD
:1025F8002046FFF7ABFE2268536823F490435360EC
:102608002268936823F02A0393602268136843F0D2
:10261800010313602046FFF799FF10BD01207047A2
:1026280010BD00BF10B50446074B1B680748A0FB48
:102638000330800901F0A8F94FF0FF30214600224D
:1026480001F070F9002010BD0C000020D34D62107D
:1026580008B5074A136843F480731360032001F038
:102668004FF90020FFF7DEFFFFF71EFC002008BD32
:1026780000200240024A136801331360704700BF0C
:1026880094200020014B1868704700BF9420002058
:1026980030B583B00546204B9B6D13F0805F02D0A8
:1026A80001F0DEF80FE01C4CA36D43F08053A365E6
:1026B800A36D03F080530193019B01F0D1F8A36D42
:1026C80023F08053A365B0F5007F05D1802D0AD98A
:1026D800A02D0AD902210FE0802D08D809D0702D2D
:1026E80009D0002108E0002106E0012104E00321CF
:1026F80002E0022100E00121084A136823F00703E1
:102708000B431360136803F007038B4201D00120C9
:1027180000E0002003B030BD00100240002002405D
:102728003B4B9B6813F00C0F0BD0394B9B6803F0A5
:102738000C030C2B1ED1364BDB6803F00303012B73
:1027480018D1334B1B6813F0080F05D1304BD3F861
:102758009430C3F3032303E02D4B1B68C3F3031327
:102768002C4A52F823102A4B9B6813F00C0F10D0F8
:10277800002015E0264B9B6803F00C03042B0AD0BD
:10278800234B9B6803F00C03082B07D0002001465D
:1027980006E0084604E02048002101E01F48002127
:1027A8001B4A926802F00C020C2A30D1184BDA68E6
:1027B80002F00302DB68C3F302130133022A02D0DA
:1027C800032A0AD013E01448B0FBF3F0104BDB687F
:1027D800C3F3062303FB00F311E01048B0FBF3F347
:1027E8000B4AD268C2F3062202FB03F307E0B1FBEF
:1027F800F3F3074AD268C2F3062202FB03F3044A42
:10280800D068C0F3416001304000B3FBF0F070477E
:1028180000100240285E00080024F40000127A002C
:10282800002800F09E8270B582B00446036813F059
:10283800100F00F09D80A84B9B6813F00C0F5AD125
:10284800A54B1B6813F0020F03D08369002B00F01F
:102858008A82206AA04B1B6813F0080F04D09E4B95
:102868001B6803F0F00305E09B4BD3F8943003F4A6
:1028780070631B09984217D9FFF70AFF002840F038
:102888007482954B1A6842F008021A601A6822F09E
:10289800F001226A0A431A605A6822F47F42E16909
:1028A80042EA01225A6017E08B4B1A6842F008028C
:1028B8001A601A6822F0F001226A0A431A605A68FC
:1028C80022F47F42E16942EA01225A60206AFFF756
:1028D800DFFE002840F04B82FFF722FF7E4B9B680B
:1028E800C3F303137D4AD35CD8407D4B18600020A6
:1028F800FFF798FE3CE0836933B3774A136843F0E7
:1029080001031360FFF7BEFE054605E0FFF7BAFEB8
:10291800401B022800F22D826F4B1B6813F0020F38
:10292800F4D06D4B1A6842F008021A601A6822F057
:10293800F001226A0A431A605A6822F47F42E16968
:1029480042EA01225A6013E0634A136823F0010344
:102958001360FFF797FE054605E0FFF793FE401B5F
:10296800022800F208825C4B1B6813F0020FF4D1B6
:10297800236813F0010F5ED0574B9B6803F00C03DC
:10298800082B0BD0544B9B6803F00C030C2B0ED177
:10299800514BDB6803F00303032B08D14E4B1B6834
:1029A80013F4003F47D06368002B44D1E5E1636826
:1029B800B3F5803F05D1484A136843F48033136068
:1029C80018E0B3F5A02F0CD103F18043A3F53C33F5
:1029D8001A6842F480221A601A6842F480321A6037
:1029E80008E03D4B1A6822F480321A601A6822F413
:1029F80080221A6063687BB1FFF744FE054605E054
:102A0800FFF740FE401B642800F2B981324B1B6877
:102A180013F4003FF4D00EE0FFF734FE054605E05E
:102A2800FFF730FE401B642800F2AB812A4B1B687D
:102A380013F4003FF4D1236813F0020F5DD0264B46
:102A48009B6803F00C03042B0BD0234B9B6803F00B
:102A58000C030C2B17D1204BDB6803F00303022B6C
:102A680011D11D4B1B6813F4806F03D0E368002B52
:102A780000F08981184A536823F0F853216943EA22
:102A88000163536039E0E368E3B1134A136843F420
:102A980080731360FFF7F6FD054605E0FFF7F2FDCA
:102AA800401B022800F271810B4B1B6813F4806FE6
:102AB800F4D0094A536823F0F853216943EA0163C3
:102AC80053601AE0044A136823F480731360FFF715
:102AD800D9FD05460CE000BF00100240105E00085A
:102AE8000C000020FFF7CEFD401B022800F24F81AA
:102AF800B24B1B6813F4806FF4D1236813F0080FEE
:102B080030D06369BBB1AD4AD2F8943043F00103C9
:102B1800C2F89430FFF7B6FD054605E0FFF7B2FDB1
:102B2800401B022800F23581A44BD3F8943013F0EF
:102B3800020FF3D016E0A14AD2F8943023F0010333
:102B4800C2F89430FFF79EFD054605E0FFF79AFDB1
:102B5800401B022800F21F81984BD3F8943013F0E1
:102B6800020FF3D1236813F0040F7FD0934B9B6DB2
:102B780013F0805F0BD1914B9A6D42F080529A65A9
:102B88009B6D03F080530193019B012500E0002514
:102B98008B4B1B6813F4807F13D1894A136843F465
:102BA80080731360FFF76EFD064605E0FFF76AFDC8
:102BB800801B022800F2F180814B1B6813F4807F90
:102BC800F4D0A368012B07D17C4AD2F8903043F0A7
:102BD8000103C2F890301CE0052B0DD1774BD3F8D8
:102BE800902042F00402C3F89020D3F8902042F0DD
:102BF8000102C3F890200CE0704BD3F8902022F02B
:102C08000102C3F89020D3F8902022F00402C3F800
:102C18009020A36893B1FFF735FD064607E0FFF75C
:102C280031FD801B41F28833984200F2B880634B33
:102C3800D3F8903013F0020FF1D011E0FFF722FD26
:102C4800064607E0FFF71EFD801B41F288339842D5
:102C580000F2A780594BD3F8903013F0020FF1D14E
:102C680025B1564A936D23F080539365A36A002BD0
:102C780000F09980514A926802F00C020C2A00F088
:102C88009480022B43D14D4A136823F0807313605C
:102C9800FFF7F8FC054605E0FFF7F4FC401B0228A7
:102CA80000F28580454B1B6813F0007FF4D1236B3D
:102CB8005A1E636B1B0243EA0213A26B120943EA12
:102CC8004242E36A1343E26B5208013A43EA425331
:102CD800226C5208013A43EA4263384AD3601368C7
:102CE80043F080731360D36843F08073D360FFF7B9
:102CF800C9FC044604E0FFF7C5FC001B022858D8AD
:102D08002E4B1B6813F0007FF5D0002054E02B4BAE
:102D18001A6822F080721A601B6813F0006F09D1DC
:102D2800264B1B6813F0005F04D1244AD36823F0B4
:102D38000303D360214AD36823F0887323F48033D4
:102D4800D360FFF79FFC044604E0FFF79BFC001BE1
:102D5800022830D8194B1B6813F0007FF5D10020EA
:102D68002AE001207047012026E0012024E001200C
:102D780022E0032020E003201EE001201CE00320C5
:102D88001AE0032018E0012016E0032014E00320D5
:102D980012E0032010E003200EE003200CE00320E3
:102DA8000AE0032008E0002006E0012004E00320F8
:102DB80002E0032000E0032002B070BD00100240D2
:102DC80000700040002800F0918070B504464F4B19
:102DD8001B6803F007038B420AD24C4A136823F09E
:102DE80007030B431360136803F007038B427FD17B
:102DF8000D46236813F0010F35D06368032B05D106
:102E0800434A126812F0007F14D173E0022B05D1F7
:102E18003F4A126812F4003F0CD16DE02BB93C4ACE
:102E2800126812F0020F05D168E0394A126812F4EC
:102E3800806F65D036498A6822F0030213438B609D
:102E4800FFF720FC064606E0FFF71CFC801B41F25A
:102E58008833984256D82E4B9B6803F00C0362685F
:102E6800B3EB820FF0D1236813F0020F06D0284984
:102E78008B6823F0F002A36813438B60234B1B6815
:102E880003F00703AB420AD9204A136823F007036B
:102E98002B431360136803F00703AB4234D1236854
:102EA80013F0040F06D01A498B6823F4E062E36834
:102EB80013438B60236813F0080F07D0144A9368F4
:102EC80023F46053216943EAC1039360FFF728FCA8
:102ED8000F4B9B68C3F303130E4AD35CD8400E4BC9
:102EE80018600020FFF79EFB002070BD012070478E
:102EF800012070BD012070BD012070BD012070BD92
:102F0800012070BD032070BD012070BD002002406B
:102F180000100240105E00080C000020014B1868E9
:102F2800704700BF0C00002008B5FFF7F7FF044BFF
:102F38009B68C3F30223034AD35CD84008BD00BF93
:102F480000100240205E000808B5FFF7E7FF044BB9
:102F58009B68C3F3C223034AD35CD84008BD00BFB3
:102F680000100240205E0008F8B55E4BDB6813F0E5
:102F7800030F12D05B4BDB6803F003030268934234
:102F880041D1002A41D0574BDB68C3F30213013308
:102F9800426893423BD100243AE00368022B0AD0EE
:102FA800032B0FD0012B19D14E4A126812F0020FD1
:102FB80016D000241BE04B4A126812F4806F11D01F
:102FC800002414E0474A126812F4003F0CD1454A25
:102FD800126812F4802F09D0002408E0012406E0CA
:102FE800012404E0012402E0002400E001247CB96B
:102FF8003C4EF26822F073024568013D43EA05132E
:103008001343F36004E0012402E0012400E00124FA
:10301800002C64D10F460546324A136823F08063BA
:103028001360FFF72FFB064604E0FFF72BFB801B1E
:10303800022805D82B4B1B6813F0006FF5D100E070
:103048000324002C4BD177B92648036923F41F3198
:1030580021F44071AE68EB681A09520442EA06236B
:103068000B43036120E0012F0FD11E4E336923F477
:10307800C00121F4FE41A8682B695A08013A52059B
:1030880042EA00230B4333610EE0164E336923F006
:10309800C06121F4FE41A8686B695A08013A5206DA
:1030A80042EA00230B4333610E4A136843F08063FE
:1030B8001360FFF7E7FA064604E0FFF7E3FA801B20
:1030C800022805D8074B1B6813F0006FF5D000E005
:1030D800032424B9034A1169AB690B4313612046E1
:1030E800F8BD00BF00100240F8B5554BDB6813F07F
:1030F800030F12D0524BDB6803F0030302689342BC
:1031080041D1002A41D04E4BDB68C3F3021301338F
:10311800426893423BD100243AE00368022B0AD06C
:10312800032B0FD0012B19D1454A126812F0020F58
:1031380016D000241BE0424A126812F4806F11D0A6
:10314800002414E03E4A126812F4003F0CD13C4AB5
:10315800126812F4802F09D0002408E0012406E048
:10316800012404E0012402E0002400E001247CB9E9
:10317800334EF26822F073024568013D43EA0513B5
:103188001343F36004E0012402E0012400E0012479
:10319800002C52D10F460546294A136823F0805364
:1031A8001360FFF76FFA064604E0FFF76BFA801B1F
:1031B800022805D8224B1B6813F0005FF5D100E008
:1031C8000324002C39D177B91D48436923F41F31F2
:1031D80021F44071AE68EB681A09520442EA0623EA
:1031E8000B4343610EE0164E736923F0C06121F46E
:1031F800FE41A8682B695A08013A520642EA0023A0
:103208000B4373610E4A136843F080531360FFF752
:1032180039FA064604E0FFF735FA801B022805D87C
:10322800074B1B6813F0005FF5D000E0032424B9B6
:10323800034A51696B690B4353612046F8BD00BFCF
:10324800001002402DE9F04182B00446036813F4EF
:10325800006F2ED0436EB3F5800F17D001D87BB125
:103268001AE0B3F5000F04D0B3F5400F14D10026CF
:1032780013E0BA4AD36843F48033D36000260CE0E5
:1032880004300021FFF770FE064606E020300021DA
:10329800FFF72AFF064600E001266EB9AF49D1F8CC
:1032A800883023F44002636E1343C1F888303746F0
:1032B80003E000273E4600E03746236813F4805FAA
:1032C8002DD0A36EB3F1807F15D001D86BB119E072
:1032D800B3F1007F03D0B3F1407F14D012E09F4ACE
:1032E800D36843F48033D3600DE0201D0021FFF73D
:1032F8003BFE064607E004F120000021FFF7F4FE3C
:10330800064600E001264EB99449D1F8883023F0EA
:103318004072A36E1343C1F8883000E03746236833
:1033280013F4003F74D08D4B9B6D13F0805F0CD16C
:103338008A4B9A6D42F080529A659B6D03F08053D8
:103348000193019B4FF0010801E04FF00008844A07
:10335800136843F480731360FFF794F9054604E09B
:10336800FFF790F9401B022805D87D4B1B6813F422
:10337800807FF5D000E00326002E3ED1774BD3F8AE
:10338800903013F4407316D0D4F884209A4212D0A7
:10339800724AD2F8903023F44073D2F8901041F476
:1033A8008031C2F89010D2F8901021F48031C2F820
:1033B8009010C2F8903013F0010F12D0FFF762F9A5
:1033C800054606E0FFF75EF9401B41F28833984254
:1033D80006D8624BD3F8903013F0020FF2D000E019
:1033E800032666B95D49D1F8903023F44072D4F8C9
:1033F80084301343C1F8903002E0374600E0374686
:10340800B8F1000F04D0554A936D23F080539365AB
:10341800236813F0010F08D05049D1F8883023F001
:103428000302A36B1343C1F88830236813F0020F1B
:1034380008D04A49D1F8883023F00C02E36B1343D3
:10344800C1F88830236813F0040F08D04349D1F835
:10345800883023F03002236C1343C1F88830236886
:1034680013F0080F08D03D49D1F8883023F0C00286
:10347800636C1343C1F88830236813F0100F08D029
:103488003649D1F8883023F44072A36C1343C1F84D
:103498008830236813F0200F08D03049D1F88830DD
:1034A80023F44062E36C1343C1F88830236813F4B3
:1034B800007F08D02949D1F8883023F44022E36DF1
:1034C8001343C1F88830236813F4806F08D0234968
:1034D800D1F8883023F44012236E1343C1F88830A2
:1034E800236813F0400F08D01C49D1F8883023F422
:1034F8004052236D1343C1F88830236813F0800FBE
:1035080008D01649D1F8883023F44042636D13433C
:10351800C1F88830236813F4807F08D00F49D1F8A8
:10352800883023F44032A36D1343C1F888302368F0
:1035380013F4005F1FD00949D1F8883023F04062A6
:10354800E36E1343C1F88830E36EB3F1006F09D11D
:10355800CB6843F48013CB600DE000BF001002403D
:1035680000700040B3F1806F05D1201D0121FFF7E5
:10357800FBFC00B10746236813F4002F1AD03E491C
:10358800D1F8883023F04062236F1343C1F88830A4
:10359800236FB3F1006F04D1CB6843F48013CB6081
:1035A80008E0B3F1806F05D1201D0121FFF7DCFC95
:1035B80000B10746236813F4802F1AD02E49D1F89A
:1035C800883023F04062636F1343C1F88830636F1B
:1035D800B3F1006F04D1CB6843F48013CB6008E0EB
:1035E800B3F1806F05D1201D0121FFF7BDFC00B1AB
:1035F8000746236813F4804F1FD01F49D1F888303D
:1036080023F04052A36F1343C1F88830A36FB3F17E
:10361800805F05D1201D0221FFF7A6FC50B90CE000
:10362800B3F1005F09D104F120000221FFF75CFD2E
:1036380010B902E0074600E00746236813F4004F7C
:1036480008D00D49D1F8883023F08042E36F134346
:10365800C1F88830236813F4803F09D00649D1F8AF
:10366800883023F00042D4F880301343C1F8883002
:10367800384602B0BDE8F081001002402DE9F04163
:1036880082B00023D4E001249C40224000F0CF8087
:103698004D68022D01D0122D14D14FEAD30808F13C
:1036A800080850F8287003F0070E4FEA8E0E0F2511
:1036B80005FA0EF527EA05060D6905FA0EF53543F4
:1036C80040F8285006684FEA430E032505FA0EF520
:1036D800ED4305EA06074E6806F0030606FA0EF6FD
:1036E8003E4306604E68771E012F03D9112E01D084
:1036F800122E11D1866805EA0607CE6806FA0EF67C
:103708003E438660466826EA04074E68C6F30016FC
:1037180006FA0CF63E4346604E6806F00307032F90
:1037280008D1C76A27EA0404C6F3C00606FA0CF6ED
:103738002643C662C4682C408D6805FA0EF52543F9
:10374800C5604C6814F0805F71D03E4C256E45F022
:1037580001052566246E04F001040194019C9C086F
:10376800A61C394D55F8266003F00307BF000F2546
:10377800BD4026EA0506B0F1904F24D0334DA8424B
:103788001FD005F58065A84219D005F58065A842C7
:1037980013D005F58065A8420DD005F58065A842CF
:1037A80007D005F58065A84201D106250CE007255C
:1037B8000AE0052508E0042506E0032504E00225C3
:1037C80002E0012500E00025BD40354302341E4ECD
:1037D80046F824501E4C2568D44304EA05064F6871
:1037E80017F4803F01D042EA0506194D2E606D6836
:1037F80004EA05064F6817F4003F01D042EA0506BF
:10380800134D6E60AD6804EA05064F6817F4801F13
:1038180001D042EA05060E4DAE60ED682C404E68B8
:1038280016F4001F01D042EA0504094AD4600133A6
:103838000A689C4632FA03F47FF425AF02B0BDE86B
:10384800F08100BF00100240000001400004004861
:10385800000401400AB1816170478162704700BF6E
:10386800024B186800F4C060704700BF0070004049
:10387800B0F5007F2AD1204B1B6803F4C063B3F571
:10388800007F33D01C4A136823F4C06343F40073E9
:1038980013601A4B1B6802F1467202F55B3202F2A2
:1038A8008322A2FB03239A0C322303FB02F300E0DA
:1038B800013B23B1104A526912F4806FF8D10E4BC4
:1038C8005B6913F4806F13D0032070470A4B1B68A1
:1038D80003F4C063B3F5806F0CD0074A136823F470
:1038E800C06343F480631360002070470020704772
:1038F8000020704700207047007000400C00002036
:1039080000F00700064AD36823F4E0631B041B0C8D
:1039180043EA002040F0BF6040F40030D0607047B8
:1039280000ED00E030B4164BDC68C4F30224C4F1A7
:103938000705042D28BF0425231D062B01D9033CA8
:1039480000E00024012303FA05F5013D2940A140C8
:10395800A340013B1A400A43002806DA00F00F0092
:103968001201D2B2074B1A5407E01201D2B200F189
:10397800604000F5614080F8002330BC704700BF0C
:1039880000ED00E014ED00E00138B0F1807F0AD2CC
:10399800064B5860F021064A82F8231000209860F0
:1039A80007221A6070470120704700BF10E000E04E
:1039B80000ED00E0042805D1054A136843F004032C
:1039C80013607047024A136823F0040313607047BA
:1039D80010E000E0704700BF08B5FFF7FBFF08BD27
:1039E8000F49D1F8883043F47003C1F888300D4B83
:1039F8001A6842F001021A60002098601A6822F0E2
:103A0800A85222F410221A604FF48052DA601A6821
:103A180022F480221A6098614FF000638B6070472F
:103A280000ED00E000100240DFF834D0002103E090
:103A38000C4B5B58435004310B480C4B42189A42CC
:103A4800F6D30B4A02E0002342F8043B094B9A42A2
:103A5800F9D3FFF7C5FF00F011F8FEF7CFF8FEE73E
:103A680000800120D85F000800000020B00000207E
:103A7800B00000209C200020FEE7000070B50E4B2F
:103A88000E4CE41AA41000251E46A54204D056F890
:103A9800253098470135F8E702F060F9084C094BE2
:103AA800E41AA41000251E46A54204D056F8253075
:103AB80098470135F8E770BDC85F0008C85F00087F
:103AC800CC5F0008C85F000802440346934202D056
:103AD80003F8011BFAE770472DE9FF4755EC104B37
:103AE8000D9FDDF830A0002D0E4691461946B8BF4F
:103AF80022462B4627F02007BBBF05F100431D4691
:103B080000232D23B8BF1446462F0B7003D0452F32
:103B180003D1013601E0032100E0022102AB00934A
:103B280003AB019345EC104B3246534600F020FDA1
:103B3800472F804602D119F0010F26D0462F08EBF7
:103B4800060911D198F80030302B0AD120462946B1
:103B580000220023FCF762FF18B9C6F10106CAF873
:103B68000060DAF8003099442046294600220023F4
:103B7800FCF754FF08B1CDF80C90039B4B4504D2D9
:103B88005A1C039230221A70F7E7039B0E9AC8EB6F
:103B980003034046136004B0BDE8F08773B50346DD
:103BA8000029B8BF494203F8022BB4BF2D222B22AB
:103BB8000929427019DD0DF1070426460A2291FBF6
:103BC800F2F502FB15113031092D04F8011D2946C3
:103BD800F4DC3031651E04F8011CB5421A460AD2DD
:103BE80015F8012B03F8012BF7E730241A46214476
:103BF80002F8024B5970101A02B070BD2DE9F04F4F
:103C08008BB08B4615461E46149F044601F070FA89
:103C1800D0F800A0504600F015FC002308933B683C
:103C28000590073323F0070303F108029BF8188077
:103C38003A60D3E90023CBE912239BED120B00F085
:103C4800B1FB01281BD1DBE9120100220023FCF79C
:103C5800EFFE10B12D238BF84330B54BB54FB8F1BB
:103C6800470F88BF1F460323CBF81030DBF800301E
:103C780023F00403CBF800304FF000099FE09BEDE0
:103C8800120B00F08FFBDBF8002068B9AA4BAB4F92
:103C980022F00402B8F1470F88BF1F460323CBF870
:103CA8001030CBF80020E7E7DBF804104F1C9BED41
:103CB800120B01D1062309E0B8F1670F02D0B8F161
:103CC800470F05D1002940F0C1810123CBF804300A
:103CD80007AB8DE8080108AB42F480620293002329
:103CE8000393CBF800200DF11B032046DBF80410EA
:103CF800FFF7F2FE08F0DF03472B07460AD1079BC0
:103D0800D81C03DBDBF80420934237DDA8F1020856
:103D18005FFA88F8B8F1650F079915D80139424656
:103D28000BF150000791FFF739FF089A8318012A11
:103D38008146CBF8103003DCDBF80020D10738D5FA
:103D48000133CBF8103034E0B8F1660F18D10029F0
:103D5800DBF8043009DDCBF810101BB9DBF80020C4
:103D6800D20721D501330B441CE01BB9DBF8002036
:103D7800D00701D5023315E0012313E04FF067089F
:103D8800079B089A934207DBDBF80020CBF810303A
:103D9800D10709D5013305E0002BD4BFC3F10203D5
:103DA80001231344CBF81030079BCBF858304FF061
:103DB80000099DF81B3013B12D238BF84330009672
:103DC8002046594609AA2B4600F056F9013002D17F
:103DD8004FF0FF304CE1DBF800305A0505D420469F
:103DE80029463A46DBF8103008E1B8F1650F40F291
:103DF800D080DBE9120100220023FCF70FFE50B34C
:103E0800204629464E4A0123B0470130E0D0089B9E
:103E1800079A9A4209DBDBF80030D80705D4DBF8AB
:103E280000309F0700F1108107E1204629465246DD
:103E3800059BB0470130CBD00027089B013B9F4230
:103E4800EDDA204629460BF11A020123B04701306A
:103E5800BED00137F1E7079B002B29DC2046294615
:103E6800374A0123B0470130B2D0079B2BB9089BD2
:103E78001BB9DBF80030D907D1D520462946524670
:103E8800059BB0470130A3D04FF00008079B5B4269
:103E980098452046294608DA0BF11A020123B04753
:103EA800013095D008F10108F0E73A46089BA5E0F3
:103EB800DBF85820089B9A42A8BF1A46002A914668
:103EC80002DC4FF0000812E0204629463A464B46ED
:103ED800B0470130F5D17BE7204629460BF11A029D
:103EE8000123B04701303FF473AF08F10108DBF854
:103EF8005830B9F1000FACBFC9EB03021A46904520
:103F0800EADB07EB0308079A089B9A421ADBDBF8FF
:103F18000030DA0716D4089A1744C8EB0703079F3E
:103F2800D21B9342A8BF1346002B1F4612DC18E091
:103F38005E5E00085A5E0008665E0008625E000861
:103F48006A5E0008204629465246059BB047013064
:103F5800E1D13DE7204629464246B04701303FF4CB
:103F680037AF4FF000080AE0204629460BF11A0245
:103F78000123B04701303FF42BAF08F10108079A3D
:103F8800089B002FA3EB0203A8BFDB1B9845EBDBC4
:103F980045E7089A012A01DCDB0736D52046294681
:103FA8003A460123B04701303FF412AF2046294674
:103FB8005246059BB04701303FF40AAFDBE91201D6
:103FC80000220023FCF72AFDE8B9089B2046294671
:103FD8007A1C013B1DE0204629460BF11A020123F9
:103FE800B04701303FF4F4AE0137089B013B9F42D4
:103FF800F1DB204629460BF150024B46B047013011
:104008007FF40DAFE4E60027EFE7204629463A465D
:104018000123B0470130ECD1DAE6204629460BF1FE
:1040280019020123B04701303FF4D2AE0137DBF863
:104038000C30099A9B1A9F42EFDBDBF80C00099BB6
:104048009842B8BF184613E00027F0E707AB8DE8A1
:10405800080108AB42F48062029300230393CBF873
:10406800002020460DF11B03FFF736FD074646E604
:104078000BB0BDE8F08F00BF2DE9F84391461F460D
:104088008A680B69DDF820809342B8BF1346C9F8E7
:10409800003091F8432006460C4612B10133C9F8A6
:1040A80000302368990642BFD9F800300233C9F8B6
:1040B8000030256815F006051CD094F843302268B6
:1040C800003318BF012392061FD5E1185A1C30206F
:1040D80081F84300224494F8451082F843100233D3
:1040E80013E03046394604F119020123C047013074
:1040F80007D00135E368D9F800209B1A9D42F0DB10
:10410800DBE74FF0FF30BDE8F8833046394604F16D
:104118004302C0470130F4D02268D9F80050E36860
:1041280002F00602042A08BF5D1B2269A3680CBFBF
:1041380025EAE57500259342C4BF9B1AED184FF098
:104148000009A9450ADA3046394604F11A02012362
:10415800C0470130D5D009F10109F2E70020BDE8D8
:10416800F88300002DE9FF410C461746227E6E2A8F
:10417800984606460A9B01F1430100F0AF8012D829
:10418800632A23D00AD8002A00F0BC80582A40F0BD
:10419800CB8084F84520DFF804E257E0642A1ED07B
:1041A800692A1CD0C0E0732A00F0B08009D86F2AB1
:1041B8002ED0702A40F0B880226842F02002226097
:1041C8003FE0752A24D0782A3BD0ADE01A68111D4B
:1041D8001960136884F8423004F14205A8E02068A9
:1041E8001A6810F0800F02D0101D186008E010F057
:1041F800400F02F10400186002D0B2F9003000E06C
:104208001368002B3EDA2D225B4284F8432039E004
:1042180020681A6810F0800F02D0101D186007E09F
:1042280010F0400F02F10400186001D0138800E07C
:104238001368227EDFF864E16F2A0CBF08220A2285
:104248001CE07822DFF858E184F8452022681868D5
:1042580012F0800F00F104051D6003D1550601D549
:10426800038800E00368D00744BF42F020022260C0
:104278001BB9226822F0200222601022002084F854
:10428800430002E0DFF814E10A226568A560002D0A
:10429800A2BF206820F00400206003B965B10D4674
:1042A800B3FBF2F002FB10331EF8033005F8013DB2
:1042B80003460028F4D100E00D46082A0BD12368F4
:1042C800DA0708D5236962689A42DEBF302305F809
:1042D800013C05F1FF35491B21612EE025681A686C
:1042E800606915F0800F03D0151D1D60136808E084
:1042F80015F0400F02F104051D60136801D0188005
:1043080000E01860002323610D4616E01A68111DAD
:104318001960156862682846002100F0F5FE08B1AA
:10432800401B6060636804E004F1420584F84220A1
:1043380001232361002384F84330CDF80080304600
:10434800214603AA3B46FFF797FE013002D14FF002
:10435800FF301FE0304639462A462369C0470130FE
:10436800F5D023689B0705D4E068039B9842B8BF43
:1043780018460FE00025E368039A9B1A9D42F3DA7A
:104388003046394604F119020123C0470130DED016
:104398000135F0E704B0BDE8F08100BF6C5E0008AD
:1043A8007D5E000853EC102B33F0004210B510EE80
:1043B800100A1BD00F49A3F580148C4210D903F1C1
:1043C800FF430C4903F5E0038B4209D9B2F5801F7E
:1043D80008D3094B9A4207D1B0FA80F0400910BDC2
:1043E800042010BD032010BD002010BD0028E6D118
:1043F800022010BDFFFFDF7F0000F07F0EB400B584
:104408009CB04FF40271ADF814106FF000410491A4
:1044180007914FF6FF711DABADF81610084953F818
:10442800042B029006900868019302A901F068FA2B
:10443800029B00221A701CB05DF804EB03B07047B1
:1044480070000020034613F8012B002AFBD1181A2C
:10445800013870472DE9F74F03690C69A34280467C
:10446800C0F28180013C01F114074FEA840E00F18B
:10447800140657F8245006EB0E030193013556F83D
:104488002430B3FBF5F507EB0E09C5B34FF0000A6E
:104498003846B446D34650F8043B9AB21B0C02FB8C
:1044A80005A26B4303EB124392B2C2EB0B02BCF8BA
:1044B80000B04FEA134A12FA8BF21FFA83FBDCF8BA
:1044C8000030CBEB134303EB224392B242EA0342A0
:1044D80048454FEA234B4CF8042BDCD956F80E30EC
:1044E8006BB9019B043BB3421A4602D8C8F8104086
:1044F80005E01268043B002AF8D1013CF3E7404686
:1045080001F02FF800282CDB013530464FF0000E63
:1045180057F8041BD0F800C08AB2C2EB0E03090C8E
:1045280013FA8CF3C1EB1C4202EB23429BB243EA21
:1045380002434F454FEA224E40F8043BE8D956F86B
:10454800242006EB840362B9043BB3421A4602D81E
:10455800C8F8104005E01268043B002AF8D1013C75
:10456800F3E7284600E0002003B0BDE8F08F000024
:104578002DE9F04F456A97B0824608910B92129345
:10458800209C8DED000B45B9102000F0B5FDCAF850
:104598002400456085600560C560DAF82430196834
:1045A80059B15A684A60012393408B60504600F025
:1045B800FAFDDAF8243000221A60019B9E4A002B8B
:1045C800BFBF01232360019B23F00043B2BF0193C7
:1045D80000232360019C24F000431B0D1B0593421C
:1045E8001DD1129A42F20F731360009B43B9934A8C
:1045F800934BC4F31300002814BF1846104600E07C
:104608008F48219B002B00F06D85C37813B100F112
:10461800080300E0C31C219A136000F063BDDDE9C4
:1046280000890022404649460023FCF7F7F9054671
:1046380058B1129A01231360219B002B00F040858A
:1046480080481860013800F04DBD504649EC108B89
:1046580015A914AA01F000F8C4F30A56049056B13B
:10466800C9F3130343F07F51404641F44011A6F2C9
:10467800FF3613951DE0159B149E1E446FF482634C
:104688009E42ADBF009A704B009A06F21243A3BF38
:1046980022FA03F06D4B9B1B9B1BAABF9C4002FA9E
:1046A80003F02043FBF7DCFE0123A1F1F871013E82
:1046B80013930022664BFBF795FD59A3D3E900231A
:1046C800FBF744FF58A3D3E90023FBF78DFD04460D
:1046D80030460D46FBF7D4FE55A3D3E90023FBF77C
:1046E80035FF02460B4620462946FBF77DFD04466A
:1046F8000D46FCF7C5F929468346002220460023CB
:10470800FCF796F958B15846FBF7BAFE02460B4635
:1047180020462946FCF782F908B90BF1FF3BBBF1AB
:10472800160F0DD84B4B03EBCB03D3E90001DDE9A2
:104738000023FCF79BF930B10BF1FF3B002300E0AD
:1047480001230D9300E00D90149B9E1B731E07938D
:1047580045BF5B420693002300234CBF0793069393
:10476800BBF1000F07DB079BCDF830B05B44079324
:104778000023099308E0069BCBEB03030693CBF1D8
:104788000003099300230C93089B092B28D8052BB9
:10479800C4BF043B0893089BA3F10203CCBF0025C8
:1047A8000125032B21D8DFE803F0020E04100023B3
:1047B80000E001230A930B9B002B20DC01230393C9
:1047C80002931A4619E0002300E001230A930B9B89
:1047D8005B4403930133012B0293B8BF012311E01B
:1047E8000125002308930A9501E001230A934FF05D
:1047F800FF3303930293002212230B9202E00B9BD8
:1048080003930293DAF8244000226260042101F144
:1048180014029A4220D86268013262604900F6E7C1
:1048280061436F63A787D23FB3C8608B288AC63FAE
:10483800FB799F501344D33F0000F07F8E5E000841
:10484800975E00086B5E0008EEFBFFFF0EFCFFFFA3
:104858000000F83FA85E00085046616800F06EFC52
:10486800DAF8243020601B680593029B0E2B00F2B7
:104878004B81002D00F048819DED007BBBF1000FBE
:104888008DED107B31DDB34A0BF00F034FEA2B1788
:1048980002EBC303F806D3E900450CD5AE4B51EC47
:1048A800170BD3E90823FBF77BFF07F00F07CDE9C8
:1048B8000001032600E00226DFF89C8277B1F907A1
:1048C80008D520462946D8E90023FBF73FFE0136E4
:1048D80004460D467F1008F10808EFE7DDE90001FE
:1048E80022462B46FBF75CFF1BE0CBF10004DCB152
:1048F800984B994D04F00F0203EBC203DDE9100158
:10490800D3E90023FBF722FE241102264CB1E2076B
:1049180004D5D5E900230136FBF718FE64100835E5
:10492800F4E7CDE9000100E002260D9BDBB1DDE9EB
:104938000045002220462946884BFCF779F890B1BB
:10494800029B83B1039B002B40F3DA802946204663
:104958000022834BFBF7FAFD0BF1FF37CDE900018D
:104968000136039D01E0029D5F469DED007B3046C8
:104978008DED0E7BFBF784FDDDE90E23FBF7E6FDED
:104988000022784BFBF730FC8046A1F15079CDB975
:104998000022754BDDE90E01FBF724FC42464B462D
:1049A800CDE90001FCF762F8002840F04682424653
:1049B80009F10043DDE90001FCF73AF8002840F06E
:1049C80036829DE0634B0A996A1E03EBC2030029F5
:1049D80049D0D3E9002300206449FBF7E1FE4246B1
:1049E8004B46FBF7FFFBDDE90E89CDE90001059C8D
:1049F80049464046FCF744F80646FBF741FD0246A7
:104A08000B4640464946FBF7EDFB303604F8016B90
:104A1800DDE9002380468946FCF70AF8002840F0C3
:104A2800408342464B4600204C49FBF7DBFBDDE95F
:104A38000023FBF7FDFF002840F0D380059BE31A15
:104A4800AB425DDADDE900010022454BFBF77EFD54
:104A58000022CDE90001424B40464946FBF776FD6E
:104A680080468946C4E7D3E9000142464B46FBF736
:104A78006DFD059BCDE90001DDE90E895C191D4638
:104A880049464046FBF7FCFF0646FBF7F9FC303683
:104A980002460B4640464946FBF7A4FB05F8016B66
:104AA800A5428046894624D10022304BDDE9000129
:104AB800FBF79AFB02460B4640464946FBF7D6FFF2
:104AC800002840F08E80DDE9002300202749FBF70D
:104AD80089FB02460B4640464946FBF7A9FF78B1D9
:104AE80014F8013C302B04F1FF3240F0DA8214460E
:104AF800F6E700221A4BFBF729FD80468946BFE7F7
:104B0800DDE91023CDE90023159B002BC0F28B8033
:104B1800BBF10E0F00F387800E4B03EBCB03D3E9F9
:104B280000670B9B002B23DA029B002B20DC40F054
:104B38007D81304600220C4B3946FBF707FDDDE945
:104B48000023FBF789FF029D2E46002840F0708164
:104B580075E100BFA85E0008705F00080000F03F24
:104B68000000244000001C40000014400000E03F0A
:104B7800DDE90089059C32463B4640464946FBF73D
:104B88000FFEFBF77DFF0546FBF77AFC32463B46F6
:104B9800FBF7DCFC0B46024649464046FBF722FB86
:104BA80005F1300E059B04F801EBC3EB040E029BE4
:104BB8009E452BD102460B46FBF716FB32463B4679
:104BC80080468946FBF752FF70B94046494632464F
:104BD8003B46FBF723FF002800F06482EB0703D471
:104BE80060E2BB4600E01C4614F8012C392A04F1A7
:104BF800FF3307D1059A9342F5D1302313700BF197
:104C0800010B13461A7801321A704BE20022A44BAA
:104C1800FBF79CFC0022002380468946FBF7FEFE3A
:104C28000028A8D03EE20A9A002A32D0089A012A1F
:104C38000ADC139A12B103F2334302E0149BC3F166
:104C48003603099D069C18E0029B5D1E099BAB423A
:104C5800BFBF099B0995EA1A0C9BB6BF9B185D1B41
:104C68000C93029BB8BF0025002BB9BF069B029A84
:104C7800069C029BBCBF9C1A0023069A1A44069203
:104C8800079A50461A440121079200F02EFB064667
:104C980002E0099D069C0A9E64B1079B002B09DD72
:104CA800A342069AA8BF2346D21A0692079AE41A84
:104CB800D31A0793099B002B20DD0A9BC3B1002D53
:104CC80010DD31462A46504600F0AAFB064631461A
:104CD800049A504600F012FB04990746504600F02B
:104CE80062FA0497099B5A1B08D05046049902E0BF
:104CF8000499099A504600F093FB0490504601210C
:104D080000F0F3FA0C9B002B05460ADD29461A46EB
:104D1800504600F085FB089B012B054604DD002763
:104D28001BE0089B012B13DC009B8BB9019BC3F391
:104D380013037BB9019B23F000473F0D3F0557B193
:104D4800069B01330693079B01330793012702E073
:104D5800002700E0009F0C9B43B12B6905EB830300
:104D6800186900F075FAC0F1200000E00120079BE7
:104D7800184410F01F0008D0C0F12003042B02DDF6
:104D8800C0F11C0002E008D018461C30069B034402
:104D98000693079B034404440793069B002B05DDF9
:104DA800504604991A4600F089FB0490079B002B93
:104DB80005DD294650461A4600F080FB05460D9B46
:104DC800EBB10498294600F0CCFB002817DA002341
:104DD800504604990A2200F0FDF90A9B04900BF151
:104DE800FF3B002B00F070813146002350460A2219
:104DF80000F0F0F9039B002B064633DC6DE1029BC3
:104E0800002B26DC089B022B23DD029B0393039BCC
:104E180073B929460522504600F0DCF905462946B3
:104E2800049800F09EFB002809DC01E000252E46CE
:104E38000B9B059C6FEA030B08E0BB462E46059BBF
:104E4800059A5C1C312313700BF1010BB146002647
:104E580014E10A9B23B9029B0393059F049CCCE0B1
:104E6800029B0393002C05DD31465046224600F094
:104E780025FB0646B7B17168504600F05FF9326904
:104E88000232044606F10C0192000C3000F04BF996
:104E980050462146012200F011FB814603E000BF85
:104EA80000002440B146059F049C29462046FFF790
:104EB800D1FA3146069000F13008204600F051FB47
:104EC8004A4602902946504600F067FBC2680346EE
:104ED8003AB919462046049300F043FB049B024666
:104EE80000E0012250461946049200F05CF9049A49
:104EF800A2B9089B93B9009B03F0010373B9B8F1F9
:104F0800390F3B46049440D0029B002BC8BF069B38
:104F180007F10104C8BF03F131083DE0029B002BF3
:104F280004DA002AC446049408DC21E024D1089B52
:104F380013BB009B03F00103F3B9F2E721460122FA
:104F480050460297CDF8008000F0B8FA2946049040
:104F580000F007FB0028DDF800C0029B03DC07D146
:104F680018F0010F04D0B8F1390F0ED008F1010C78
:104F78007C1C87F800C081E0002A07F101020EDDE1
:104F8800B8F1390F3B46049403D1392201371A701E
:104F980057E0144608F1010887F800806EE0059B89
:104FA80002F8018CD31A1746039A93423AD0214645
:104FB8000A220023504600F00DF94E4504463146BA
:104FC80050464FF00A024FF0000304D100F002F9F6
:104FD8000646814669E700F0FDF8494606460A227A
:104FE8005046002300F0F6F881465EE72146504619
:104FF8000A22002300F0EEF8044620462946FFF76F
:1050080029FA00F1300807F8018B059B039AFB1A6F
:105018009342EBDB059B012AACBF9B180133B146D9
:105028001F46002621460122504600F047FA29462D
:10503800049000F096FA002803DC16D118F0010F4E
:1050480013D03C4614F8013C392B04F1FF3209D146
:10505800059B9A4204D10BF1010B3123059A02E01A
:105068001446EFE70133137008E03C4614F8013C9E
:10507800302B04F1FF3201D11446F7E75046294698
:1050880000F091F8B9F1000F0CD02EB14E4503D0C5
:105098005046314600F087F85046494600F083F8FC
:1050A80000E0BB465046049900F07DF80023129AB0
:1050B80023700BF101031360219B1BB11C6001E0FD
:1050C8000A480FE005980DE0039B002B3FF7C5AE9B
:1050D800089B022B3FF79BAEBFE6089B022B3FF7CE
:1050E80096AEBFE617B0BDE8F08F00BF6A5E000855
:1050F8000048704774000020024B0146186800F011
:105108004FBB00BF7000002010B5C9B202449042E6
:10511800034606D01C788C4200F10100F7D11846EE
:1051280010BD002010BD10B5431E0A44914204D0A2
:1051380011F8014B03F8014FF8E710BD70B5456A47
:1051480004460E463DB91020FFF7D6FF6062456061
:1051580085600560C560656AEB6843B1636ADB68B2
:1051680053F8260078B1026843F8262017E0204655
:105178000421212200F0C2FA636AE860DB68002B90
:10518800ECD1002070BD012101FA06F56A1D204608
:10519800920000F0B3FA0028F3D04660856000233F
:1051A8000361C36070BD70B5446A06460D463CB9DC
:1051B8001020FFF7A1FF7062446084600460C4603F
:1051C8003DB1736A6A68DB6853F82210296043F8B6
:1051D800225070BD2DE9F0410F69984606460C46ED
:1051E80001F1140E0023DEF8000085B2010C02FB69
:1051F8000585514301EB15410133ADB24FEA114822
:10520800BB4205EB01414EF8041BECDBB8F1000F83
:105218001BD0A3689F4212DB616830460131FFF75B
:105228008DFF2269023204F10C01054692000C3010
:10523800FFF779FF21463046FFF7B5FF2C4604EB10
:1052480087030137C3F8148027612046BDE8F08141
:10525800030C1B0413B90004102300E0002310F012
:105268007F4F04BF0002083310F0704F04BF0001E5
:10527800043310F0404F04BF80000233002803DBE2
:10528800420003D5581C70471846704720207047C5
:10529800036813F007020BD0D90722D49A074BBF33
:1052A8005B089B08036003604CBF01200220704725
:1052B80099B209B91B0C102213F0FF0F04BF1B0A87
:1052C8000832190704BF1B090432990704BF9B0859
:1052D8000232D90702D45B0805D0013203601046B8
:1052E8007047002070472020704710B50C460121F8
:1052F800FFF724FF01224461026110BD2DE9F74F39
:1053080014460A6923699A42B8BF0B468846BCBF4F
:10531800A0461C46D8F81070D4F81090D8F8083079
:10532800D8F8041007EB09069E42C8BF0131FFF701
:1053380005FF00F1140505EB860C2B46634503D2E7
:10534800002243F8042BF9E704F1140208F11401D0
:1053580002EB890301EB87070093009B01929A42B5
:1053680057D2B2F800B0BBF1000F23D08946AE4641
:105378004FF0000859F8044BBEF800A0A3B20BFB8D
:1053880003A34FEA144ADEF8004043444FEA1448A6
:105398000BFB0A8404EB1344F2469BB243EA044332
:1053A8004F454FEA14484AF8043B01D9D646E1E78D
:1053B800CEF80480019BB3F802A00432BAF1000FC2
:1053C80021D02B682C4689464FF00008B9F800E038
:1053D800B4F802B00AFB0EBEF044A3469BB243EAFF
:1053E80008434BF8043B59F8043BB4F804E01B0CA1
:1053F8000AFB03E303EB1843B9454FEA134801D20C
:105408005C46E3E763600435A7E75CF8043D13B93D
:10541800013E002EF9DC066103B0BDE8F08F000004
:1054280012F003032DE9F04106460F46154607D052
:10543800013B214A52F823200023FFF7CBFE074601
:10544800AD1035D0746A3CB91020FFF755FE706274
:10545800446084600460C460D6F82480D8F80840AA
:105468007CB9304640F27121FFF73FFF0023C8F8AE
:1054780008000446036004E06D1019D0206870B17C
:105488000446EB07F8D5394622463046FFF736FF83
:10549800394680463046FFF786FE4746ECE73046F9
:1054A80021462246FFF72AFF002320600360E7E732
:1054B8003846BDE8F08100BF985F00082DE9F04745
:1054C8000C464FEA621A236949680AEB0309A36884
:1054D8000746164609F101059D4202DD01315B00D0
:1054E800FAE73846FFF72AFE0023804600F1140148
:1054F800534504DA002241F823200133F8E72AEA69
:10550800EA73206901EB830316F01F0204F114010A
:1055180001EB800E14D0C2F1200C00200E689640DA
:1055280030439A4643F8040B51F8040B714520FAAE
:105538000CF0F3D3CAF8040048B109F1020506E0FB
:10554800043B51F8042B43F8042F7145F9D3013D6E
:105558003846C8F810502146FFF725FE4046BDE8FA
:10556800F08703690A699B1A10B511D192001430AB
:10557800143183180A4453F8044D52F8041D8C4220
:1055880002D007D3012010BD8342F4D8002010BDFB
:10559800184610BD4FF0FF3010BD2DE9F8430746FF
:1055A8000C46084611461546FFF7DBFF061E08D1D4
:1055B80038463146FFF7C2FD012303614661BDE865
:1055C800F883BCBF23462C4638466168BABF1D46DF
:1055D80001260026FFF7B2FD2B69C660266905F192
:1055E8001409143404EB860709EB830800F1140549
:1055F8004FF0000C54F8043B59F8042B1CFA83F1C3
:105608001FFA82FE120CCEEB0101C2EB134303EB2F
:10561800214389B24FEA234CC84541EA0343A646D1
:1056280045F8043BE6D8BE450ED25EF8042B1CFABA
:1056380082F4120C02EB2442A4B24FEA224C44EA50
:10564800024245F8042BEEE755F8043D0BB9013E3C
:10565800FAE70661BDE8F8832DE9F3410F46012119
:1056680055EC104B1646FFF769FDC5F31303C5F358
:105678000A5580460DB143F480130193ECB102A89A
:1056880040F8084DFFF704FE009B50B1019AC0F1A5
:10569800200102FA01F10B43C240C8F8143001920C
:1056A80001E0C8F81430019BC8F81830002B14BF6B
:1056B80002240124C8F8104009E001A8FFF7E8FD1A
:1056C8000124019BC8F81430C8F81040203035B1C7
:1056D800A5F2334505443D60C0F1350009E008EB0B
:1056E8008403A0F2324038601869FFF7B1FDC0EBBF
:1056F80044103060404602B0BDE8F08138B502FB86
:1057080001F4214600F04CF8054618B10021224664
:10571800FEF7DAF9284638BD30B500293DD051F8F2
:10572800042C0B1F1D49002AB8BF9B180A680C4699
:1057380012B95A600B6030BD93420DD219685818DF
:10574800904201BF5A5852181A6042685A60236042
:1057580030BD994203D80A4651680029F9D1146826
:1057680015199D420AD11B682344D018884213603A
:1057780013D10868034413604B680DE002D90C2369
:10578800036030BD1C681819884204BF086849685E
:10579800596004BF00191860536030BDD400002060
:1057A80070B5CC1C24F0030408340C2C38BF0C242E
:1057B800002C064603DA0C233360002070BD8C42AF
:1057C800F9D3204A136810461946A1B10A68121B7A
:1057D8000ED40B2A03D90A608B188C501FE08B4219
:1057E8000DBF5A684A685A60026018BF0B4616E037
:1057F8000B464968E9E7144D2B681BB9304600F0A1
:1058080071F928603046214600F06CF9421C0346C5
:10581800D1D0C51C25F0030585420AD11C6003F1CF
:105828000B001A1D20F00700821A0AD05142995025
:1058380070BD3046E91A00F055F90130BBD02B464F
:10584800ECE770BDD4000020D00000202DE9F0471F
:105858008E68B34282460C469046994640D38A8960
:1058680012F4906F3AD0256809696F1A65690223A6
:1058780005EB450595FBF3F57B1C4B449D4238BF72
:105888001D4653050FD52946FFF78AFF064698B1EE
:1058980021693A46FFF747FCA38923F4906343F054
:1058A8008003A38113E02A4600F047F9064670B941
:1058B80050462169FFF730FF0C23CAF80030A3894E
:1058C80043F04003A3814FF0FF30BDE8F087266125
:1058D80065613E44ED1B2660A5604E46B14500D289
:1058E8004E4632462068414600F00CF9A3689B1BDF
:1058F800A36023681E4426600020BDE8F0870000EE
:105908002DE9F0439DB0064603938B891C060D468E
:1059180090460CD50B6953B94021FFF741FF286029
:10592800286110B90C233360CCE040236B6100235D
:10593800099320238DF8293030238DF82A304346E7
:105948001C4613F8012B1AB9B4EB08090FD002E072
:10595800252AF5D1F8E73046294642464B46FFF757
:1059680075FF013000F0A980099B4B440993237807
:10597800002B00F0A28000234FF0FF32049307931E
:10598800059206938DF853301A9304F101084446A2
:10599800DFF84891217848460522FFF7B5FB08F162
:1059A8000108049B30B1C9EB000001228240134377
:1059B8000493ECE7D80644BF20228DF8532019073A
:1059C80044BF2B228DF8532022782A2A02D0079927
:1059D80023460EE0039A111D12680391002ABBBFEB
:1059E800524243F0020307920792B8BF049301346E
:1059F8000AE01C4601332278303A092A03D80A20E3
:105A080000FB0121F5E7079123782E2B1AD1637843
:105A18002A2B0AD1039B1A1D1B680392002BB8BFBF
:105A28004FF0FF33023405930CE0611C00220C4652
:105A380001312378303B092B03D80A2000FB0232BE
:105A4800F5E70592DFF89880217840460322FFF7B2
:105A58005BFB38B1049AC8EB000040238340134332
:105A68000493013421781A488DF82810062204F18D
:105A78000108FFF749FB88B1164B33B9039B07337D
:105A880023F007030833039313E003AB0093304676
:105A980004A92A46104BFEF7B1F807E003AB0093C0
:105AA800304604A92A460C4BFEF75CFB421C07460D
:105AB80003D0099B3B44099341E7AB895B0601D4BA
:105AC800099801E04FF0FF301DB0BDE8F08300BF3A
