:020000040800F2
:1000000000800120F14300084144000841440008F9
:100010004144000841440008414400080000000039
:100020000000000000000000000000004144000843
:10003000414400080000000041440008091E000877
:10004000414400084144000841440008414400087C
:10005000414400084144000841440008414400086C
:10006000414400084144000841440008911A000836
:10007000414400084144000841440008414400084C
:100080004144000841440008151E0008414400088E
:10009000414400084144000841440008414400082C
:1000A000414400084144000841440008414400081C
:1000B000414400084144000841440008414400080C
:1000C00041440008414400084144000841440008FC
:1000D00041440008414400084144000841440008EC
:1000E00041440008414400084144000841440008DC
:1000F00041440008414400084144000841440008CC
:1001000041440008414400084144000841440008BB
:1001100041440008414400084144000841440008AB
:10012000414400084144000841440008414400089B
:10013000414400084144000841440008414400088B
:10014000414400084144000841440008414400087B
:10015000414400084144000841440008414400086B
:10016000414400084144000841440008414400085B
:1001700041440008414400084144000800000000D8
:0801800041440008414400085D
:1001880010B5054C237833B9044B13B10448AFF3C9
:1001980000800123237010BDB00000200000000083
:1001A80024670008084B10B51BB108480849AFF38D
:1001B80000800848036803B910BD074B002BFBD02B
:1001C800BDE81040184700BF000000002467000881
:1001D800B4000020B00000200000000081F00041C1
:1001E80002E000BF83F0004330B54FEA41044FEA14
:1001F800430594EA050F08BF90EA020F1FBF54EAAF
:10020800000C55EA020C7FEA645C7FEA655C00F04A
:10021800E2804FEA5454D4EB5555B8BF6D420CDD1B
:100228002C4480EA020281EA030382EA000083EA9E
:10023800010180EA020281EA0303362D88BF30BD3E
:1002480011F0004F4FEA01314FF4801C4CEA113194
:1002580002D0404261EB410113F0004F4FEA0333F3
:100268004CEA133302D0524263EB430394EA050F7E
:1002780000F0A780A4F10104D5F1200E0DDB02FAED
:100288000EFC22FA05F2801841F1000103FA0EF281
:10029800801843FA05F359410EE0A5F120050EF147
:1002A800200E012A03FA0EFC28BF4CF0020C43FA78
:1002B80005F3C01851EBE37101F0004507D54FF085
:1002C800000EDCF1000C7EEB00006EEB0101B1F5D5
:1002D800801F1BD3B1F5001F0CD349085FEA30001B
:1002E8004FEA3C0C04F101044FEA445212F5800F26
:1002F80080F09A80BCF1004F08BF5FEA500C50F1C3
:10030800000041EB045141EA050130BD5FEA4C0CA5
:10031800404141EB010111F4801FA4F10104E9D12E
:1003280091F0000F04BF01460020B1FA81F308BF25
:100338002033A3F10B03B3F120020CDA0C3208DDF1
:1003480002F1140CC2F10C0201FA0CF021FA02F1CC
:100358000CE002F11402D8BFC2F1200C01FA02F13C
:1003680020FA0CFCDCBF41EA0C019040E41AA2BF61
:1003780001EB0451294330BD6FEA04041F3C1CDA29
:100388000C340EDC04F11404C4F1200220FA04F049
:1003980001FA02F340EA030021FA04F345EA0301F3
:1003A80030BDC4F10C04C4F1200220FA02F001FAB5
:1003B80004F340EA0300294630BD21FA04F0294637
:1003C80030BD94F0000F83F4801306BF81F48011D0
:1003D8000134013D4EE77FEA645C18BF7FEA655C43
:1003E80029D094EA050F08BF90EA020F05D054EA15
:1003F800000C04BF1946104630BD91EA030F1EBF1A
:100408000021002030BD5FEA545C05D1400049411D
:1004180028BF41F0004130BD14F580043CBF01F510
:10042800801130BD01F0004545F0FE4141F47001F6
:100438004FF0000030BD7FEA645C1ABF19461046D1
:100448007FEA655C1CBF0B46024650EA013406BFD2
:1004580052EA033591EA030F41F4002130BD00BF91
:1004680090F0000F04BF0021704730B54FF480644E
:1004780004F132044FF000054FF0000150E700BFCF
:1004880090F0000F04BF0021704730B54FF480642E
:1004980004F1320410F0004548BF40424FF000011B
:1004A8003EE700BF42004FEAE2014FEA31014FEA5E
:1004B80002701FBF12F07F4393F07F4F81F06051AD
:1004C800704792F0000F14BF93F07F4F704730B51C
:1004D8004FF4607401F0004521F0004120E700BFAF
:1004E80050EA010208BF704730B54FF000050AE036
:1004F80050EA010208BF704730B511F0004502D537
:10050800404261EB41014FF4806404F132045FEA38
:10051800915C3FF4DCAE4FF003025FEADC0C18BFDD
:1005280003325FEADC0C18BF033202EBDC02C2F1D3
:10053800200300FA03FC20FA02F001FA03FE40EA65
:100548000E0021FA02F11444C1E600BF70B54FF065
:10055800FF0C4CF4E06C1CEA11541DBF1CEA135547
:1005680094EA0C0F95EA0C0F00F0DEF82C4481EAAF
:10057800030621EA4C5123EA4C5350EA013518BFCF
:1005880052EA033541F4801143F4801338D0A0FBBC
:1005980002CE4FF00005E1FB02E506F00042E0FB69
:1005A80003E54FF00006E1FB03569CF0000F18BF6F
:1005B8004EF0010EA4F1FF04B6F5007F64F5407417
:1005C80004D25FEA4E0E6D4146EB060642EAC621AA
:1005D80041EA55514FEAC52040EA5E504FEACE2E17
:1005E800B4F1FD0C88BFBCF5E06F1ED8BEF1004F1A
:1005F80008BF5FEA500E50F1000041EB045170BD96
:1006080006F0004646EA010140EA020081EA0301D9
:10061800B4EB5C04C2BFD4EB0C0541EA045170BDD5
:1006280041F480114FF0000E013C00F3AB8014F14F
:10063800360FDEBF002001F0004170BDC4F1000498
:10064800203C35DA0C341BDC04F11404C4F1200519
:1006580000FA05F320FA04F001FA05F240EA020074
:1006680001F0004221F0004110EBD37021FA04F6AA
:1006780042EB06015EEA430E08BF20EAD37070BD64
:10068800C4F10C04C4F1200500FA04F320FA05F0C3
:1006980001FA04F240EA020001F0004110EBD370C5
:1006A80041F100015EEA430E08BF20EAD37070BD35
:1006B800C4F1200500FA05F24EEA020E20FA04F30E
:1006C80001FA05F243EA020321FA04F001F00041BD
:1006D80021FA04F220EA020000EBD3705EEA430E2E
:1006E80008BF20EAD37070BD94F0000F0FD101F05D
:1006F8000046400041EB010111F4801F08BF013C96
:10070800F7D041EA060195F0000F18BF704703F0D3
:100718000046520043EB030313F4801F08BF013D5A
:10072800F7D043EA0603704794EA0C0F0CEA135516
:1007380018BF95EA0C0F0CD050EA410618BF52EAD0
:100748004306D1D181EA030101F000414FF00000D6
:1007580070BD50EA410606BF1046194652EA4306E4
:1007680019D094EA0C0F02D150EA013613D195EA58
:100778000C0F05D152EA03361CBF104619460AD1A0
:1007880081EA030101F0004141F0FE4141F47001AA
:100798004FF0000070BD41F0FE4141F4780170BD9A
:1007A80070B54FF0FF0C4CF4E06C1CEA11541DBFFF
:1007B8001CEA135594EA0C0F95EA0C0F00F0A7F801
:1007C800A4EB050481EA030E52EA03354FEA01312E
:1007D80000F088804FEA03334FF0805545EA131341
:1007E80043EA12634FEA022245EA111545EA106509
:1007F8004FEA00260EF000419D4208BF964244F1A0
:10080800FD0404F5407402D25B084FEA3202B61ABE
:1008180065EB03055B084FEA32024FF480104FF492
:10082800002CB6EB020E75EB030E22BFB61A754606
:1008380040EA0C005B084FEA3202B6EB020E75EB99
:10084800030E22BFB61A754640EA5C005B084FEA01
:100858003202B6EB020E75EB030E22BFB61A7546CE
:1008680040EA9C005B084FEA3202B6EB020E75EBD9
:10087800030E22BFB61A754640EADC0055EA060E9A
:1008880018D04FEA051545EA16754FEA06164FEADD
:10089800C30343EA52734FEAC2025FEA1C1CC0D189
:1008A80011F4801F0BD141EA00014FF000004FF016
:1008B800004CB6E711F4801F04BF01430020B4F1D7
:1008C800FD0C88BFBCF5E06F3FF6AFAEB5EB030C8F
:1008D80004BFB6EB020C5FEA500C50F1000041EB8C
:1008E800045170BD0EF0004E4EEA113114EB5C0459
:1008F800C2BFD4EB0C0541EA045170BD41F480112C
:100908004FF0000E013C90E645EA060E8DE60CEA33
:10091800135594EA0C0F08BF95EA0C0F3FF43BAF50
:1009280094EA0C0F0AD150EA01347FF434AF95EA07
:100938000C0F7FF425AF104619462CE795EA0C0FEB
:1009480006D152EA03353FF4FDAE1046194622E7B8
:1009580050EA410618BF52EA43067FF4C5AE50EA92
:1009680041047FF40DAF52EA43057FF4EBAE12E782
:100978004FF0FF3C06E000BF4FF0010C02E000BF63
:100988004FF0010C4DF804CD4FEA410C7FEA6C5C46
:100998004FEA430C18BF7FEA6C5C1BD001B050EAE9
:1009A800410C0CBF52EA430C91EA030F02BF90EAD4
:1009B800020F0020704710F1000F91EA030F58BF93
:1009C800994208BF90422CBFD8176FEAE37040F0F5
:1009D800010070474FEA410C7FEA6C5C02D150EA93
:1009E800013C07D14FEA430C7FEA6C5CD6D152EA4E
:1009F800033CD3D05DF8040B704700BF8446104613
:100A080062468C461946634600E000BF01B5FFF711
:100A1800B7FF002848BF10F1000F01BD4DF808EDE1
:100A2800FFF7F4FF0CBF012000205DF808FB00BFB2
:100A38004DF808EDFFF7EAFF34BF012000205DF80C
:100A480008FB00BF4DF808EDFFF7E0FF94BF012059
:100A580000205DF808FB00BF4DF808EDFFF7CEFF5A
:100A680094BF012000205DF808FB00BF4DF808ED99
:100A7800FFF7C4FF34BF012000205DF808FB00BF6A
:100A88004FEA410212F5001215D211D56FF47873AE
:100A9800B3EB625212D94FEAC12343F0004343EA51
:100AA800505311F0004F23FA02F018BF404270472C
:100AB8004FF00000704750EA013005D111F00040B6
:100AC80008BF6FF0004070474FF00000704700BF4C
:100AD8004FEA4102B2F1E04324BFB3F5001CDCF158
:100AE800FE5C0DD901F0004C4FEAC0024CEA507090
:100AF800B2F1004F40EB830008BF20F001007047BF
:100B080011F0804F21D113F13872BCBF01F00040C1
:100B1800704741F480114FEA5252C2F11802C2F1F3
:100B2800200C10FA0CF320FA02F018BF40F0010074
:100B38004FEAC1234FEAD32303FA0CFC40EA0C0026
:100B480023FA02F34FEA4303CCE77FEA625307D163
:100B580050EA01331EBF4FF0FE4040F4400070479A
:100B680001F0004040F0FE4040F40000704700BF34
:100B780053B94AB9002908BF00281CBF4FF0FF31FC
:100B88004FF0FF3000F03CB882B0EC462DE9005041
:100B980000F01EF8DDF804E002B00CBC704700BF9E
:100BA8002DE9F041069C154606460F46984600F08A
:100BB80029F805FB01F300FB0838A5FB0023B21A4E
:100BC800434467EB0303C4E90023BDE8F08100BF99
:100BD8002DE9F041069C904606460F461D4600F05A
:100BE8005FF900FB05F5A0FB082308FB0155B21AC5
:100BF8002B4467EB0303C4E90023BDE8F08100BF81
:100C0800704700BF00292DE9F043C0F2A6800026F6
:100C1800002BC0F29C80884694469E4615460446A2
:100C28000F46002B3DD18A4259D9B2FA82F33BB123
:100C3800C3F120029F4020FA02F29D4017439C40D6
:100C4800290C220CB7FBF1FEA8B201FB1E7742EA81
:100C5800074700FB0EF3BB420AD97F190EF1FF329A
:100C680080F00581BB4240F20281AEF1020E2F44B2
:100C7800FF1AA4B2B7FBF1F301FB137744EA074765
:100C880000FB03F0B84208D97F1903F1FF3280F066
:100C9800F080B84240F2ED80023B43EA0E43002266
:100CA80003E08B420FD900221346341C18BF0124DD
:100CB80060424FF0000565EB45015840514000196E
:100CC8006941BDE8F083B3FA83F2002A40F08680D8
:100CD8008B4202D3844500F2DB800123E5E712B999
:100CE8000123B3FBF2F5B5FA85F000283BD1781B58
:100CF8004FEA154E1FFA85FC0122B0FBFEF8210CC5
:100D08000EFB180741EA07470CFB08F3BB4207D95B
:100D18007F1908F1FF3102D2BB4200F2BD8088463C
:100D2800FF1AA4B2B7FBFEF30EFB137744EA07479A
:100D38000CFB03FCBC4507D97F1903F1FF3102D234
:100D4800BC4500F2A7800B4643EA0843ADE7524290
:100D58006FEA060663EB43035DE7404261EB41013E
:100D68004FF0FF3654E7C0F1200224FA02F107FAE7
:100D780000F385404FEA154ED7401943B7FBFEF202
:100D88000B0C0EFB12771FFA85FC43EA07430CFB9A
:100D980002F79F4204FA00F407D95B1902F1FF3009
:100DA80074D29F4272D9023A2B44DF1B89B2B7FB37
:100DB800FEF80EFB187341EA03430CFB08F79F4249
:100DC80008D95B1908F1FF315CD29F425AD9A8F1C2
:100DD80002082B44D81B48EA02428EE7C2F12003DE
:100DE8002CFA03F10EFA02FE20FA03F741EA0E0E7E
:100DF80008FA02F028FA03F14FEA1E453843B1FB1E
:100E0800F5F8030C05FB18111FFA8EF743EA0141A8
:100E180007FB08F38B420CFA02FC09D911EB0E010F
:100E280008F1FF3930D28B422ED9A8F1020871445B
:100E3800C91A80B2B1FBF5F305FB131140EA014171
:100E480007FB03F78F4208D911EB0E0103F1FF30BE
:100E580016D28F4214D9023B714443EA0843C91B96
:100E6800A3FB0C89494509D305D000221DE7964606
:100E7800FEE6134611E794404445F6D2013BF4E7F9
:100E88000346EAE78846A5E7C846D1E702468CE765
:100E980013460AE7023B57E7A8F102082F443FE749
:100EA8002DE9F041002B44D18A42154604464FD91A
:100EB800B2FA82F70E464FB1C7F12003B94020FAC3
:100EC80003F602FA07F50E4300FA07F44FEA154E47
:100ED800230CB6FBFEF0AFB20EFB106143EA0143F0
:100EE80007FB00F1994209D95B1900F1FF3280F044
:100EF800EC80994240F2E98002382B445A1AA4B295
:100F0800B2FBFEF30EFB132244EA024207FB03F78F
:100F1800974208D9521903F1FF3180F0D8809742DF
:100F280040F2D580023B43EA004000263146BDE846
:100F3800F0818B4247D8B3FA83F6002E48D18B4212
:100F480002D3824200F2CD8001203146BDE8F08113
:100F580012B90125B5FBF2F5B5FA85F8B8F1000F1D
:100F680077D14A1B4FEA154EAFB20126B2FBFEF00D
:100F7800230C0EFB102143EA014107FB00F38B42CF
:100F880007D9491900F1FF3202D28B4200F2BA8028
:100F98001046C91AA4B2B1FBFEF30EFB131144EAC2
:100FA800014407FB03F7A74208D9641903F1FF328C
:100FB80080F08F80A74240F28C80023B43EA0040D9
:100FC8003146BDE8F081002630463146BDE8F08163
:100FD800C6F1200422FA04F5B3402B4320FA04FC9E
:100FE80001FA06F721FA04F54FEA134E4CEA07070F
:100FF800B5FBFEF8390C0EFB18551FFA83FC41EAC5
:1010080005450CFB08F1A94202FA06F204D9ED18CD
:1010180008F1FF3467D3A0466D1ABFB2B5FBFEF4E2
:101028000EFB145547EA05410CFB04FC8C4504D91A
:10103800C91804F1FF355CD32C4644EA0844CCEBCC
:101048000101A4FB0223994248D344D0204600263C
:101058006CE7C8F1200401FA08F305FA08F520FA4C
:1010680004F7E1404FEA154E1F43B1FBFEF63A0C78
:101078000EFB16111FFA85FC42EA01430CFB06F22F
:101088009A4200FA08F407D95B1906F1FF3137D202
:101098009A4235D9023E2B449B1ABFB2B3FBFEF0ED
:1010A8000EFB103347EA03430CFB00F1994207D9C2
:1010B8005B1900F1FF3221D299421FD902382B4423
:1010C8005A1A40EA0646674650E7104616E70B46A6
:1010D80029E7134672E7B0409042B7D2601E002657
:1010E80024E7304622E7A94295D9A8F102081D4411
:1010F80092E78C45A0D9023C19449EE71046DFE7E9
:101108000E46C9E70238294443E700BF30B400243B
:101118000DE001EB840550F82430A3F5FF437F3B35
:1011280007EE903AFAEEE87AC5ED007A0134944277
:10113800EFDB30BC704700BF8B08DFED157A11E09C
:1011480090ED007AD0ED015A90ED026AD0ED036A75
:1011580037EE877A77EE257A77EE867A77EEA67A73
:10116800013B1030002BEBD101F0030305E090EDBB
:10117800007A77EE877A013B0430002BF7D107EE2F
:10118800101AB8EE477AC7EE877AC2ED007A704730
:101198000000000010B51446012902D10023136095
:1011A80010BD8B089FED300AF0EE407A21E0D0EDBB
:1011B800006A77EEA67A66EEA66A36EE800AD0ED69
:1011C800016A77EEA67A66EEA66A36EE800A90ED98
:1011D800027A77EE877A27EE077A37EE000A90EDE3
:1011E800037A77EE877A27EE077A37EE000A013B13
:1011F8001030002BDBD101F0030309E090ED007AF9
:1012080077EE877A27EE077A30EE070A013B04303B
:10121800002BF3D107EE101AB8EE477AF7EE006A02
:1012280077EE666A80EE260AC7EE877A67EEA77AB7
:1012380087EE267A67EE877A70EE677AF5EEC07ADF
:10124800F1EE10FA0DDBB1EEE70AB4EE400AF1EE6A
:1012580010FA03D0B0EE670A05F080F984ED000AB1
:1012680010BD0023236010BD00000000F0B5041D70
:10127800D0ED007A4D1EAE08002007462CE0D4EDD4
:10128800006A94ED017AF4EEE67AF1EE10FA02D5EE
:10129800471CF0EE667AD4ED026AF4EEC77AF1EEF6
:1012A80010FA02D5871CF0EE477A04F1100E94ED7F
:1012B800037AF4EEE67AF1EE10FA02D5C71CF0EEE6
:1012C800667AF4EEC77AF1EE10FA02D5071DF0EE51
:1012D800477A0430013E7446002ED0D105F0030051
:1012E8000CE0251D94ED007AF4EEC77AF1EE10FAC1
:1012F80002D50F1AF0EE477A01382C460028F0D1B3
:10130800C2ED007A1F60F0BD2DE9F04F9E46099DA1
:10131800994204D3CB1A05EB830501270DE0CB18BE
:1013280003F18043023B05EB8305034610461A464A
:101338000B4671469E464FF0FF370EF1FF36CEEB57
:10134800010101F1010C0EF1804A0AF1FF3A02EBAA
:101358008A0AB14651464FF0010844E04FEA980323
:101368000446DFEDD67A22E094ED007AD1ED006AEA
:1013780067EE266A76EEA77A94ED017AD1ED016AD6
:1013880067EE266A76EEA77A94ED027AD1ED026AC4
:1013980027EE267A77EE276A94ED037AD1ED037A61
:1013A80027EE277A77EE267A013B10311034002B8E
:1013B800DAD108F003030AE094ED007AD1ED006A6F
:1013C80027EE267A77EE877A013B04310434002B26
:1013D800F2D1C5ED007A05EB8705AAEB880108F183
:1013E800010809F1FF39B9F1000FB7D1BEF1030FB8
:1013F80002D8E046014613E14FEA9C0A01464FF045
:101408000009A1E091ED006AD1ED014A01F10C0457
:1014180091ED025A4FEA9E0B1146DFEDA87AF0EEE5
:10142800673AB0EE673AF0EE676A91ED007A94EDAC
:10143800004A66EE075A75EEA65A64EE872A32EE1F
:10144800833A65EE072A72EEA33A24EE077A77EE1E
:10145800277AD1ED016A94ED016A64EEA64A74EE2A
:10146800A55A25EE267A37EE033A24EE267A77EE49
:10147800233A66EE266A76EEA77A91ED027AD4EDE3
:10148800024A25EE075A75EE255A64EE076A36EECB
:10149800833A66EE076A76EEA33A24EE877A37EE49
:1014A800277A01F11008D1ED037A04F1100394EDC5
:1014B800035A64EE276A76EEA56A66EE275A35EE79
:1014C800833A64EEA75A75EEA33A65EE277A77EE6B
:1014D800877A1C464146BBF1010BA6D10EF00301E9
:1014E8001DE098ED007AD3ED005A26EE076A76EEF5
:1014F800866A24EE876A33EE063A25EE076A73EEAB
:10150800863A25EE877A77EE877A0139B0EE646AF3
:10151800F0EE454AB0EE655A08F104080433002994
:10152800DFD1C5ED006ABB001D4485ED003A1D44BE
:10153800C5ED003A1D44C5ED007A1D4409F10409C2
:1015480000EB89010AF1FF3ABAF1000F7FF45AAFB4
:101558000CF0030844E04FEA9E031446DFED577A87
:1015680022E091ED007AD4ED006A67EE266A76EE05
:10157800A77A91ED017AD4ED016A27EE267A77EE03
:10158800277A91ED027AD4ED026A27EE267A77EE71
:10159800276A91ED037AD4ED037A67EE277A77EE1E
:1015A800A67A013B10341031002BDAD10EF0030378
:1015B8000AE091ED007AD4ED006A27EE267A77EEFC
:1015C800877A013B04340431002BF2D1C5ED007A4F
:1015D80005EB870509F1010900EB890108F1FF38DE
:1015E800B8F1000FB7D11EE0D1ED007AD4ED006A52
:1015F80067EEA67A37EE277A013B0434043103E01C
:10160800734614469FED2D7A002BEDD185ED007AB7
:1016180005EB870509F1010900EB890108F1FF389D
:10162800B8F1000FECD100EB8C0C344642E0B00866
:1016380011466346DFED217A22E093ED007AD1ED81
:10164800006A67EE266A76EEA77A93ED017AD1ED05
:10165800016A67EE266A76EEA77A93ED027AD1EDF3
:10166800026A27EE267A77EE276A93ED037AD1EDA0
:10167800037A27EE277A77EE267A0138103110336D
:101688000028DAD106F003000AE093ED007AD1EDE4
:10169800006A27EE267A77EE877A01380431043318
:1016A8000028F2D1C5ED007A05EB87050CF1040C92
:1016B800013E013C002CBAD1BDE8F08F00000000CB
:1016C8002DE9F04786B002AF0E4690464FEA410A30
:1016D800CB000833ADEB030D02AD89468B000A330E
:1016E80023F00703ADEB030D02AC009502460B4651
:1016F800FFF70AFE2846514607F10802FFF71CFDCE
:1017080000230AE005EB8302D2ED007A97ED027A16
:1017180077EEC77AC2ED007A01335345F2D32846F3
:1017280051463A4607F10C03FFF7A0FD00230AE0F3
:1017380005EB8302D2ED007A97ED007AC7EE877A3F
:10174800C2ED007A01335345F2D3002208E0FB686A
:10175800134405EB8303196804EB82031960013213
:101768004A45F4D32046314607F10802FFF7E4FC66
:10177800204631463A1DFFF70DFD002313E004EB28
:10178800830292ED007AD7ED017A77EEA77AD7ED4A
:10179800026A77EEA67AB4EEE77AF1EE10FA01D58E
:1017A8000021116001334B45E9D3012316E004EB16
:1017B800830292ED007A52ED017A77EE677AF5EEC0
:1017C800C07AF1EE10FA08DDD2ED017A77EEC77A29
:1017D800F5EEC07AF1EE10FA04D40133721E9A4283
:1017E800E5D8012307EE903AF8EE677A9FED047A80
:1017F800C7EE277AC8ED007A1037BD46BDE8F087F6
:1018080000007A4500B597B000211191129113910B
:10181800149115916846442202F036FE1023009375
:10182800012206928023089302230A930B920C93B9
:1018380014220D92109307230E9305230F936846E5
:1018480001F0D0FF00B1FEE70F2311930323129399
:10185800002313931493159311A8042102F094FA0A
:1018680000B1FEE717B05DF804FB00BF002306E0F7
:10187800054A52F82310054A42F823100133B3F5FC
:101888007A7FF5DB704700BFDC0000207C10002069
:101898002E4A936C43F0010393642D4B1A6822F08F
:1018A80001021A601A6822F480421A601A6822F447
:1018B80040521A601A6842F400521A601A6822F4F8
:1018C80040721A601A6842F480721A601A6822F428
:1018D80040621A601A6842F480621A601A6822F03C
:1018E80040021A601A6822F080021A601A6842F0F0
:1018F80080021A601A6842F020021A601A6822F000
:1019080010021A605860134A9A60134A1268DA6023
:101918001A6842F002021A601A6822F004021A6079
:101928001A6842F004021A600C4A102182F80B135C
:101938004FF4006111600A490A6822F00F020A6038
:101948001A6842F001021A60704700BF0010024096
:1019580008000240400004500400002000E100E0BC
:10196800A800024030B52DED028BADF6DC7D3E4B74
:101978000DF57B6493E8030084E803000023CDF8A9
:10198800B83FCDF8BC3FCDF8C03FCDF8C43FCDF847
:10199800C83FCDF8CC3FCDF8D03FCDF8D43F002399
:1019A8000DF6AC72136001F035FEFFF72BFF00F067
:1019B800A5F84FF47A70FFF76BFF00F0EBF800F032
:1019C8009BF900F0D7F9294D284601F02DFA284651
:1019D80001F0ACF92648274B19684FF47A7201F0E8
:1019E80057F8254821460F2240F6FF7301F028FDDD
:1019F800224B1B68002BFBD01E4C206803A94FF418
:101A08007A72FFF783FB03A84FF47A710DF6AC7274
:101A1800FFF756FE0022194B1A60236893ED008ADF
:101A2800F8EE487A164B93ED008A27EE888A0DF671
:101A3800AC731868FEF736FD04460D4618EE100A1A
:101A4800FEF730FDCDE900010DF57B600D4922461A
:101A58002B4603F0B3F908480DF57B61282240F6C0
:101A6800FF7301F0EDFCC3E7406700080C4000205D
:101A78005C3F0020040000204C400020CC000020E7
:101A88000800002068670008144B1B6813F0020F59
:101A98001DD0124A536843F002035360104B1A6872
:101AA800104B9A4206D1104A0D4B1A600D4A0F4B43
:101AB8001A6005E00B4A0A4B1A600B4A0B4B1A6076
:101AC800074B1A680A4BDA6001220A4B1A60034A6C
:101AD800536843F00D035360704700BF0000024095
:101AE80000000020BC2F00201C2000200400002043
:101AF80008000240CC000020FEE700BF10B58AB005
:101B0800214BDA6C42F00402DA64DA6C02F0040267
:101B18000192019ADA6C42F08002DA64DA6C02F01F
:101B280080020292029ADA6C42F00102DA64DA6CFC
:101B380002F001020392039ADA6C42F00202DA64BC
:101B4800DB6C03F002030493049B4FF090402021C8
:101B5800002202F0D7FA4FF4005305930B4B06937B
:101B6800002407940A4805A902F0E0F92023059308
:101B780001230693079408944FF0904005A902F0BA
:101B8800D5F90AB010BD00BF0010024000002110B6
:101B98000008004800B58BB02448254B03604FF47B
:101BA80000334360002383602022C2600361042263
:101BB80042618361C36101220262436282624FF41F
:101BC800E061C1624FF48061016342634FF4805267
:101BD8008263C36300F06AF918B116484F21FFF712
:101BE8008BFF0AA9002341F80C3D104800F0FAFFCA
:101BF80018B110485721FFF77FFF0F4B01930623B9
:101C08000293052303937F2304930423059300235E
:101C18000693064801A900F089FC18B1054864211B
:101C2800FFF76AFF0BB05DF804FB00BF5C3F0020C4
:101C380000000450906700084000201902682A4BF1
:101C48009A424FD130B587B0044603F17043A3F5EB
:101C5800F833DA6C42F40052DA64DA6C02F40052B7
:101C68000092009AD3F8882042F04052C3F88820A6
:101C7800022301930B230293002503954FF0904014
:101C880001A902F053F91948194B036045608560B2
:101C9800C560802303614FF4007343614FF4006310
:101CA80083612023C3614FF40053036202F048FAB2
:101CB80018B110488B21FFF71FFF0C4B23659C625E
:101CC8000B2000210A4602F011FB0B2002F040FB1A
:101CD800122000210A4602F009FB122002F038FB0C
:101CE80007B030BD704700BF00000450C43F00205B
:101CF800080002409067000800B585B01048114BF5
:101D0800036000234360836042F21072C260036183
:101D180001F0A6F818B10C483E21FFF7EDFE20238C
:101D2800019300230393064801A901F0B5F818B1FF
:101D380005484521FFF7E0FE05B05DF804FB00BF4C
:101D48000C400020000800409C6700080268084B0F
:101D58009A420CD182B003F502339A6D42F0040224
:101D68009A659B6D03F004030193019B02B07047D1
:101D78000008004008B50C480C4B03604FF4E133F1
:101D8800436000238360C36003610C224261836166
:101D9800C3610362436201F0F1FB18B104484421B6
:101DA800FFF7AAFE08BD00BF4C40002000440040D9
:101DB800A86700080268114B9A421ED100B587B087
:101DC80003F5E6339A6D42F400329A659B6D03F48D
:101DD80000330093009B0C230193022302930023FA
:101DE800039303230493072305934FF0904001A91D
:101DF80002F09CF807B05DF804FB7047004400400F
:101E080008B501F019FC02F0C7FA08BD08B5024888
:101E180000F0ACF908BD00BF5C3F002000B583B0FE
:101E2800214B1A6E42F001021A661A6E02F0010284
:101E38000092009A9A6D42F080529A659B6D03F069
:101E480080530193019B032002F03EFA6FF00B00D0
:101E580000210A4602F04AFA6FF00A0000210A46F9
:101E680002F044FA6FF0090000210A4602F03EFA37
:101E78006FF0040000210A4602F038FA6FF0030000
:101E880000210A4602F032FA6FF0010000210A46EA
:101E980002F02CFA4FF0FF3000210A4602F026FA31
:101EA80003B05DF804FB00BF0010024030B583B0FA
:101EB80000230193002800F03B810446836D2BB971
:101EC800FFF7BCFE0023E36584F8543023689A6862
:101ED80012F0005F05D09A6822F0204222F03F02FB
:101EE8009A602268936813F0805F18D1936823F092
:101EF800104323F03F0343F0805393608E4B1B68DD
:101F08008E4AA2FB0323DB0C03EB83035B000193E4
:101F180002E0019B013B0193019B002BF9D123684F
:101F28009A6812F0805F09D1A26D42F01002A26592
:101F3800E26D42F00102E265012000E00020A26D9E
:101F480012F0100F40F0EE809A6812F0040F40F083
:101F5800E980A26D22F4817242F00202A2659A68B9
:101F680002F00302012A05D11A6812F0010F03D109
:101F7800002202E0002200E00122002A71D170490B
:101F88008B421CD16F4B9B6803F00303012B04D1D8
:101F98006C4B1B6813F0010F0BD16B4B9B6803F064
:101FA8000303012B08D1684B1B6813F0010F02D102
:101FB80002E0012200E0012282F0010249E06149C9
:101FC8008B4220D15E4B9B6803F00303012B04D1A5
:101FD8005B4B1B6813F0010F0CD15B4B9B6803F044
:101FE8000303012B08D1584B1B6813F0010F05D1CF
:101FF800134604E0012302E0134600E0012313F036
:10200800010F1FD112E04E4B9B6803F00303012B15
:1020180006D14B4B1B6813F0010F03D1134602E0A6
:10202800134600E0012313F0010F0DD1454B9B68C7
:1020380003F00303012B0AD1424B1B6813F0010F75
:1020480004D104E0012202E0012200E0012282F032
:10205800010232B161683D4A936823F47C130B4353
:102068009360E269A36B43EA4232E3681A43A368C8
:102078001343626A43EA0243012A03D1A26A013A7E
:1020880043EA4243E26A22B102F47072216B0A43C6
:1020980013432168CD682E4A2A401343CB60226837
:1020A800936813F00C0F25D1A169636B5B0043EAB9
:1020B8008133D16821F4804121F002010B43D360C0
:1020C800E36B012B11D125682B6923F4FF6222F001
:1020D8000402216C636C1943A36C1943E36C0B4332
:1020E800134343F001032B6104E02268136923F0D2
:1020F800010313612369012B08D121680B6B23F0BD
:102108000F02236A013B13430B6304E02268136B3D
:1021180023F00F031363A36D23F0030343F00103BC
:10212800A36506E0A36D43F01003A365012000E05A
:10213800012003B030BD00BF0C00002083DE1B432C
:102148000000045000010450000204500003045031
:1021580007C0F0FF704700BF08B5806AFFF7FAFFB5
:1021680008BD00BF704700BF704700BF70B5044688
:1021780003681D685E6815F0020F10D016F0020F94
:102188000DD0836D13F0100F03D1836D43F40063FA
:102198008365204600F024FD236802221A6015F0AA
:1021A800040F02D016F0040F05D115F0080F62D005
:1021B80016F0080F5FD0A36D13F0100F03D1A36DB5
:1021C80043F40073A3652368DA6812F4406F4CD1B6
:1021D800AB4A934215D002F50072934211D002F532
:1021E8008072926812F01F0F0BD0A64A926802F014
:1021F8001F02052A05D0A34A926802F01F02092A85
:1022080001D1DA680DE09E4A934206D002F50072C9
:10221800934204D0A2F5007202E01A4600E01A4682
:10222800D26812F4005F20D11A6812F0080F1CD08F
:102238009A6812F0040F10D15A6822F00C025A6002
:10224800A36D23F48073A365A36D13F4805F0CD191
:10225800A36D43F00103A36507E0A36D43F01003EA
:10226800A365E36D43F00103E3652046FFF7FEFA3B
:1022780023680C221A6015F0200F02D016F0200FE8
:1022880005D115F0400F6CD016F0400F69D0A36D42
:1022980013F0100F03D1A36D43F40053A365236813
:1022A800774A934215D002F50072934211D002F595
:1022B8008072926812F01F0F0BD0724A926802F077
:1022C8001F02062A05D06F4A926802F01F02072AE9
:1022D80001D1D9680DE06A4A934206D002F500722E
:1022E800934204D0A2F5007202E01A4600E01A46B2
:1022F800D168DA6C12F0C00F09D011F0007F2AD132
:10230800DA6812F4406F26D111F4005F23D11A68FD
:1023180012F0400F1FD011F4001F1CD19A6812F060
:10232800080F10D15A6822F060025A60A36D23F496
:102338008053A365A36D13F4807F0CD1A36D43F084
:102348000103A36507E0A36D43F01003A365E36DE4
:1023580043F00103E365204600F03AFC236860225D
:102368001A6015F0800F0CD016F0800F09D0A36DFD
:1023780043F48033A3652046FFF7F4FE23688022E8
:102388001A6015F4807F0DD016F4807F0AD0A36DF3
:1023980043F40033A365204600F01EFC23684FF485
:1023A80080721A6015F4007F0DD016F4007F0AD0F1
:1023B800A36D43F48023A365204600F00FFC236837
:1023C8004FF400721A6015F0100F43D016F0100F7A
:1023D80040D0A36B43B32368294A934203D002F544
:1023E8008072934206D1274A926812F01F0F03D1D8
:1023F800002202E0002200E001222AB9DB6813F083
:10240800010F13D1002316E01E4B9B6803F44043D1
:10241800B3F5004F0CD01B4B9B6803F44043B3F556
:10242800404F07D0002306E0012304E0012302E027
:10243800012300E0012353B1A36D43F48063A36536
:10244800E36D43F00203E3652046FFF78DFE236842
:1024580010221A6015F4806F11D016F4806F0ED018
:10246800A36D43F48043A365E36D43F00803E3657C
:1024780023684FF480621A60204600F0ABFB70BD01
:10248800000004500003045008B5836A9A6D12F0E6
:10249800500F31D19A6D42F400729A651A6811682A
:1024A80011F0080F14D0D16811F4406F20D1D26810
:1024B80012F4005F1CD19A6D22F480729A659A6DAD
:1024C80012F4805F14D19A6D42F001029A650FE010
:1024D800D26812F0020F0BD19A6D22F480729A65BD
:1024E8009A6D12F4805F03D19A6D42F001029A65E9
:1024F8001846FFF7BBF908BD9A6D12F0100F03D00C
:102508001846FFF731FE08BD1B6D5B6B984708BD89
:1025180008B5806A836D43F040038365C36D43F05B
:102528000403C365FFF720FE08BD00BFF0B583B004
:102538000023019390F85430012B00F032820123DC
:1025480080F8543003689B6813F0040F40F013823E
:102558004B68052B15D8023B032B10D8DFE803F096
:102568000205080B0C234B600BE012234B6008E0BC
:1025780018234B6005E04FF480734B6001E006239D
:102588004B6005684A680B68303502F440764FF4B2
:10259800407494FAA4F4B4FA84F426FA04F455F8CE
:1025A800246002F01F021F27974026EA0706C3F39C
:1025B80084639340334345F824300268936813F0EA
:1025C8000C0F40F091800B688D68143203F0007690
:1025D8004FF0007494FAA4F4B4FA84F4E64052F884
:1025E800267003F0F8734FF0F87494FAA4FEBEFA5C
:1025F8008EFE23FA0EFC4FF0070E0EFA0CFE27EAA9
:102608000E0794FAA4F4B4FA84F4E3409D403D43E1
:1026180042F826504B690468E268C2F3C1025200CE
:1026280003FA02F50E69042E0FD00B68603454F8D3
:102638002620B04F174003F0F84245EA02033B4317
:1026480043F0004344F826304EE0226EC2F384651E
:102658000B68C3F3120616B9C3F3846303E093FA55
:10266800A3F3B3FA83F3AB4202D122F0004222660D
:102678000468626EC2F384650B68C3F3120616B968
:10268800C3F3846303E093FAA3F3B3FA83F3AB428F
:1026980002D122F0004262660468A26EC2F3846529
:1026A8000B68C3F3120616B9C3F3846303E093FA05
:1026B800A3F3B3FA83F3AB4202D122F00042A2663D
:1026C8000468E26EC2F384650B68C3F3120616B998
:1026D800C3F3846303E093FAA3F3B3FA83F3AB423F
:1026E80002D122F00042E2660468A36803F0030303
:1026F800012B05D1236813F0010F03D1002302E059
:10270800002300E00123002B40F0B3800F68CE685F
:10271800D4F8B020C7F3120322EA030506F0200616
:10272800754B03FA06F207EA0203C3F312032B43BD
:10273800C4F8B030CA68714B9A4240F09A80046875
:102748000B68C3F312063EB9C3F384620132092A47
:102758008CBF0022012208E093FAA3F2B2FA82F2B7
:102768000132092A8CBF0022012262B326B903F084
:10277800F84505F1806505E093FAA3F5B5FA85F506
:102788000135AD062EB9C3F3846701370122BA407B
:1027980006E093FAA3F7B7FA87F701370122BA40A0
:1027A800154336B9C3F38462013202EB42021305C2
:1027B80007E093FAA3F2B2FA82F2013202EB420284
:1027C80013052B432FE026B903F0F84202F180628B
:1027D80005E093FAA3F2B2FA82F2013292062EB918
:1027E800C3F3846701370125BD4006E093FAA3F7D8
:1027F800B7FA87F701370125BD40154346B9C3F33A
:10280800846202EB42021B3A120542F0007309E0AF
:1028180093FAA3F2B2FA82F202EB42021B3A1205D1
:1028280042F000732B438D68143403F000774FF0A7
:10283800007292FAA2F2B2FA82F2D74054F82760F4
:1028480003F0F8734FF0F87292FAA2FEBEFA8EFE09
:1028580023FA0EFC4FF0070E0EFA0CFE26EA0E06BF
:1028680092FAA2F2B2FA82F2D3409D40354344F87C
:1028780027500B68224A934204D1224A926812F4E4
:10288800000F0FD0204A934204D11E4A926812F0DA
:10289800807F07D01D4A934273D11A4A926812F476
:1028A800800F70D1164A934238D10368184A934270
:1028B80003D002F50072934267D112498B6803F086
:1028C800E07343F400028B6823F0E07313438B60DA
:1028D800104B1B68104AA2FB0323DB0CC3EB03134A
:1028E800DB00019302E0019B013B0193019B002B5C
:1028F800F9D151E000F0FF03FFFF070000007F401F
:10290800000052C700030450000084CB010000807F
:10291800000004500C00002083DE1B43224A93422F
:1029280015D10368A2F1F742934203D002F5007271
:1029380093422CD11D498B6803F0E07343F08072F9
:102948008B6823F0E07313438B60002324E0184A5C
:1029580093421ED10268174B9A421CD113498B68C7
:1029680003F0E07343F480028B6823F0E0731343B1
:102978008B60002310E0836D43F0200383650123FF
:102988000AE0002308E0002306E0002304E0002317
:1029980002E0002300E00023002280F854201846BB
:1029A80000E0022003B0F0BD000084CB0003045017
:1029B800010000800000045030B583B0002301936B
:1029C8000268936803F00303012B05D1136813F021
:1029D800010F03D1002302E0002300E00123002BB4
:1029E8004DD19168274B194209D0836D43F01003EC
:1029F8008365C36D43F00103C365012040E093681C
:102A080023F0004323F03F0343F0010393601E4B80
:102A18001B681E4AA2FB0323DB0C03EB83035B004A
:102A2800019302E0019B013B0193019B002BF9D12B
:102A3800044600F009FE05461AE09A6812F0010FF4
:102A480007D19A6822F0004222F03F0242F00102C8
:102A58009A6000F0F9FD401B022809D9A36D43F0E4
:102A68001003A365E36D43F00103E365012007E06C
:102A780023681A6812F0010FDFD0002000E0002060
:102A880003B030BD3F0000800C00002083DE1B43F4
:102A9800F8B50468A56815F0040F40F08A8090F82E
:102AA8005430012B00F08880012380F85430434BC8
:102AB8009C4203D003F580739C4212D1404B9B6823
:102AC80013F01F0F0FD03E4B9B6803F01F03052B1D
:102AD8000BD03B4B9B6803F01F03092B07D1002346
:102AE80006E0002304E0002302E0002300E00123C5
:102AF800002B59D116460D460746FFF75DFF0446E1
:102B080000284DD1BB6D23F4706323F0010343F417
:102B18008073BB653B68294A934208D002F500726E
:102B2800934204D0264B9B6813F01F0F03D1BB6D53
:102B380023F48013BB65BB6D13F4805F04D0FB6D79
:102B480023F00603FB6501E00023FB653B6D1D4A8E
:102B5800DA623B6D1C4A1A633B6D1C4A5A633B6838
:102B68001C221A60002387F854303A68536843F0EF
:102B7800100353603A68D36843F00103D36039689F
:102B8800386D40312A46334601F05AFB3A6893685B
:102B980023F0004323F03F0343F00403936009E06C
:102BA800002387F8543005E0002380F854300124CE
:102BB80000E002242046F8BD0220F8BD00000450C1
:102BC8000003045091240008612100081925000819
:102BD800704700BF704700BF704700BF704700BF15
:102BE800704700BF90F85430012B00F0948070B407
:102BF8009BB0012380F854300368494A934203D1BB
:102C080002F58072009201E000220092009A42B917
:102C1800836D43F020038365002380F8543001203E
:102C28007BE09B6813F0040F63D1936813F0040FE3
:102C38005FD10B68002B33D03A4DAB6823F4604466
:102C48004B68466B43EA46332343AB600468A3688A
:102C580003F00303012B05D1236813F0010F03D1FF
:102C6800002302E0002300E00123002B47D19468F1
:102C780004F00304012C04D1126812F0010F00D0F3
:102C88000123002B3DD1274DAB6823F4716424F058
:102C98000F040B688A6813432343AB60002335E0B5
:102CA80020498B6823F460438B6001688B6803F0CC
:102CB8000303012B05D10B6813F0010F03D1002387
:102CC80002E0002300E00123EBB9916801F0030161
:102CD800012904D1126812F0010F00D00123A3B911
:102CE800104A936823F4716323F00F039360002361
:102CF8000CE0836D43F020038365012306E0002385
:102D080004E0002302E0002300E00023002280F812
:102D18005420184601E0022070471BB070BC704771
:102D28000000045000030450704700BF022380F8DD
:102D38003D3003689968094A0A40062A09D099680B
:102D4800064A0A40B2F5803F03D01A6842F00102F1
:102D58001A60012380F83D30002070470700010009
:102D68000368304A904212D0B0F1804F0FD0A2F5DC
:102D7800943290420BD002F58062904207D002F55F
:102D88008062904203D002F59432904203D123F03E
:102D980070034A681343234A90421ED0B0F1804F13
:102DA8001BD0A2F59432904217D002F5806290426F
:102DB80013D002F5806290420FD002F5943290420F
:102DC8000BD002F54062904207D002F58062904233
:102DD80003D002F58062904203D123F44073CA689D
:102DE800134323F080034A69134303608B68C3626B
:102DF8000B6883620B4B98420FD003F5006398422F
:102E08000BD003F54063984207D003F580639842DE
:102E180003D003F58063984201D10B690363012352
:102E280043617047002C0140C0B110B5044690F8CA
:102E38003D3013F0FF0F04D1002380F83C30FFF73A
:102E480073FF022384F83D30214651F8040BFFF745
:102E580087FF012384F83D30002010BD0120704712
:102E6800C0B110B5044690F83D3013F0FF0F04D1FF
:102E7800002380F83C30FEF769FF022384F83D30D8
:102E8800214651F8040BFFF76BFF012384F83D300E
:102E9800002010BD0120704790F83C30012B27D04E
:102EA80030B4012380F83C30022380F83D300468B8
:102EB8006368A268104DAC4203D005F50065AC42CA
:102EC80003D123F470034D682B4323F070030D687E
:102ED8002B4322F0800289680A43636003689A6082
:102EE800012380F83D30002380F83C30184601E08B
:102EF8000220704730BC7047002C01402DE9704F0C
:102F08000446826803691A4343691A43C369134331
:102F180001680868A04A024013430B6021684B68A7
:102F280023F44052E36813434B60A36922689B492A
:102F38008A4201D0216A0B43916821F430610B4326
:102F480093602368964A934213D102F55842D2F807
:102F5800882002F00302032A09D8DFE802F00204FD
:102F680098060125A0E004259EE008259CE0102590
:102F78009AE08C4A934218D102F5E632D2F88820BA
:102F880002F00C020C2A0ED8DFE802F0070D0D0D36
:102F9800090D0D0D830D0D0D0B00002584E0042592
:102FA80082E0082580E010257EE07F4A934217D111
:102FB80002F5E432D2F8882002F03002102A09D053
:102FC80001D82AB10AE0202A65D0302A04D005E0C9
:102FD800002569E0042567E0082565E0102563E021
:102FE800724A934217D102F5E232D2F8882002F0F1
:102FF800C002402A09D001D82AB10AE0802A4CD060
:10300800C02A04D005E000254EE004254CE0082540
:103018004AE0102548E0664A93421AD102F5E032A8
:10302800D2F8882002F44072B2F5807F0BD001D824
:103038003AB10CE0B2F5007F31D0B2F5407F04D050
:1030480005E0002530E004252EE008252CE01025B9
:103058002AE0524A934224D102F5C832D2F8882095
:1030680002F44062B2F5806F0BD001D83AB10CE09F
:10307800B2F5006F17D0B2F5406F04D005E0002517
:1030880012E0042510E008250EE010250CE00225CA
:103098000AE0022508E0022506E0022504E00225F0
:1030A80002E0102500E002253C4A934240F0888067
:1030B800082D11D8DFE805F0081005100C101010C5
:1030C80013003C4800260DE000F010FF002609E040
:1030D80000F008FB002605E00020012602E04FF47E
:1030E80000400026002800F00C81626802EB4203D1
:1030F800834200F2FD80B0EB023F00F2FB80082D16
:103108003ED8DFE805F0053D173D213D3D3D330044
:1031180000F0ECFE00234FEA10694FEA00286268CD
:10312800500818EB000A49F1000B50465946FDF7C4
:103138001FFD27E0530820480021C01841F1000175
:103148000023FDF715FD1DE000F0CCFA00234FEA3F
:1031580010694FEA00286268500818EB000A49F124
:10316800000B50465946FDF703FD0BE050080021BF
:1031780010F5000041F100010023FDF7F9FC01E022
:1031880001260020A0F540720C4B9A4200F2B48050
:103198002368D860B5E000BFF369FFEF0080004006
:1031A800003801400044004000480040004C004006
:1031B800005000400024F400000024F4FFFC0F003D
:1031C800E369B3F5004F4DD1082D3BD8DFE805F092
:1031D80005101B3A263A3A3A310000F087FE636838
:1031E8005A0802EB4000B0FBF3F39BB200262BE039
:1031F80000F08CFE63685A0802EB4000B0FBF3F362
:103208009BB2002620E061684A0802F1F47303F5D6
:103218009043B3FBF1F39BB2002615E000F062FA8D
:1032280063685A0802EB4000B0FBF3F39BB2002638
:103238000AE06268530803F58033B3FBF2F39BB2EC
:10324800002601E001260023A3F110014FF6EF72DA
:10325800914253D823F00F02C3F342031343226869
:10326800D3604EE0082D38D8DFE805F0050F193790
:10327800243737372E0000F039FE636800EB53001F
:10328800B0FBF3F080B2002629E000F03FFE63684F
:1032980000EB5300B0FBF3F080B200261FE060683B
:1032A800420802F5740303F51053B3FBF0F080B243
:1032B800002614E000F016FA636800EB5300B0FB38
:1032C800F3F080B200260AE06068430803F5004383
:1032D800B3FBF0F080B2002601E001260020A0F147
:1032E80010024FF6EF739A420AD82368D86008E0B4
:1032F800012606E0012604E0012602E0012600E09E
:1033080001260023236663663046BDE8708F00BF40
:10331800436A13F0010F06D001684B6823F40032AA
:10332800836A13434B60436A13F0020F06D00168A7
:103338004B6823F48032C36A13434B60436A13F02B
:10334800040F06D001684B6823F48022036B1343F3
:103358004B60436A13F0080F06D001684B6823F4EA
:103368000042436B13434B60436A13F0100F06D0BF
:1033780001688B6823F48052836B13438B60436A24
:1033880013F0200F06D001688B6823F40052C36B3A
:1033980013438B60436A13F0400F11D001684B68E8
:1033A80023F48012036C13434B60036CB3F5801F46
:1033B80006D101684B6823F4C002436C13434B6089
:1033C800436A13F0800F06D001684B6823F400228B
:1033D800836C13434B6070472DE9F04106460C4659
:1033E80017469846069D1EE0B5F1FF3F1BD02DB14C
:1033F80000F02AF9C8EB0000A84214D93268136813
:1034080023F4D07313603268936823F00103936048
:10341800202386F8713086F87230002386F87030E1
:103428000320BDE8F0813368DB692340A34214BF61
:1034380000230123BB42D7D00020BDE8F08100BFA4
:103448002DE9F04182B004461E4690F87130DBB297
:10345800202B4DD10D46904600294BD0002A4BD049
:1034680090F87030012B49D0012380F87030002388
:103478004367212380F8713000F0E6F80746A4F886
:103488005080A4F852801EE0009620468021002239
:103498003B46FFF7A1FF98BBA368B3F5805F08D14F
:1034A800236933B9226835F8023BC3F3080313854F
:1034B80003E023682A781A850135B4F85230013BB5
:1034C8009BB2A4F85230B4F852309BB2002BDBD137
:1034D80000962046402100223B46FFF77DFF034629
:1034E80080B9202284F87120002284F870200AE034
:1034F800022308E0012306E0012304E0022302E09E
:10350800032300E00323184602B0BDE8F08100BFA2
:1035180030B583B004460023436700F095F80546AC
:1035280023681B6813F0080F0AD06FF07E430093DE
:1035380020464FF4001100222B46FFF74DFFC0B97B
:1035480023681B6813F0040F0AD06FF07E430093C2
:1035580020464FF4800100222B46FFF73DFF50B96B
:10356800202384F8713084F87230002084F87000C9
:1035780002E0032000E0032003B030BD80B310B5A3
:10358800044690F8713013F0FF0F04D1002380F83F
:103598007030FEF70FFC242384F87130226813681A
:1035A80023F0010313602046FFF7A8FC012819D077
:1035B800636A13B12046FFF7ABFE2268536823F411
:1035C800904353602268936823F02A03936022682B
:1035D800136843F0010313602046FFF799FF10BDFD
:1035E8000120704710BD00BF10B50446074B1B688B
:1035F8000748A0FB0330800900F0B6FE4FF0FF300B
:103608002146002200F072FE002010BD0C000020B0
:10361800D34D621008B5074A136843F480731360EA
:10362800032000F051FE0020FFF7DEFFFEF7F6FB57
:10363800002008BD00200240024A136801331360CD
:10364800704700BFC4400020014B1868704700BF96
:10365800C440002030B583B00546204B9B6D13F065
:10366800805F02D000F028FE0FE01C4CA36D43F0F1
:103678008053A365A36D03F080530193019B00F071
:103688001BFEA36D23F08053A365B0F5007F05D121
:10369800802D0AD9A02D0AD902210FE0802D08D843
:1036A80009D0702D09D0002108E0002106E0012191
:1036B80004E0032102E0022100E00121084A136826
:1036C80023F007030B431360136803F007038B42CF
:1036D80001D0012000E0002003B030BD00100240FE
:1036E800002002403B4B9B6813F00C0F0BD0394B6A
:1036F8009B6803F00C030C2B1ED1364BDB6803F0E0
:103708000303012B18D1334B1B6813F0080F05D1A5
:10371800304BD3F89430C3F3032303E02D4B1B68DD
:10372800C3F303132C4A52F823102A4B9B6813F057
:103738000C0F10D0002015E0264B9B6803F00C03FB
:10374800042B0AD0234B9B6803F00C03082B07D0EB
:103758000020014606E0084604E02048002101E078
:103768001F4800211B4A926802F00C020C2A30D133
:10377800184BDA6802F00302DB68C3F30213013363
:10378800022A02D0032A0AD013E01448B0FBF3F04F
:10379800104BDB68C3F3062303FB00F311E010486A
:1037A800B0FBF3F30B4AD268C2F3062202FB03F321
:1037B80007E0B1FBF3F3074AD268C2F3062202FB23
:1037C80003F3044AD068C0F3416001304000B3FB02
:1037D800F0F0704700100240CC6700080024F400A5
:1037E80000127A00002800F09E8270B582B004466C
:1037F800036813F0100F00F09D80A84B9B6813F02E
:103808000C0F5AD1A54B1B6813F0020F03D0836924
:10381800002B00F08A82206AA04B1B6813F0080F67
:1038280004D09E4B1B6803F0F00305E09B4BD3F8D4
:10383800943003F470631B09984217D9FFF70AFF05
:10384800002840F07482954B1A6842F008021A600A
:103858001A6822F0F001226A0A431A605A6822F4B0
:103868007F42E16942EA01225A6017E08B4B1A68ED
:1038780042F008021A601A6822F0F001226A0A432C
:103888001A605A6822F47F42E16942EA01225A60CA
:10389800206AFFF7DFFE002840F04B82FFF722FF87
:1038A8007E4B9B68C3F303137D4AD35CD8407D4BA2
:1038B80018600020FFF798FE3CE0836933B3774A2D
:1038C800136843F001031360FFF7BEFE054605E0E9
:1038D800FFF7BAFE401B022800F22D826F4B1B68CF
:1038E80013F0020FF4D06D4B1A6842F008021A6008
:1038F8001A6822F0F001226A0A431A605A6822F410
:103908007F42E16942EA01225A6013E0634A136880
:1039180023F001031360FFF797FE054605E0FFF764
:1039280093FE401B022800F208825C4B1B6813F0D0
:10393800020FF4D1236813F0010F5ED0574B9B6838
:1039480003F00C03082B0BD0544B9B6803F00C03BB
:103958000C2B0ED1514BDB6803F00303032B08D16A
:103968004E4B1B6813F4003F47D06368002B44D1CB
:10397800E5E16368B3F5803F05D1484A136843F42D
:103988008033136018E0B3F5A02F0CD103F1804306
:10399800A3F53C331A6842F480221A601A6842F48C
:1039A80080321A6008E03D4B1A6822F480321A60AF
:1039B8001A6822F480221A6063687BB1FFF744FE1C
:1039C800054605E0FFF740FE401B642800F2B98178
:1039D800324B1B6813F4003FF4D00EE0FFF734FEBF
:1039E800054605E0FFF730FE401B642800F2AB8176
:1039F8002A4B1B6813F4003FF4D1236813F0020F1D
:103A08005DD0264B9B6803F00C03042B0BD0234B93
:103A18009B6803F00C030C2B17D1204BDB6803F0D9
:103A28000303022B11D11D4B1B6813F4806F03D0C5
:103A3800E368002B00F08981184A536823F0F85393
:103A4800216943EA0163536039E0E368E3B1134A4B
:103A5800136843F480731360FFF7F6FD054605E02D
:103A6800FFF7F2FD401B022800F271810B4B1B6827
:103A780013F4806FF4D0094A536823F0F85321698E
:103A880043EA016353601AE0044A136823F480731D
:103A98001360FFF7D9FD05460CE000BF0010024097
:103AA800B46700080C000020FFF7CEFD401B022879
:103AB80000F24F81B24B1B6813F4806FF4D1236876
:103AC80013F0080F30D06369BBB1AD4AD2F8943017
:103AD80043F00103C2F89430FFF7B6FD054605E050
:103AE800FFF7B2FD401B022800F23581A44BD3F842
:103AF800943013F0020FF3D016E0A14AD2F89430B4
:103B080023F00103C2F89430FFF79EFD054605E057
:103B1800FFF79AFD401B022800F21F81984BD3F84B
:103B2800943013F0020FF3D1236813F0040F7FD001
:103B3800934B9B6D13F0805F0BD1914B9A6D42F0C4
:103B480080529A659B6D03F080530193019B012578
:103B580000E000258B4B1B6813F4807F13D1894A42
:103B6800136843F480731360FFF76EFD064605E0A3
:103B7800FFF76AFD801B022800F2F180814B1B6869
:103B880013F4807FF4D0A368012B07D17C4AD2F8C4
:103B9800903043F00103C2F890301CE0052B0DD1A2
:103BA800774BD3F8902042F00402C3F89020D3F862
:103BB800902042F00102C3F890200CE0704BD3F83B
:103BC800902022F00102C3F89020D3F8902022F030
:103BD8000402C3F89020A36893B1FFF735FD0646A9
:103BE80007E0FFF731FD801B41F28833984200F26D
:103BF800B880634BD3F8903013F0020FF1D011E086
:103C0800FFF722FD064607E0FFF71EFD801B41F285
:103C18008833984200F2A780594BD3F8903013F0BC
:103C2800020FF1D125B1564A936D23F08053936565
:103C3800A36A002B00F09980514A926802F00C02A6
:103C48000C2A00F09480022B43D14D4A136823F0CC
:103C580080731360FFF7F8FC054605E0FFF7F4FCF6
:103C6800401B022800F28580454B1B6813F0007F3B
:103C7800F4D1236B5A1E636B1B0243EA0213A26B37
:103C8800120943EA4242E36A1343E26B5208013ADB
:103C980043EA4253226C5208013A43EA4263384AE3
:103CA800D360136843F080731360D36843F0807364
:103CB800D360FFF7C9FC044604E0FFF7C5FC001B0E
:103CC800022858D82E4B1B6813F0007FF5D000202F
:103CD80054E02B4B1A6822F080721A601B6813F0AC
:103CE800006F09D1264B1B6813F0005F04D1244AEA
:103CF800D36823F00303D360214AD36823F0887381
:103D080023F48033D360FFF79FFC044604E0FFF7F9
:103D18009BFC001B022830D8194B1B6813F0007F4E
:103D2800F5D100202AE001207047012026E001207B
:103D380024E0012022E0032020E003201EE00120EF
:103D48001CE003201AE0032018E0012016E00320FD
:103D580014E0032012E0032010E003200EE003200B
:103D68000CE003200AE0032008E0002006E0012020
:103D780004E0032002E0032000E0032002B070BD4D
:103D88000010024000700040002800F0918070B5DB
:103D980004464F4B1B6803F007038B420AD24C4A78
:103DA800136823F007030B431360136803F007033A
:103DB8008B427FD10D46236813F0010F35D063681D
:103DC800032B05D1434A126812F0007F14D173E027
:103DD800022B05D13F4A126812F4003F0CD16DE066
:103DE8002BB93C4A126812F0020F05D168E0394A33
:103DF800126812F4806F65D036498A6822F003028F
:103E080013438B60FFF720FC064606E0FFF71CFC17
:103E1800801B41F28833984256D82E4B9B6803F09A
:103E28000C036268B3EB820FF0D1236813F0020F22
:103E380006D028498B6823F0F002A36813438B60EF
:103E4800234B1B6803F00703AB420AD9204A1368C7
:103E580023F007032B431360136803F00703AB42F7
:103E680034D1236813F0040F06D01A498B6823F461
:103E7800E062E36813438B60236813F0080F07D0F0
:103E8800144A936823F46053216943EAC103936099
:103E9800FFF728FC0F4B9B68C3F303130E4AD35C50
:103EA800D8400E4B18600020FFF79EFB002070BD25
:103EB80001207047012070BD012070BD012070BD38
:103EC800012070BD012070BD032070BD012070BDB0
:103ED8000020024000100240B46700080C000020D7
:103EE800014B1868704700BF0C00002008B5FFF7A9
:103EF800F7FF044B9B68C3F30223034AD35CD84003
:103F080008BD00BF00100240C467000808B5FFF7ED
:103F1800E7FF044B9B68C3F3C223034AD35CD84032
:103F280008BD00BF00100240C46700082DE9F04139
:103F380082B00023D4E001249C40224000F0CF80CE
:103F48004D68022D01D0122D14D14FEAD30808F183
:103F5800080850F8287003F0070E4FEA8E0E0F2558
:103F680005FA0EF527EA05060D6905FA0EF535433B
:103F780040F8285006684FEA430E032505FA0EF567
:103F8800ED4305EA06074E6806F0030606FA0EF644
:103F98003E4306604E68771E012F03D9112E01D0CB
:103FA800122E11D1866805EA0607CE6806FA0EF6C3
:103FB8003E438660466826EA04074E68C6F3001644
:103FC80006FA0CF63E4346604E6806F00307032FD8
:103FD80008D1C76A27EA0404C6F3C00606FA0CF635
:103FE8002643C662C4682C408D6805FA0EF5254341
:103FF800C5604C6814F0805F71D03E4C256E45F06A
:1040080001052566246E04F001040194019C9C08B6
:10401800A61C394D55F8266003F00307BF000F258D
:10402800BD4026EA0506B0F1904F24D0334DA84292
:104038001FD005F58065A84219D005F58065A8420E
:1040480013D005F58065A8420DD005F58065A84216
:1040580007D005F58065A84201D106250CE00725A3
:104068000AE0052508E0042506E0032504E002250A
:1040780002E0012500E00025BD40354302341E4E14
:1040880046F824501E4C2568D44304EA05064F68B8
:1040980017F4803F01D042EA0506194D2E606D687D
:1040A80004EA05064F6817F4003F01D042EA050606
:1040B800134D6E60AD6804EA05064F6817F4801F5B
:1040C80001D042EA05060E4DAE60ED682C404E6800
:1040D80016F4001F01D042EA0504094AD4600133EE
:1040E8000A689C4632FA03F47FF425AF02B0BDE8B3
:1040F800F08100BF001002400000014000040048A9
:10410800000401400AB1816170478162704700BFB5
:1041180070B4066C446C04F01C050124AC40746057
:10412800046863608368102B04D103689A6003688D
:10413800D96003E0036899600368DA6070BC70476F
:10414800002867D010B403460168354A91420AD85E
:10415800344A0A443449A1FB02121209920042640B
:10416800324A026409E0324A0A442F49A1FB02128A
:104178001209920042642F4A0264022283F8252021
:104188001C68226822F4FF4222F070029868D968FD
:104198000843196908435969084399690843D96963
:1041A8000843196A01430A4322609A68B2F5804FAE
:1041B80028D0196C1D4A914212D11F4908685A6CBF
:1041C80002F01C040F22A24020EA02020A600C68D6
:1041D8005A68586C00F01C00824022430A6011E0C3
:1041E800164908685A6C02F01C040F22A24020EA03
:1041F80002020A600C685A68586C00F01C00824081
:1042080022430A600020D863012283F8252083F81E
:10421800240001E0012070475DF8044B704700BF9F
:1042280007040240F8FFFDBFCDCCCCCC0000024013
:10423800F8FBFDBF00040240A8000240A8040240A9
:1042480038B590F82440012C33D0012480F824405C
:1042580090F82540E4B2012C26D10446022084F8C7
:1042680025000020E0632568286820F00100286008
:104278002046FFF74DFF236B2BB12268136843F0EC
:104288000E03136009E02268136823F00403136027
:104298002268136843F00A0313602268136843F026
:1042A80001031360002038BD002380F82430022069
:1042B80038BD022038BD00BF024B186800F4C0604A
:1042C800704700BF0070004000F00700064AD3683E
:1042D80023F4E0631B041B0C43EA002040F0BF609A
:1042E80040F40030D060704700ED00E030B4164B69
:1042F800DC68C4F30224C4F10705042D28BF042593
:10430800231D062B01D9033C00E00024012303FAF6
:1043180005F5013D2940A140A340013B1A400A434D
:10432800002806DA00F00F001201D2B2074B1A5427
:1043380007E01201D2B200F1604000F5614080F858
:10434800002330BC704700BF00ED00E014ED00E032
:10435800410900F01F0001238340024A42F821303E
:10436800704700BF00E100E00138B0F1807F0AD259
:10437800064B5860F021064A82F823100020986006
:1043880007221A6070470120704700BF10E000E064
:1043980000ED00E0704700BF08B5FFF7FBFF08BD60
:1043A8000F49D1F8883043F47003C1F888300D4BB9
:1043B8001A6842F001021A60002098601A6822F018
:1043C800A85222F410221A604FF48052DA601A6858
:1043D80022F480221A6098614FF000638B60704766
:1043E80000ED00E000100240DFF834D0002103E0C7
:1043F8000C4B5B58435004310B480C4B42189A4203
:10440800F6D30B4A02E0002342F8043B094B9A42D8
:10441800F9D3FFF7C5FF00F011F8FDF7A3FAFEE79F
:10442800008001207869000800000020B00000200A
:10443800B0000020CC400020FEE7000070B50E4B15
:104448000E4CE41AA41000251E46A54204D056F8C6
:10445800253098470135F8E702F060F9084C094B18
:10446800E41AA41000251E46A54204D056F82530AB
:1044780098470135F8E770BD686900086869000861
:104488006C6900086869000802440346934202D038
:1044980003F8011BFAE770472DE9FF4755EC104B6D
:1044A8000D9FDDF830A0002D0E4691461946B8BF85
:1044B80022462B4627F02007BBBF05F100431D46C7
:1044C80000232D23B8BF1446462F0B7003D0452F69
:1044D80003D1013601E0032100E0022102AB009381
:1044E80003AB019345EC104B3246534600F020FDD8
:1044F800472F804602D119F0010F26D0462F08EB2E
:10450800060911D198F80030302B0AD120462946E7
:1045180000220023FCF782FA18B9C6F10106CAF88E
:104528000060DAF80030994420462946002200232A
:10453800FCF774FA08B1CDF80C90039B4B4504D2F4
:104548005A1C039230221A70F7E7039B0E9AC8EBA5
:1045580003034046136004B0BDE8F08773B5034613
:104568000029B8BF494203F8022BB4BF2D222B22E1
:104578000929427019DD0DF1070426460A2291FB2C
:10458800F2F502FB15113031092D04F8011D2946F9
:10459800F4DC3031651E04F8011CB5421A460AD213
:1045A80015F8012B03F8012BF7E730241A462144AC
:1045B80002F8024B5970101A02B070BD2DE9F04F85
:1045C8008BB08B4615461E46149F044601F070FAC0
:1045D800D0F800A0504600F015FC002308933B6873
:1045E8000590073323F0070303F108029BF81880AE
:1045F8003A60D3E90023CBE912239BED120B00F0BC
:10460800B1FB01281BD1DBE9120100220023FCF7D2
:104618000FFA10B12D238BF84330B54BB54FB8F1D5
:10462800470F88BF1F460323CBF81030DBF8003054
:1046380023F00403CBF800304FF000099FE09BED16
:10464800120B00F08FFBDBF8002068B9AA4BAB4FC8
:1046580022F00402B8F1470F88BF1F460323CBF8A6
:104668001030CBF80020E7E7DBF804104F1C9BED77
:10467800120B01D1062309E0B8F1670F02D0B8F197
:10468800470F05D1002940F0C1810123CBF8043040
:1046980007AB8DE8080108AB42F48062029300235F
:1046A8000393CBF800200DF11B032046DBF8041020
:1046B800FFF7F2FE08F0DF03472B07460AD1079BF6
:1046C800D81C03DBDBF80420934237DDA8F102088D
:1046D8005FFA88F8B8F1650F079915D8013942468D
:1046E8000BF150000791FFF739FF089A8318012A48
:1046F8008146CBF8103003DCDBF80020D10738D531
:104708000133CBF8103034E0B8F1660F18D1002926
:10471800DBF8043009DDCBF810101BB9DBF80020FA
:10472800D20721D501330B441CE01BB9DBF800206C
:10473800D00701D5023315E0012313E04FF06708D5
:10474800079B089A934207DBDBF80020CBF8103070
:10475800D10709D5013305E0002BD4BFC3F102030B
:1047680001231344CBF81030079BCBF858304FF097
:1047780000099DF81B3013B12D238BF843300096A8
:104788002046594609AA2B4600F056F9013002D1B5
:104798004FF0FF304CE1DBF800305A0505D42046D5
:1047A80029463A46DBF8103008E1B8F1650F40F2C7
:1047B800D080DBE9120100220023FCF72FF950B367
:1047C800204629464E4A0123B0470130E0D0089BD5
:1047D800079A9A4209DBDBF80030D80705D4DBF8E2
:1047E80000309F0700F1108107E120462946524614
:1047F800059BB0470130CBD00027089B013B9F4267
:10480800EDDA204629460BF11A020123B0470130A0
:10481800BED00137F1E7079B002B29DC204629464B
:10482800374A0123B0470130B2D0079B2BB9089B08
:104838001BB9DBF80030D907D1D5204629465246A6
:10484800059BB0470130A3D04FF00008079B5B429F
:1048580098452046294608DA0BF11A020123B04789
:10486800013095D008F10108F0E73A46089BA5E029
:10487800DBF85820089B9A42A8BF1A46002A91469E
:1048880002DC4FF0000812E0204629463A464B4623
:10489800B0470130F5D17BE7204629460BF11A02D3
:1048A8000123B04701303FF473AF08F10108DBF88A
:1048B8005830B9F1000FACBFC9EB03021A46904556
:1048C800EADB07EB0308079A089B9A421ADBDBF836
:1048D8000030DA0716D4089A1744C8EB0703079F75
:1048E800D21B9342A8BF1346002B1F4612DC18E0C8
:1048F80002680008FE6700080A68000806680008E1
:104908000E680008204629465246059BB0470130EC
:10491800E1D13DE7204629464246B04701303FF401
:1049280037AF4FF000080AE0204629460BF11A027B
:104938000123B04701303FF42BAF08F10108079A73
:10494800089B002FA3EB0203A8BFDB1B9845EBDBFA
:1049580045E7089A012A01DCDB0736D520462946B7
:104968003A460123B04701303FF412AF20462946AA
:104978005246059BB04701303FF40AAFDBE912010C
:1049880000220023FCF74AF8E8B9089B204629468C
:104998007A1C013B1DE0204629460BF11A0201232F
:1049A800B04701303FF4F4AE0137089B013B9F420A
:1049B800F1DB204629460BF150024B46B047013047
:1049C8007FF40DAFE4E60027EFE7204629463A4694
:1049D8000123B0470130ECD1DAE6204629460BF135
:1049E80019020123B04701303FF4D2AE0137DBF89A
:1049F8000C30099A9B1A9F42EFDBDBF80C00099BED
:104A08009842B8BF184613E00027F0E707AB8DE8D7
:104A1800080108AB42F48062029300230393CBF8A9
:104A2800002020460DF11B03FFF736FD074646E63A
:104A38000BB0BDE8F08F00BF2DE9F84391461F4643
:104A48008A680B69DDF820809342B8BF1346C9F81D
:104A5800003091F8432006460C4612B10133C9F8DC
:104A680000302368990642BFD9F800300233C9F8EC
:104A78000030256815F006051CD094F843302268EC
:104A8800003318BF012392061FD5E1185A1C3020A5
:104A980081F84300224494F8451082F84310023309
:104AA80013E03046394604F119020123C0470130AA
:104AB80007D00135E368D9F800209B1A9D42F0DB46
:104AC800DBE74FF0FF30BDE8F8833046394604F1A4
:104AD8004302C0470130F4D02268D9F80050E36897
:104AE80002F00602042A08BF5D1B2269A3680CBFF6
:104AF80025EAE57500259342C4BF9B1AED184FF0CF
:104B08000009A9450ADA3046394604F11A02012398
:104B1800C0470130D5D009F10109F2E70020BDE80E
:104B2800F88300002DE9FF410C461746227E6E2AC5
:104B3800984606460A9B01F1430100F0AF8012D85F
:104B4800632A23D00AD8002A00F0BC80582A40F0F3
:104B5800CB8084F84520DFF804E257E0642A1ED0B1
:104B6800692A1CD0C0E0732A00F0B08009D86F2AE7
:104B78002ED0702A40F0B880226842F020022260CD
:104B88003FE0752A24D0782A3BD0ADE01A68111D81
:104B98001960136884F8423004F14205A8E02068DF
:104BA8001A6810F0800F02D0101D186008E010F08D
:104BB800400F02F10400186002D0B2F9003000E0A2
:104BC8001368002B3EDA2D225B4284F8432039E03B
:104BD80020681A6810F0800F02D0101D186007E0D6
:104BE80010F0400F02F10400186001D0138800E0B3
:104BF8001368227EDFF864E16F2A0CBF08220A22BC
:104C08001CE07822DFF858E184F84520226818680B
:104C180012F0800F00F104051D6003D1550601D57F
:104C2800038800E00368D00744BF42F020022260F6
:104C38001BB9226822F0200222601022002084F88A
:104C4800430002E0DFF814E10A226568A560002D40
:104C5800A2BF206820F00400206003B965B10D46AA
:104C6800B3FBF2F002FB10331EF8033005F8013DE8
:104C780003460028F4D100E00D46082A0BD123682A
:104C8800DA0708D5236962689A42DEBF302305F83F
:104C9800013C05F1FF35491B21612EE025681A68A2
:104CA800606915F0800F03D0151D1D60136808E0BA
:104CB80015F0400F02F104051D60136801D018803B
:104CC80000E01860002323610D4616E01A68111DE4
:104CD8001960156862682846002100F0F5FE08B1E1
:104CE800401B6060636804E004F1420584F84220D8
:104CF80001232361002384F84330CDF80080304637
:104D0800214603AA3B46FFF797FE013002D14FF038
:104D1800FF301FE0304639462A462369C047013034
:104D2800F5D023689B0705D4E068039B9842B8BF79
:104D380018460FE00025E368039A9B1A9D42F3DAB0
:104D48003046394604F119020123C0470130DED04C
:104D58000135F0E704B0BDE8F08100BF1068000835
:104D68002168000853EC102B33F0004210B510EE08
:104D7800100A1BD00F49A3F580148C4210D903F1F7
:104D8800FF430C4903F5E0038B4209D9B2F5801FB4
:104D980008D3094B9A4207D1B0FA80F0400910BDF8
:104DA800042010BD032010BD002010BD0028E6D14E
:104DB800022010BDFFFFDF7F0000F07F0EB400B5BA
:104DC8009CB04FF40271ADF814106FF000410491DB
:104DD80007914FF6FF711DABADF81610084953F84F
:104DE800042B029006900868019302A901F068FA62
:104DF800029B00221A701CB05DF804EB03B07047E8
:104E080070000020034613F8012B002AFBD1181A62
:104E1800013870472DE9F74F03690C69A3428046B2
:104E2800C0F28180013C01F114074FEA840E00F1C1
:104E3800140657F8245006EB0E030193013556F873
:104E48002430B3FBF5F507EB0E09C5B34FF0000AA4
:104E58003846B446D34650F8043B9AB21B0C02FBC2
:104E680005A26B4303EB124392B2C2EB0B02BCF8F0
:104E780000B04FEA134A12FA8BF21FFA83FBDCF8F0
:104E88000030CBEB134303EB224392B242EA0342D6
:104E980048454FEA234B4CF8042BDCD956F80E3022
:104EA8006BB9019B043BB3421A4602D8C8F81040BC
:104EB80005E01268043B002AF8D1013CF3E74046BC
:104EC80001F02FF800282CDB013530464FF0000E9A
:104ED80057F8041BD0F800C08AB2C2EB0E03090CC5
:104EE80013FA8CF3C1EB1C4202EB23429BB243EA58
:104EF80002434F454FEA224E40F8043BE8D956F8A2
:104F0800242006EB840362B9043BB3421A4602D854
:104F1800C8F8104005E01268043B002AF8D1013CAB
:104F2800F3E7284600E0002003B0BDE8F08F00005A
:104F38002DE9F04F456A97B0824608910B9212937B
:104F4800209C8DED000B45B9102000F0B5FDCAF886
:104F58002400456085600560C560DAF8243019686A
:104F680059B15A684A60012393408B60504600F05B
:104F7800FAFDDAF8243000221A60019B9E4A002BC1
:104F8800BFBF01232360019B23F00043B2BF0193FD
:104F980000232360019C24F000431B0D1B05934252
:104FA8001DD1129A42F20F731360009B43B9934AC2
:104FB800934BC4F31300002814BF1846104600E0B2
:104FC8008F48219B002B00F06D85C37813B100F149
:104FD800080300E0C31C219A136000F063BDDDE9FB
:104FE80000890022404649460023FBF717FD054685
:104FF80058B1129A01231360219B002B00F04085C1
:1050080080481860013800F04DBD504649EC108BBF
:1050180015A914AA01F000F8C4F30A56049056B171
:10502800C9F3130343F07F51404641F44011A6F2FF
:10503800FF3613951DE0159B149E1E446FF4826382
:105048009E42ADBF009A704B009A06F21243A3BF6E
:1050580022FA03F06D4B9B1B9B1BAABF9C4002FAD4
:1050680003F02043FBF7FCF90123A1F1F871013E9D
:1050780013930022664BFBF7B5F859A3D3E9002335
:10508800FBF764FA58A3D3E90023FBF7ADF804460D
:1050980030460D46FBF7F4F955A3D3E90023FBF797
:1050A80055FA02460B4620462946FBF79DF804466A
:1050B8000D46FBF7E5FC29468346002220460023DF
:1050C800FBF7B6FC58B15846FBF7DAF902460B462F
:1050D80020462946FBF7A2FC08B90BF1FF3BBBF1C0
:1050E800160F0DD84B4B03EBCB03D3E90001DDE9D9
:1050F8000023FBF7BBFC30B10BF1FF3B002300E0C2
:1051080001230D9300E00D90149B9E1B731E0793C3
:1051180045BF5B420693002300234CBF07930693C9
:10512800BBF1000F07DB079BCDF830B05B4407935A
:105138000023099308E0069BCBEB03030693CBF10E
:105148000003099300230C93089B092B28D8052BEF
:10515800C4BF043B0893089BA3F10203CCBF0025FE
:105168000125032B21D8DFE803F0020E04100023E9
:1051780000E001230A930B9B002B20DC01230393FF
:1051880002931A4619E0002300E001230A930B9BBF
:105198005B4403930133012B0293B8BF012311E051
:1051A8000125002308930A9501E001230A934FF093
:1051B800FF3303930293002212230B9202E00B9B0E
:1051C80003930293DAF8244000226260042101F17B
:1051D80014029A4220D86268013262604900F6E7F8
:1051E80061436F63A787D23FB3C8608B288AC63FE5
:1051F800FB799F501344D33F0000F07F32680008CA
:105208003B6800080F680008EEFBFFFF0EFCFFFF7D
:105218000000F83F486800085046616800F06EFCDE
:10522800DAF8243020601B680593029B0E2B00F2ED
:105238004B81002D00F048819DED007BBBF1000FF4
:105248008DED107B31DDB34A0BF00F034FEA2B17BE
:1052580002EBC303F806D3E900450CD5AE4B51EC7D
:10526800170BD3E90823FBF79BFA07F00F07CDE9E3
:105278000001032600E00226DFF89C8277B1F907D7
:1052880008D520462946D8E90023FBF75FF90136FF
:1052980004460D467F1008F10808EFE7DDE9000134
:1052A80022462B46FBF77CFA1BE0CBF10004DCB16D
:1052B800984B994D04F00F0203EBC203DDE910018E
:1052C800D3E90023FBF742F9241102264CB1E20787
:1052D80004D5D5E900230136FBF738F96410083501
:1052E800F4E7CDE9000100E002260D9BDBB1DDE922
:1052F8000045002220462946884BFBF799FB90B1D0
:10530800029B83B1039B002B40F3DA802946204699
:105318000022834BFBF71AF90BF1FF37CDE90001A7
:105328000136039D01E0029D5F469DED007B3046FE
:105338008DED0E7BFBF7A4F8DDE90E23FBF706F9EC
:105348000022784BFAF750FF8046A1F15079CDB989
:105358000022754BDDE90E01FAF744FF42464B4641
:10536800CDE90001FBF782FB002840F04682424667
:1053780009F10043DDE90001FBF75AFB002840F082
:1053880036829DE0634B0A996A1E03EBC20300292B
:1053980049D0D3E9002300206449FBF701FA4246CB
:1053A8004B46FAF71FFFDDE90E89CDE90001059CA0
:1053B80049464046FBF764FB0646FBF761F80246A0
:1053C8000B4640464946FAF70DFF303604F8016BA4
:1053D800DDE9002380468946FBF72AFB002840F0D8
:1053E800408342464B4600204C49FAF7FBFEDDE974
:1053F8000023FBF71DFB002840F0D380059BE31A30
:10540800AB425DDADDE900010022454BFBF79EF86F
:105418000022CDE90001424B40464946FBF796F889
:1054280080468946C4E7D3E9000142464B46FBF76C
:105438008DF8059BCDE90001DDE90E895C191D4653
:1054480049464046FBF71CFB0646FBF719F8303681
:1054580002460B4640464946FAF7C4FE05F8016B7A
:10546800A5428046894624D10022304BDDE900015F
:10547800FAF7BAFE02460B4640464946FBF7F6FAEB
:10548800002840F08E80DDE9002300202749FAF744
:10549800A9FE02460B4640464946FBF7C9FA78B1D1
:1054A80014F8013C302B04F1FF3240F0DA82144644
:1054B800F6E700221A4BFBF749F880468946BFE712
:1054C800DDE91023CDE90023159B002BC0F28B806A
:1054D800BBF10E0F00F387800E4B03EBCB03D3E930
:1054E80000670B9B002B23DA029B002B20DC40F08B
:1054F8007D81304600220C4B3946FBF727F8DDE961
:105508000023FBF7A9FA029D2E46002840F070817F
:1055180075E100BF48680008106900080000F03F06
:105528000000244000001C40000014400000E03F40
:10553800DDE90089059C32463B4640464946FBF773
:105548002FF9FBF79DFA0546FAF79AFF32463B46D4
:10555800FAF7FCFF0B46024649464046FAF742FE78
:1055680005F1300E059B04F801EBC3EB040E029B1A
:105578009E452BD102460B46FAF736FE32463B468D
:1055880080468946FBF772FA70B94046494632466A
:105598003B46FBF743FA002800F06482EB0703D48C
:1055A80060E2BB4600E01C4614F8012C392A04F1DD
:1055B800FF3307D1059A9342F5D1302313700BF1CD
:1055C800010B13461A7801321A704BE20022A44BE1
:1055D800FAF7BCFF0022002380468946FBF71EFA33
:1055E8000028A8D03EE20A9A002A32D0089A012A56
:1055F8000ADC139A12B103F2334302E0149BC3F19D
:105608003603099D069C18E0029B5D1E099BAB4270
:10561800BFBF099B0995EA1A0C9BB6BF9B185D1B77
:105628000C93029BB8BF0025002BB9BF069B029ABA
:10563800069C029BBCBF9C1A0023069A1A44069239
:10564800079A50461A440121079200F02EFB06469D
:1056580002E0099D069C0A9E64B1079B002B09DDA8
:10566800A342069AA8BF2346D21A0692079AE41ABA
:10567800D31A0793099B002B20DD0A9BC3B1002D89
:1056880010DD31462A46504600F0AAFB0646314650
:10569800049A504600F012FB04990746504600F061
:1056A80062FA0497099B5A1B08D05046049902E0F5
:1056B8000499099A504600F093FB04905046012142
:1056C80000F0F3FA0C9B002B05460ADD29461A4622
:1056D800504600F085FB089B012B054604DD00279A
:1056E8001BE0089B012B13DC009B8BB9019BC3F3C8
:1056F80013037BB9019B23F000473F0D3F0557B1CA
:10570800069B01330693079B01330793012702E0A9
:10571800002700E0009F0C9B43B12B6905EB830336
:10572800186900F075FAC0F1200000E00120079B1D
:10573800184410F01F0008D0C0F12003042B02DD2C
:10574800C0F11C0002E008D018461C30069B034438
:105758000693079B034404440793069B002B05DD2F
:10576800504604991A4600F089FB0490079B002BC9
:1057780005DD294650461A4600F080FB05460D9B7C
:10578800EBB10498294600F0CCFB002817DA002377
:10579800504604990A2200F0FDF90A9B04900BF187
:1057A800FF3B002B00F070813146002350460A224F
:1057B80000F0F0F9039B002B064633DC6DE1029BF9
:1057C800002B26DC089B022B23DD029B0393039B03
:1057D80073B929460522504600F0DCF905462946EA
:1057E800049800F09EFB002809DC01E000252E4605
:1057F8000B9B059C6FEA030B08E0BB462E46059BF6
:10580800059A5C1C312313700BF1010BB14600267D
:1058180014E10A9B23B9029B0393059F049CCCE0E7
:10582800029B0393002C05DD31465046224600F0CA
:1058380025FB0646B7B17168504600F05FF932693A
:105848000232044606F10C0192000C3000F04BF9CC
:1058580050462146012200F011FB814603E000BFBB
:1058680000002440B146059F049C29462046FFF7C6
:10587800D1FA3146069000F13008204600F051FB7D
:105888004A4602902946504600F067FBC268034624
:105898003AB919462046049300F043FB049B02469C
:1058A80000E0012250461946049200F05CF9049A7F
:1058B800A2B9089B93B9009B03F0010373B9B8F12F
:1058C800390F3B46049440D0029B002BC8BF069B6F
:1058D80007F10104C8BF03F131083DE0029B002B2A
:1058E80004DA002AC446049408DC21E024D1089B89
:1058F80013BB009B03F00103F3B9F2E72146012231
:1059080050460297CDF8008000F0B8FA2946049076
:1059180000F007FB0028DDF800C0029B03DC07D17C
:1059280018F0010F04D0B8F1390F0ED008F1010CAE
:105938007C1C87F800C081E0002A07F101020EDD17
:10594800B8F1390F3B46049403D1392201371A7054
:1059580057E0144608F1010887F800806EE0059BBF
:1059680002F8018CD31A1746039A93423AD021467B
:105978000A220023504600F00DF94E4504463146F0
:1059880050464FF00A024FF0000304D100F002F92C
:105998000646814669E700F0FDF8494606460A22B0
:1059A8005046002300F0F6F881465EE7214650464F
:1059B8000A22002300F0EEF8044620462946FFF7A5
:1059C80029FA00F1300807F8018B059B039AFB1AA6
:1059D8009342EBDB059B012AACBF9B180133B14610
:1059E8001F46002621460122504600F047FA294664
:1059F800049000F096FA002803DC16D118F0010F85
:105A080013D03C4614F8013C392B04F1FF3209D17C
:105A1800059B9A4204D10BF1010B3123059A02E050
:105A28001446EFE70133137008E03C4614F8013CD4
:105A3800302B04F1FF3201D11446F7E750462946CE
:105A480000F091F8B9F1000F0CD02EB14E4503D0FB
:105A58005046314600F087F85046494600F083F832
:105A680000E0BB465046049900F07DF80023129AE6
:105A780023700BF101031360219B1BB11C6001E033
:105A88000A480FE005980DE0039B002B3FF7C5AED1
:105A9800089B022B3FF79BAEBFE6089B022B3FF704
:105AA80096AEBFE617B0BDE8F08F00BF0E680008DD
:105AB8000048704774000020024B0146186800F047
:105AC8004FBB00BF7000002010B5C9B2024490421D
