:020000040800F2
:100000000080012009520008595200085952000886
:1000100059520008595200085952000800000000C7
:10002000000000000000000000000000595200081D
:10003000595200080000000059520008452E0008DF
:1000400059520008595200085952000859520008E4
:1000500059520008595200085952000859520008D4
:10006000595200085952000859520008A5170008B3
:1000700059520008595200085952000859520008B4
:100080005952000859520008512E000859520008D0
:100090005952000859520008595200085952000894
:1000A0005952000859520008595200085952000884
:1000B0005952000859520008595200085952000874
:1000C0005952000859520008595200085952000864
:1000D0005952000859520008595200085952000854
:1000E0005952000859520008595200085952000844
:1000F0005952000859520008595200085952000834
:100100005952000859520008595200085952000823
:100110005952000859520008595200085952000813
:100120005952000859520008595200085952000803
:1001300059520008595200085952000859520008F3
:1001400059520008595200085952000859520008E3
:1001500059520008595200085952000859520008D3
:1001600059520008595200085952000859520008C3
:100170005952000859520008595200080000000066
:08018000595200085952000811
:1001880010B5054C237833B9044B13B10448AFF3C9
:1001980000800123237010BDB8000020000000007B
:1001A8003C750008084B10B51BB108480849AFF367
:1001B80000800848036803B910BD074B002BFBD02B
:1001C800BDE81040184700BF000000003C7500085B
:1001D800BC000020B80000200000000081F00041B1
:1001E80002E000BF83F0004330B54FEA41044FEA14
:1001F800430594EA050F08BF90EA020F1FBF54EAAF
:10020800000C55EA020C7FEA645C7FEA655C00F04A
:10021800E2804FEA5454D4EB5555B8BF6D420CDD1B
:100228002C4480EA020281EA030382EA000083EA9E
:10023800010180EA020281EA0303362D88BF30BD3E
:1002480011F0004F4FEA01314FF4801C4CEA113194
:1002580002D0404261EB410113F0004F4FEA0333F3
:100268004CEA133302D0524263EB430394EA050F7E
:1002780000F0A780A4F10104D5F1200E0DDB02FAED
:100288000EFC22FA05F2801841F1000103FA0EF281
:10029800801843FA05F359410EE0A5F120050EF147
:1002A800200E012A03FA0EFC28BF4CF0020C43FA78
:1002B80005F3C01851EBE37101F0004507D54FF085
:1002C800000EDCF1000C7EEB00006EEB0101B1F5D5
:1002D800801F1BD3B1F5001F0CD349085FEA30001B
:1002E8004FEA3C0C04F101044FEA445212F5800F26
:1002F80080F09A80BCF1004F08BF5FEA500C50F1C3
:10030800000041EB045141EA050130BD5FEA4C0CA5
:10031800404141EB010111F4801FA4F10104E9D12E
:1003280091F0000F04BF01460020B1FA81F308BF25
:100338002033A3F10B03B3F120020CDA0C3208DDF1
:1003480002F1140CC2F10C0201FA0CF021FA02F1CC
:100358000CE002F11402D8BFC2F1200C01FA02F13C
:1003680020FA0CFCDCBF41EA0C019040E41AA2BF61
:1003780001EB0451294330BD6FEA04041F3C1CDA29
:100388000C340EDC04F11404C4F1200220FA04F049
:1003980001FA02F340EA030021FA04F345EA0301F3
:1003A80030BDC4F10C04C4F1200220FA02F001FAB5
:1003B80004F340EA0300294630BD21FA04F0294637
:1003C80030BD94F0000F83F4801306BF81F48011D0
:1003D8000134013D4EE77FEA645C18BF7FEA655C43
:1003E80029D094EA050F08BF90EA020F05D054EA15
:1003F800000C04BF1946104630BD91EA030F1EBF1A
:100408000021002030BD5FEA545C05D1400049411D
:1004180028BF41F0004130BD14F580043CBF01F510
:10042800801130BD01F0004545F0FE4141F47001F6
:100438004FF0000030BD7FEA645C1ABF19461046D1
:100448007FEA655C1CBF0B46024650EA013406BFD2
:1004580052EA033591EA030F41F4002130BD00BF91
:1004680090F0000F04BF0021704730B54FF480644E
:1004780004F132044FF000054FF0000150E700BFCF
:1004880090F0000F04BF0021704730B54FF480642E
:1004980004F1320410F0004548BF40424FF000011B
:1004A8003EE700BF42004FEAE2014FEA31014FEA5E
:1004B80002701FBF12F07F4393F07F4F81F06051AD
:1004C800704792F0000F14BF93F07F4F704730B51C
:1004D8004FF4607401F0004521F0004120E700BFAF
:1004E80050EA010208BF704730B54FF000050AE036
:1004F80050EA010208BF704730B511F0004502D537
:10050800404261EB41014FF4806404F132045FEA38
:10051800915C3FF4DCAE4FF003025FEADC0C18BFDD
:1005280003325FEADC0C18BF033202EBDC02C2F1D3
:10053800200300FA03FC20FA02F001FA03FE40EA65
:100548000E0021FA02F11444C1E600BF70B54FF065
:10055800FF0C4CF4E06C1CEA11541DBF1CEA135547
:1005680094EA0C0F95EA0C0F00F0DEF82C4481EAAF
:10057800030621EA4C5123EA4C5350EA013518BFCF
:1005880052EA033541F4801143F4801338D0A0FBBC
:1005980002CE4FF00005E1FB02E506F00042E0FB69
:1005A80003E54FF00006E1FB03569CF0000F18BF6F
:1005B8004EF0010EA4F1FF04B6F5007F64F5407417
:1005C80004D25FEA4E0E6D4146EB060642EAC621AA
:1005D80041EA55514FEAC52040EA5E504FEACE2E17
:1005E800B4F1FD0C88BFBCF5E06F1ED8BEF1004F1A
:1005F80008BF5FEA500E50F1000041EB045170BD96
:1006080006F0004646EA010140EA020081EA0301D9
:10061800B4EB5C04C2BFD4EB0C0541EA045170BDD5
:1006280041F480114FF0000E013C00F3AB8014F14F
:10063800360FDEBF002001F0004170BDC4F1000498
:10064800203C35DA0C341BDC04F11404C4F1200519
:1006580000FA05F320FA04F001FA05F240EA020074
:1006680001F0004221F0004110EBD37021FA04F6AA
:1006780042EB06015EEA430E08BF20EAD37070BD64
:10068800C4F10C04C4F1200500FA04F320FA05F0C3
:1006980001FA04F240EA020001F0004110EBD370C5
:1006A80041F100015EEA430E08BF20EAD37070BD35
:1006B800C4F1200500FA05F24EEA020E20FA04F30E
:1006C80001FA05F243EA020321FA04F001F00041BD
:1006D80021FA04F220EA020000EBD3705EEA430E2E
:1006E80008BF20EAD37070BD94F0000F0FD101F05D
:1006F8000046400041EB010111F4801F08BF013C96
:10070800F7D041EA060195F0000F18BF704703F0D3
:100718000046520043EB030313F4801F08BF013D5A
:10072800F7D043EA0603704794EA0C0F0CEA135516
:1007380018BF95EA0C0F0CD050EA410618BF52EAD0
:100748004306D1D181EA030101F000414FF00000D6
:1007580070BD50EA410606BF1046194652EA4306E4
:1007680019D094EA0C0F02D150EA013613D195EA58
:100778000C0F05D152EA03361CBF104619460AD1A0
:1007880081EA030101F0004141F0FE4141F47001AA
:100798004FF0000070BD41F0FE4141F4780170BD9A
:1007A80070B54FF0FF0C4CF4E06C1CEA11541DBFFF
:1007B8001CEA135594EA0C0F95EA0C0F00F0A7F801
:1007C800A4EB050481EA030E52EA03354FEA01312E
:1007D80000F088804FEA03334FF0805545EA131341
:1007E80043EA12634FEA022245EA111545EA106509
:1007F8004FEA00260EF000419D4208BF964244F1A0
:10080800FD0404F5407402D25B084FEA3202B61ABE
:1008180065EB03055B084FEA32024FF480104FF492
:10082800002CB6EB020E75EB030E22BFB61A754606
:1008380040EA0C005B084FEA3202B6EB020E75EB99
:10084800030E22BFB61A754640EA5C005B084FEA01
:100858003202B6EB020E75EB030E22BFB61A7546CE
:1008680040EA9C005B084FEA3202B6EB020E75EBD9
:10087800030E22BFB61A754640EADC0055EA060E9A
:1008880018D04FEA051545EA16754FEA06164FEADD
:10089800C30343EA52734FEAC2025FEA1C1CC0D189
:1008A80011F4801F0BD141EA00014FF000004FF016
:1008B800004CB6E711F4801F04BF01430020B4F1D7
:1008C800FD0C88BFBCF5E06F3FF6AFAEB5EB030C8F
:1008D80004BFB6EB020C5FEA500C50F1000041EB8C
:1008E800045170BD0EF0004E4EEA113114EB5C0459
:1008F800C2BFD4EB0C0541EA045170BD41F480112C
:100908004FF0000E013C90E645EA060E8DE60CEA33
:10091800135594EA0C0F08BF95EA0C0F3FF43BAF50
:1009280094EA0C0F0AD150EA01347FF434AF95EA07
:100938000C0F7FF425AF104619462CE795EA0C0FEB
:1009480006D152EA03353FF4FDAE1046194622E7B8
:1009580050EA410618BF52EA43067FF4C5AE50EA92
:1009680041047FF40DAF52EA43057FF4EBAE12E782
:100978004FF0FF3C06E000BF4FF0010C02E000BF63
:100988004FF0010C4DF804CD4FEA410C7FEA6C5C46
:100998004FEA430C18BF7FEA6C5C1BD001B050EAE9
:1009A800410C0CBF52EA430C91EA030F02BF90EAD4
:1009B800020F0020704710F1000F91EA030F58BF93
:1009C800994208BF90422CBFD8176FEAE37040F0F5
:1009D800010070474FEA410C7FEA6C5C02D150EA93
:1009E800013C07D14FEA430C7FEA6C5CD6D152EA4E
:1009F800033CD3D05DF8040B704700BF8446104613
:100A080062468C461946634600E000BF01B5FFF711
:100A1800B7FF002848BF10F1000F01BD4DF808EDE1
:100A2800FFF7F4FF0CBF012000205DF808FB00BFB2
:100A38004DF808EDFFF7EAFF34BF012000205DF80C
:100A480008FB00BF4DF808EDFFF7E0FF94BF012059
:100A580000205DF808FB00BF4DF808EDFFF7CEFF5A
:100A680094BF012000205DF808FB00BF4DF808ED99
:100A7800FFF7C4FF34BF012000205DF808FB00BF6A
:100A88004FEA410212F5001215D211D56FF47873AE
:100A9800B3EB625212D94FEAC12343F0004343EA51
:100AA800505311F0004F23FA02F018BF404270472C
:100AB8004FF00000704750EA013005D111F00040B6
:100AC80008BF6FF0004070474FF00000704700BF4C
:100AD8004FEA4102B2F1E04324BFB3F5001CDCF158
:100AE800FE5C0DD901F0004C4FEAC0024CEA507090
:100AF800B2F1004F40EB830008BF20F001007047BF
:100B080011F0804F21D113F13872BCBF01F00040C1
:100B1800704741F480114FEA5252C2F11802C2F1F3
:100B2800200C10FA0CF320FA02F018BF40F0010074
:100B38004FEAC1234FEAD32303FA0CFC40EA0C0026
:100B480023FA02F34FEA4303CCE77FEA625307D163
:100B580050EA01331EBF4FF0FE4040F4400070479A
:100B680001F0004040F0FE4040F40000704700BF34
:100B7800184A936D43F004039365174B1A6822F0E3
:100B880060021A601A6822F010021A605A6822F08D
:100B980070025A605A6842F040025A609A6922F418
:100BA800803222F070029A619A6942F060029A617A
:100BB80007229A6240F2E732DA624FF4FA725A6315
:100BC8001A6A42F001021A621A6842F001021A60B7
:100BD800704700BF001002400008004030B40024F5
:100BE8000DE001EB840550F82430A3F5FF437F3B6B
:100BF80007EE903AFAEEE87AC5ED007A01349442AD
:100C0800EFDB30BC704700BF8B08DFED157A11E0D1
:100C180090ED007AD0ED015A90ED026AD0ED036AAA
:100C280037EE877A77EE257A77EE867A77EEA67AA8
:100C3800013B1030002BEBD101F0030305E090EDF0
:100C4800007A77EE877A013B0430002BF7D107EE64
:100C5800101AB8EE477AC7EE877AC2ED007A704765
:100C68000000000010B51446012902D100231360CA
:100C780010BD8B089FED300AF0EE407A21E0D0EDF0
:100C8800006A77EEA67A66EEA66A36EE800AD0ED9E
:100C9800016A77EEA67A66EEA66A36EE800A90EDCD
:100CA800027A77EE877A27EE077A37EE000A90ED18
:100CB800037A77EE877A27EE077A37EE000A013B48
:100CC8001030002BDBD101F0030309E090ED007A2E
:100CD80077EE877A27EE077A30EE070A013B043071
:100CE800002BF3D107EE101AB8EE477AF7EE006A38
:100CF80077EE666A80EE260AC7EE877A67EEA77AED
:100D080087EE267A67EE877A70EE677AF5EEC07A14
:100D1800F1EE10FA0DDBB1EEE70AB4EE400AF1EE9F
:100D280010FA03D0B0EE670A06F024FB84ED000A3F
:100D380010BD0023236010BD00000000F0B5041DA5
:100D4800D0ED007A4D1EAE08002007462CE0D4ED09
:100D5800006A94ED017AF4EEE67AF1EE10FA02D523
:100D6800471CF0EE667AD4ED026AF4EEC77AF1EE2B
:100D780010FA02D5871CF0EE477A04F1100E94EDB4
:100D8800037AF4EEE67AF1EE10FA02D5C71CF0EE1B
:100D9800667AF4EEC77AF1EE10FA02D5071DF0EE86
:100DA800477A0430013E7446002ED0D105F0030086
:100DB8000CE0251D94ED007AF4EEC77AF1EE10FAF6
:100DC80002D50F1AF0EE477A01382C460028F0D1E8
:100DD800C2ED007A1F60F0BD2DE9F04F9E46099DD7
:100DE800994204D3CB1A05EB830501270DE0CB18F4
:100DF80003F18043023B05EB8305034610461A4680
:100E08000B4671469E464FF0FF370EF1FF36CEEB8C
:100E1800010101F1010C0EF1804A0AF1FF3A02EBDF
:100E28008A0AB14651464FF0010844E04FEA980358
:100E38000446DFEDD67A22E094ED007AD1ED006A1F
:100E480067EE266A76EEA77A94ED017AD1ED016A0B
:100E580067EE266A76EEA77A94ED027AD1ED026AF9
:100E680027EE267A77EE276A94ED037AD1ED037A96
:100E780027EE277A77EE267A013B10311034002BC3
:100E8800DAD108F003030AE094ED007AD1ED006AA4
:100E980027EE267A77EE877A013B04310434002B5B
:100EA800F2D1C5ED007A05EB8705AAEB880108F1B8
:100EB800010809F1FF39B9F1000FB7D1BEF1030FED
:100EC80002D8E046014613E14FEA9C0A01464FF07A
:100ED8000009A1E091ED006AD1ED014A01F10C048D
:100EE80091ED025A4FEA9E0B1146DFEDA87AF0EE1B
:100EF800673AB0EE673AF0EE676A91ED007A94EDE2
:100F0800004A66EE075A75EEA65A64EE872A32EE54
:100F1800833A65EE072A72EEA33A24EE077A77EE53
:100F2800277AD1ED016A94ED016A64EEA64A74EE5F
:100F3800A55A25EE267A37EE033A24EE267A77EE7E
:100F4800233A66EE266A76EEA77A91ED027AD4ED18
:100F5800024A25EE075A75EE255A64EE076A36EE00
:100F6800833A66EE076A76EEA33A24EE877A37EE7E
:100F7800277A01F11008D1ED037A04F1100394EDFA
:100F8800035A64EE276A76EEA56A66EE275A35EEAE
:100F9800833A64EEA75A75EEA33A65EE277A77EEA0
:100FA800877A1C464146BBF1010BA6D10EF003011E
:100FB8001DE098ED007AD3ED005A26EE076A76EE2A
:100FC800866A24EE876A33EE063A25EE076A73EEE0
:100FD800863A25EE877A77EE877A0139B0EE646A29
:100FE800F0EE454AB0EE655A08F1040804330029CA
:100FF800DFD1C5ED006ABB001D4485ED003A1D44F4
:10100800C5ED003A1D44C5ED007A1D4409F10409F7
:1010180000EB89010AF1FF3ABAF1000F7FF45AAFE9
:101028000CF0030844E04FEA9E031446DFED577ABC
:1010380022E091ED007AD4ED006A67EE266A76EE3A
:10104800A77A91ED017AD4ED016A27EE267A77EE38
:10105800277A91ED027AD4ED026A27EE267A77EEA6
:10106800276A91ED037AD4ED037A67EE277A77EE53
:10107800A67A013B10341031002BDAD10EF00303AD
:101088000AE091ED007AD4ED006A27EE267A77EE31
:10109800877A013B04340431002BF2D1C5ED007A84
:1010A80005EB870509F1010900EB890108F1FF3813
:1010B800B8F1000FB7D11EE0D1ED007AD4ED006A87
:1010C80067EEA67A37EE277A013B0434043103E051
:1010D800734614469FED2D7A002BEDD185ED007AED
:1010E80005EB870509F1010900EB890108F1FF38D3
:1010F800B8F1000FECD100EB8C0C344642E0B0089C
:1011080011466346DFED217A22E093ED007AD1EDB6
:10111800006A67EE266A76EEA77A93ED017AD1ED3A
:10112800016A67EE266A76EEA77A93ED027AD1ED28
:10113800026A27EE267A77EE276A93ED037AD1EDD5
:10114800037A27EE277A77EE267A013810311033A2
:101158000028DAD106F003000AE093ED007AD1ED19
:10116800006A27EE267A77EE877A0138043104334D
:101178000028F2D1C5ED007A05EB87050CF1040CC7
:10118800013E013C002CBAD1BDE8F08F0000000000
:101198002DE9F04786B002AF0E4690464FEA410A65
:1011A800CB000833ADEB030D02AD89468B000A3343
:1011B80023F00703ADEB030D02AC009502460B4686
:1011C800FFF70AFE2846514607F10802FFF71CFD03
:1011D80000230AE005EB8302D2ED007A97ED027A4C
:1011E80077EEC77AC2ED007A01335345F2D3284629
:1011F80051463A4607F10C03FFF7A0FD00230AE029
:1012080005EB8302D2ED007A97ED007AC7EE877A74
:10121800C2ED007A01335345F2D3002208E0FB689F
:10122800134405EB8303196804EB82031960013248
:101238004A45F4D32046314607F10802FFF7E4FC9B
:10124800204631463A1DFFF70DFD002313E004EB5D
:10125800830292ED007AD7ED017A77EEA77AD7ED7F
:10126800026A77EEA67AB4EEE77AF1EE10FA01D5C3
:101278000021116001334B45E9D3012316E004EB4B
:10128800830292ED007A52ED017A77EE677AF5EEF5
:10129800C07AF1EE10FA08DDD2ED017A77EEC77A5E
:1012A800F5EEC07AF1EE10FA04D40133721E9A42B8
:1012B800E5D8012307EE903AF8EE677A9FED047AB5
:1012C800C7EE277AC8ED007A1037BD46BDE8F0872B
:1012D80000401C4600B587B006AB03F8010D00932B
:1012E800012301930A22029203487821002202F086
:1012F800BDFF07B05DF804FB10250020002306E0C1
:1013080008B9002100E0FF21034AD1540133B3F5A5
:10131800806FF5D3704700BFD400002010B584B0AB
:1013280000241AE0A4F15000C0B2FFF7D3FF002058
:10133800FFF7D0FF1020FFF7CDFF0A4B03EBC413D4
:101348000093802301936423029307487821402265
:10135800012302F08BFF0134E4B2072CE2D904B078
:1013680010BD00BFD40000201025002008B564205F
:1013780002F0E0FDAE20FFF7ADFF2020FFF7AAFF47
:101388001020FFF7A7FFB020FFF7A4FFC820FFF742
:10139800A1FF0020FFF79EFF1020FFF79BFF4020D2
:1013A800FFF798FF8120FFF795FFFF20FFF792FFD7
:1013B800A120FFF78FFFA620FFF78CFFA820FFF7DB
:1013C80089FF3F20FFF786FFA420FFF783FFD32084
:1013D800FFF780FF0020FFF77DFFD520FFF77AFF9A
:1013E800F020FFF777FFD920FFF774FF2220FFF7DF
:1013F80071FFDA20FFF76EFF1220FFF76BFFDB208B
:10140800FFF768FF2020FFF765FF8D20FFF762FFD9
:101418001420FFF75FFFAF20FFF75CFF0020FFF706
:101428006DFFFFF77BFF034B00221A805A800120D3
:10143800587108BDD404002010F0800F21D13F2935
:101448001FD8104B1B7913B1B2FA82F25209012A44
:101458000BD1CB0800EBC31001F0070101238B402F
:10146800094A115C0B4313547047CB0800EBC310B7
:1014780001F0070101238B4003490A5C22EA0303B8
:101488000B547047D4040020D40000202DE9F04FFD
:1014980083B002AC04E90600244A12889DF8006073
:1014A80032447F2A3CDC214A52889DF801A0D34669
:1014B80052443F2A36DC98468146002528E0A9F1A7
:1014C800200303FB0B53019A32F8137000241CE02D
:1014D80007FA04F313F4004F0AD0144B18885988FC
:1014E80020442944C0B2C9B24246FFF7A5FF0BE029
:1014F8000E4B1888598820442944C0B2C9B2B8FA9A
:1015080088F25209FFF798FF0134A642E0D8013566
:10151800AA45D4D8054A13881E441680484602E0D6
:10152800002000E0002003B0BDE8F08FD4040020C4
:1015380030B583B0044602A800E906001D460AE05B
:10154800184602AB13E906002B46FFF79FFF2378E6
:10155800984203D101342378002BF1D1184603B007
:1015680030BD00BF014B188059807047D40400205B
:1015780000B597B000211191129113911491159112
:101588006846442203F08CFE102300930122069241
:101598008023089302230A930B920C9314220D9232
:1015A800109307230E9305230F93684603F052F810
:1015B80000B1FEE70F231193032312930023139323
:1015C8001493159311A8042103F016FB00B1FEE74C
:1015D80017B05DF804FB00BF704700BF2E4A936C3C
:1015E80043F0010393642D4B1A6822F001021A603C
:1015F8001A6822F480421A601A6822F440521A606B
:101608001A6842F400521A601A6822F440721A608A
:101618001A6842F480721A601A6822F440621A60EA
:101628001A6842F480621A601A6822F040021A604E
:101638001A6822F080021A601A6842F080021A6062
:101648001A6842F020021A601A6822F010021A6022
:101658005860134A9A60134A1268DA601A6842F0AE
:1016680002021A601A6822F004021A601A6842F02C
:1016780004021A600C4A002182F80B134FF400612F
:1016880011600A490A6822F00F020A601A6842F0DB
:1016980001021A60704700BF0010024008000240B3
:1016A800400004500C00002000E100E0A8000240C7
:1016B80010B5ADF6A87D00230DF6A472136002F0F4
:1016C80019FCFFF755FF00F0A3F800F0CBF84FF432
:1016D8007A70FFF783FF00F00BF9FFF749FA01F082
:1016E80051FB284801F096FC2748284B19684FF40D
:1016F8007A7202F09DFAFFF739FE4FF47A7002F021
:1017080019FC0120FFF7FAFDFFF708FE4FF47A7085
:1017180002F010FC28200146FFF724FF1C4B1D484F
:1017280093E806000023FFF703FFFFF7F7FD002407
:10173800194B1B68002BFBD0144B186801A94FF4F8
:101748007A72FFF74BFA01A84FF47A710DF6A4727A
:10175800FFF71EFDB6EE000A0DF6A473D3ED007A6E
:1017680027EE800A83ED000A00220B4B1A60032C37
:1017780002D100F071F90024013400230DF6A4729F
:101788001360D5E72C240020602400200C000020E2
:1017980000000020DC820008DC040020144B1B68D9
:1017A80013F0020F1DD0124A536843F0020353602E
:1017B800104B1A68104B9A4206D1104A0D4B1A600A
:1017C8000D4A0F4B1A6005E00B4A0A4B1A600B4A88
:1017D8000B4B1A60074B1A680A4BDA6001220A4B56
:1017E8001A60034A536843F00D035360704700BF03
:1017F80000000240080000208C140020EC040020A7
:101808000C00002008000240DC040020FEE700BFB6
:1018180084B0134BDA6C42F00402DA64DA6C02F03A
:1018280004020092009ADA6C42F08002DA64DA6C00
:1018380002F080020192019ADA6C42F00102DA6445
:10184800DA6C02F001020292029ADA6C42F00202A9
:10185800DA64DB6C03F002030393039B04B0704764
:101868000010024008B50A480A4B03600023436091
:101878000822C26043610361302282618360C361D0
:1018880001F032FB18B104484121FFF7BFFF08BD42
:101898002C24002000780040F08200080268134BD6
:1018A8009A4221D130B587B003F5CC339A6D42F016
:1018B80080429A659B6D03F080430093009B03244C
:1018C80001940294002503954FF0904001A903F07C
:1018D8003FFA08230193029403954FF0904001A921
:1018E80003F036FA07B030BD704700BF00780040FB
:1018F80000B58BB02448254B03604FF40033436098
:10190800002383602022C260036104224261836154
:10191800C36101220262436282624FF4E061C162E4
:101928004FF48061016342634FF480528263C36362
:1019380001F08CFB18B116484F21FFF767FF0AA981
:10194800002341F80C3D104802F01CFA18B1104869
:101958005721FFF75BFF0F4B0193062302930523E3
:1019680003937F23049304230593002306930648D7
:1019780001A901F0ABFE18B105486421FFF746FF45
:101988000BB05DF804FB00BF602400200000045089
:10199800FC8200080001802102682A4B9A424FD13C
:1019A80030B587B0044603F17043A3F5F833DA6C19
:1019B80042F40052DA64DA6C02F400520092009A9F
:1019C800D3F8882042F04052C3F8882008230193B6
:1019D8000B230293002503954FF0904001A903F0D3
:1019E800B7F91948194B036045608560C5608023C5
:1019F80003614FF4007343614FF400638361202354
:101A0800C3614FF40053036203F0A6FA18B11048FB
:101A18008B21FFF7FBFE0C4B23659C620B200021FA
:101A28000A4603F06FFB0B2003F09EFB12200021F7
:101A38000A4603F067FB122003F096FB07B030BD9F
:101A4800704700BF00000450C8240020080002406E
:101A5800FC8200080000000030B52DED028B95B027
:101A6800B0EE408AB04A0AAB92E8030083E803006C
:101A780000230C930D930E930F93109311931293CD
:101A880013938DE80300029303930493059306933D
:101A980007930893099310EE100AFEF703FD044616
:101AA8000D468DA3D3E90023FEF7D6FF88B3204661
:101AB80029468BA3D3E90023FEF7C4FF48B39B4B09
:101AC8001B68ADF828301B0C8DF82A3068469849F9
:101AD80022462B4604F07EF828200146FFF742FDF7
:101AE800944C0AA894E806000023FFF721FD28205B
:101AF8000F21FFF737FD684694E806000023FFF73B
:101B080017FDFFF70BFC4FF4FA7002F013FA01F01F
:101B180007B92046294674A3D3E90023FEF79CFFA2
:101B280088B32046294672A3D3E90023FEF78AFF2B
:101B380048B3814B1B68ADF828301B0C8DF82A3050
:101B480068467E4922462B4604F044F82820014680
:101B5800FFF708FD774C0AA894E806000023FFF772
:101B6800E7FC28200F21FFF7FDFC684694E80600F3
:101B78000023FFF7DDFCFFF7D1FB4FF4FA7002F00A
:101B8800D9F901F0CDB8204629465BA3D3E9002353
:101B9800FEF762FF60B32046294659A3D3E9002324
:101BA800FEF750FF20B3664B0A9368466349224606
:101BB8002B4604F00FF828200146FFF7D3FC5D4CB4
:101BC8000AA894E806000023FFF7B2FC28200F219A
:101BD800FFF7C8FC684694E806000023FFF7A8FC56
:101BE800FFF79CFB4FF4FA7002F0A4F901F098B8E3
:101BF8002046294644A3D3E90023FEF72DFF88B3E6
:101C08002046294642A3D3E90023FEF71BFF48B329
:101C18004C4B1B68ADF828301B0C8DF82A306846F1
:101C2800464922462B4603F0D5FF28200146FFF7F8
:101C380099FC404C0AA894E806000023FFF778FCBA
:101C480028200F21FFF78EFC684694E80600002341
:101C5800FFF76EFCFFF762FB4FF4FA7002F06AF9C7
:101C680001F05EB8204629462BA3D3E90023FEF7EE
:101C7800E9FE00286AD02046294629A3D3E9002393
:101C8800FEF7EAFE002861D02F4B0A9368462B49DD
:101C980022462B4603F09EFF28200146FFF762FCF0
:101CA800244C0AA894E806000023FFF741FC2820EA
:101CB8000F21FFF757FC684694E806000023FFF75A
:101CC80037FCFFF72BFB4FF4FA7002F033F901F001
:101CD80027B800BFAFF300803D0AD7A370FD4D4081
:101CE8006666666666C64F4048E17A14AEC74F40DE
:101CF80085EB51B81ED55040F6285C8FC2D55040B0
:101D080085EB51B81ED55140F6285C8FC2D551409D
:101D180052B81E85EBE15240F6285C8FC22554402C
:101D280014AE47E17AE45240587500080883000869
:101D38000C830008000000201483000818830008A2
:101D4800446232002083000845623200204629465A
:101D5800E4A3D3E90023FEF775FE88B3204629469D
:101D6800E2A3D3E90023FEF777FE48B3D44B1B6800
:101D7800ADF828301B0C8DF82A306846D149224628
:101D88002B4603F027FF28200146FFF7EBFBCE4C3C
:101D98000AA894E806000023FFF7CAFB28200F21B1
:101DA800FFF7E0FB684694E806000023FFF7C0FB56
:101DB800FFF7B4FA4FF4FA7002F0BCF800F0B0BFC5
:101DC80020462946A6A3D3E90023FEF73BFE88B3A5
:101DD80020462946A4A3D3E90023FEF73DFE48B3D5
:101DE800BA4B1B68ADF828301B0C8DF82A306846B2
:101DF800B44922462B4603F0EDFE28200146FFF7A2
:101E0800B1FBB14C0AA894E806000023FFF790FB49
:101E180028200F21FFF7A6FB684694E80600002358
:101E2800FFF786FBFFF77AFA4FF4FA7002F082F8B0
:101E380000F076BF204629468DA3D3E90023FEF79C
:101E480001FE60B3204629468BA3D3E90023FEF7A1
:101E580003FE20B39E4B0A9368469A4922462B46B6
:101E680003F0B8FE28200146FFF77CFB964C0AA831
:101E780094E806000023FFF75BFB28200F21FFF7FB
:101E880071FB684694E806000023FFF751FBFFF753
:101E980045FA4FF4FA7002F04DF800F041BF2046C1
:101EA800294677A3D3E90023FEF7CCFD88B3204663
:101EB800294675A3D3E90023FEF7CEFD48B3854B29
:101EC8001B68ADF828301B0C8DF82A3068467D4910
:101ED80022462B4603F07EFE28200146FFF742FBF0
:101EE800794C0AA894E806000023FFF721FB282074
:101EF8000F21FFF737FB684694E806000023FFF739
:101F080017FBFFF70BFA4FF4FA7002F013F800F022
:101F180007BF204629465EA3D3E90023FEF792FDBA
:101F280060B3204629465CA3D3E90023FEF794FD5D
:101F380020B3694B0A936846624922462B4603F050
:101F480049FE28200146FFF70DFB5F4C0AA894E8DC
:101F580006000023FFF7ECFA28200F21FFF702FB09
:101F6800684694E806000023FFF7E2FAFFF7D6F97F
:101F78004FF4FA7001F0DEFF00F0D2BE2046294689
:101F880047A3D3E90023FEF75DFD88B32046294621
:101F980045A3D3E90023FEF75FFD48B34F4B1B6809
:101FA800ADF828301B0C8DF82A3068464549224682
:101FB8002B4603F00FFE28200146FFF7D3FA424CC8
:101FC8000AA894E806000023FFF7B2FA28200F2198
:101FD800FFF7C8FA684694E806000023FFF7A8FA56
:101FE800FFF79CF94FF4FA7001F0A4FF00F098BED7
:101FF800204629462EA3D3E90023FEF723FD002817
:1020080078D0204629462CA3D3E90023FEF724FDE7
:1020180000286FD0324B0A9368462A4922462B463D
:1020280003F0D8FD28200146FFF79CFA264C0AA8A1
:1020380094E806000023FFF77BFA28200F21FFF71A
:1020480091FA684694E806000023FFF771FAFFF753
:1020580065F94FF4FA7001F06DFF00F061BE00BF42
:1020680048E17A14AE77564014AE47E17A345540C9
:102078003D0AD7A370CD5740B81E85EB517856401E
:1020880048E17A14AE375940AE47E17A14CE57404A
:102098001D5A643BDFB75A40B81E85EB513859408A
:1020A800AE47E17A144E5C40B81E85EB51B85A40F1
:1020B800FA7E6ABC74FB5D409A99999999B95A401D
:1020C80024830008188300080000002028830008E3
:1020D800476232002C8300084162320030830008D6
:1020E80042623200DBF97E6ABC345540A4703D0A76
:1020F800D703544020462946ABA3D3E90023FEF773
:10210800A1FC88B320462946BFA3D3E90023FEF7E4
:10211800A3FC48B3B44B1B68ADF828301B0C8DF8F2
:102128002A306846B14922462B4603F053FD282041
:102138000146FFF717FAAE4C0AA894E806000023F8
:10214800FFF7F6F928200F21FFF70CFA684694E804
:1021580006000023FFF7ECF9FFF7E0F84FF4FA70F8
:1021680001F0E8FE00F0DCBD204629468CA3D3E947
:102178000023FEF767FC88B3204629468AA3D3E9E3
:102188000023FEF769FC48B39A4B1B68ADF828306A
:102198001B0C8DF82A306846944922462B4603F0DA
:1021A80019FD28200146FFF7DDF9914C0AA894E8AB
:1021B80006000023FFF7BCF928200F21FFF7D2F90A
:1021C800684694E806000023FFF7B2F9FFF7A6F87F
:1021D8004FF4FA7001F0AEFE00F0A2BD2046294689
:1021E80073A3D3E90023FEF72DFC60B320462946EC
:1021F80071A3D3E90023FEF72FFC20B37E4B0A938B
:1022080068467A4922462B4603F0E4FC282001461A
:10221800FFF7A8F9764C0AA894E806000023FFF710
:1022280087F928200F21FFF79DF9684694E80600F2
:102238000023FFF77DF9FFF771F84FF4FA7001F00A
:1022480079FE00F06DBD204629465DA3D3E9002341
:10225800FEF7F8FB88B32046294655A3D3E90023A7
:10226800FEF7FAFB48B3654B1B68ADF828301B0C2A
:102278008DF82A3068465D4922462B4603F0AAFCB1
:1022880028200146FFF76EF9594C0AA894E8060081
:102298000023FFF74DF928200F21FFF763F968465F
:1022A80094E806000023FFF743F9FFF737F84FF4E7
:1022B800FA7001F03FFE00F033BD2046294642A3E4
:1022C800D3E90023FEF7BEFB60B32046294640A3AE
:1022D800D3E90023FEF7C0FB20B3494B0A936846B5
:1022E800424922462B4603F075FC28200146FFF799
:1022F80039F93F4C0AA894E806000023FFF718F9BB
:1023080028200F21FFF72EF9684694E806000023DD
:10231800FFF70EF9FFF702F84FF4FA7001F00AFE22
:1023280000F0FEBC204629462BA3D3E90023FEF784
:1023380089FB00286CD02046294629A3D3E900232D
:10234800FEF78AFB002863D02E4B1B68ADF82830B7
:102358001B0C8DF82A306846244922462B4603F088
:1023680039FC28200146FFF7FDF8214C0AA894E81B
:1023780006000023FFF7DCF828200F21FFF7F2F80A
:10238800684694E806000023FFF7D2F8FEF7C6FF78
:102398004FF4FA7001F0CEFD00F0C2BCAFF300803C
:1023A80014AE47E17AD4604085EB51B81EC55F4052
:1023B800CDCCCCCCCCD46140CDCCCCCCCCD4604032
:1023C8005C8FC2F528E46240EC51B81E8503644076
:1023D80014AE47E17AE4624014AE47E17A346540CE
:1023E800A4703D0AD70364403483000818830008AA
:1023F8000000002038830008446233003C83000852
:102408004562330040830008EC51B81E85FB5D40EF
:1024180020462946C2A3D3E90023FEF713FB88B35D
:1024280020462946D9A3D3E90023FEF715FB48B374
:10243800CD4B1B68ADF828301B0C8DF82A30684648
:10244800CA4922462B4603F0C5FB28200146FFF760
:1024580089F8C74C0AA894E806000023FFF768F833
:1024680028200F21FFF77EF8684694E8060000232D
:10247800FFF75EF8FEF752FF4FF4FA7001F05AFDCD
:1024880000F04EBC20462946A3A3D3E90023FEF75B
:10249800D9FA60B320462946A1A3D3E90023FEF761
:1024A800DBFA20B3B34B0A936846B04922462B4661
:1024B80003F090FB28200146FFF754F8AC4C0AA81B
:1024C80094E806000023FFF733F828200F21FFF7D0
:1024D80049F8684694E806000023FFF729F8FEF754
:1024E8001DFF4FF4FA7001F025FD00F019BC2046DD
:1024F80029468DA3D3E90023FEF7A4FA80B320462A
:10250800294685A3D3E90023FEF7A6FA40B39A4BE0
:102518001B68ADF828301B0C8DF82A3068469349A3
:1025280022462B4603F056FB28200146FFF71AF8EF
:102538008F4C0AA894E806000023FEF7F9FF28202C
:102548000F21FFF70FF8684694E806000023FEF70E
:10255800EFFFFEF7E3FE4FF4FA7001F0EBFCDFE368
:102568002046294672A3D3E90023FEF76BFA58B335
:102578002046294670A3D3E90023FEF76DFA18B365
:102588007E4B0A936846794922462B4603F022FB84
:1025980028200146FEF7E6FF754C0AA894E80600D5
:1025A8000023FEF7C5FF28200F21FEF7DBFF684652
:1025B80094E806000023FEF7BBFFFEF7AFFE4FF4DA
:1025C800FA7001F0B7FCABE3204629465AA3D3E9D9
:1025D8000023FEF737FA80B32046294658A3D3E9EB
:1025E8000023FEF739FA40B3654B1B68ADF8283075
:1025F8001B0C8DF82A3068465C4922462B4603F0AE
:10260800E9FA28200146FEF7ADFF594C0AA894E8DC
:1026180006000023FEF78CFF28200F21FEF7A2FFFB
:10262800684694E806000023FEF782FFFEF776FE70
:102638004FF4FA7001F07EFC72E32046294642A36B
:10264800D3E90023FEF7FEF958B32046294640A3F4
:10265800D3E90023FEF700FA18B34A4B0A936846F9
:10266800424922462B4603F0B5FA28200146FEF7D8
:1026780079FF3F4C0AA894E806000023FEF758FFAC
:1026880028200F21FEF76EFF684694E80600002315
:10269800FEF74EFFFEF742FE4FF4FA7001F04AFCD7
:1026A8003EE3204629462CA3D3E90023FEF7CAF9C6
:1026B80000286FD02046294629A3D3E90023FEF736
:1026C800CBF9002866D0304B1B68ADF828301B0CBE
:1026D8008DF82A306846254922462B4603F07AFAB7
:1026E80028200146FEF73EFF214C0AA894E8060080
:1026F8000023FEF71DFF28200F21FEF733FF684651
:1027080094E806000023FEF713FFFEF707FE4FF4D8
:10271800FA7001F00FFC03E33D0AD7A370CD6740C0
:10272800B81E85EB51986640B81E85EB5138694054
:102738008FC2F5285CB76A4066666666664E6C406E
:1027480048E17A14AEB76A4085EB51B81EFD6D407A
:102758001F85EB51B84E6C40F6285C8FC2C56F40A0
:102768003D0AD7A370FD6D40448300081883000814
:1027780000000020476233004883000841623300AC
:102788004C8300084262330050830008CDCCCCCC87
:10279800CC34654020462946C1A3D3E90023FEF77F
:1027A80051F980B320462946DBA3D3E90023FEF77D
:1027B80053F940B3CE4B1B68ADF828301B0C8DF88D
:1027C8002A306846CB4922462B4603F003FA2820D4
:1027D8000146FEF7C7FEC84C0AA894E80600002385
:1027E800FEF7A6FE28200F21FEF7BCFE684694E8F7
:1027F80006000023FEF79CFEFEF790FD4FF4FA70EA
:1028080001F098FB8CE220462946A3A3D3E90023D4
:10281800FEF718F958B320462946A1A3D3E90023A7
:10282800FEF71AF918B3B54B0A936846B149224620
:102838002B4603F0CFF928200146FEF793FEAE4C55
:102848000AA894E806000023FEF772FE28200F214C
:10285800FEF788FE684694E806000023FEF768FE47
:10286800FEF75CFD4FF4FA7001F064FB58E2204675
:1028780029468DA3D3E90023FEF7E4F880B3204668
:1028880029468BA3D3E90023FEF7E6F840B39C4B17
:102898001B68ADF828301B0C8DF82A30684695491E
:1028A80022462B4603F096F928200146FEF75AFEE9
:1028B800914C0AA894E806000023FEF739FE282068
:1028C8000F21FEF74FFE684694E806000023FEF746
:1028D8002FFEFEF723FD4FF4FA7001F02BFB1FE2E9
:1028E800DFED887AB4EEE78AF1EE10FA2BD82046AD
:1028F800294671A3D3E90023FEF7AEF818B3824B3B
:102908000A9368467B4922462B4603F063F9282040
:102918000146FEF727FE784C0AA894E80600002333
:10292800FEF706FE28200F21FEF71CFE684694E8F5
:1029380006000023FEF7FCFDFEF7F0FC4FF4FA70EA
:1029480001F0F8FAECE1204629465DA3D3E900231B
:10295800FEF778F880B3204629465BA3D3E9002325
:10296800FEF77AF840B3694B1B68ADF828301B0CAA
:102978008DF82A3068465F4922462B4603F02AF92B
:1029880028200146FEF7EEFD5B4C0AA894E80600F5
:102998000023FEF7CDFD28200F21FEF7E3FD684652
:1029A80094E806000023FEF7C3FDFEF7B7FC4FF4DA
:1029B800FA7001F0BFFAB3E12046294644A3D3E9EF
:1029C8000023FEF73FF880B32046294642A3D3E907
:1029D8000023FEF741F840B34D4B1B68ADF8283093
:1029E8001B0C8DF82A306846424922462B4603F0D4
:1029F800F1F828200146FEF7B5FD3F4C0AA894E8F7
:102A080006000023FEF794FD28200F21FEF7AAFDFB
:102A1800684694E806000023FEF78AFDFEF77EFC70
:102A28004FF4FA7001F086FA7AE1204629462CA381
:102A3800D3E90023FEF706F8002871D0204629467E
:102A480029A3D3E90023FEF707F8002868D0314B03
:102A58000A936846274922462B4603F0BBF82820EC
:102A68000146FEF77FFD244C0AA894E806000023DF
:102A7800FEF75EFD28200F21FEF774FD684694E8F6
:102A880006000023FEF754FDFEF748FC4FF4FA70E9
:102A980001F050FA44E100BFCDCCCCCCCCD471408D
:102AA800713D0AD7A3D470405C8FC2F528E4724008
:102AB800295C8FC2F5D47140B81E85EB51847840EB
:102AC800713D0AD7A33475405C8FC2F52804744061
:102AD8008FC2F5285C777640CDCCCCCCCC34754011
:102AE800E17A14AE47CD7740EC51B81E8577764031
:102AF8005483000818830008000000204462340052
:102B0800588300080020A043456234005C83000815
:102B18006083000847623400AE47E17A14C66F400C
:102B28002046294693A3D3E90023FDF78BFF80B302
:102B38002046294691A3D3E90023FDF78DFF40B332
:102B4800834B1B68ADF828301B0C8DF82A3068467B
:102B5800804922462B4603F03DF828200146FEF71F
:102B680001FD7D4C0AA894E806000023FEF7E0FC6E
:102B780028200F21FEF7F6FC684694E8060000239B
:102B8800FEF7D6FCFEF7CAFB4FF4FA7001F0D2F953
:102B9800C6E0DFED727AB4EEE78AF1EE10FA2BDBCD
:102BA8002046294660A3D3E90023FDF74BFF18B35D
:102BB8006B4B0A9368466B4922462B4603F00AF88A
:102BC80028200146FEF7CEFC634C0AA894E80600CC
:102BD8000023FEF7ADFC28200F21FEF7C3FC684652
:102BE80094E806000023FEF7A3FCFEF797FB4FF4DA
:102BF800FA7001F09FF993E0204629464CA3D3E9E7
:102C08000023FDF71FFF80B3204629464AA3D3E9D6
:102C18000023FDF721FF40B3534B1B68ADF8283064
:102C28001B0C8DF82A3068464E4922462B4602F086
:102C3800D1FF28200146FEF795FC474C0AA894E8E6
:102C480006000023FEF774FC28200F21FEF78AFCFB
:102C5800684694E806000023FEF76AFCFEF75EFB70
:102C68004FF4FA7001F066F95AE02046294634A379
:102C7800D3E90023FDF7E6FE58B32046294632A3E0
:102C8800D3E90023FDF7E8FE18B3384B0A936846EA
:102C9800344922462B4602F09DFF28200146FEF7C4
:102CA80061FC2D4C0AA894E806000023FEF740FCBE
:102CB80028200F21FEF756FC684694E806000023FA
:102CC800FEF736FCFEF72AFB4FF4FA7001F032F9F2
:102CD80026E0274B93E803000A908DF82C106846ED
:102CE800204922462B4602F075FF28200146FEF7B0
:102CF80039FC194C0AA894E806000023FEF718FCD2
:102D080028200F21FEF72EFC684694E806000023D1
:102D1800FEF70EFCFEF702FB4FF4FA7001F00AF919
:102D280015B0BDEC028B30BD295C8FC2F5B87A4076
:102D38000AD7A3703D4E7C4085EB51B81EB97A4046
:102D480085EB51B81EFD7D4066666666664E7C4022
:102D5800648300080C8300080000002000C0C943F9
:102D68004162340018830008688300084262340016
:102D78006C830008A4703D0AD7377940E17A14AE15
:102D880047CD774008B51448144B0360144B436093
:102D9800782383600123C360002303614361836157
:102DA800C361036201F002FA18B10E484221FEF72E
:102DB8002DFD0948002101F02BFB18B109484921D4
:102DC800FEF724FD0448002101F050FB18B1054826
:102DD8005021FEF71BFD08BD1025002000540040BF
:102DE800EC9C9010748300080268114B9A421DD124
:102DF80000B587B0C02301931223029301230393E4
:102E080003230493042305930A480DEB030101F0FF
:102E18009FFF094B9A6D42F400129A659B6D03F46B
:102E280000130093009B07B05DF804FB704700BFD8
:102E380000540040000400480010024008B501F0AA
:102E48006BF802F0B5F908BD08B5024800F05EFA63
:102E580008BD00BF6024002000B583B0214B1A6E66
:102E680042F001021A661A6E02F001020092009AFC
:102E78009A6D42F080529A659B6D03F080530193DE
:102E8800019B032002F02CF96FF00B0000210A4689
:102E980002F038F96FF00A0000210A4602F032F910
:102EA8006FF0090000210A4602F02CF96FF00400C7
:102EB80000210A4602F026F96FF0030000210A46B5
:102EC80002F020F96FF0010000210A4602F01AF919
:102ED8004FF0FF3000210A4602F014F903B05DF804
:102EE80004FB00BF00100240002800F0888038B5BD
:102EF800044690F83230DBB2052B00F0828090F85F
:102F08003230DBB2022B7ED090F8323090F832307B
:102F180013F0FF0F02D1002380F831302046FEF76E
:102F2800BDFC2268136823F480531360E368082B00
:102F380011D12068026822F48E4222F03E02A16874
:102F48000B43A1690B4321690B4361691943E36989
:102F58000B4313430360E3680C2B0DD12068026810
:102F680022F4884121F00E01A268134362691343D9
:102F7800E2691A430A430260E16879B925682B6857
:102F880023F48E4222F00E02A06801432069014317
:102F980063691943E3690B4313432B60E369B3F592
:102FA800804F1BD1A368022B0CD0226A636A43EAC4
:102FB800022321684A6822F4F85222F01F021343C0
:102FC8004B600BE0A26AE36A43EA022321688A683D
:102FD80022F4F85222F01F0213438B600C490B684D
:102FE80023F00042636813430B6094F8323013F007
:102FF800FF0F0AD1012384F83230002038BD0120A8
:103008007047012038BD012038BD002038BD00BF01
:103018000078004098B190F83230DBB2052B10D020
:1030280090F83230DBB2012B0DD101680B6843F008
:1030380001030B60042380F8323000207047012020
:103048007047012070470120704700BF30B583B03A
:1030580000230193002800F03B810446836D2BB9BF
:10306800FEF79AFC0023E36584F8543023689A68D5
:1030780012F0005F05D09A6822F0204222F03F0249
:103088009A602268936813F0805F18D1936823F0E0
:10309800104323F03F0343F0805393608E4B1B682B
:1030A8008E4AA2FB0323DB0C03EB83035B00019333
:1030B80002E0019B013B0193019B002BF9D123689E
:1030C8009A6812F0805F09D1A26D42F01002A265E1
:1030D800E26D42F00102E265012000E00020A26DED
:1030E80012F0100F40F0EE809A6812F0040F40F0D2
:1030F800E980A26D22F4817242F00202A2659A6808
:1031080002F00302012A05D11A6812F0010F03D157
:10311800002202E0002200E00122002A71D1704959
:103128008B421CD16F4B9B6803F00303012B04D126
:103138006C4B1B6813F0010F0BD16B4B9B6803F0B2
:103148000303012B08D1684B1B6813F0010F02D150
:1031580002E0012200E0012282F0010249E0614917
:103168008B4220D15E4B9B6803F00303012B04D1F3
:103178005B4B1B6813F0010F0CD15B4B9B6803F092
:103188000303012B08D1584B1B6813F0010F05D11D
:10319800134604E0012302E0134600E0012313F084
:1031A800010F1FD112E04E4B9B6803F00303012B64
:1031B80006D14B4B1B6813F0010F03D1134602E0F5
:1031C800134600E0012313F0010F0DD1454B9B6816
:1031D80003F00303012B0AD1424B1B6813F0010FC4
:1031E80004D104E0012202E0012200E0012282F081
:1031F800010232B161683D4A936823F47C130B43A2
:103208009360E269A36B43EA4232E3681A43A36816
:103218001343626A43EA0243012A03D1A26A013ACC
:1032280043EA4243E26A22B102F47072216B0A4314
:1032380013432168CD682E4A2A401343CB60226885
:10324800936813F00C0F25D1A169636B5B0043EA07
:103258008133D16821F4804121F002010B43D3600E
:10326800E36B012B11D125682B6923F4FF6222F04F
:103278000402216C636C1943A36C1943E36C0B4380
:10328800134343F001032B6104E02268136923F020
:10329800010313612369012B08D121680B6B23F00B
:1032A8000F02236A013B13430B6304E02268136B8C
:1032B80023F00F031363A36D23F0030343F001030B
:1032C800A36506E0A36D43F01003A365012000E0A9
:1032D800012003B030BD00BF1000002083DE1B4377
:1032E8000000045000010450000204500003045080
:1032F80007C0F0FF704700BF08B5806AFFF7FAFF04
:1033080008BD00BF704700BF704700BF70B50446D6
:1033180003681D685E6815F0020F10D016F0020FE2
:103328000DD0836D13F0100F03D1836D43F4006348
:103338008365204600F024FD236802221A6015F0F8
:10334800040F02D016F0040F05D115F0080F62D053
:1033580016F0080F5FD0A36D13F0100F03D1A36D03
:1033680043F40073A3652368DA6812F4406F4CD104
:10337800AB4A934215D002F50072934211D002F580
:103388008072926812F01F0F0BD0A64A926802F062
:103398001F02052A05D0A34A926802F01F02092AD3
:1033A80001D1DA680DE09E4A934206D002F5007218
:1033B800934204D0A2F5007202E01A4600E01A46D1
:1033C800D26812F4005F20D11A6812F0080F1CD0DE
:1033D8009A6812F0040F10D15A6822F00C025A6051
:1033E800A36D23F48073A365A36D13F4805F0CD1E0
:1033F800A36D43F00103A36507E0A36D43F0100339
:10340800A365E36D43F00103E3652046FEF7E4F8A6
:1034180023680C221A6015F0200F02D016F0200F36
:1034280005D115F0400F6CD016F0400F69D0A36D90
:1034380013F0100F03D1A36D43F40053A365236861
:10344800774A934215D002F50072934211D002F5E3
:103458008072926812F01F0F0BD0724A926802F0C5
:103468001F02062A05D06F4A926802F01F02072A37
:1034780001D1D9680DE06A4A934206D002F500727C
:10348800934204D0A2F5007202E01A4600E01A4600
:10349800D168DA6C12F0C00F09D011F0007F2AD180
:1034A800DA6812F4406F26D111F4005F23D11A684C
:1034B80012F0400F1FD011F4001F1CD19A6812F0AF
:1034C800080F10D15A6822F060025A60A36D23F4E5
:1034D8008053A365A36D13F4807F0CD1A36D43F0D3
:1034E8000103A36507E0A36D43F01003A365E36D33
:1034F80043F00103E365204600F03AFC23686022AC
:103508001A6015F0800F0CD016F0800F09D0A36D4B
:1035180043F48033A3652046FFF7F4FE2368802236
:103528001A6015F4807F0DD016F4807F0AD0A36D41
:1035380043F40033A365204600F01EFC23684FF4D3
:1035480080721A6015F4007F0DD016F4007F0AD03F
:10355800A36D43F48023A365204600F00FFC236885
:103568004FF400721A6015F0100F43D016F0100FC8
:1035780040D0A36B43B32368294A934203D002F592
:103588008072934206D1274A926812F01F0F03D126
:10359800002202E0002200E001222AB9DB6813F0D1
:1035A800010F13D1002316E01E4B9B6803F4404320
:1035B800B3F5004F0CD01B4B9B6803F44043B3F5A5
:1035C800404F07D0002306E0012304E0012302E076
:1035D800012300E0012353B1A36D43F48063A36585
:1035E800E36D43F00203E3652046FFF78DFE236891
:1035F80010221A6015F4806F11D016F4806F0ED067
:10360800A36D43F48043A365E36D43F00803E365CA
:1036180023684FF480621A60204600F0ABFB70BD4F
:10362800000004500003045008B5836A9A6D12F034
:10363800500F31D19A6D42F400729A651A68116878
:1036480011F0080F14D0D16811F4406F20D1D2685E
:1036580012F4005F1CD19A6D22F480729A659A6DFB
:1036680012F4805F14D19A6D42F001029A650FE05E
:10367800D26812F0020F0BD19A6D22F480729A650B
:103688009A6D12F4805F03D19A6D42F001029A6537
:103698001846FDF7A1FF08BD9A6D12F0100F03D070
:1036A8001846FFF731FE08BD1B6D5B6B984708BDD8
:1036B80008B5806A836D43F040038365C36D43F0AA
:1036C8000403C365FFF720FE08BD00BFF0B583B053
:1036D8000023019390F85430012B00F0328201232B
:1036E80080F8543003689B6813F0040F40F013828D
:1036F8004B68052B15D8023B032B10D8DFE803F0E5
:103708000205080B0C234B600BE012234B6008E00A
:1037180018234B6005E04FF480734B6001E00623EB
:103728004B6005684A680B68303502F440764FF400
:10373800407494FAA4F4B4FA84F426FA04F455F81C
:10374800246002F01F021F27974026EA0706C3F3EA
:1037580084639340334345F824300268936813F038
:103768000C0F40F091800B688D68143203F00076DE
:103778004FF0007494FAA4F4B4FA84F4E64052F8D2
:10378800267003F0F8734FF0F87494FAA4FEBEFAAA
:103798008EFE23FA0EFC4FF0070E0EFA0CFE27EAF7
:1037A8000E0794FAA4F4B4FA84F4E3409D403D4330
:1037B80042F826504B690468E268C2F3C10252001D
:1037C80003FA02F50E69042E0FD00B68603454F822
:1037D8002620B04F174003F0F84245EA02033B4366
:1037E80043F0004344F826304EE0226EC2F384656D
:1037F8000B68C3F3120616B9C3F3846303E093FAA4
:10380800A3F3B3FA83F3AB4202D122F0004222665B
:103818000468626EC2F384650B68C3F3120616B9B6
:10382800C3F3846303E093FAA3F3B3FA83F3AB42DD
:1038380002D122F0004262660468A26EC2F3846577
:103848000B68C3F3120616B9C3F3846303E093FA53
:10385800A3F3B3FA83F3AB4202D122F00042A2668B
:103868000468E26EC2F384650B68C3F3120616B9E6
:10387800C3F3846303E093FAA3F3B3FA83F3AB428D
:1038880002D122F00042E2660468A36803F0030351
:10389800012B05D1236813F0010F03D1002302E0A7
:1038A800002300E00123002B40F0B3800F68CE68AE
:1038B800D4F8B020C7F3120322EA030506F0200665
:1038C800754B03FA06F207EA0203C3F312032B430C
:1038D800C4F8B030CA68714B9A4240F09A800468C4
:1038E8000B68C3F312063EB9C3F384620132092A96
:1038F8008CBF0022012208E093FAA3F2B2FA82F206
:103908000132092A8CBF0022012262B326B903F0D2
:10391800F84505F1806505E093FAA3F5B5FA85F554
:103928000135AD062EB9C3F3846701370122BA40C9
:1039380006E093FAA3F7B7FA87F701370122BA40EE
:10394800154336B9C3F38462013202EB4202130510
:1039580007E093FAA3F2B2FA82F2013202EB4202D2
:1039680013052B432FE026B903F0F84202F18062D9
:1039780005E093FAA3F2B2FA82F2013292062EB966
:10398800C3F3846701370125BD4006E093FAA3F726
:10399800B7FA87F701370125BD40154346B9C3F388
:1039A800846202EB42021B3A120542F0007309E0FE
:1039B80093FAA3F2B2FA82F202EB42021B3A120520
:1039C80042F000732B438D68143403F000774FF0F6
:1039D800007292FAA2F2B2FA82F2D74054F8276043
:1039E80003F0F8734FF0F87292FAA2FEBEFA8EFE58
:1039F80023FA0EFC4FF0070E0EFA0CFE26EA0E060E
:103A080092FAA2F2B2FA82F2D3409D40354344F8CA
:103A180027500B68224A934204D1224A926812F432
:103A2800000F0FD0204A934204D11E4A926812F028
:103A3800807F07D01D4A934273D11A4A926812F4C4
:103A4800800F70D1164A934238D10368184A9342BE
:103A580003D002F50072934267D112498B6803F0D4
:103A6800E07343F400028B6823F0E07313438B6028
:103A7800104B1B68104AA2FB0323DB0CC3EB031398
:103A8800DB00019302E0019B013B0193019B002BAA
:103A9800F9D151E000F0FF03FFFF070000007F406D
:103AA800000052C700030450000084CB01000080CE
:103AB800000004501000002083DE1B43224A93427A
:103AC80015D10368A2F1F742934203D002F50072C0
:103AD80093422CD11D498B6803F0E07343F0807248
:103AE8008B6823F0E07313438B60002324E0184AAB
:103AF80093421ED10268174B9A421CD113498B6816
:103B080003F0E07343F480028B6823F0E0731343FF
:103B18008B60002310E0836D43F02003836501234D
:103B28000AE0002308E0002306E0002304E0002365
:103B380002E0002300E00023002280F85420184609
:103B480000E0022003B0F0BD000084CB0003045065
:103B5800010000800000045030B583B000230193B9
:103B68000268936803F00303012B05D1136813F06F
:103B7800010F03D1002302E0002300E00123002B02
:103B88004DD19168274B194209D0836D43F010033A
:103B98008365C36D43F00103C365012040E093686A
:103BA80023F0004323F03F0343F0010393601E4BCF
:103BB8001B681E4AA2FB0323DB0C03EB83035B0099
:103BC800019302E0019B013B0193019B002BF9D17A
:103BD800044600F0A9F905461AE09A6812F0010FA8
:103BE80007D19A6822F0004222F03F0242F0010217
:103BF8009A6000F099F9401B022809D9A36D43F097
:103C08001003A365E36D43F00103E365012007E0BA
:103C180023681A6812F0010FDFD0002000E00020AE
:103C280003B030BD3F0000801000002083DE1B433E
:103C3800F8B50468A56815F0040F40F08A8090F87C
:103C48005430012B00F08880012380F85430434B16
:103C58009C4203D003F580739C4212D1404B9B6871
:103C680013F01F0F0FD03E4B9B6803F01F03052B6B
:103C78000BD03B4B9B6803F01F03092B07D1002394
:103C880006E0002304E0002302E0002300E0012313
:103C9800002B59D116460D460746FFF75DFF04462F
:103CA80000284DD1BB6D23F4706323F0010343F466
:103CB8008073BB653B68294A934208D002F50072BD
:103CC800934204D0264B9B6813F01F0F03D1BB6DA2
:103CD80023F48013BB65BB6D13F4805F04D0FB6DC8
:103CE80023F00603FB6501E00023FB653B6D1D4ADD
:103CF800DA623B6D1C4A1A633B6D1C4A5A633B6887
:103D08001C221A60002387F854303A68536843F03D
:103D1800100353603A68D36843F00103D3603968ED
:103D2800386D40312A46334601F096F93A6893686F
:103D380023F0004323F03F0343F00403936009E0BA
:103D4800002387F8543005E0002380F8543001241C
:103D580000E002242046F8BD0220F8BD000004500F
:103D6800000304503136000801330008B936000852
:103D7800704700BF704700BF704700BF704700BF63
:103D8800704700BF90F85430012B00F0948070B455
:103D98009BB0012380F854300368494A934203D109
:103DA80002F58072009201E000220092009A42B966
:103DB800836D43F020038365002380F8543001208D
:103DC8007BE09B6813F0040F63D1936813F0040F32
:103DD8005FD10B68002B33D03A4DAB6823F46044B5
:103DE8004B68466B43EA46332343AB600468A368D9
:103DF80003F00303012B05D1236813F0010F03D14E
:103E0800002302E0002300E00123002B47D194683F
:103E180004F00304012C04D1126812F0010F00D041
:103E28000123002B3DD1274DAB6823F4716424F0A6
:103E38000F040B688A6813432343AB60002335E003
:103E480020498B6823F460438B6001688B6803F01A
:103E58000303012B05D10B6813F0010F03D10023D5
:103E680002E0002300E00123EBB9916801F00301AF
:103E7800012904D1126812F0010F00D00123A3B95F
:103E8800104A936823F4716323F00F0393600023AF
:103E98000CE0836D43F020038365012306E00023D3
:103EA80004E0002302E0002300E00023002280F861
:103EB8005420184601E0022070471BB070BC7047C0
:103EC800000004500003045010B50446074B1B685B
:103ED8000748A0FB0330800901F052F94FF0FF308A
:103EE8002146002201F00EF9002010BD100000202C
:103EF800D34D621008B5074A136843F48073136002
:103F0800032001F0EDF80020FFF7DEFFFEF7A4FF25
:103F1800002008BD00200240024A136801331360E4
:103F2800704700BF5C250020014B1868704700BF30
:103F38005C25002038B50446FFF7F6FF0546B4F1C6
:103F4800FF3F00D00134FFF7EFFF401B8442FAD84F
:103F580038BD00BF03689A6912F0020F01D0002231
:103F68009A6203689A6912F0010F03D19A6942F0C4
:103F780001029A61704700BF70B4039C05686E68BF
:103F8800600D00F4806040F07F7040F4583040F4D9
:103F98007F7040F0030026EA0000C1F3090141EAFE
:103FA800024213431C4304436C6070BC704700BF5B
:103FB80070B504460D46164603689B6913F0100F4A
:103FC80018D1002070BDB5F1FF3F13D0FFF7ACFF4B
:103FD800801BA84200D86DB9636C43F0200363646A
:103FE800202384F84130002384F8423084F840309C
:103FF800012070BD23689A6912F0200FE3D01022C7
:10400800DA6123682025DD612046FFF7A3FF2268D7
:10401800536823F0FF7323F48B3323F4FF7323F0E7
:1040280001035360636C43F00403636484F84150F4
:10403800002384F8423084F84030012070BD00BF6E
:1040480070B504460D4616461CE020462946324601
:10405800FFF7AEFFE8B9B5F1FF3F13D0FFF764FFF4
:10406800801BA84200D86DB9636C43F020036364D9
:10407800202384F84130002384F8423084F840300B
:10408800012070BD23689B6913F0020FDDD000206A
:1040980070BD012070BD00BFF8B506460C46174636
:1040A8001D4617E0B5F1FF3F14D0FFF73DFF069B13
:1040B800C01AA84200D86DB9736C43F0200373642A
:1040C800202386F84130002386F8423086F84030B5
:1040D8000120F8BD33689B692340A34214BF002325
:1040E8000123BB42DED00020F8BD00BF70B582B00E
:1040F800044615461E46184B0093F2B24FF08073E3
:10410800FFF73AFF20460699079AFFF799FFE8B9A3
:10411800012E03D12368EDB29D620BE023682A0AC1
:104128009A6220460699079AFFF78AFF80B92368A2
:10413800EDB29D62079B0093204680210022069BDA
:10414800FFF7AAFF034620B1012302E0012300E0A4
:104158000123184602B070BD0020008070B50546E6
:104168000C46164619E0284621463246FFF720FF3E
:10417800D0B9FFF7D9FE801BA04200D86CB96B6C90
:1041880043F020036B64202385F84130002385F831
:10419800423085F84030012070BD2B689B6913F0D0
:1041A800200FE0D0002070BD012070BD10B504467E
:1041B80020B94FF400734364012010BD90F84130DA
:1041C80013F0FF0F04D1002380F84030FEF70CFEF7
:1041D800242384F841302268136823F00103136014
:1041E8002268636823F0706313612268936823F47C
:1041F80000439360E368012B05D12268A36843F468
:104208000043936004E02268A36843F40443936086
:10421800E368022B03D123684FF400625A602268D6
:10422800536843F0007343F4004353602268D36833
:1042380023F40043D3602268216963690B43A169B1
:1042480043EA0123D3602268E169236A0B431360C0
:104258002268136843F00103136000206064202380
:1042680084F84130206384F8420010BD2DE9F047FE
:1042780082B0BDF82C5090F84140E4B2202C40F0B8
:10428800B7800A9C04B125B94FF400734364012335
:10429800B9E090F84040012C00F0AC809846914677
:1042A8000E4604464FF0010A80F840A0FFF73CFE96
:1042B8000746009020464FF4004152461923FFF765
:1042C800EBFE002840F09880212384F841304023F9
:1042D80084F84230002363640A9A626265856363E6
:1042E8000C9B00930197204631464A464346FFF708
:1042F800FDFE20B1002384F84030534683E0638DEF
:104308009BB2FF2B0AD9FF22228500230093204667
:1043180031464FF08073FFF72FFE0BE0628D92B2AB
:1043280022850023009320463146D2B24FF0007315
:10433800FFF722FE20460C993A46FFF781FE002837
:104348005CD12268636A591C61621B789362638D31
:10435800013B9BB26385238D013B9BB22385628D14
:1043680092B222B31BBB00972046802100220C9BEF
:10437800FFF792FE002843D1638D9BB2FF2B0AD929
:10438800FF22228500230093204631464FF0807398
:10439800FFF7F2FD0BE0628D92B2228500230093B5
:1043A80020463146D2B24FF00073FFF7E5FD638D2A
:1043B8009BB2002BBED120460C993A46FFF7CEFEA1
:1043C8000346F8B922682021D1612068426822F0AA
:1043D800FF7222F48B3222F4FF7222F00102426053
:1043E80084F84110002284F8422084F840200AE032
:1043F800022308E0022306E0012304E0012302E08F
:10440800012300E00123184602B0BDE8F08700BF91
:1044180090F84130DBB2202B24D190F84030012BAA
:1044280022D0012380F84030242380F841300268EC
:10443800136823F0010313600268136823F48053A0
:10444800136003681A68114319600268136843F01F
:1044580001031360202380F84130002380F84030A6
:1044680018467047022070470220704790F8413084
:10447800DBB2202B22D190F84030012B20D0012331
:1044880080F84030242380F841300268136823F014
:10449800010313600268136823F4706343EA01217F
:1044A80011600268136843F001031360202380F849
:1044B8004130002380F8403018467047022070478A
:1044C8000220704730B583B00546204B9B6D13F032
:1044D800805F02D000F0FCFD0FE01C4CA36D43F0A0
:1044E8008053A365A36D03F080530193019B00F0F3
:1044F800EFFDA36D23F08053A365B0F5007F05D1D0
:10450800802D0AD9A02D0AD902210FE0802D08D8C4
:1045180009D0702D09D0002108E0002106E0012112
:1045280004E0032102E0022100E00121084A1368A7
:1045380023F007030B431360136803F007038B4250
:1045480001D0012000E0002003B030BD001002407F
:10455800002002403B4B9B6813F00C0F0BD0394BEB
:104568009B6803F00C030C2B1ED1364BDB6803F061
:104578000303012B18D1334B1B6813F0080F05D127
:10458800304BD3F89430C3F3032303E02D4B1B685F
:10459800C3F303132C4A52F823102A4B9B6813F0D9
:1045A8000C0F10D0002015E0264B9B6803F00C037D
:1045B800042B0AD0234B9B6803F00C03082B07D06D
:1045C8000020014606E0084604E02048002101E0FA
:1045D8001F4800211B4A926802F00C020C2A30D1B5
:1045E800184BDA6802F00302DB68C3F302130133E5
:1045F800022A02D0032A0AD013E01448B0FBF3F0D1
:10460800104BDB68C3F3062303FB00F311E01048EB
:10461800B0FBF3F30B4AD268C2F3062202FB03F3A2
:1046280007E0B1FBF3F3074AD268C2F3062202FBA4
:1046380003F3044AD068C0F3416001304000B3FB83
:10464800F0F0704700100240908300080024F40046
:1046580000127A00002800F09E8270B582B00446ED
:10466800036813F0100F00F09D80A84B9B6813F0AF
:104678000C0F5AD1A54B1B6813F0020F03D08369A6
:10468800002B00F08A82206AA04B1B6813F0080FE9
:1046980004D09E4B1B6803F0F00305E09B4BD3F856
:1046A800943003F470631B09984217D9FFF70AFF87
:1046B800002840F07482954B1A6842F008021A608C
:1046C8001A6822F0F001226A0A431A605A6822F432
:1046D8007F42E16942EA01225A6017E08B4B1A686F
:1046E80042F008021A601A6822F0F001226A0A43AE
:1046F8001A605A6822F47F42E16942EA01225A604C
:10470800206AFFF7DFFE002840F04B82FFF722FF08
:104718007E4B9B68C3F303137D4AD35CD8407D4B23
:1047280018600020FFF7D0FB3CE0836933B3774A79
:10473800136843F001031360FFF7F6FB054605E035
:10474800FFF7F2FB401B022800F22D826F4B1B681B
:1047580013F0020FF4D06D4B1A6842F008021A6089
:104768001A6822F0F001226A0A431A605A6822F491
:104778007F42E16942EA01225A6013E0634A136802
:1047880023F001031360FFF7CFFB054605E0FFF7B1
:10479800CBFB401B022800F208825C4B1B6813F01D
:1047A800020FF4D1236813F0010F5ED0574B9B68BA
:1047B80003F00C03082B0BD0544B9B6803F00C033D
:1047C8000C2B0ED1514BDB6803F00303032B08D1EC
:1047D8004E4B1B6813F4003F47D06368002B44D14D
:1047E800E5E16368B3F5803F05D1484A136843F4AF
:1047F8008033136018E0B3F5A02F0CD103F1804388
:10480800A3F53C331A6842F480221A601A6842F40D
:1048180080321A6008E03D4B1A6822F480321A6030
:104828001A6822F480221A6063687BB1FFF77CFB68
:10483800054605E0FFF778FB401B642800F2B981C4
:10484800324B1B6813F4003FF4D00EE0FFF76CFB0B
:10485800054605E0FFF768FB401B642800F2AB81C2
:104868002A4B1B6813F4003FF4D1236813F0020F9E
:104878005DD0264B9B6803F00C03042B0BD0234B15
:104888009B6803F00C030C2B17D1204BDB6803F05B
:104898000303022B11D11D4B1B6813F4806F03D047
:1048A800E368002B00F08981184A536823F0F85315
:1048B800216943EA0163536039E0E368E3B1134ACD
:1048C800136843F480731360FFF72EFB054605E079
:1048D800FFF72AFB401B022800F271810B4B1B6873
:1048E80013F4806FF4D0094A536823F0F853216910
:1048F80043EA016353601AE0044A136823F480739F
:104908001360FFF711FB05460CE000BF00100240E2
:104918008083000810000020FFF706FB401B0228D8
:1049280000F24F81B24B1B6813F4806FF4D12368F7
:1049380013F0080F30D06369BBB1AD4AD2F8943098
:1049480043F00103C2F89430FFF7EEFA054605E09C
:10495800FFF7EAFA401B022800F23581A44BD3F88E
:10496800943013F0020FF3D016E0A14AD2F8943035
:1049780023F00103C2F89430FFF7D6FA054605E0A4
:10498800FFF7D2FA401B022800F21F81984BD3F898
:10499800943013F0020FF3D1236813F0040F7FD083
:1049A800934B9B6D13F0805F0BD1914B9A6D42F046
:1049B80080529A659B6D03F080530193019B0125FA
:1049C80000E000258B4B1B6813F4807F13D1894AC4
:1049D800136843F480731360FFF7A6FA064605E0F0
:1049E800FFF7A2FA801B022800F2F180814B1B68B6
:1049F80013F4807FF4D0A368012B07D17C4AD2F846
:104A0800903043F00103C2F890301CE0052B0DD123
:104A1800774BD3F8902042F00402C3F89020D3F8E3
:104A2800902042F00102C3F890200CE0704BD3F8BC
:104A3800902022F00102C3F89020D3F8902022F0B1
:104A48000402C3F89020A36893B1FFF76DFA0646F5
:104A580007E0FFF769FA801B41F28833984200F2B9
:104A6800B880634BD3F8903013F0020FF1D011E007
:104A7800FFF75AFA064607E0FFF756FA801B41F29D
:104A88008833984200F2A780594BD3F8903013F03E
:104A9800020FF1D125B1564A936D23F080539365E7
:104AA800A36A002B00F09980514A926802F00C0228
:104AB8000C2A00F09480022B43D14D4A136823F04E
:104AC80080731360FFF730FA054605E0FFF72CFA0C
:104AD800401B022800F28580454B1B6813F0007FBD
:104AE800F4D1236B5A1E636B1B0243EA0213A26BB9
:104AF800120943EA4242E36A1343E26B5208013A5D
:104B080043EA4253226C5208013A43EA4263384A64
:104B1800D360136843F080731360D36843F08073E5
:104B2800D360FFF701FA044604E0FFF7FDF9001B24
:104B3800022858D82E4B1B6813F0007FF5D00020B0
:104B480054E02B4B1A6822F080721A601B6813F02D
:104B5800006F09D1264B1B6813F0005F04D1244A6B
:104B6800D36823F00303D360214AD36823F0887302
:104B780023F48033D360FFF7D7F9044604E0FFF746
:104B8800D3F9001B022830D8194B1B6813F0007F9B
:104B9800F5D100202AE001207047012026E00120FD
:104BA80024E0012022E0032020E003201EE0012071
:104BB8001CE003201AE0032018E0012016E003207F
:104BC80014E0032012E0032010E003200EE003208D
:104BD8000CE003200AE0032008E0002006E00120A2
:104BE80004E0032002E0032000E0032002B070BDCF
:104BF8000010024000700040002800F0918070B55D
:104C080004464F4B1B6803F007038B420AD24C4AF9
:104C1800136823F007030B431360136803F00703BB
:104C28008B427FD10D46236813F0010F35D063689E
:104C3800032B05D1434A126812F0007F14D173E0A8
:104C4800022B05D13F4A126812F4003F0CD16DE0E7
:104C58002BB93C4A126812F0020F05D168E0394AB4
:104C6800126812F4806F65D036498A6822F0030210
:104C780013438B60FFF758F9064606E0FFF754F92F
:104C8800801B41F28833984256D82E4B9B6803F01C
:104C98000C036268B3EB820FF0D1236813F0020FA4
:104CA80006D028498B6823F0F002A36813438B6071
:104CB800234B1B6803F00703AB420AD9204A136849
:104CC80023F007032B431360136803F00703AB4279
:104CD80034D1236813F0040F06D01A498B6823F4E3
:104CE800E062E36813438B60236813F0080F07D072
:104CF800144A936823F46053216943EAC10393601B
:104D0800FFF728FC0F4B9B68C3F303130E4AD35CD1
:104D1800D8400E4B18600020FFF7D6F8002070BD71
:104D280001207047012070BD012070BD012070BDB9
:104D3800012070BD012070BD032070BD012070BD31
:104D4800002002400010024080830008100000206C
:104D58002DE9F04182B00023D4E001249C40224098
:104D680000F0CF804D68022D01D0122D14D14FEAEA
:104D7800D30808F1080850F8287003F0070E4FEA26
:104D88008E0E0F2505FA0EF527EA05060D6905FAB8
:104D98000EF5354340F8285006684FEA430E0325C0
:104DA80005FA0EF5ED4305EA06074E6806F0030618
:104DB80006FA0EF63E4306604E68771E012F03D9A9
:104DC800112E01D0122E11D1866805EA0607CE6889
:104DD80006FA0EF63E438660466826EA04074E68E1
:104DE800C6F3001606FA0CF63E4346604E6806F017
:104DF8000307032F08D1C76A27EA0404C6F3C006CD
:104E080006FA0CF62643C662C4682C408D6805FA7B
:104E18000EF52543C5604C6814F0805F71D03E4C98
:104E2800256E45F001052566246E04F00104019401
:104E3800019C9C08A61C394D55F8266003F0030711
:104E4800BF000F25BD4026EA0506B0F1904F24D0DB
:104E5800334DA8421FD005F58065A84219D005F545
:104E68008065A84213D005F58065A8420DD005F5E8
:104E78008065A84207D005F58065A84201D10625BE
:104E88000CE007250AE0052508E0042506E00325CF
:104E980004E0022502E0012500E00025BD4035437D
:104EA80002341E4E46F824501E4C2568D44304EAAA
:104EB80005064F6817F4803F01D042EA0506194DF0
:104EC8002E606D6804EA05064F6817F4003F01D0AC
:104ED80042EA0506134D6E60AD6804EA05064F68A0
:104EE80017F4801F01D042EA05060E4DAE60ED684A
:104EF8002C404E6816F4001F01D042EA0504094A06
:104F0800D46001330A689C4632FA03F47FF425AF73
:104F180002B0BDE8F08100BF00100240000001406F
:104F2800000400480004014070B4066C446C04F0AE
:104F38001C050124AC407460046863608368102B0E
:104F480004D103689A600368D96003E00368996034
:104F58000368DA6070BC7047002867D010B4034655
:104F68000168354A91420AD8344A0A443449A1FBB7
:104F78000212120992004264324A026409E0324A7B
:104F88000A442F49A1FB02121209920042642F4AD7
:104F98000264022283F825201C68226822F4FF425A
:104FA80022F070029868D96808431969084359695A
:104FB800084399690843D9690843196A01430A43B0
:104FC80022609A68B2F5804F28D0196C1D4A914228
:104FD80012D11F4908685A6C02F01C040F22A24023
:104FE80020EA02020A600C685A68586C00F01C003B
:104FF800824022430A6011E0164908685A6C02F0A0
:105008001C040F22A24020EA02020A600C685A68B7
:10501800586C00F01C00824022430A600020D863CC
:10502800012283F8252083F8240001E0012070473D
:105038005DF8044B704700BF07040240F8FFFDBF4E
:10504800CDCCCCCC00000240F8FBFDBF00040240F0
:10505800A8000240A804024038B590F82440012C6A
:1050680033D0012480F8244090F82540E4B2012C84
:1050780026D10446022084F825000020E063256834
:10508800286820F0010028602046FFF74DFF236BB9
:105098002BB12268136843F00E03136009E02268FD
:1050A800136823F0040313602268136843F00A03AB
:1050B80013602268136843F001031360002038BDB1
:1050C800002380F82430022038BD022038BD00BFFC
:1050D800024B186800F4C060704700BF00700040C1
:1050E80000F00700064AD36823F4E0631B041B0C96
:1050F80043EA002040F0BF6040F40030D0607047C1
:1051080000ED00E030B4164BDC68C4F30224C4F1AF
:105118000705042D28BF0425231D062B01D9033CB0
:1051280000E00024012303FA05F5013D2940A140D0
:10513800A340013B1A400A43002806DA00F00F009A
:105148001201D2B2074B1A5407E01201D2B200F191
:10515800604000F5614080F8002330BC704700BF14
:1051680000ED00E014ED00E0410900F01F0001230C
:105178008340024A42F82130704700BF00E100E056
:105188000138B0F1807F0AD2064B5860F021064AF8
:1051980082F823100020986007221A6070470120C7
:1051A800704700BF10E000E000ED00E0704700BF6E
:1051B80008B5FFF7FBFF08BD0F49D1F8883043F465
:1051C8007003C1F888300D4B1A6842F001021A606A
:1051D800002098601A6822F0A85222F410221A605F
:1051E8004FF48052DA601A6822F480221A609861BB
:1051F8004FF000638B60704700ED00E00010024044
:10520800DFF834D0002103E00C4B5B5843500431E5
:105218000B480C4B42189A42F6D30B4A02E0002383
:1052280042F8043B094B9A42F9D3FFF7C5FF00F057
:1052380011F8FCF73DFAFEE70080012038850008E8
:1052480000000020B8000020B800002064250020DD
:10525800FEE7000070B50E4B0E4CE41AA4100025B2
:105268001E46A54204D056F8253098470135F8E780
:1052780002F060F9084C094BE41AA41000251E46F8
:10528800A54204D056F8253098470135F8E770BD97
:1052980028850008288500082C850008288500082E
:1052A80002440346934202D003F8011BFAE7704711
:1052B8002DE9FF4755EC104B0D9FDDF830A0002D70
:1052C8000E4691461946B8BF22462B4627F02007BE
:1052D800BBBF05F100431D4600232D23B8BF14466C
:1052E800462F0B7003D0452F03D1013601E003216F
:1052F80000E0022102AB009303AB019345EC104B95
:105308003246534600F020FD472F804602D119F05F
:10531800010F26D0462F08EB060911D198F8003066
:10532800302B0AD12046294600220023FBF776FBC2
:1053380018B9C6F10106CAF80060DAF800309944D5
:105348002046294600220023FBF768FB08B1CDF868
:105358000C90039B4B4504D25A1C039230221A70BE
:10536800F7E7039B0E9AC8EB03034046136004B0AB
:10537800BDE8F08773B503460029B8BF494203F872
:10538800022BB4BF2D222B220929427019DD0DF101
:10539800070426460A2291FBF2F502FB151130316B
:1053A800092D04F8011D2946F4DC3031651E04F886
:1053B800011CB5421A460AD215F8012B03F8012B35
:1053C800F7E730241A46214402F8024B5970101AA4
:1053D80002B070BD2DE9F04F8BB08B4615461E46C6
:1053E800149F044601F070FAD0F800A0504600F06F
:1053F80015FC002308933B680590073323F0070347
:1054080003F108029BF818803A60D3E90023CBE93E
:1054180012239BED120B00F0B1FB01281BD1DBE935
:10542800120100220023FBF703FB10B12D238BF898
:105438004330B54BB54FB8F1470F88BF1F4603231C
:10544800CBF81030DBF8003023F00403CBF8003041
:105458004FF000099FE09BED120B00F08FFBDBF88B
:10546800002068B9AA4BAB4F22F00402B8F1470FED
:1054780088BF1F460323CBF81030CBF80020E7E79E
:10548800DBF804104F1C9BED120B01D1062309E039
:10549800B8F1670F02D0B8F1470F05D1002940F0E5
:1054A800C1810123CBF8043007AB8DE8080108ABB4
:1054B80042F48062029300230393CBF800200DF19D
:1054C8001B032046DBF80410FFF7F2FE08F0DF03A9
:1054D800472B07460AD1079BD81C03DBDBF80420BF
:1054E800934237DDA8F102085FFA88F8B8F1650F32
:1054F800079915D8013942460BF150000791FFF77B
:1055080039FF089A8318012A8146CBF8103003DC4A
:10551800DBF80020D10738D50133CBF8103034E060
:10552800B8F1660F18D10029DBF8043009DDCBF893
:1055380010101BB9DBF80020D20721D501330B442A
:105548001CE01BB9DBF80020D00701D5023315E0B9
:10555800012313E04FF06708079B089A934207DB83
:10556800DBF80020CBF81030D10709D5013305E06E
:10557800002BD4BFC3F1020301231344CBF810302E
:10558800079BCBF858304FF000099DF81B3013B13A
:105598002D238BF8433000962046594609AA2B46FE
:1055A80000F056F9013002D14FF0FF304CE1DBF842
:1055B80000305A0505D4204629463A46DBF8103013
:1055C80008E1B8F1650F40F2D080DBE91201002252
:1055D8000023FBF723FA50B3204629464E4A0123FD
:1055E800B0470130E0D0089B079A9A4209DBDBF804
:1055F8000030D80705D4DBF800309F0700F1108190
:1056080007E1204629465246059BB0470130CBD0DA
:105618000027089B013B9F42EDDA204629460BF103
:105628001A020123B0470130BED00137F1E7079BCA
:10563800002B29DC20462946374A0123B047013090
:10564800B2D0079B2BB9089B1BB9DBF80030D907F0
:10565800D1D5204629465246059BB0470130A3D0F4
:105668004FF00008079B5B4298452046294608DA18
:105678000BF11A020123B047013095D008F1010857
:10568800F0E73A46089BA5E0DBF85820089B9A42C9
:10569800A8BF1A46002A914602DC4FF0000812E023
:1056A800204629463A464B46B0470130F5D17BE7BC
:1056B800204629460BF11A020123B04701303FF476
:1056C80073AF08F10108DBF85830B9F1000FACBF2F
:1056D800C9EB03021A469045EADB07EB0308079A71
:1056E800089B9A421ADBDBF80030DA0716D4089ACE
:1056F8001744C8EB0703079FD21B9342A8BF134662
:10570800002B1F4612DC18E0C6830008C28300087D
:10571800CE830008CA830008D283000820462946A1
:105728005246059BB0470130E1D13DE72046294666
:105738004246B04701303FF437AF4FF000080AE067
:10574800204629460BF11A020123B04701303FF4E5
:105758002BAF08F10108079A089B002FA3EB02035F
:10576800A8BFDB1B9845EBDB45E7089A012A01DC5B
:10577800DB0736D5204629463A460123B047013093
:105788003FF412AF204629465246059BB0470130E8
:105798003FF40AAFDBE9120100220023FBF73EF9D0
:1057A800E8B9089B204629467A1C013B1DE02046A3
:1057B80029460BF11A020123B04701303FF4F4AE39
:1057C8000137089B013B9F42F1DB204629460BF13C
:1057D80050024B46B04701307FF40DAFE4E6002796
:1057E800EFE7204629463A460123B0470130ECD17D
:1057F800DAE6204629460BF119020123B0470130A9
:105808003FF4D2AE0137DBF80C30099A9B1A9F425D
:10581800EFDBDBF80C00099B9842B8BF184613E091
:105828000027F0E707AB8DE8080108AB42F4806277
:10583800029300230393CBF8002020460DF11B03AD
:10584800FFF736FD074646E60BB0BDE8F08F00BF10
:105858002DE9F84391461F468A680B69DDF82080D8
:105868009342B8BF1346C9F8003091F84320064662
:105878000C4612B10133C9F800302368990642BFBB
:10588800D9F800300233C9F80030256815F006054C
:105898001CD094F843302268003318BF01239206C5
:1058A8001FD5E1185A1C302081F84300224494F88F
:1058B800451082F84310023313E03046394604F1AC
:1058C80019020123C047013007D00135E368D9F830
:1058D80000209B1A9D42F0DBDBE74FF0FF30BDE86C
:1058E800F8833046394604F14302C0470130F4D00A
:1058F8002268D9F80050E36802F00602042A08BFBB
:105908005D1B2269A3680CBF25EAE5750025934253
:10591800C4BF9B1AED184FF00009A9450ADA3046B2
:10592800394604F11A020123C0470130D5D009F1E4
:105938000109F2E70020BDE8F88300002DE9FF41E6
:105948000C461746227E6E2A984606460A9B01F1A7
:10595800430100F0AF8012D8632A23D00AD8002A66
:1059680000F0BC80582A40F0CB8084F84520DFF84E
:1059780004E257E0642A1ED0692A1CD0C0E0732ACA
:1059880000F0B08009D86F2A2ED0702A40F0B88075
:10599800226842F0200222603FE0752A24D0782A4B
:1059A8003BD0ADE01A68111D1960136884F84230C5
:1059B80004F14205A8E020681A6810F0800F02D0B0
:1059C800101D186008E010F0400F02F10400186084
:1059D80002D0B2F9003000E01368002B3EDA2D2225
:1059E8005B4284F8432039E020681A6810F0800F81
:1059F80002D0101D186007E010F0400F02F10400FB
:105A0800186001D0138800E01368227EDFF864E193
:105A18006F2A0CBF08220A221CE07822DFF858E11E
:105A280084F845202268186812F0800F00F10405F8
:105A38001D6003D1550601D5038800E00368D0072F
:105A480044BF42F0200222601BB9226822F02002E3
:105A580022601022002084F8430002E0DFF814E1FD
:105A68000A226568A560002DA2BF206820F0040006
:105A7800206003B965B10D46B3FBF2F002FB1033A9
:105A88001EF8033005F8013D03460028F4D100E074
:105A98000D46082A0BD12368DA0708D523696268FE
:105AA8009A42DEBF302305F8013C05F1FF35491B5A
:105AB80021612EE025681A68606915F0800F03D00F
:105AC800151D1D60136808E015F0400F02F104056C
