:020000040800F2
:1000000000800120DD5C00082D5D00082D5D0008EA
:100010002D5D00082D5D00082D5D0008000000002A
:100020000000000000000000000000002D5D00083E
:100030002D5D0008000000002D5D00081939000842
:100040002D5D00082D5D00082D5D00082D5D000868
:100050002D5D00082D5D00082D5D00082D5D000858
:100060002D5D00082D5D00082D5D000805180008B5
:100070002D5D00082D5D00082D5D00082D5D000838
:100080002D5D00082D5D0008253900082D5D000854
:100090002D5D00082D5D00082D5D00082D5D000818
:1000A0002D5D00082D5D00082D5D00082D5D000808
:1000B0002D5D00082D5D00082D5D00082D5D0008F8
:1000C0002D5D00082D5D00082D5D00082D5D0008E8
:1000D0002D5D00082D5D00082D5D00082D5D0008D8
:1000E0002D5D00082D5D00082D5D00082D5D0008C8
:1000F0002D5D00082D5D00082D5D00082D5D0008B8
:100100002D5D00082D5D00082D5D00082D5D0008A7
:100110002D5D00082D5D00082D5D00082D5D000897
:100120002D5D00082D5D00082D5D00082D5D000887
:100130002D5D00082D5D00082D5D00082D5D000877
:100140002D5D00082D5D00082D5D00082D5D000867
:100150002D5D00082D5D00082D5D00082D5D000857
:100160002D5D00082D5D00082D5D00082D5D000847
:100170002D5D00082D5D00082D5D000800000000C9
:080180002D5D00082D5D000853
:1001880010B5054C237833B9044B13B10448AFF3C9
:1001980000800123237010BDB8000020000000007B
:1001A80014800008084B10B51BB108480849AFF384
:1001B80000800848036803B910BD074B002BFBD02B
:1001C800BDE81040184700BF000000001480000878
:1001D800BC000020B80000200000000081F00041B1
:1001E80002E000BF83F0004330B54FEA41044FEA14
:1001F800430594EA050F08BF90EA020F1FBF54EAAF
:10020800000C55EA020C7FEA645C7FEA655C00F04A
:10021800E2804FEA5454D4EB5555B8BF6D420CDD1B
:100228002C4480EA020281EA030382EA000083EA9E
:10023800010180EA020281EA0303362D88BF30BD3E
:1002480011F0004F4FEA01314FF4801C4CEA113194
:1002580002D0404261EB410113F0004F4FEA0333F3
:100268004CEA133302D0524263EB430394EA050F7E
:1002780000F0A780A4F10104D5F1200E0DDB02FAED
:100288000EFC22FA05F2801841F1000103FA0EF281
:10029800801843FA05F359410EE0A5F120050EF147
:1002A800200E012A03FA0EFC28BF4CF0020C43FA78
:1002B80005F3C01851EBE37101F0004507D54FF085
:1002C800000EDCF1000C7EEB00006EEB0101B1F5D5
:1002D800801F1BD3B1F5001F0CD349085FEA30001B
:1002E8004FEA3C0C04F101044FEA445212F5800F26
:1002F80080F09A80BCF1004F08BF5FEA500C50F1C3
:10030800000041EB045141EA050130BD5FEA4C0CA5
:10031800404141EB010111F4801FA4F10104E9D12E
:1003280091F0000F04BF01460020B1FA81F308BF25
:100338002033A3F10B03B3F120020CDA0C3208DDF1
:1003480002F1140CC2F10C0201FA0CF021FA02F1CC
:100358000CE002F11402D8BFC2F1200C01FA02F13C
:1003680020FA0CFCDCBF41EA0C019040E41AA2BF61
:1003780001EB0451294330BD6FEA04041F3C1CDA29
:100388000C340EDC04F11404C4F1200220FA04F049
:1003980001FA02F340EA030021FA04F345EA0301F3
:1003A80030BDC4F10C04C4F1200220FA02F001FAB5
:1003B80004F340EA0300294630BD21FA04F0294637
:1003C80030BD94F0000F83F4801306BF81F48011D0
:1003D8000134013D4EE77FEA645C18BF7FEA655C43
:1003E80029D094EA050F08BF90EA020F05D054EA15
:1003F800000C04BF1946104630BD91EA030F1EBF1A
:100408000021002030BD5FEA545C05D1400049411D
:1004180028BF41F0004130BD14F580043CBF01F510
:10042800801130BD01F0004545F0FE4141F47001F6
:100438004FF0000030BD7FEA645C1ABF19461046D1
:100448007FEA655C1CBF0B46024650EA013406BFD2
:1004580052EA033591EA030F41F4002130BD00BF91
:1004680090F0000F04BF0021704730B54FF480644E
:1004780004F132044FF000054FF0000150E700BFCF
:1004880090F0000F04BF0021704730B54FF480642E
:1004980004F1320410F0004548BF40424FF000011B
:1004A8003EE700BF42004FEAE2014FEA31014FEA5E
:1004B80002701FBF12F07F4393F07F4F81F06051AD
:1004C800704792F0000F14BF93F07F4F704730B51C
:1004D8004FF4607401F0004521F0004120E700BFAF
:1004E80050EA010208BF704730B54FF000050AE036
:1004F80050EA010208BF704730B511F0004502D537
:10050800404261EB41014FF4806404F132045FEA38
:10051800915C3FF4DCAE4FF003025FEADC0C18BFDD
:1005280003325FEADC0C18BF033202EBDC02C2F1D3
:10053800200300FA03FC20FA02F001FA03FE40EA65
:100548000E0021FA02F11444C1E600BF70B54FF065
:10055800FF0C4CF4E06C1CEA11541DBF1CEA135547
:1005680094EA0C0F95EA0C0F00F0DEF82C4481EAAF
:10057800030621EA4C5123EA4C5350EA013518BFCF
:1005880052EA033541F4801143F4801338D0A0FBBC
:1005980002CE4FF00005E1FB02E506F00042E0FB69
:1005A80003E54FF00006E1FB03569CF0000F18BF6F
:1005B8004EF0010EA4F1FF04B6F5007F64F5407417
:1005C80004D25FEA4E0E6D4146EB060642EAC621AA
:1005D80041EA55514FEAC52040EA5E504FEACE2E17
:1005E800B4F1FD0C88BFBCF5E06F1ED8BEF1004F1A
:1005F80008BF5FEA500E50F1000041EB045170BD96
:1006080006F0004646EA010140EA020081EA0301D9
:10061800B4EB5C04C2BFD4EB0C0541EA045170BDD5
:1006280041F480114FF0000E013C00F3AB8014F14F
:10063800360FDEBF002001F0004170BDC4F1000498
:10064800203C35DA0C341BDC04F11404C4F1200519
:1006580000FA05F320FA04F001FA05F240EA020074
:1006680001F0004221F0004110EBD37021FA04F6AA
:1006780042EB06015EEA430E08BF20EAD37070BD64
:10068800C4F10C04C4F1200500FA04F320FA05F0C3
:1006980001FA04F240EA020001F0004110EBD370C5
:1006A80041F100015EEA430E08BF20EAD37070BD35
:1006B800C4F1200500FA05F24EEA020E20FA04F30E
:1006C80001FA05F243EA020321FA04F001F00041BD
:1006D80021FA04F220EA020000EBD3705EEA430E2E
:1006E80008BF20EAD37070BD94F0000F0FD101F05D
:1006F8000046400041EB010111F4801F08BF013C96
:10070800F7D041EA060195F0000F18BF704703F0D3
:100718000046520043EB030313F4801F08BF013D5A
:10072800F7D043EA0603704794EA0C0F0CEA135516
:1007380018BF95EA0C0F0CD050EA410618BF52EAD0
:100748004306D1D181EA030101F000414FF00000D6
:1007580070BD50EA410606BF1046194652EA4306E4
:1007680019D094EA0C0F02D150EA013613D195EA58
:100778000C0F05D152EA03361CBF104619460AD1A0
:1007880081EA030101F0004141F0FE4141F47001AA
:100798004FF0000070BD41F0FE4141F4780170BD9A
:1007A80070B54FF0FF0C4CF4E06C1CEA11541DBFFF
:1007B8001CEA135594EA0C0F95EA0C0F00F0A7F801
:1007C800A4EB050481EA030E52EA03354FEA01312E
:1007D80000F088804FEA03334FF0805545EA131341
:1007E80043EA12634FEA022245EA111545EA106509
:1007F8004FEA00260EF000419D4208BF964244F1A0
:10080800FD0404F5407402D25B084FEA3202B61ABE
:1008180065EB03055B084FEA32024FF480104FF492
:10082800002CB6EB020E75EB030E22BFB61A754606
:1008380040EA0C005B084FEA3202B6EB020E75EB99
:10084800030E22BFB61A754640EA5C005B084FEA01
:100858003202B6EB020E75EB030E22BFB61A7546CE
:1008680040EA9C005B084FEA3202B6EB020E75EBD9
:10087800030E22BFB61A754640EADC0055EA060E9A
:1008880018D04FEA051545EA16754FEA06164FEADD
:10089800C30343EA52734FEAC2025FEA1C1CC0D189
:1008A80011F4801F0BD141EA00014FF000004FF016
:1008B800004CB6E711F4801F04BF01430020B4F1D7
:1008C800FD0C88BFBCF5E06F3FF6AFAEB5EB030C8F
:1008D80004BFB6EB020C5FEA500C50F1000041EB8C
:1008E800045170BD0EF0004E4EEA113114EB5C0459
:1008F800C2BFD4EB0C0541EA045170BD41F480112C
:100908004FF0000E013C90E645EA060E8DE60CEA33
:10091800135594EA0C0F08BF95EA0C0F3FF43BAF50
:1009280094EA0C0F0AD150EA01347FF434AF95EA07
:100938000C0F7FF425AF104619462CE795EA0C0FEB
:1009480006D152EA03353FF4FDAE1046194622E7B8
:1009580050EA410618BF52EA43067FF4C5AE50EA92
:1009680041047FF40DAF52EA43057FF4EBAE12E782
:100978004FF0FF3C06E000BF4FF0010C02E000BF63
:100988004FF0010C4DF804CD4FEA410C7FEA6C5C46
:100998004FEA430C18BF7FEA6C5C1BD001B050EAE9
:1009A800410C0CBF52EA430C91EA030F02BF90EAD4
:1009B800020F0020704710F1000F91EA030F58BF93
:1009C800994208BF90422CBFD8176FEAE37040F0F5
:1009D800010070474FEA410C7FEA6C5C02D150EA93
:1009E800013C07D14FEA430C7FEA6C5CD6D152EA4E
:1009F800033CD3D05DF8040B704700BF8446104613
:100A080062468C461946634600E000BF01B5FFF711
:100A1800B7FF002848BF10F1000F01BD4DF808EDE1
:100A2800FFF7F4FF0CBF012000205DF808FB00BFB2
:100A38004DF808EDFFF7EAFF34BF012000205DF80C
:100A480008FB00BF4DF808EDFFF7E0FF94BF012059
:100A580000205DF808FB00BF4DF808EDFFF7CEFF5A
:100A680094BF012000205DF808FB00BF4DF808ED99
:100A7800FFF7C4FF34BF012000205DF808FB00BF6A
:100A88004FEA410212F5001215D211D56FF47873AE
:100A9800B3EB625212D94FEAC12343F0004343EA51
:100AA800505311F0004F23FA02F018BF404270472C
:100AB8004FF00000704750EA013005D111F00040B6
:100AC80008BF6FF0004070474FF00000704700BF4C
:100AD8004FEA4102B2F1E04324BFB3F5001CDCF158
:100AE800FE5C0DD901F0004C4FEAC0024CEA507090
:100AF800B2F1004F40EB830008BF20F001007047BF
:100B080011F0804F21D113F13872BCBF01F00040C1
:100B1800704741F480114FEA5252C2F11802C2F1F3
:100B2800200C10FA0CF320FA02F018BF40F0010074
:100B38004FEAC1234FEAD32303FA0CFC40EA0C0026
:100B480023FA02F34FEA4303CCE77FEA625307D163
:100B580050EA01331EBF4FF0FE4040F4400070479A
:100B680001F0004040F0FE4040F40000704700BF34
:100B7800084BDA6C22F00102DA64DA6C42F0010206
:100B8800DA64DA6C22F00202DA64DA6C42F0020209
:100B9800DA64704700100240184A936D43F004036A
:100BA8009365174B1A6822F060021A601A6822F0DF
:100BB80010021A605A6822F070025A605A6842F0AD
:100BC80040025A609A6922F4803222F070029A61D7
:100BD8009A6942F060029A6107229A6240F2E7320B
:100BE800DA624FF4FA725A631A6A42F001021A6220
:100BF8001A6842F001021A60704700BF00100240F4
:100C0800000800400B4A936823F001039360094BE6
:100C18001B6813F0010FFAD1064B9A6822F0804244
:100C28009A609A6842F000429A60024B9B68002BD7
:100C3800FBDB70470000045030B400240DE001EBEA
:100C4800840550F82430A3F5FF437F3B07EE903A24
:100C5800FAEEE87AC5ED007A01349442EFDB30BC55
:100C6800704700BF8B08DFED157A11E090ED007A30
:100C7800D0ED015A90ED026AD0ED036A37EE877A1B
:100C880077EE257A77EE867A77EEA67A013B1030F2
:100C9800002BEBD101F0030305E090ED007A77EE2D
:100CA800877A013B0430002BF7D107EE101AB8EE13
:100CB800477AC7EE877AC2ED007A704700000000D5
:100CC80010B51446012902D10023136010BD8B080A
:100CD8009FED300AF0EE407A21E0D0ED006A77EE21
:100CE800A67A66EEA66A36EE800AD0ED016A77EE3D
:100CF800A67A66EEA66A36EE800A90ED027A77EE5C
:100D0800877A27EE077A37EE000A90ED037A77EEB6
:100D1800877A27EE077A37EE000A013B1030002B5E
:100D2800DBD101F0030309E090ED007A77EE877AD2
:100D380027EE077A30EE070A013B0430002BF3D187
:100D480007EE101AB8EE477AF7EE006A77EE666A91
:100D580080EE260AC7EE877A67EEA77A87EE267AAC
:100D680067EE877A70EE677AF5EEC07AF1EE10FAE0
:100D78000DDBB1EEE70AB4EE400AF1EE10FA03D04B
:100D8800B0EE670A07F062F884ED000A10BD002390
:100D9800236010BD00000000F0B5041DD0ED007AFE
:100DA8004D1EAE08002007462CE0D4ED006A94EDF5
:100DB800017AF4EEE67AF1EE10FA02D5471CF0EE6D
:100DC800667AD4ED026AF4EEC77AF1EE10FA02D52B
:100DD800871CF0EE477A04F1100E94ED037AF4EED6
:100DE800E67AF1EE10FA02D5C71CF0EE667AF4EE58
:100DF800C77AF1EE10FA02D5071DF0EE477A0430F3
:100E0800013E7446002ED0D105F003000CE0251DEC
:100E180094ED007AF4EEC77AF1EE10FA02D50F1AC3
:100E2800F0EE477A01382C460028F0D1C2ED007A5E
:100E38001F60F0BD2DE9F04F9E46099D994204D3ED
:100E4800CB1A05EB830501270DE0CB1803F180438E
:100E5800023B05EB8305034610461A460B467146CE
:100E68009E464FF0FF370EF1FF36CEEB010101F140
:100E7800010C0EF1804A0AF1FF3A02EB8A0AB146E8
:100E880051464FF0010844E04FEA98030446DFED6D
:100E9800D67A22E094ED007AD1ED006A67EE266AF0
:100EA80076EEA77A94ED017AD1ED016A67EE266AAB
:100EB80076EEA77A94ED027AD1ED026A27EE267AC9
:100EC80077EE276A94ED037AD1ED037A27EE277A35
:100ED80077EE267A013B10311034002BDAD108F076
:100EE80003030AE094ED007AD1ED006A27EE267A32
:100EF80077EE877A013B04310434002BF2D1C5ED3B
:100F0800007A05EB8705AAEB880108F1010809F1C9
:100F1800FF39B9F1000FB7D1BEF1030F02D8E0468F
:100F2800014613E14FEA9C0A01464FF00009A1E08F
:100F380091ED006AD1ED014A01F10C0491ED025ADC
:100F48004FEA9E0B1146DFEDA87AF0EE673AB0EE55
:100F5800673AF0EE676A91ED007A94ED004A66EE22
:100F6800075A75EEA65A64EE872A32EE833A65EE82
:100F7800072A72EEA33A24EE077A77EE277AD1EDA4
:100F8800016A94ED016A64EEA64A74EEA55A25EE4C
:100F9800267A37EE033A24EE267A77EE233A66EE7F
:100FA800266A76EEA77A91ED027AD4ED024A25EE0A
:100FB800075A75EE255A64EE076A36EE833A66EEEE
:100FC800076A76EEA33A24EE877A37EE277A01F19C
:100FD8001008D1ED037A04F1100394ED035A64EE7E
:100FE800276A76EEA56A66EE275A35EE833A64EEEE
:100FF800A75A75EEA33A65EE277A77EE877A1C46EC
:101008004146BBF1010BA6D10EF003011DE098ED9E
:10101800007AD3ED005A26EE076A76EE866A24EE49
:10102800876A33EE063A25EE076A73EE863A25EEAE
:10103800877A77EE877A0139B0EE646AF0EE454A2E
:10104800B0EE655A08F1040804330029DFD1C5ED74
:10105800006ABB001D4485ED003A1D44C5ED003A09
:101068001D44C5ED007A1D4409F1040900EB89010E
:101078000AF1FF3ABAF1000F7FF45AAF0CF00308F7
:1010880044E04FEA9E031446DFED577A22E091EDE3
:10109800007AD4ED006A67EE266A76EEA77A91EDBB
:1010A800017AD4ED016A27EE267A77EE277A91ED58
:1010B800027AD4ED026A27EE267A77EE276A91ED56
:1010C800037AD4ED037A67EE277A77EEA67A013BA6
:1010D80010341031002BDAD10EF003030AE091ED41
:1010E800007AD4ED006A27EE267A77EE877A013BFC
:1010F80004340431002BF2D1C5ED007A05EB8705E5
:1011080009F1010900EB890108F1FF38B8F1000F76
:10111800B7D11EE0D1ED007AD4ED006A67EEA67A69
:1011280037EE277A013B0434043103E07346144652
:101138009FED2D7A002BEDD185ED007A05EB870523
:1011480009F1010900EB890108F1FF38B8F1000F36
:10115800ECD100EB8C0C344642E0B00811466346F3
:10116800DFED217A22E093ED007AD1ED006A67EE97
:10117800266A76EEA77A93ED017AD1ED016A67EED9
:10118800266A76EEA77A93ED027AD1ED026A27EE07
:10119800267A77EE276A93ED037AD1ED037A27EE64
:1011A800277A77EE267A0138103110330028DAD101
:1011B80006F003000AE093ED007AD1ED006A27EE0D
:1011C800267A77EE877A0138043104330028F2D181
:1011D800C5ED007A05EB87050CF1040C013E013CD6
:1011E800002CBAD1BDE8F08F000000002DE9F047CF
:1011F80086B002AF0E4690464FEA410ACB0008334C
:10120800ADEB030D02AD89468B000A3323F00703CB
:10121800ADEB030D02AC009502460B46FFF70AFE44
:101228002846514607F10802FFF71CFD00230AE093
:1012380005EB8302D2ED007A97ED027A77EEC77A52
:10124800C2ED007A01335345F2D3284651463A4657
:1012580007F10C03FFF7A0FD00230AE005EB83026A
:10126800D2ED007A97ED007AC7EE877AC2ED007A60
:1012780001335345F2D3002208E0FB68134405EB21
:101288008303196804EB8203196001324A45F4D3D9
:101298002046314607F10802FFF7E4FC20463146B4
:1012A8003A1DFFF70DFD002313E004EB830292EDD6
:1012B800007AD7ED017A77EEA77AD7ED026A77EE52
:1012C800A67AB4EEE77AF1EE10FA01D500211160A2
:1012D80001334B45E9D3012316E004EB830292ED79
:1012E800007A52ED017A77EE677AF5EEC07AF1EE80
:1012F80010FA08DDD2ED017A77EEC77AF5EEC07AFA
:10130800F1EE10FA04D40133721E9A42E5D8012393
:1013180007EE903AF8EE677A9FED047AC7EE277ADF
:10132800C8ED007A1037BD46BDE8F08700401C467E
:1013380000B587B006AB03F8010D009301230193B4
:101348000A22029203487821002203F0F9FC07B030
:101358005DF804FB10250020002306E008B90021F1
:1013680000E0FF21034AD1540133B3F5806FF5D370
:10137800704700BFD400002010B584B000241AE0E4
:10138800A4F15000C0B2FFF7D3FF0020FFF7D0FF51
:101398001020FFF7CDFF0A4B03EBC4130093802303
:1013A800019364230293074878214022012303F024
:1013B800C7FC0134E4B2072CE2D904B010BD00BF69
:1013C800D40000201025002008B5642003F01CFB81
:1013D800AE20FFF7ADFF2020FFF7AAFF1020FFF790
:1013E800A7FFB020FFF7A4FFC820FFF7A1FF002048
:1013F800FFF79EFF1020FFF79BFF4020FFF798FFA5
:101408008120FFF795FFFF20FFF792FFA120FFF74C
:101418008FFFA620FFF78CFFA820FFF789FF3F204A
:10142800FFF786FFA420FFF783FFD320FFF780FF95
:101438000020FFF77DFFD520FFF77AFFF020FFF7A8
:1014480077FFD920FFF774FF2220FFF771FFDA201A
:10145800FFF76EFF1220FFF76BFFDB20FFF768FF37
:101468002020FFF765FF8D20FFF762FF1420FFF7AC
:101478005FFFAF20FFF75CFF0020FFF76DFFFFF76E
:101488007BFF034B00221A805A800120587108BD47
:10149800D404002010F0800F21D13F291FD8104B11
:1014A8001B7913B1B2FA82F25209012A0BD1CB0887
:1014B80000EBC31001F0070101238B40094A115CBE
:1014C8000B4313547047CB0800EBC31001F007011E
:1014D80001238B4003490A5C22EA03030B5470473B
:1014E800D4040020D40000202DE9F04F83B002ACD2
:1014F80004E90600244A12889DF8006032447F2AD5
:101508003CDC214A52889DF801A0D34652443F2A28
:1015180036DC98468146002528E0A9F1200303FB24
:101528000B53019A32F8137000241CE007FA04F3F5
:1015380013F4004F0AD0144B1888598820442944C2
:10154800C0B2C9B24246FFF7A5FF0BE00E4B1888A0
:10155800598820442944C0B2C9B2B8FA88F252095D
:10156800FFF798FF0134A642E0D80135AA45D4D840
:10157800054A13881E441680484602E0002000E011
:10158800002003B0BDE8F08FD404002030B583B04C
:10159800044602A800E906001D460AE0184602AB08
:1015A80013E906002B46FFF79FFF2378984203D1E3
:1015B80001342378002BF1D1184603B030BD00BFA9
:1015C800014B188059807047D404002000B597B0AB
:1015D800002111911291139114911591684644229A
:1015E80004F0C8FB1023009301220692802308937D
:1015F80002230A930B920C9314220D921093072343
:101608000E9305230F93684603F08EFD00B1FEE7A5
:101618000F23119303231293002313931493159309
:1016280011A8042104F052F800B1FEE717B05DF8E4
:1016380004FB00BF704700BF2E4A936C43F00103C0
:1016480093642D4B1A6822F001021A601A6822F47A
:1016580080421A601A6822F440521A601A6842F4EA
:1016680000521A601A6822F440721A601A6842F42A
:1016780080721A601A6822F440621A601A6842F48A
:1016880080621A601A6822F040021A601A6822F012
:1016980080021A601A6842F080021A601A6842F0E2
:1016A80020021A601A6822F010021A605860134A61
:1016B8009A60134A1268DA601A6842F002021A60E5
:1016C8001A6822F004021A601A6842F004021A60CA
:1016D8000C4A002182F80B134FF4006111600A498B
:1016E8000A6822F00F020A601A6842F001021A60C2
:1016F800704700BF0010024008000240400004503C
:101708000C00002000E100E0A800024010B5ADF692
:10171800A87D00230DF6A472136003F055F9FFF7B6
:1017280055FFFFF725FA4FF47A70FFF785FFFFF7AB
:1017380033FAFFF767FA00F09BF800F0DFF802F0E1
:101748008BF8284802F0D0F92748284B19684FF43D
:101758007A7202F0D7FFFFF737FE4FF47A7003F082
:1017680053F90120FFF7F8FDFFF706FE4FF47A70F2
:1017780003F04AF928200146FFF722FF1C4B1D48B9
:1017880093E806000023FFF701FFFFF7F5FD0024AB
:10179800194B1B68002BFBD0144B186801A94FF498
:1017A8007A72FFF749FA01A84FF47A710DF6A4721C
:1017B800FFF71CFDB6EE000A0DF6A473D3ED007A10
:1017C80027EE800A83ED000A00220B4B1A60032CD7
:1017D80002D100F045F90024013400230DF6A4726B
:1017E8001360D5E72C240020602400200C00002082
:1017F80000000020B48D0008DC040020144B1B6896
:1018080013F0020F1DD0124A536843F002035360CD
:10181800104B1A68104B9A4206D1104A0D4B1A60A9
:101828000D4A0F4B1A6005E00B4A0A4B1A600B4A27
:101838000B4B1A60074B1A680A4BDA6001220A4BF5
:101848001A60034A536843F00D035360704700BFA2
:1018580000000240080000208C140020EC04002046
:101868000C00002008000240DC040020FEE700BF56
:1018780008B50A480A4B0360002343600822C26087
:1018880043610361302282618360C36102F096F88C
:1018980018B104484121FFF7E9FF08BD2C240020B6
:1018A80000780040C88D00080268134B9A4221D185
:1018B80030B587B003F5CC339A6D42F080429A6513
:1018C8009B6D03F080430093009B032401940294D2
:1018D800002503954FF0904001A903F0A3FF0823CA
:1018E8000193029403954FF0904001A903F09AFFE9
:1018F80007B030BD704700BF0078004000B58BB01E
:101908002448254B03604FF4003343600023836071
:101918002022C2600361042242618361C361012203
:101928000262436282624FF4E061C1624FF48061F7
:10193800016342634FF480528263C36302F0F0F89C
:1019480018B116484F21FFF791FF0AA9002341F863
:101958000C3D104802F080FF18B110485721FFF7DE
:1019680085FF0F4B019306230293052303937F23DF
:1019780004930423059300230693064801A902F063
:101988000FFC18B105486421FFF770FF0BB05DF834
:1019980004FB00BF6024002000000450D48D000820
:1019A8000001802102682A4B9A424FD130B587B096
:1019B800044603F17043A3F5F833DA6C42F400529D
:1019C800DA64DA6C02F400520092009AD3F88820A4
:1019D80042F04052C3F88820082301930B23029356
:1019E800002503954FF0904001A903F01BFF19480B
:1019F800194B036045608560C560802303614FF41F
:101A0800007343614FF4006383612023C3614FF483
:101A18000053036204F00AF818B110488B21FFF74D
:101A280025FF0C4B23659C620B2000210A4604F01D
:101A3800D3F80B2004F002F9122000210A4604F022
:101A4800CBF8122004F0FAF807B030BD704700BF99
:101A580000000450C824002008000240D48D00086B
:101A680070B52DED028B9EB0B0EE408AAC4A14AB37
:101A780092E8030083E80300002316931793189352
:101A880019931A931B931C931D930AAC84E80300C3
:101A98000C930D930E930F9310931193129313932A
:101AA8004F220092019302930393049305930693A4
:101AB80007930893099310EE100AFEF7F3FC044607
:101AC8000D467FA3D3E90023FEF7C6FF00284BD0BD
:101AD800204629467CA3D3E90023FEF7B3FF00285C
:101AE80042D0904B93E8030014908DF854100AA844
:101AF8008D4922462B4604F0D7FD28200146FFF7E2
:101B08005FFD8A4E14A896E806000023FFF73EFD05
:101B180028200F21FFF754FD0AA896E806000023A5
:101B2800FFF734FD2046294669A3D3E90023FEF7D1
:101B380093FF88B12046294667A3D3E90023FEF71F
:101B480081FF48B14B202821FFF73AFD684696E807
:101B580006000023FFF71AFDFFF70EFC4FF4FA709A
:101B680002F052FF01F05BBE204629465CA3D3E990
:101B78000023FEF771FF00284BD0204629465AA3C0
:101B8800D3E90023FEF75EFF002842D0684B93E8B4
:101B9800030014908DF854100AA8664922462B4673
:101BA80004F082FD28200146FFF70AFD5F4E14A8C5
:101BB80096E806000023FFF7E9FC28200F21FFF72D
:101BC800FFFC0AA896E806000023FFF7DFFC204682
:101BD800294647A3D3E90023FEF73EFF88B12046F4
:101BE800294645A3D3E90023FEF72CFF48B14B2033
:101BF8002821FFF7E5FC684696E806000023FFF772
:101C0800C5FCFFF7B9FB4FF4FA7002F0FDFE01F0D6
:101C180006BE204629463AA3D3E90023FEF71CFF57
:101C2800002800F08B802046294637A3D3E90023FB
:101C3800FEF708FF002800F081803F4B93E803007F
:101C48001490ADF854100AA83A4922462B4604F0DD
:101C58002BFD28200146FFF7B3FC344E14A896E864
:101C680006000023FFF792FC28200F21FFF7A8FCAD
:101C78000AA896E806000023FFF788FC20462946B4
:101C880023A3D3E90023FEF7E7FE88B120462946BF
:101C980021A3D3E90023FEF7D5FE48B14B20282124
:101CA800FFF78EFC684696E806000023FFF76EFCF7
:101CB800FFF762FB4FF4FA7002F0A6FE01F0AFBD29
:101CC8003D0AD7A370FD4D406666666666C64F40FE
:101CD800713D0AD7A3B04E40EC51B81E850B4F405A
:101CE80048E17A14AEC74F4085EB51B81ED5504035
:101CF80052B81E85EB415040C3F5285C8F725040A6
:101D0800F6285C8FC2D5504085EB51B81ED551409E
:101D18009A99999999395140CDCCCCCCCC6C5140F9
:101D280030800008E08D0008E88D000800000020E1
:101D3800F08D0008F88D0008008E0008204629461E
:101D4800CBA3D3E90023FEF787FE00284BD020461B
:101D58002946C9A3D3E90023FEF774FE002842D020
:101D6800BD4B93E8030014908DF854100AA8BB49A2
:101D780022462B4604F098FC28200146FFF720FC59
:101D8800B74E14A896E806000023FFF7FFFB2820AB
:101D98000F21FFF715FC0AA896E806000023FFF7B5
:101DA800F5FB2046294690A3D3E90023FEF754FE0D
:101DB80088B1204629468EA3D3E90023FEF742FEC8
:101DC80048B14B202821FFF7FBFB684696E8060040
:101DD8000023FFF7DBFBFFF7CFFA4FF4FA7002F0AE
:101DE80013FE01F01CBD2046294683A3D3E9002336
:101DF800FEF728FE00284BD02046294680A3D3E9C9
:101E08000023FEF729FE002842D0964B93E80300F2
:101E18001490ADF854100AA8904922462B4604F0B5
:101E280043FC28200146FFF7CBFB8D4E14A896E80B
:101E380006000023FFF7AAFB28200F21FFF7C0FBAD
:101E48000AA896E806000023FFF7A0FB20462946CB
:101E58006DA3D3E90023FEF7FFFD88B1204629468C
:101E68006BA3D3E90023FEF7EDFD48B14B202821F1
:101E7800FFF7A6FB684696E806000023FFF786FBF7
:101E8800FFF77AFA4FF4FA7002F0BEFD01F0C7BC12
:101E98002046294660A3D3E90023FEF7D3FD002896
:101EA8004BD0204629465EA3D3E90023FEF7D4FD94
:101EB800002842D06C4B93E8030014908DF854101E
:101EC8000AA8664922462B4604F0EEFB2820014664
:101ED800FFF776FB624E14A896E806000023FFF78A
:101EE80055FB28200F21FFF76BFB0AA896E8060090
:101EF8000023FFF74BFB204629464BA3D3E90023D9
:101F0800FEF7AAFD88B12046294649A3D3E9002354
:101F1800FEF798FD48B14B202821FFF751FB684692
:101F280096E806000023FFF731FBFFF725FA4FF488
:101F3800FA7002F069FD01F072BC204629463EA302
:101F4800D3E90023FEF77EFD002800F099802046A3
:101F580029463BA3D3E90023FEF77EFD002800F0C5
:101F68008F80424B93E8030014908DF854100AA810
:101F78003A4922462B4604F097FB28200146FFF7F2
:101F88001FFB374E14A896E806000023FFF7FEFA59
:101F980028200F21FFF714FB0AA896E80600002363
:101FA800FFF7F4FA2046294627A3D3E90023FEF7D2
:101FB80053FD88B12046294625A3D3E90023FEF71F
:101FC80041FD48B14B202821FFF7FAFA684696E808
:101FD80006000023FFF7DAFAFFF7CEF94FF4FA709C
:101FE80002F012FD01F01BBC9A9999999939514058
:101FF800CDCCCCCCCC6C5140F6285C8FC22554405B
:1020080014AE47E17AE4524085EB51B81E5553406F
:102018001F85EB51B88E5340DBF97E6ABC345540BE
:10202800A4703D0AD7035440EC51B81E857B544038
:10203800295C8FC2F5B8544048E17A14AE7756400F
:1020480014AE47E17A345540A4703D0AD7B35540E1
:10205800A4703D0AD7F35540088E0008F88D000893
:1020680000000020108E0008188E0008208E00083E
:10207800F6285C8FC2D5514052B81E85EBE152401C
:1020880020462946CCA3D3E90023FEF7DBFC002831
:102098004BD020462946CAA3D3E90023FEF7DCFC2F
:1020A800002842D0BE4B93E803001490ADF85410BA
:1020B8000AA8BC4922462B4604F0F6FA2820014615
:1020C800FFF77EFAB84E14A896E806000023FFF73B
:1020D8005DFA28200F21FFF773FA0AA896E8060090
:1020E8000023FFF753FA2046294691A3D3E900239A
:1020F800FEF7B2FC88B1204629468FA3D3E9002316
:10210800FEF7A0FC48B14B202821FFF759FA684692
:1021180096E806000023FFF739FAFFF72DF94FF488
:10212800FA7002F071FC01F07ABB2046294684A3BC
:10213800D3E90023FEF786FC00284BD02046294629
:1021480081A3D3E90023FEF787FC002842D0974BF0
:1021580093E8030014908DF854100AA89149224678
:102168002B4604F0A1FA28200146FFF729FA8E4EE3
:1021780014A896E806000023FFF708FA28200F2184
:10218800FFF71EFA0AA896E806000023FFF7FEF9F3
:10219800204629466EA3D3E90023FEF75DFC88B1EB
:1021A800204629466CA3D3E90023FEF74BFC48B12F
:1021B8004B202821FFF704FA684696E8060000231A
:1021C800FFF7E4F9FFF7D8F84FF4FA7002F01CFCB7
:1021D80001F025BB2046294661A3D3E90023FEF779
:1021E80031FC00284BD0204629465FA3D3E90023C1
:1021F800FEF732FC002842D06D4B93E803001490A0
:10220800ADF854100AA8674922462B4604F04CFA48
:1022180028200146FFF7D4F9634E14A896E8060073
:102228000023FFF7B3F928200F21FFF7C9F90AA8FF
:1022380096E806000023FFF7A9F9204629464CA393
:10224800D3E90023FEF708FC88B1204629464AA3B3
:10225800D3E90023FEF7F6FB48B14B202821FFF70E
:10226800AFF9684696E806000023FFF78FF9FFF7F5
:1022780083F84FF4FA7002F0C7FB01F0D0BA204699
:1022880029463FA3D3E90023FEF7DCFB002800F032
:102298009B80204629463CA3D3E90023FEF7DCFBBC
:1022A800002800F09180434B93E8030014908DF8C8
:1022B80054100AA83B4922462B4604F0F5F9282079
:1022C8000146FFF77DF9384E14A896E8060000236A
:1022D800FFF75CF928200F21FFF772F90AA896E8A2
:1022E80006000023FFF752F92046294628A3D3E920
:1022F8000023FEF7B1FB88B12046294626A3D3E97F
:102308000023FEF79FFB48B14B202821FFF758F91F
:10231800684696E806000023FFF738F9FFF72CF81F
:102328004FF4FA7002F070FB01F079BAAFF3008055
:102338003D0AD7A370FD564052B81E85EB41574061
:1023480048E17A14AE375940AE47E17A14CE574087
:10235800A4703D0AD75B584014AE47E17AA45840B0
:102368001D5A643BDFB75A40B81E85EB51385940B7
:102378001F85EB51B8CE5940EC51B81E851B5A4009
:10238800AE47E17A144E5C40B81E85EB51B85A400E
:10239800D7A3703D0A575B40295C8FC2F5A85B4004
:1023A800288E0008F88D000800000020308E0008F4
:1023B800388E0008408E00083D0AD7A370CD5740DC
:1023C800B81E85EB5178564020462946CAA3D3E962
:1023D8000023FEF737FB00284BD020462946C8A328
:1023E800D3E90023FEF738FB002842D0BC4B93E822
:1023F80003001490ADF854100AA8BA4922462B4697
:1024080004F052F928200146FFF7DAF8B64E14A86E
:1024180096E806000023FFF7B9F828200F21FFF7F8
:10242800CFF80AA896E806000023FFF7AFF8204681
:10243800294691A3D3E90023FEF70EFB88B1204675
:1024480029468FA3D3E90023FEF7FCFA48B14B20B5
:102458002821FFF7B5F8684696E806000023FFF73D
:1024680095F8FEF789FF4FF4FA7002F0CDFA01F003
:10247800D6B92046294684A3D3E90023FEF7E2FA19
:1024880000284BD02046294681A3D3E90023FEF734
:10249800E3FA002842D0954B93E8030014908DF896
:1024A80054100AA88F4922462B4604F0FDF828202C
:1024B8000146FFF785F88C4E14A896E8060000231D
:1024C800FFF764F828200F21FFF77AF80AA896E8A2
:1024D80006000023FFF75AF8204629466EA3D3E9E1
:1024E8000023FEF7B9FA88B1204629466CA3D3E940
:1024F8000023FEF7A7FA48B14B202821FFF760F820
:10250800684696E806000023FFF740F8FEF734FF18
:102518004FF4FA7002F078FA01F081B920462946A2
:1025280061A3D3E90023FEF78DFA00284BD020469B
:10253800294655A3D3E90023FEF78EFA002842D096
:102548006B4B93E8030014908DF854100AA8654962
:1025580022462B4604F0A8F828200146FFF730F859
:10256800614E14A896E806000023FFF70FF828200C
:102578000F21FFF725F80AA896E806000023FFF7C1
:1025880005F8204629464AA3D3E90023FEF764FA52
:1025980088B12046294648A3D3E90023FEF752FA1A
:1025A80048B14B202821FFF70BF8684696E806004B
:1025B8000023FEF7EBFFFEF7DFFE4FF4FA7002F0A0
:1025C80023FA01F02CB9204629463DA3D3E900237C
:1025D800FEF738FA002800F09780204629463AA3EB
:1025E800D3E90023FEF738FA002800F08D80414B2C
:1025F80093E803001490ADF854100AA8394922460C
:102608002B4604F051F828200146FEF7D9FF364E34
:1026180014A896E806000023FEF7B8FF28200F212B
:10262800FEF7CEFF0AA896E806000023FEF7AEFFE5
:102638002046294626A3D3E90023FEF70DFA88B1E0
:102648002046294624A3D3E90023FEF7FBF948B125
:102658004B202821FEF7B4FF684696E806000023C1
:10266800FEF794FFFEF788FE4FF4FA7002F0CCF9FB
:1026780001F0D5B8AFF300806666666666F65C4022
:102688005C8FC2F5284C5D4085EB51B81EC55F4094
:10269800EC51B81E85FB5D40713D0AD7A3B05E4082
:1026A8005C8FC2F5280C5F4014AE47E17AD46040D5
:1026B8009A999999994160400AD7A3703D726040F0
:1026C800CDCCCCCCCCD46140CDCCCCCCCCD460401F
:1026D800E17A14AE4739614014AE47E17A6C614043
:1026E800488E0008F88D000800000020508E000871
:1026F800588E0008608E0008FA7E6ABC74FB5D4044
:102708009A99999999B95A4020462946CCA3D3E970
:102718000023FEF797F900284BD020462946CAA384
:10272800D3E90023FEF798F9002842D0BE4B93E87E
:10273800030014908DF854100AA8BC4922462B4671
:1027480003F0B2FF28200146FEF73AFFB84E14A85E
:1027580096E806000023FEF719FF28200F21FEF750
:102768002FFF0AA896E806000023FEF70FFF204671
:10277800294691A3D3E90023FEF76EF988B12046D4
:1027880029468FA3D3E90023FEF75CF948B14B2013
:102798002821FEF715FF684696E806000023FEF795
:1027A800F5FEFEF7E9FD4FF4FA7002F02DF901F09D
:1027B80036B82046294684A3D3E90023FEF742F918
:1027C80000284BD02046294681A3D3E90023FEF7F1
:1027D80043F9002842D0974B93E803001490ADF8D2
:1027E80054100AA8914922462B4603F05DFF282081
:1027F8000146FEF7E5FE8E4E14A896E80600002373
:10280800FEF7C4FE28200F21FEF7DAFE0AA896E894
:1028180006000023FEF7BAFE204629466EA3D3E938
:102828000023FEF719F988B1204629466CA3D3E99D
:102838000023FEF707F948B14B202821FEF7C0FE18
:10284800684696E806000023FEF7A0FEFEF794FD12
:102858004FF4FA7002F0D8F800F0E1BF204629469C
:1028680061A3D3E90023FEF7EDF800284BD02046FA
:1028780029465FA3D3E90023FEF7EEF8002842D0EB
:102888006D4B93E8030014908DF854100AA867491B
:1028980022462B4603F008FF28200146FEF790FE4B
:1028A800634E14A896E806000023FEF76FFE282062
:1028B8000F21FEF785FE0AA896E806000023FEF71A
:1028C80065FE204629464CA3D3E90023FEF7C4F849
:1028D80088B1204629464AA3D3E90023FEF7B2F877
:1028E80048B14B202821FEF76BFE684696E80600A3
:1028F8000023FEF74BFEFEF73FFD4FF4FA7002F09F
:1029080083F800F08CBF204629463FA3D3E9002373
:10291800FEF798F8002800F09B80204629463CA343
:10292800D3E90023FEF798F8002800F09180434B84
:1029380093E8030014908DF854100AA83B492246E6
:102948002B4603F0B1FE28200146FEF739FE384E2B
:1029580014A896E806000023FEF718FE28200F2189
:10296800FEF72EFE0AA896E806000023FEF70EFEE4
:102978002046294628A3D3E90023FEF76DF888B13D
:102988002046294626A3D3E90023FEF75BF848B181
:102998004B202821FEF714FE684696E8060000231F
:1029A800FEF7F4FDFEF7E8FC4FF4FA7002F02CF89D
:1029B80000F035BFAFF300808FC2F5285C3F62405E
:1029C800F6285C8FC2756240EC51B81E85036440DE
:1029D80014AE47E17AE4624085EB51B81E55634076
:1029E8001F85EB51B88E634014AE47E17A346540D9
:1029F800A4703D0AD7036440EC51B81E857B64403F
:102A0800B81E85EB51B86440B81E85EB51986640F6
:102A1800CDCCCCCCCC3465407B14AE47E1D26540FC
:102A28005C8FC2F528146640688E0008F88D00088F
:102A380000000020708E0008788E0008808E000844
:102A48005C8FC2F528E46240CDCCCCCCCCD46140BC
:102A580020462946B0A3D3E90023FDF7F3FF002859
:102A68004BD020462946C6A3D3E90023FDF7F4FF3F
:102A7800002842D0BC4B93E803001490ADF85410E2
:102A88000AA8BA4922462B4603F00EFE2820014622
:102A9800FEF796FDB64E14A896E806000023FEF74A
:102AA80075FD28200F21FEF78BFD0AA896E8060081
:102AB8000023FEF76BFD2046294691A3D3E90023A6
:102AC800FDF7CAFF88B1204629468FA3D3E9002322
:102AD800FDF7B8FF48B14B202821FEF771FD684685
:102AE80096E806000023FEF751FDFEF745FC4FF47B
:102AF800FA7001F089FF00F092BE2046294684A3AF
:102B0800D3E90023FDF79EFF00284BD02046294635
:102B180081A3D3E90023FDF79FFF002842D0954BFE
:102B280093E8030014908DF854100AA88F492246A0
:102B38002B4603F0B9FD28200146FEF741FD8C4ED7
:102B480014A896E806000023FEF720FD28200F2190
:102B5800FEF736FD0AA896E806000023FEF716FDE4
:102B6800204629466EA3D3E90023FDF775FF88B1F7
:102B7800204629466CA3D3E90023FDF763FF48B13B
:102B88004B202821FEF71CFD684696E80600002326
:102B9800FEF7FCFCFEF7F0FB4FF4FA7001F034FF8F
:102BA80000F03DBE2046294661A3D3E90023FDF786
:102BB80049FF00284BD0204629465FA3D3E90023CC
:102BC800FDF74AFF002842D06B4B93E803001490AE
:102BD800ADF854100AA8654922462B4603F064FD57
:102BE80028200146FEF7ECFC614E14A896E8060082
:102BF8000023FEF7CBFC28200F21FEF7E1FC0AA8F2
:102C080096E806000023FEF7C1FC204629464CA39F
:102C1800D3E90023FDF720FF88B1204629464AA3BF
:102C2800D3E90023FDF70EFF48B14B202821FEF71A
:102C3800C7FC684696E806000023FEF7A7FCFEF7E7
:102C48009BFB4FF4FA7001F0DFFE00F0E8BD204670
:102C5800294639A3D3E90023FDF7F4FE002800F044
:102C68009380204629463AA3D3E90023FDF7F4FED2
:102C7800002800F08980414B93E8030014908DF8F8
:102C880054100AA8394922462B4603F00DFD282086
:102C98000146FEF795FC364E14A896E80600002378
:102CA800FEF774FC28200F21FEF78AFC0AA896E894
:102CB80006000023FEF76AFC2046294626A3D3E92E
:102CC8000023FDF7C9FE88B12046294624A3D3E98D
:102CD8000023FDF7B7FE48B14B202821FEF770FC12
:102CE800684696E806000023FEF750FCFEF744FB12
:102CF8004FF4FA7001F088FE00F091BDAFF3008048
:102D0800F6285C8FC2FD66400AD7A3703D42674033
:102D1800B81E85EB513869403D0AD7A370CD67408E
:102D2800A4703D0AD75B684014AE47E17AA46840B6
:102D38008FC2F5285CB76A4066666666664E6C4068
:102D48006666666666CE694033333333331B6A4042
:102D580048E17A14AEB76A408FC2F5285C576B40D9
:102D6800713D0AD7A3A86B40888E0008F88D00082B
:102D780000000020908E0008988E0008A08E0008A1
:102D8800B81E85EB5198664020462946CAA3D3E968
:102D98000023FDF757FE00284BD020462946C8A33C
:102DA800D3E90023FDF758FE002842D0BC4B93E836
:102DB80003001490ADF854100AA8BA4922462B46CD
:102DC80003F072FC28200146FEF7FAFBB64E14A861
:102DD80096E806000023FEF7D9FB28200F21FEF70E
:102DE800EFFB0AA896E806000023FEF7CFFB204673
:102DF800294691A3D3E90023FDF72EFE88B120468A
:102E080029468FA3D3E90023FDF71CFE48B14B20C8
:102E18002821FEF7D5FB684696E806000023FEF752
:102E2800B5FBFEF7A9FA4FF4FA7001F0EDFD00F0DA
:102E3800F6BC2046294684A3D3E90023FDF702FE09
:102E480000284BD02046294681A3D3E90023FDF76B
:102E580003FE002842D0954B93E8030014908DF8A8
:102E680054100AA88F4922462B4603F01DFC28203F
:102E78000146FEF7A5FB8C4E14A896E80600002331
:102E8800FEF784FB28200F21FEF79AFB0AA896E894
:102E980006000023FEF77AFB204629466EA3D3E9F5
:102EA8000023FDF7D9FD88B1204629466CA3D3E954
:102EB8000023FDF7C7FD48B14B202821FEF780FB12
:102EC800684696E806000023FEF760FBFEF754FA12
:102ED8004FF4FA7001F098FD00F0A1BC2046294695
:102EE80061A3D3E90023FDF7ADFD00284BD02046B0
:102EF80029465FA3D3E90023FDF7AEFD002842D0A1
:102F08006B4B93E8030014908DF854100AA8654998
:102F180022462B4603F0C8FB28200146FEF750FB4B
:102F2800614E14A896E806000023FEF72FFB282020
:102F38000F21FEF745FB0AA896E806000023FEF7D6
:102F480025FB204629464CA3D3E90023FDF784FD41
:102F580088B1204629464AA3D3E90023FDF772FD2C
:102F680048B14B202821FEF72BFB684696E806005F
:102F78000023FEF70BFBFEF7FFF94FF4FA7001F0A0
:102F880043FD00F04CBC204629463FA3D3E900236B
:102F9800FDF758FD002800F097802046294632A307
:102FA800D3E90023FDF758FD002800F08D80414B40
:102FB80093E803001490ADF854100AA83949224642
:102FC8002B4603F071FB28200146FEF7F9FA364E2E
:102FD80014A896E806000023FEF7D8FA28200F2147
:102FE800FEF7EEFA0AA896E806000023FEF7CEFAE6
:102FF8002046294626A3D3E90023FDF72DFD88B1F5
:103008002046294624A3D3E90023FDF71BFD48B138
:103018004B202821FEF7D4FA684696E806000023DC
:10302800FEF7B4FAFEF7A8F94FF4FA7001F0ECFCD9
:10303800F5E300BFAFF300808FC2F5285CF76C4062
:10304800F6285C8FC24D6D40F6285C8FC2C56F4074
:103058003D0AD7A370FD6D40713D0AD7A3B06E40FD
:10306800A4703D0AD70B6F40713D0AD7A3D47040B6
:10307800AE47E17A14C66F4052B81E85EB417040E6
:103088006666666666727040CDCCCCCCCCD4714096
:103098003D0AD7A37039714014AE47E17A6C71408C
:1030A800A88E0008F88D000800000020B08E0008E7
:1030B800B88E0008C08E000885EB51B81EFD6D4023
:1030C8001F85EB51B84E6C4020462946C6A3D3E96C
:1030D8000023FDF7B7FC00284AD020462946C4A3A0
:1030E800D3E90023FDF7B8FC002841D0B64B93E89C
:1030F800030014908DF854100AA8B44922462B46B0
:1031080003F0D2FA28200146FEF75AFAB04E14A866
:1031180096E806000023FEF739FA28200F21FEF76B
:103128004FFA0AA896E806000023FEF72FFA204671
:1031380029468DA3D3E90023FDF78EFC88B12046EC
:1031480029468BA3D3E90023FDF77CFC48B14B202B
:103158002821FEF735FA684696E806000023FEF7B0
:1031680015FAFEF709F94FF4FA7001F04DFC56E331
:10317800DFED987AB4EEE78AF1EE10FA4AD82046E5
:1031880029467DA3D3E90023FDF766FC002841D03A
:10319800914B93E803001490ADF854100AA88B499A
:1031A80022462B4603F080FA28200146FEF708FA4B
:1031B800874E14A896E806000023FEF7E7F92820B2
:1031C8000F21FEF7FDF90AA896E806000023FEF78E
:1031D800DDF9204629466AA3D3E90023FDF73CFC24
:1031E80088B12046294668A3D3E90023FDF72AFCC5
:1031F80048B14B202821FEF7E3F9684696E8060017
:103208000023FEF7C3F9FEF7B7F84FF4FA7001F0A0
:10321800FBFB04E3204629465DA3D3E90023FDF721
:1032280011FC00284AD0204629465BA3D3E9002395
:10323800FDF712FC002841D0684B93E80300149076
:103248008DF854100AA8614922462B4603F02CFA3F
:1032580028200146FEF7B4F95D4E14A896E806004A
:103268000023FEF793F928200F21FEF7A9F90AA8F1
:1032780096E806000023FEF789F92046294648A368
:10328800D3E90023FDF7E8FB88B12046294646A389
:10329800D3E90023FDF7D6FB48B14B202821FEF7E0
:1032A8008FF9684696E806000023FEF76FF9FEF7E7
:1032B80063F84FF4FA7001F0A7FBB0E22046294604
:1032C8003BA3D3E90023FDF7BDFB002800F0948061
:1032D8002046294638A3D3E90023FDF7BDFB002883
:1032E80000F08A803E4B93E8030014908DF8541048
:1032F8000AA8364922462B4603F0D6F9282001466B
:10330800FEF75EF9324E14A896E806000023FEF791
:103318003DF928200F21FEF753F90AA896E8060080
:103328000023FEF733F92046294625A3D3E90023D5
:10333800FDF792FB80B1DFED2B7AB4EEE78AF1EE70
:1033480010FA09D84B202821FEF73AF9684696E882
:1033580006000023FEF71AF9FEF70EF84FF4FA708C
:1033680001F052FB5BE200BFEC51B81E853F724092
:10337800F6285C8FC2757240B81E85EB5184784080
:103388003D0AD7A3705573407B14AE47E18E734056
:10339800713D0AD7A33475405C8FC2F52804744088
:1033A80048E17A14AE7B7440713D0AD7A3B87440E3
:1033B8008FC2F5285C777640CDCCCCCCCC34754028
:1033C800EC51B81E85B37540C88E0008F88D00080A
:1033D800000000200020A043D08E0008D88E0008EE
:1033E800E08E000800A0AF435C8FC2F528E472406D
:1033F800295C8FC2F5D4714020462946ACA3D3E995
:103408000023FDF71FFB00284AD020462946C4A305
:10341800D3E90023FDF720FB002841D0B84B93E8FF
:1034280003001490ADF854100AA8B64922462B465A
:1034380003F03AF928200146FEF7C2F8B24E14A864
:1034480096E806000023FEF7A1F828200F21FEF7D2
:10345800B7F80AA896E806000023FEF797F8204672
:1034680029468DA3D3E90023FDF7F6FA88B1204653
:1034780029468BA3D3E90023FDF7E4FA48B14B2092
:103488002821FEF79DF8684696E806000023FEF717
:103498007DF8FDF771FF4FF4FA7001F0B5FABEE15F
:1034A8002046294680A3D3E90023FDF7CBFA00285C
:1034B8004AD0204629467EA3D3E90023FDF7CCFA5B
:1034C800002841D0914B93E8030014908DF85410D4
:1034D8000AA88F4922462B4603F0E6F82820014621
:1034E800FEF76EF8884E14A896E806000023FEF74B
:1034F8004DF828200F21FEF763F80AA896E8060081
:103508000023FEF743F8204629466BA3D3E900239E
:10351800FDF7A2FA88B12046294669A3D3E900231A
:10352800FDF790FA48B14B202821FEF749F8684684
:1035380096E806000023FEF729F8FDF71DFF4FF473
:10354800FA7001F061FA6AE1DFED727AB4EEE78AA7
:10355800F1EE10FA4ADB204629465BA3D3E90023A3
:10356800FDF770FA002841D06B4B93E803001490E4
:10357800ADF854100AA8634922462B4603F094F884
:1035880028200146FEF71CF85F4E14A896E80600AE
:103598000023FDF7FBFF28200F21FEF711F80AA8EA
:1035A80096E806000023FDF7F1FF2046294648A3C8
:1035B800D3E90023FDF750FA88B12046294646A3EF
:1035C800D3E90023FDF73EFA48B14B202821FDF747
:1035D800F7FF684696E806000023FDF7D7FFFDF7DA
:1035E800CBFE4FF4FA7001F00FFA18E12046294695
:1035F8003BA3D3E90023FDF725FA002800F09480C7
:103608002046294638A3D3E90023FDF725FA0028E8
:1036180000F08A80414B93E8030014908DF8541011
:103628000AA8384922462B4603F03EF828200146CE
:10363800FDF7C6FF344E14A896E806000023FDF7F0
:10364800A5FF28200F21FDF7BBFF0AA896E8060072
:103658000023FDF79BFF2046294625A3D3E9002335
:10366800FDF7FAF988B12046294623A3D3E90023B8
:10367800FDF7E8F948B14B202821FDF7A1FF68467E
:1036880096E806000023FDF781FFFDF775FE4FF46D
:10369800FA7001F0B9F9C2E0F6285C8FC2FD7640F5
:1036A800AE47E17A14427740A4703D0AD737794093
:1036B800E17A14AE47CD7740A4703D0AD75B7840D5
:1036C800B81E85EB51A47840295C8FC2F5B87A40C2
:1036D800A4703D0AD7CF7940713D0AD7A31C7A4020
:1036E8000AD7A3703D4E7C4085EB51B81EB97A408D
:1036F800EC51B81E85577B40CDCCCCCCCCA87B40B8
:10370800E88E0008F88D000800000020F08E000800
:10371800E88D000800C0C943F88E0008008F000833
:10372800EC51B81E857776402046294646A3D3E952
:103738000023FDF787F900284AD02046294644A3EC
:10374800D3E90023FDF788F9002841D03A4B93E8E4
:1037580003001490ADF854100AA8384922462B46A5
:1037680002F0A2FF28200146FDF72AFF344E14A8D4
:1037780096E806000023FDF709FF28200F21FDF732
:103788001FFF0AA896E806000023FDF7FFFE204663
:10379800294625A3D3E90023FDF75EF988B1204621
:1037A800294623A3D3E90023FDF74CF948B14B2060
:1037B8002821FDF705FF684696E806000023FDF777
:1037C800E5FEFDF7D9FD4FF4FA7001F01DF926E08A
:1037D8001C4B93E8030014908DF854100AA817495D
:1037E80022462B4602F060FF28200146FDF7E8FE3E
:1037F800134C14A894E806000023FDF7C7FE282000
:103808000F21FDF7DDFE0AA894E806000023FDF766
:10381800BDFEFDF7B1FD4FF4FA7001F0F5F81EB0EA
:10382800BDEC028B70BD00BF48E17A14AEF77C4056
:10383800F6285C8FC24D7D40088F0008F88D00087F
:1038480000000020108F000885EB51B81EFD7D4058
:1038580066666666664E7C4008B51448144B03607D
:10386800144B4360782383600123C3600023036102
:1038780043618361C361036201F002FA18B10E4823
:103888004221FDF7F3FF0948002101F02BFB18B195
:1038980009484921FDF7EAFF0448002101F050FBDF
:1038A80018B105485021FDF7E1FF08BD102500209B
:1038B80000540040EC9C9010188F00080268114BCF
:1038C8009A421DD100B587B0C023019312230293F9
:1038D8000123039303230493042305930A480DEB60
:1038E800030101F09FFF094B9A6D42F400129A659B
:1038F8009B6D03F400130093009B07B05DF804FB75
:10390800704700BF00540040000400480010024007
:1039180008B501F06BF802F0B5F908BD08B5024822
:1039280000F05EFA08BD00BF6024002000B583B037
:10393800214B1A6E42F001021A661A6E02F0010259
:103948000092009A9A6D42F080529A659B6D03F03E
:1039580080530193019B032002F02CF96FF00B00B8
:1039680000210A4602F038F96FF00A0000210A46E1
:1039780002F032F96FF0090000210A4602F02CF932
:103988006FF0040000210A4602F026F96FF00300E8
:1039980000210A4602F020F96FF0010000210A46D2
:1039A80002F01AF94FF0FF3000210A4602F014F92C
:1039B80003B05DF804FB00BF00100240002800F0CF
:1039C800888038B5044690F83230DBB2052B00F019
:1039D800828090F83230DBB2022B7ED090F8323001
:1039E80090F8323013F0FF0F02D1002380F8313005
:1039F8002046FDF759FF2268136823F480531360AB
:103A0800E368082B11D12068026822F48E4222F064
:103A18003E02A1680B43A1690B4321690B4361690D
:103A28001943E3690B4313430360E3680C2B0DD17F
:103A38002068026822F4884121F00E01A26813432D
:103A480062691343E2691A430A430260E16879B97B
:103A580025682B6823F48E4222F00E02A0680143E9
:103A68002069014363691943E3690B4313432B60DE
:103A7800E369B3F5804F1BD1A368022B0CD0226AEF
:103A8800636A43EA022321684A6822F4F85222F062
:103A98001F0213434B600BE0A26AE36A43EA022366
:103AA80021688A6822F4F85222F01F0213438B60BF
:103AB8000C490B6823F00042636813430B6094F8C9
:103AC800323013F0FF0F0AD1012384F8323000207E
:103AD80038BD01207047012038BD012038BD0020C5
:103AE80038BD00BF0078004098B190F83230DBB2A2
:103AF800052B10D090F83230DBB2012B0DD10168C4
:103B08000B6843F001030B60042380F83230002077
:103B1800704701207047012070470120704700BF9F
:103B280030B583B000230193002800F03B810446A0
:103B3800836D2BB9FDF736FF0023E36584F8543015
:103B480023689A6812F0005F05D09A6822F0204234
:103B580022F03F029A602268936813F0805F18D1C0
:103B6800936823F0104323F03F0343F0805393609E
:103B78008E4B1B688E4AA2FB0323DB0C03EB8303EB
:103B88005B00019302E0019B013B0193019B002B29
:103B9800F9D123689A6812F0805F09D1A26D42F0CA
:103BA8001002A265E26D42F00102E265012000E028
:103BB8000020A26D12F0100F40F0EE809A6812F00B
:103BC800040F40F0E980A26D22F4817242F00202F3
:103BD800A2659A6802F00302012A05D11A6812F058
:103BE800010F03D1002202E0002200E00122002A96
:103BF80071D170498B421CD16F4B9B6803F0030352
:103C0800012B04D16C4B1B6813F0010F0BD16B4BCC
:103C18009B6803F00303012B08D1684B1B6813F062
:103C2800010F02D102E0012200E0012282F001022C
:103C380049E061498B4220D15E4B9B6803F0030346
:103C4800012B04D15B4B1B6813F0010F0CD15B4BAC
:103C58009B6803F00303012B08D1584B1B6813F032
:103C6800010F05D1134604E0012302E0134600E0EA
:103C7800012313F0010F1FD112E04E4B9B6803F094
:103C88000303012B06D14B4B1B6813F0010F03D123
:103C9800134602E0134600E0012313F0010F0DD193
:103CA800454B9B6803F00303012B0AD1424B1B6869
:103CB80013F0010F04D104E0012202E0012200E028
:103CC800012282F0010232B161683D4A936823F40F
:103CD8007C130B439360E269A36B43EA4232E368C7
:103CE8001A43A3681343626A43EA0243012A03D1D1
:103CF800A26A013A43EA4243E26A22B102F47072CC
:103D0800216B0A4313432168CD682E4A2A40134386
:103D1800CB602268936813F00C0F25D1A169636BFF
:103D28005B0043EA8133D16821F4804121F002012C
:103D38000B43D360E36B012B11D125682B6923F466
:103D4800FF6222F00402216C636C1943A36C1943CF
:103D5800E36C0B43134343F001032B6104E0226837
:103D6800136923F0010313612369012B08D121682A
:103D78000B6B23F00F02236A013B13430B6304E030
:103D88002268136B23F00F031363A36D23F003035F
:103D980043F00103A36506E0A36D43F01003A36598
:103DA800012000E0012003B030BD00BF100000205A
:103DB80083DE1B430000045000010450000204503D
:103DC8000003045007C0F0FF704700BF08B5806AC1
:103DD800FFF7FAFF08BD00BF704700BF704700BF7C
:103DE80070B5044603681D685E6815F0020F10D0B0
:103DF80016F0020F0DD0836D13F0100F03D1836DF1
:103E080043F400638365204600F024FD2368022202
:103E18001A6015F0040F02D016F0040F05D115F042
:103E2800080F62D016F0080F5FD0A36D13F0100FC3
:103E380003D1A36D43F40073A3652368DA6812F411
:103E4800406F4CD1AB4A934215D002F500729342B1
:103E580011D002F58072926812F01F0F0BD0A64A9B
:103E6800926802F01F02052A05D0A34A926802F060
:103E78001F02092A01D1DA680DE09E4A934206D052
:103E880002F50072934204D0A2F5007202E01A46CD
:103E980000E01A46D26812F4005F20D11A6812F0C6
:103EA800080F1CD09A6812F0040F10D15A6822F03B
:103EB8000C025A60A36D23F48073A365A36D13F4F9
:103EC800805F0CD1A36D43F00103A36507E0A36DE8
:103ED80043F01003A365E36D43F00103E365204657
:103EE800FDF7A8FB23680C221A6015F0200F02D0FA
:103EF80016F0200F05D115F0400F6CD016F0400FCA
:103F080069D0A36D13F0100F03D1A36D43F40053D0
:103F1800A3652368774A934215D002F5007293424D
:103F280011D002F58072926812F01F0F0BD0724AFE
:103F3800926802F01F02062A05D06F4A926802F0C2
:103F48001F02072A01D1D9680DE06A4A934206D0B8
:103F580002F50072934204D0A2F5007202E01A46FC
:103F680000E01A46D168DA6C12F0C00F09D011F0DF
:103F7800007F2AD1DA6812F4406F26D111F4005F6D
:103F880023D11A6812F0400F1FD011F4001F1CD162
:103F98009A6812F0080F10D15A6822F060025A602D
:103FA800A36D23F48053A365A36D13F4807F0CD114
:103FB800A36D43F00103A36507E0A36D43F010036D
:103FC800A365E36D43F00103E365204600F03AFC86
:103FD800236860221A6015F0800F0CD016F0800F4D
:103FE80009D0A36D43F48033A3652046FFF7F4FEA0
:103FF800236880221A6015F4807F0DD016F4807F24
:104008000AD0A36D43F40033A365204600F01EFCDC
:1040180023684FF480721A6015F4007F0DD016F4EF
:10402800007F0AD0A36D43F48023A365204600F0E7
:104038000FFC23684FF400721A6015F0100F43D07C
:1040480016F0100F40D0A36B43B32368294A93425C
:1040580003D002F58072934206D1274A926812F083
:104068001F0F03D1002202E0002200E001222AB93A
:10407800DB6813F0010F13D1002316E01E4B9B6879
:1040880003F44043B3F5004F0CD01B4B9B6803F47B
:104098004043B3F5404F07D0002306E0012304E076
:1040A800012302E0012300E0012353B1A36D43F48F
:1040B8008063A365E36D43F00203E3652046FFF7E1
:1040C8008DFE236810221A6015F4806F11D016F443
:1040D800806F0ED0A36D43F48043A365E36D43F076
:1040E8000803E36523684FF480621A60204600F0F5
:1040F800ABFB70BD000004500003045008B5836A90
:104108009A6D12F0500F31D19A6D42F400729A658F
:104118001A68116811F0080F14D0D16811F4406FB3
:1041280020D1D26812F4005F1CD19A6D22F48072FB
:104138009A659A6D12F4805F14D19A6D42F001026B
:104148009A650FE0D26812F0020F0BD19A6D22F433
:1041580080729A659A6D12F4805F03D19A6D42F06D
:1041680001029A651846FDF765FA08BD9A6D12F0C6
:10417800100F03D01846FFF731FE08BD1B6D5B6BAF
:10418800984708BD08B5806A836D43F0400383658E
:10419800C36D43F00403C365FFF720FE08BD00BFED
:1041A800F0B583B00023019390F85430012B00F050
:1041B8003282012380F8543003689B6813F0040F9F
:1041C80040F013824B68052B15D8023B032B10D8FF
:1041D800DFE803F00205080B0C234B600BE0122309
:1041E8004B6008E018234B6005E04FF480734B6088
:1041F80001E006234B6005684A680B68303502F415
:1042080040764FF4407494FAA4F4B4FA84F426FA8D
:1042180004F455F8246002F01F021F27974026EA8D
:104228000706C3F384639340334345F82430026898
:10423800936813F00C0F40F091800B688D6814326E
:1042480003F000764FF0007494FAA4F4B4FA84F4FE
:10425800E64052F8267003F0F8734FF0F87494FAB9
:10426800A4FEBEFA8EFE23FA0EFC4FF0070E0EFADD
:104278000CFE27EA0E0794FAA4F4B4FA84F4E34097
:104288009D403D4342F826504B690468E268C2F3FA
:10429800C102520003FA02F50E69042E0FD00B6812
:1042A800603454F82620B04F174003F0F84245EA2E
:1042B80002033B4343F0004344F826304EE0226EAD
:1042C800C2F384650B68C3F3120616B9C3F384639B
:1042D80003E093FAA3F3B3FA83F3AB4202D122F0DB
:1042E800004222660468626EC2F384650B68C3F3F9
:1042F800120616B9C3F3846303E093FAA3F3B3FA7F
:1043080083F3AB4202D122F0004262660468A26ED7
:10431800C2F384650B68C3F3120616B9C3F384634A
:1043280003E093FAA3F3B3FA83F3AB4202D122F08A
:104338000042A2660468E26EC2F384650B68C3F3A8
:10434800120616B9C3F3846303E093FAA3F3B3FA2E
:1043580083F3AB4202D122F00042E2660468A3680C
:1043680003F00303012B05D1236813F0010F03D1D8
:10437800002302E0002300E00123002B40F0B3807B
:104388000F68CE68D4F8B020C7F3120322EA0305F9
:1043980006F02006754B03FA06F207EA0203C3F398
:1043A80012032B43C4F8B030CA68714B9A4240F0EC
:1043B8009A8004680B68C3F312063EB9C3F384629B
:1043C8000132092A8CBF0022012208E093FAA3F2E5
:1043D800B2FA82F20132092A8CBF0022012262B3AA
:1043E80026B903F0F84505F1806505E093FAA3F5D1
:1043F800B5FA85F50135AD062EB9C3F384670137E3
:104408000122BA4006E093FAA3F7B7FA87F7013713
:104418000122BA40154336B9C3F38462013202EB74
:104428004202130507E093FAA3F2B2FA82F20132CC
:1044380002EB420213052B432FE026B903F0F842A2
:1044480002F1806205E093FAA3F2B2FA82F2013235
:1044580092062EB9C3F3846701370125BD4006E0F3
:1044680093FAA3F7B7FA87F701370125BD4015433B
:1044780046B9C3F3846202EB42021B3A120542F0CA
:10448800007309E093FAA3F2B2FA82F202EB420255
:104498001B3A120542F000732B438D68143403F065
:1044A80000774FF0007292FAA2F2B2FA82F2D74085
:1044B80054F8276003F0F8734FF0F87292FAA2FEEE
:1044C800BEFA8EFE23FA0EFC4FF0070E0EFA0CFE13
:1044D80026EA0E0692FAA2F2B2FA82F2D3409D4080
:1044E800354344F827500B68224A934204D1224AA4
:1044F800926812F4000F0FD0204A934204D11E4A4A
:10450800926812F0807F07D01D4A934273D11A4AED
:10451800926812F4800F70D1164A934238D103681A
:10452800184A934203D002F50072934267D11249A8
:104538008B6803F0E07343F400028B6823F0E073A8
:1045480013438B60104B1B68104AA2FB0323DB0C40
:10455800C3EB0313DB00019302E0019B013B0193D2
:10456800019B002BF9D151E000F0FF03FFFF07008A
:1045780000007F40000052C700030450000084CBB5
:1045880001000080000004501000002083DE1B435F
:10459800224A934215D10368A2F1F742934203D00D
:1045A80002F5007293422CD11D498B6803F0E07329
:1045B80043F080728B6823F0E07313438B60002311
:1045C80024E0184A93421ED10268174B9A421CD124
:1045D80013498B6803F0E07343F480028B6823F07F
:1045E800E07313438B60002310E0836D43F02003D6
:1045F800836501230AE0002308E0002306E0002386
:1046080004E0002302E0002300E00023002280F8F9
:104618005420184600E0022003B0F0BD000084CB0F
:1046280000030450010000800000045030B583B03E
:10463800002301930268936803F00303012B05D15B
:10464800136813F0010F03D1002302E0002300E0F8
:104658000123002B4DD19168274B194209D0836D56
:1046680043F010038365C36D43F00103C365012064
:1046780040E0936823F0004323F03F0343F0010335
:1046880093601E4B1B681E4AA2FB0323DB0C03EB43
:1046980083035B00019302E0019B013B0193019BB3
:1046A800002BF9D1044600F0A9F905461AE09A68EA
:1046B80012F0010F07D19A6822F0004222F03F025F
:1046C80042F001029A6000F099F9401B022809D9CA
:1046D800A36D43F01003A365E36D43F00103E365A5
:1046E800012007E023681A6812F0010FDFD00020CC
:1046F80000E0002003B030BD3F0000801000002023
:1047080083DE1B43F8B50468A56815F0040F40F074
:104718008A8090F85430012B00F08880012380F8BB
:104728005430434B9C4203D003F580739C4212D112
:10473800404B9B6813F01F0F0FD03E4B9B6803F054
:104748001F03052B0BD03B4B9B6803F01F03092B62
:1047580007D1002306E0002304E0002302E0002341
:1047680000E00123002B59D116460D460746FFF7F6
:104778005DFF044600284DD1BB6D23F4706323F020
:10478800010343F48073BB653B68294A934208D010
:1047980002F50072934204D0264B9B6813F01F0F5A
:1047A80003D1BB6D23F48013BB65BB6D13F4805F2D
:1047B80004D0FB6D23F00603FB6501E00023FB65D5
:1047C8003B6D1D4ADA623B6D1C4A1A633B6D1C4AFD
:1047D8005A633B681C221A60002387F854303A68F1
:1047E800536843F0100353603A68D36843F00103F9
:1047F800D3603968386D40312A46334601F096F95E
:104808003A68936823F0004323F03F0343F004031E
:10481800936009E0002387F8543005E0002380F80E
:104828005430012400E002242046F8BD0220F8BDDF
:10483800000004500003045005410008D53D00085D
:104848008D410008704700BF704700BF704700BF28
:10485800704700BF704700BF90F85430012B00F03C
:10486800948070B49BB0012380F854300368494A9F
:10487800934203D102F58072009201E00022009277
:10488800009A42B9836D43F020038365002380F8C2
:10489800543001207BE09B6813F0040F63D19368C8
:1048A80013F0040F5FD10B68002B33D03A4DAB687F
:1048B80023F460444B68466B43EA46332343AB60BA
:1048C8000468A36803F00303012B05D1236813F0E0
:1048D800010F03D1002302E0002300E00123002B95
:1048E80047D1946804F00304012C04D1126812F033
:1048F800010F00D00123002B3DD1274DAB6823F4D5
:10490800716424F00F040B688A6813432343AB6077
:10491800002335E020498B6823F460438B600168ED
:104928008B6803F00303012B05D10B6813F0010F0B
:1049380003D1002302E0002300E00123EBB99168D2
:1049480001F00301012904D1126812F0010F00D00F
:104958000123A3B9104A936823F4716323F00F036A
:10496800936000230CE0836D43F0200383650123EB
:1049780006E0002304E0002302E0002300E0002317
:10498800002280F85420184601E0022070471BB02E
:1049980070BC7047000004500003045010B5044672
:1049A800074B1B680748A0FB0330800901F052F948
:1049B8004FF0FF302146002201F00EF9002010BD13
:1049C80010000020D34D621008B5074A136843F45D
:1049D80080731360032001F0EDF80020FFF7DEFF7D
:1049E800FEF7A4FF002008BD00200240024A136819
:1049F80001331360704700BF5C250020014B186825
:104A0800704700BF5C25002038B50446FFF7F6FF65
:104A18000546B4F1FF3F00D00134FFF7EFFF401B1C
:104A28008442FAD838BD00BF03689A6912F0020FB1
:104A380001D000229A6203689A6912F0010F03D12B
:104A48009A6942F001029A61704700BF70B4039CF2
:104A580005686E68600D00F4806040F07F7040F477
:104A6800583040F47F7040F0030026EA0000C1F39C
:104A7800090141EA024213431C4304436C6070BCC1
:104A8800704700BF70B504460D46164603689B691B
:104A980013F0100F18D1002070BDB5F1FF3F13D0EF
:104AA800FFF7ACFF801BA84200D86DB9636C43F0D8
:104AB80020036364202384F84130002384F84230C3
:104AC80084F84030012070BD23689A6912F0200FE5
:104AD800E3D01022DA6123682025DD612046FFF744
:104AE800A3FF2268536823F0FF7323F48B3323F466
:104AF800FF7323F001035360636C43F004036364A2
:104B080084F84150002384F8423084F84030012072
:104B180070BD00BF70B504460D4616461CE0204621
:104B280029463246FFF7AEFFE8B9B5F1FF3F13D08B
:104B3800FFF764FF801BA84200D86DB9636C43F08F
:104B480020036364202384F84130002384F8423032
:104B580084F84030012070BD23689B6913F0020F70
:104B6800DDD0002070BD012070BD00BFF8B506463D
:104B78000C4617461D4617E0B5F1FF3F14D0FFF766
:104B88003DFF069BC01AA84200D86DB9736C43F06C
:104B980020037364202386F84130002386F84230CE
:104BA80086F840300120F8BD33689B692340A34252
:104BB80014BF00230123BB42DED00020F8BD00BF94
:104BC80070B582B0044615461E46184B0093F2B2E3
:104BD8004FF08073FFF73AFF20460699079AFFF7D0
:104BE80099FFE8B9012E03D12368EDB29D620BE06D
:104BF80023682A0A9A6220460699079AFFF78AFFCD
:104C080080B92368EDB29D62079B009320468021FE
:104C18000022069BFFF7AAFF034620B1012302E00A
:104C2800012300E00123184602B070BD0020008077
:104C380070B505460C46164619E028462146324608
:104C4800FFF720FFD0B9FFF7D9FE801BA04200D89C
:104C58006CB96B6C43F020036B64202385F84130FA
:104C6800002385F8423085F84030012070BD2B685C
:104C78009B6913F0200FE0D0002070BD012070BDAB
:104C880010B5044620B94FF400734364012010BDE9
:104C980090F8413013F0FF0F04D1002380F8403022
:104CA800FEF70CFE242384F841302268136823F0B1
:104CB800010313602268636823F07063136122683C
:104CC800936823F400439360E368012B05D12268BD
:104CD800A36843F40043936004E02268A36843F4A4
:104CE80004439360E368022B03D123684FF4006206
:104CF8005A602268536843F0007343F400435360DA
:104D08002268D36823F40043D36022682169636969
:104D18000B43A16943EA0123D3602268E169236A4E
:104D28000B4313602268136843F0010313600020EB
:104D38006064202384F84130206384F8420010BD69
:104D48002DE9F04782B0BDF82C5090F84140E4B20C
:104D5800202C40F0B7800A9C04B125B94FF40073A9
:104D680043640123B9E090F84040012C00F0AC8086
:104D7800984691460E4604464FF0010A80F840A036
:104D8800FFF73CFE0746009020464FF4004152468C
:104D98001923FFF7EBFE002840F09880212384F8C0
:104DA8004130402384F84230002363640A9A6262E7
:104DB800658563630C9B00930197204631464A46FC
:104DC8004346FFF7FDFE20B1002384F840305346E8
:104DD80083E0638D9BB2FF2B0AD9FF222285002333
:104DE8000093204631464FF08073FFF72FFE0BE00B
:104DF800628D92B222850023009320463146D2B2BA
:104E08004FF00073FFF722FE20460C993A46FFF751
:104E180081FE00285CD12268636A591C61621B7894
:104E28009362638D013B9BB26385238D013B9BB2EB
:104E38002385628D92B222B31BBB00972046802146
:104E480000220C9BFFF792FE002843D1638D9BB292
:104E5800FF2B0AD9FF2222850023009320463146E2
:104E68004FF08073FFF7F2FD0BE0628D92B222855E
:104E78000023009320463146D2B24FF00073FFF76B
:104E8800E5FD638D9BB2002BBED120460C993A46B6
:104E9800FFF7CEFE0346F8B922682021D1612068C9
:104EA800426822F0FF7222F48B3222F4FF7222F061
:104EB8000102426084F84110002284F8422084F8FC
:104EC80040200AE0022308E0022306E0012304E070
:104ED800012302E0012300E00123184602B0BDE8E7
:104EE800F08700BF90F84130DBB2202B24D190F836
:104EF8004030012B22D0012380F84030242380F851
:104F080041300268136823F00103136002681368D4
:104F180023F48053136003681A6811431960026808
:104F2800136843F001031360202380F84130002305
:104F380080F84030184670470220704702207047BA
:104F480090F84130DBB2202B22D190F84030012B71
:104F580020D0012380F84030242380F841300268B3
:104F6800136823F0010313600268136823F4706365
:104F780043EA012111600268136843F001031360DA
:104F8800202380F84130002380F8403018467047CD
:104F9800022070470220704730B583B00546204B89
:104FA8009B6D13F0805F02D000F0FCFD0FE01C4CFD
:104FB800A36D43F08053A365A36D03F08053019361
:104FC800019B00F0EFFDA36D23F08053A365B0F5BE
:104FD800007F05D1802D0AD9A02D0AD902210FE022
:104FE800802D08D809D0702D09D0002108E00021B3
:104FF80006E0012104E0032102E0022100E0012192
:10500800084A136823F007030B431360136803F07F
:1050180007038B4201D0012000E0002003B030BD1F
:1050280000100240002002403B4B9B6813F00C0F1D
:105038000BD0394B9B6803F00C030C2B1ED1364B5D
:10504800DB6803F00303012B18D1334B1B6813F003
:10505800080F05D1304BD3F89430C3F3032303E092
:105068002D4B1B68C3F303132C4A52F823102A4B09
:105078009B6813F00C0F10D0002015E0264B9B689E
:1050880003F00C03042B0AD0234B9B6803F00C039A
:10509800082B07D00020014606E0084604E0204817
:1050A800002101E01F4800211B4A926802F00C020F
:1050B8000C2A30D1184BDA6802F00302DB68C3F31C
:1050C80002130133022A02D0032A0AD013E014483B
:1050D800B0FBF3F0104BDB68C3F3062303FB00F3CC
:1050E80011E01048B0FBF3F30B4AD268C2F3062272
:1050F80002FB03F307E0B1FBF3F3074AD268C2F3FC
:10510800062202FB03F3044AD068C0F34160013071
:105118004000B3FBF0F0704700100240348F0008E5
:105128000024F40000127A00002800F09E8270B576
:1051380082B00446036813F0100F00F09D80A84B5E
:105148009B6813F00C0F5AD1A54B1B6813F0020F84
:1051580003D08369002B00F08A82206AA04B1B6869
:1051680013F0080F04D09E4B1B6803F0F00305E012
:105178009B4BD3F8943003F470631B09984217D9FA
:10518800FFF70AFF002840F07482954B1A6842F036
:1051980008021A601A6822F0F001226A0A431A60AB
:1051A8005A6822F47F42E16942EA01225A6017E014
:1051B8008B4B1A6842F008021A601A6822F0F00154
:1051C800226A0A431A605A6822F47F42E16942EA75
:1051D80001225A60206AFFF7DFFE002840F04B8268
:1051E800FFF722FF7E4B9B68C3F303137D4AD35C12
:1051F800D8407D4B18600020FFF7D0FB3CE0836966
:1052080033B3774A136843F001031360FFF7F6FBE3
:10521800054605E0FFF7F2FB401B022800F22D824D
:105228006F4B1B6813F0020FF4D06D4B1A6842F0F5
:1052380008021A601A6822F0F001226A0A431A600A
:105248005A6822F47F42E16942EA01225A6013E077
:10525800634A136823F001031360FFF7CFFB054689
:1052680005E0FFF7CBFB401B022800F208825C4BED
:105278001B6813F0020FF4D1236813F0010F5ED0FE
:10528800574B9B6803F00C03082B0BD0544B9B68BF
:1052980003F00C030C2B0ED1514BDB6803F0030316
:1052A800032B08D14E4B1B6813F4003F47D06368AB
:1052B800002B44D1E5E16368B3F5803F05D1484A46
:1052C800136843F48033136018E0B3F5A02F0CD1B2
:1052D80003F18043A3F53C331A6842F480221A6034
:1052E8001A6842F480321A6008E03D4B1A6822F4CA
:1052F80080321A601A6822F480221A6063687BB1CF
:10530800FFF77CFB054605E0FFF778FB401B6428A8
:1053180000F2B981324B1B6813F4003FF4D00EE061
:10532800FFF76CFB054605E0FFF768FB401B6428A8
:1053380000F2AB812A4B1B6813F4003FF4D12368B9
:1053480013F0020F5DD0264B9B6803F00C03042B6F
:105358000BD0234B9B6803F00C030C2B17D1204B6D
:10536800DB6803F00303022B11D11D4B1B6813F4F8
:10537800806F03D0E368002B00F08981184A5368D6
:1053880023F0F853216943EA0163536039E0E36885
:10539800E3B1134A136843F480731360FFF72EFBDD
:1053A800054605E0FFF72AFB401B022800F2718141
:1053B8000B4B1B6813F4806FF4D0094A536823F031
:1053C800F853216943EA016353601AE0044A1368F9
:1053D80023F480731360FFF711FB05460CE000BF50
:1053E80000100240248F000810000020FFF706FB81
:1053F800401B022800F24F81B24B1B6813F4806FE8
:10540800F4D1236813F0080F30D06369BBB1AD4AFB
:10541800D2F8943043F00103C2F89430FFF7EEFA63
:10542800054605E0FFF7EAFA401B022800F235813D
:10543800A44BD3F8943013F0020FF3D016E0A14A2E
:10544800D2F8943023F00103C2F89430FFF7D6FA6B
:10545800054605E0FFF7D2FA401B022800F21F813B
:10546800984BD3F8943013F0020FF3D1236813F05C
:10547800040F7FD0934B9B6D13F0805F0BD1914B42
:105488009A6D42F080529A659B6D03F080530193A8
:10549800019B012500E000258B4B1B6813F4807FDE
:1054A80013D1894A136843F480731360FFF7A6FA8F
:1054B800064605E0FFF7A2FA801B022800F2F180F9
:1054C800814B1B6813F4807FF4D0A368012B07D1AC
:1054D8007C4AD2F8903043F00103C2F890301CE0C7
:1054E800052B0DD1774BD3F8902042F00402C3F876
:1054F8009020D3F8902042F00102C3F890200CE0ED
:10550800704BD3F8902022F00102C3F89020D3F812
:10551800902022F00402C3F89020A36893B1FFF70B
:105528006DFA064607E0FFF769FA801B41F28833F7
:10553800984200F2B880634BD3F8903013F0020F12
:10554800F1D011E0FFF75AFA064607E0FFF756FADE
:10555800801B41F28833984200F2A780594BD3F858
:10556800903013F0020FF1D125B1564A936D23F014
:1055780080539365A36A002B00F09980514A926882
:1055880002F00C020C2A00F09480022B43D14D4A01
:10559800136823F080731360FFF730FA054605E0BF
:1055A800FFF72CFA401B022800F28580454B1B6848
:1055B80013F0007FF4D1236B5A1E636B1B0243EA7E
:1055C8000213A26B120943EA4242E36A1343E26BF5
:1055D8005208013A43EA4253226C5208013A43EA1C
:1055E8004263384AD360136843F080731360D3680A
:1055F80043F08073D360FFF701FA044604E0FFF735
:10560800FDF9001B022858D82E4B1B6813F0007FA9
:10561800F5D0002054E02B4B1A6822F080721A60F3
:105628001B6813F0006F09D1264B1B6813F0005F4D
:1056380004D1244AD36823F00303D360214AD368F2
:1056480023F0887323F48033D360FFF7D7F9044637
:1056580004E0FFF7D3F9001B022830D8194B1B6868
:1056680013F0007FF5D100202AE0012070470120C7
:1056780026E0012024E0012022E0032020E003208E
:105688001EE001201CE003201AE0032018E001209E
:1056980016E0032014E0032012E0032010E00320AA
:1056A8000EE003200CE003200AE0032008E00020BD
:1056B80006E0012004E0032002E0032000E00320CC
:1056C80002B070BD0010024000700040002800F0D9
:1056D800918070B504464F4B1B6803F007038B425B
:1056E8000AD24C4A136823F007030B43136013686C
:1056F80003F007038B427FD10D46236813F0010F97
:1057080035D06368032B05D1434A126812F0007F35
:1057180014D173E0022B05D13F4A126812F4003FFE
:105728000CD16DE02BB93C4A126812F0020F05D17A
:1057380068E0394A126812F4806F65D036498A6881
:1057480022F0030213438B60FFF758F9064606E080
:10575800FFF754F9801B41F28833984256D82E4BF4
:105768009B6803F00C036268B3EB820FF0D12368E7
:1057780013F0020F06D028498B6823F0F002A368C3
:1057880013438B60234B1B6803F00703AB420AD912
:10579800204A136823F007032B431360136803F0B0
:1057A8000703AB4234D1236813F0040F06D01A491B
:1057B8008B6823F4E062E36813438B60236813F07B
:1057C800080F07D0144A936823F46053216943EA09
:1057D800C1039360FFF728FC0F4B9B68C3F30313C7
:1057E8000E4AD35CD8400E4B18600020FFF7D6F85D
:1057F800002070BD01207047012070BD012070BDE0
:10580800012070BD012070BD012070BD032070BD56
:10581800012070BD0020024000100240248F0008C3
:10582800100000202DE9F04182B00023D4E00124CB
:105838009C40224000F0CF804D68022D01D0122DEF
:1058480014D14FEAD30808F1080850F8287003F07B
:10585800070E4FEA8E0E0F2505FA0EF527EA050604
:105868000D6905FA0EF5354340F8285006684FEAE9
:10587800430E032505FA0EF5ED4305EA06074E68C3
:1058880006F0030606FA0EF63E4306604E68771EDB
:10589800012F03D9112E01D0122E11D1866805EAE5
:1058A8000607CE6806FA0EF63E438660466826EA84
:1058B80004074E68C6F3001606FA0CF63E43466027
:1058C8004E6806F00307032F08D1C76A27EA0404C5
:1058D800C6F3C00606FA0CF62643C662C4682C4016
:1058E8008D6805FA0EF52543C5604C6814F0805F95
:1058F80071D03E4C256E45F001052566246E04F0F6
:1059080001040194019C9C08A61C394D55F8266099
:1059180003F00307BF000F25BD4026EA0506B0F1D6
:10592800904F24D0334DA8421FD005F58065A8427A
:1059380019D005F58065A84213D005F58065A84201
:105948000DD005F58065A84207D005F58065A84209
:1059580001D106250CE007250AE0052508E0042505
:1059680006E0032504E0022502E0012500E0002509
:10597800BD40354302341E4E46F824501E4C25685F
:10598800D44304EA05064F6817F4803F01D042EA81
:105998000506194D2E606D6804EA05064F6817F470
:1059A800003F01D042EA0506134D6E60AD6804EA77
:1059B80005064F6817F4801F01D042EA05060E4D10
:1059C800AE60ED682C404E6816F4001F01D042EA24
:1059D8000504094AD46001330A689C4632FA03F484
:1059E8007FF425AF02B0BDE8F08100BF001002408F
:1059F80000000140000400480004014070B4066C37
:105A0800446C04F01C050124AC40746004686360B5
:105A18008368102B04D103689A600368D96003E097
:105A2800036899600368DA6070BC7047002867D023
:105A380010B403460168354A91420AD8344A0A44E8
:105A48003449A1FB0212120992004264324A0264EC
:105A580009E0324A0A442F49A1FB021212099200B6
:105A680042642F4A0264022283F825201C682268B7
:105A780022F4FF4222F070029868D9680843196935
:105A880008435969084399690843D9690843196A59
:105A980001430A4322609A68B2F5804F28D0196CF6
:105AA8001D4A914212D11F4908685A6C02F01C0421
:105AB8000F22A24020EA02020A600C685A68586C59
:105AC80000F01C00824022430A6011E01649086871
